{
	"contracts/voting.sol": {
		"Voting": {
			"abi": [
				{
					"inputs": [
						{
							"internalType": "string[]",
							"name": "proposalNames",
							"type": "string[]"
						}
					],
					"stateMutability": "nonpayable",
					"type": "constructor"
				},
				{
					"anonymous": false,
					"inputs": [
						{
							"indexed": false,
							"internalType": "enum Voting.Phase",
							"name": "newPhase",
							"type": "uint8"
						}
					],
					"name": "PhaseChanged",
					"type": "event"
				},
				{
					"anonymous": false,
					"inputs": [
						{
							"indexed": false,
							"internalType": "uint256",
							"name": "index",
							"type": "uint256"
						},
						{
							"indexed": false,
							"internalType": "string",
							"name": "name",
							"type": "string"
						}
					],
					"name": "ProposalAdded",
					"type": "event"
				},
				{
					"anonymous": false,
					"inputs": [
						{
							"indexed": false,
							"internalType": "address",
							"name": "voterAddress",
							"type": "address"
						},
						{
							"indexed": false,
							"internalType": "uint256",
							"name": "proposalId",
							"type": "uint256"
						}
					],
					"name": "Voted",
					"type": "event"
				},
				{
					"anonymous": false,
					"inputs": [
						{
							"indexed": false,
							"internalType": "address",
							"name": "voterAddress",
							"type": "address"
						}
					],
					"name": "VoterAdded",
					"type": "event"
				},
				{
					"inputs": [
						{
							"internalType": "string",
							"name": "proposalName",
							"type": "string"
						}
					],
					"name": "addProposals",
					"outputs": [],
					"stateMutability": "nonpayable",
					"type": "function"
				},
				{
					"inputs": [
						{
							"internalType": "address",
							"name": "voter",
							"type": "address"
						}
					],
					"name": "addVoters",
					"outputs": [],
					"stateMutability": "nonpayable",
					"type": "function"
				},
				{
					"inputs": [],
					"name": "getPhase",
					"outputs": [
						{
							"internalType": "string",
							"name": "",
							"type": "string"
						}
					],
					"stateMutability": "view",
					"type": "function"
				},
				{
					"inputs": [],
					"name": "nextPhase",
					"outputs": [],
					"stateMutability": "nonpayable",
					"type": "function"
				},
				{
					"inputs": [],
					"name": "owner",
					"outputs": [
						{
							"internalType": "address",
							"name": "",
							"type": "address"
						}
					],
					"stateMutability": "view",
					"type": "function"
				},
				{
					"inputs": [],
					"name": "phase",
					"outputs": [
						{
							"internalType": "enum Voting.Phase",
							"name": "",
							"type": "uint8"
						}
					],
					"stateMutability": "view",
					"type": "function"
				},
				{
					"inputs": [],
					"name": "pickWinner",
					"outputs": [
						{
							"internalType": "uint256",
							"name": "winnerIndex",
							"type": "uint256"
						}
					],
					"stateMutability": "view",
					"type": "function"
				},
				{
					"inputs": [
						{
							"internalType": "uint256",
							"name": "",
							"type": "uint256"
						}
					],
					"name": "proposalMembers",
					"outputs": [
						{
							"internalType": "string",
							"name": "title",
							"type": "string"
						},
						{
							"internalType": "uint256",
							"name": "voteCount",
							"type": "uint256"
						}
					],
					"stateMutability": "view",
					"type": "function"
				},
				{
					"inputs": [],
					"name": "showProposals",
					"outputs": [
						{
							"components": [
								{
									"internalType": "string",
									"name": "title",
									"type": "string"
								},
								{
									"internalType": "uint256",
									"name": "voteCount",
									"type": "uint256"
								}
							],
							"internalType": "struct Voting.Proposal[]",
							"name": "",
							"type": "tuple[]"
						}
					],
					"stateMutability": "view",
					"type": "function"
				},
				{
					"inputs": [],
					"name": "totalVoters",
					"outputs": [
						{
							"internalType": "uint256",
							"name": "",
							"type": "uint256"
						}
					],
					"stateMutability": "view",
					"type": "function"
				},
				{
					"inputs": [
						{
							"internalType": "uint256",
							"name": "index",
							"type": "uint256"
						}
					],
					"name": "vote",
					"outputs": [],
					"stateMutability": "nonpayable",
					"type": "function"
				},
				{
					"inputs": [
						{
							"internalType": "address",
							"name": "",
							"type": "address"
						}
					],
					"name": "voterMembers",
					"outputs": [
						{
							"internalType": "bool",
							"name": "voted",
							"type": "bool"
						},
						{
							"internalType": "uint256",
							"name": "vote",
							"type": "uint256"
						}
					],
					"stateMutability": "view",
					"type": "function"
				},
				{
					"inputs": [],
					"name": "winnerName",
					"outputs": [
						{
							"internalType": "string",
							"name": "",
							"type": "string"
						}
					],
					"stateMutability": "view",
					"type": "function"
				}
			],
			"devdoc": {
				"kind": "dev",
				"methods": {},
				"version": 1
			},
			"evm": {
				"assembly": "    /* \"contracts/voting.sol\":61:4074  contract Voting {... */\n  mstore(0x40, 0x80)\n    /* \"contracts/voting.sol\":796:1174  constructor(string[] memory proposalNames) {... */\n  callvalue\n  dup1\n  iszero\n  tag_1\n  jumpi\n  0x00\n  dup1\n  revert\ntag_1:\n  pop\n  mload(0x40)\n  sub(codesize, bytecodeSize)\n  dup1\n  bytecodeSize\n  dup4\n  codecopy\n  dup2\n  dup2\n  add\n  0x40\n  mstore\n  dup2\n  add\n  swap1\n  tag_2\n  swap2\n  swap1\n  tag_3\n  jump\t// in\ntag_2:\n    /* \"contracts/voting.sol\":858:868  msg.sender */\n  caller\n    /* \"contracts/voting.sol\":850:855  owner */\n  0x00\n  dup1\n    /* \"contracts/voting.sol\":850:868  owner = msg.sender */\n  0x0100\n  exp\n  dup2\n  sload\n  dup2\n  0xffffffffffffffffffffffffffffffffffffffff\n  mul\n  not\n  and\n  swap1\n  dup4\n  0xffffffffffffffffffffffffffffffffffffffff\n  and\n  mul\n  or\n  swap1\n  sstore\n  pop\n    /* \"contracts/voting.sol\":887:905  Phase.Registration */\n  0x01\n    /* \"contracts/voting.sol\":879:884  phase */\n  0x04\n  0x00\n    /* \"contracts/voting.sol\":879:905  phase = Phase.Registration */\n  0x0100\n  exp\n  dup2\n  sload\n  dup2\n  0xff\n  mul\n  not\n  and\n  swap1\n  dup4\n  0x03\n  dup2\n  gt\n  iszero\n  tag_6\n  jumpi\n  tag_7\n  tag_8\n  jump\t// in\ntag_7:\ntag_6:\n  mul\n  or\n  swap1\n  sstore\n  pop\n    /* \"contracts/voting.sol\":923:929  uint i */\n  0x00\n    /* \"contracts/voting.sol\":918:1167  for (uint i = 0; i < proposalNames.length; i++) {... */\ntag_9:\n    /* \"contracts/voting.sol\":939:952  proposalNames */\n  dup2\n    /* \"contracts/voting.sol\":939:959  proposalNames.length */\n  mload\n    /* \"contracts/voting.sol\":935:936  i */\n  dup2\n    /* \"contracts/voting.sol\":935:959  i < proposalNames.length */\n  lt\n    /* \"contracts/voting.sol\":918:1167  for (uint i = 0; i < proposalNames.length; i++) {... */\n  iszero\n  tag_10\n  jumpi\n    /* \"contracts/voting.sol\":981:996  proposalMembers */\n  0x01\n    /* \"contracts/voting.sol\":1002:1100  Proposal({... */\n  mload(0x40)\n  dup1\n  0x40\n  add\n  0x40\n  mstore\n  dup1\n    /* \"contracts/voting.sol\":1037:1050  proposalNames */\n  dup5\n    /* \"contracts/voting.sol\":1051:1052  i */\n  dup5\n    /* \"contracts/voting.sol\":1037:1053  proposalNames[i] */\n  dup2\n  mload\n  dup2\n  lt\n  tag_12\n  jumpi\n  tag_13\n  tag_14\n  jump\t// in\ntag_13:\ntag_12:\n  0x20\n  mul\n  0x20\n  add\n  add\n  mload\n    /* \"contracts/voting.sol\":1002:1100  Proposal({... */\n  dup2\n  mstore\n  0x20\n  add\n    /* \"contracts/voting.sol\":1083:1084  0 */\n  0x00\n    /* \"contracts/voting.sol\":1002:1100  Proposal({... */\n  dup2\n  mstore\n  pop\n    /* \"contracts/voting.sol\":981:1101  proposalMembers.push(Proposal({... */\n  swap1\n  dup1\n  0x01\n  dup2\n  sload\n  add\n  dup1\n  dup3\n  sstore\n  dup1\n  swap2\n  pop\n  pop\n  0x01\n  swap1\n  sub\n  swap1\n  0x00\n  mstore\n  keccak256(0x00, 0x20)\n  swap1\n  0x02\n  mul\n  add\n  0x00\n  swap1\n  swap2\n  swap1\n  swap2\n  swap1\n  swap2\n  pop\n  0x00\n  dup3\n  add\n  mload\n  dup2\n  0x00\n  add\n  swap1\n  dup2\n  tag_16\n  swap2\n  swap1\n  tag_17\n  jump\t// in\ntag_16:\n  pop\n  0x20\n  dup3\n  add\n  mload\n  dup2\n  0x01\n  add\n  sstore\n  pop\n  pop\n    /* \"contracts/voting.sol\":1121:1155  ProposalAdded(i, proposalNames[i]) */\n  0xf970aa486598017b8116c2beb18c50d4584ecbc3c688817f59b26796725f31bf\n    /* \"contracts/voting.sol\":1135:1136  i */\n  dup2\n    /* \"contracts/voting.sol\":1138:1151  proposalNames */\n  dup4\n    /* \"contracts/voting.sol\":1152:1153  i */\n  dup4\n    /* \"contracts/voting.sol\":1138:1154  proposalNames[i] */\n  dup2\n  mload\n  dup2\n  lt\n  tag_18\n  jumpi\n  tag_19\n  tag_14\n  jump\t// in\ntag_19:\ntag_18:\n  0x20\n  mul\n  0x20\n  add\n  add\n  mload\n    /* \"contracts/voting.sol\":1121:1155  ProposalAdded(i, proposalNames[i]) */\n  mload(0x40)\n  tag_20\n  swap3\n  swap2\n  swap1\n  tag_21\n  jump\t// in\ntag_20:\n  mload(0x40)\n  dup1\n  swap2\n  sub\n  swap1\n  log1\n    /* \"contracts/voting.sol\":961:964  i++ */\n  dup1\n  dup1\n  tag_22\n  swap1\n  tag_23\n  jump\t// in\ntag_22:\n  swap2\n  pop\n  pop\n    /* \"contracts/voting.sol\":918:1167  for (uint i = 0; i < proposalNames.length; i++) {... */\n  jump(tag_9)\ntag_10:\n  pop\n    /* \"contracts/voting.sol\":796:1174  constructor(string[] memory proposalNames) {... */\n  pop\n    /* \"contracts/voting.sol\":61:4074  contract Voting {... */\n  jump(tag_24)\n    /* \"#utility.yul\":7:82   */\ntag_25:\n    /* \"#utility.yul\":40:46   */\n  0x00\n    /* \"#utility.yul\":73:75   */\n  0x40\n    /* \"#utility.yul\":67:76   */\n  mload\n    /* \"#utility.yul\":57:76   */\n  swap1\n  pop\n    /* \"#utility.yul\":7:82   */\n  swap1\n  jump\t// out\n    /* \"#utility.yul\":88:205   */\ntag_26:\n    /* \"#utility.yul\":197:198   */\n  0x00\n    /* \"#utility.yul\":194:195   */\n  dup1\n    /* \"#utility.yul\":187:199   */\n  revert\n    /* \"#utility.yul\":211:328   */\ntag_27:\n    /* \"#utility.yul\":320:321   */\n  0x00\n    /* \"#utility.yul\":317:318   */\n  dup1\n    /* \"#utility.yul\":310:322   */\n  revert\n    /* \"#utility.yul\":334:451   */\ntag_28:\n    /* \"#utility.yul\":443:444   */\n  0x00\n    /* \"#utility.yul\":440:441   */\n  dup1\n    /* \"#utility.yul\":433:445   */\n  revert\n    /* \"#utility.yul\":457:559   */\ntag_29:\n    /* \"#utility.yul\":498:504   */\n  0x00\n    /* \"#utility.yul\":549:551   */\n  0x1f\n    /* \"#utility.yul\":545:552   */\n  not\n    /* \"#utility.yul\":540:542   */\n  0x1f\n    /* \"#utility.yul\":533:538   */\n  dup4\n    /* \"#utility.yul\":529:543   */\n  add\n    /* \"#utility.yul\":525:553   */\n  and\n    /* \"#utility.yul\":515:553   */\n  swap1\n  pop\n    /* \"#utility.yul\":457:559   */\n  swap2\n  swap1\n  pop\n  jump\t// out\n    /* \"#utility.yul\":565:745   */\ntag_30:\n    /* \"#utility.yul\":613:690   */\n  0x4e487b7100000000000000000000000000000000000000000000000000000000\n    /* \"#utility.yul\":610:611   */\n  0x00\n    /* \"#utility.yul\":603:691   */\n  mstore\n    /* \"#utility.yul\":710:714   */\n  0x41\n    /* \"#utility.yul\":707:708   */\n  0x04\n    /* \"#utility.yul\":700:715   */\n  mstore\n    /* \"#utility.yul\":734:738   */\n  0x24\n    /* \"#utility.yul\":731:732   */\n  0x00\n    /* \"#utility.yul\":724:739   */\n  revert\n    /* \"#utility.yul\":751:1032   */\ntag_31:\n    /* \"#utility.yul\":834:861   */\n  tag_73\n    /* \"#utility.yul\":856:860   */\n  dup3\n    /* \"#utility.yul\":834:861   */\n  tag_29\n  jump\t// in\ntag_73:\n    /* \"#utility.yul\":826:832   */\n  dup2\n    /* \"#utility.yul\":822:862   */\n  add\n    /* \"#utility.yul\":964:970   */\n  dup2\n    /* \"#utility.yul\":952:962   */\n  dup2\n    /* \"#utility.yul\":949:971   */\n  lt\n    /* \"#utility.yul\":928:946   */\n  0xffffffffffffffff\n    /* \"#utility.yul\":916:926   */\n  dup3\n    /* \"#utility.yul\":913:947   */\n  gt\n    /* \"#utility.yul\":910:972   */\n  or\n    /* \"#utility.yul\":907:995   */\n  iszero\n  tag_74\n  jumpi\n    /* \"#utility.yul\":975:993   */\n  tag_75\n  tag_30\n  jump\t// in\ntag_75:\n    /* \"#utility.yul\":907:995   */\ntag_74:\n    /* \"#utility.yul\":1015:1025   */\n  dup1\n    /* \"#utility.yul\":1011:1013   */\n  0x40\n    /* \"#utility.yul\":1004:1026   */\n  mstore\n    /* \"#utility.yul\":794:1032   */\n  pop\n    /* \"#utility.yul\":751:1032   */\n  pop\n  pop\n  jump\t// out\n    /* \"#utility.yul\":1038:1167   */\ntag_32:\n    /* \"#utility.yul\":1072:1078   */\n  0x00\n    /* \"#utility.yul\":1099:1119   */\n  tag_77\n  tag_25\n  jump\t// in\ntag_77:\n    /* \"#utility.yul\":1089:1119   */\n  swap1\n  pop\n    /* \"#utility.yul\":1128:1161   */\n  tag_78\n    /* \"#utility.yul\":1156:1160   */\n  dup3\n    /* \"#utility.yul\":1148:1154   */\n  dup3\n    /* \"#utility.yul\":1128:1161   */\n  tag_31\n  jump\t// in\ntag_78:\n    /* \"#utility.yul\":1038:1167   */\n  swap2\n  swap1\n  pop\n  jump\t// out\n    /* \"#utility.yul\":1173:1494   */\ntag_33:\n    /* \"#utility.yul\":1260:1264   */\n  0x00\n    /* \"#utility.yul\":1350:1368   */\n  0xffffffffffffffff\n    /* \"#utility.yul\":1342:1348   */\n  dup3\n    /* \"#utility.yul\":1339:1369   */\n  gt\n    /* \"#utility.yul\":1336:1392   */\n  iszero\n  tag_80\n  jumpi\n    /* \"#utility.yul\":1372:1390   */\n  tag_81\n  tag_30\n  jump\t// in\ntag_81:\n    /* \"#utility.yul\":1336:1392   */\ntag_80:\n    /* \"#utility.yul\":1422:1426   */\n  0x20\n    /* \"#utility.yul\":1414:1420   */\n  dup3\n    /* \"#utility.yul\":1410:1427   */\n  mul\n    /* \"#utility.yul\":1402:1427   */\n  swap1\n  pop\n    /* \"#utility.yul\":1482:1486   */\n  0x20\n    /* \"#utility.yul\":1476:1480   */\n  dup2\n    /* \"#utility.yul\":1472:1487   */\n  add\n    /* \"#utility.yul\":1464:1487   */\n  swap1\n  pop\n    /* \"#utility.yul\":1173:1494   */\n  swap2\n  swap1\n  pop\n  jump\t// out\n    /* \"#utility.yul\":1500:1617   */\ntag_34:\n    /* \"#utility.yul\":1609:1610   */\n  0x00\n    /* \"#utility.yul\":1606:1607   */\n  dup1\n    /* \"#utility.yul\":1599:1611   */\n  revert\n    /* \"#utility.yul\":1623:1740   */\ntag_35:\n    /* \"#utility.yul\":1732:1733   */\n  0x00\n    /* \"#utility.yul\":1729:1730   */\n  dup1\n    /* \"#utility.yul\":1722:1734   */\n  revert\n    /* \"#utility.yul\":1746:2054   */\ntag_36:\n    /* \"#utility.yul\":1808:1812   */\n  0x00\n    /* \"#utility.yul\":1898:1916   */\n  0xffffffffffffffff\n    /* \"#utility.yul\":1890:1896   */\n  dup3\n    /* \"#utility.yul\":1887:1917   */\n  gt\n    /* \"#utility.yul\":1884:1940   */\n  iszero\n  tag_85\n  jumpi\n    /* \"#utility.yul\":1920:1938   */\n  tag_86\n  tag_30\n  jump\t// in\ntag_86:\n    /* \"#utility.yul\":1884:1940   */\ntag_85:\n    /* \"#utility.yul\":1958:1987   */\n  tag_87\n    /* \"#utility.yul\":1980:1986   */\n  dup3\n    /* \"#utility.yul\":1958:1987   */\n  tag_29\n  jump\t// in\ntag_87:\n    /* \"#utility.yul\":1950:1987   */\n  swap1\n  pop\n    /* \"#utility.yul\":2042:2046   */\n  0x20\n    /* \"#utility.yul\":2036:2040   */\n  dup2\n    /* \"#utility.yul\":2032:2047   */\n  add\n    /* \"#utility.yul\":2024:2047   */\n  swap1\n  pop\n    /* \"#utility.yul\":1746:2054   */\n  swap2\n  swap1\n  pop\n  jump\t// out\n    /* \"#utility.yul\":2060:2306   */\ntag_37:\n    /* \"#utility.yul\":2141:2142   */\n  0x00\n    /* \"#utility.yul\":2151:2264   */\ntag_89:\n    /* \"#utility.yul\":2165:2171   */\n  dup4\n    /* \"#utility.yul\":2162:2163   */\n  dup2\n    /* \"#utility.yul\":2159:2172   */\n  lt\n    /* \"#utility.yul\":2151:2264   */\n  iszero\n  tag_91\n  jumpi\n    /* \"#utility.yul\":2250:2251   */\n  dup1\n    /* \"#utility.yul\":2245:2248   */\n  dup3\n    /* \"#utility.yul\":2241:2252   */\n  add\n    /* \"#utility.yul\":2235:2253   */\n  mload\n    /* \"#utility.yul\":2231:2232   */\n  dup2\n    /* \"#utility.yul\":2226:2229   */\n  dup5\n    /* \"#utility.yul\":2222:2233   */\n  add\n    /* \"#utility.yul\":2215:2254   */\n  mstore\n    /* \"#utility.yul\":2187:2189   */\n  0x20\n    /* \"#utility.yul\":2184:2185   */\n  dup2\n    /* \"#utility.yul\":2180:2190   */\n  add\n    /* \"#utility.yul\":2175:2190   */\n  swap1\n  pop\n    /* \"#utility.yul\":2151:2264   */\n  jump(tag_89)\ntag_91:\n    /* \"#utility.yul\":2298:2299   */\n  0x00\n    /* \"#utility.yul\":2289:2295   */\n  dup5\n    /* \"#utility.yul\":2284:2287   */\n  dup5\n    /* \"#utility.yul\":2280:2296   */\n  add\n    /* \"#utility.yul\":2273:2300   */\n  mstore\n    /* \"#utility.yul\":2122:2306   */\n  pop\n    /* \"#utility.yul\":2060:2306   */\n  pop\n  pop\n  pop\n  jump\t// out\n    /* \"#utility.yul\":2312:2746   */\ntag_38:\n    /* \"#utility.yul\":2401:2406   */\n  0x00\n    /* \"#utility.yul\":2426:2492   */\n  tag_93\n    /* \"#utility.yul\":2442:2491   */\n  tag_94\n    /* \"#utility.yul\":2484:2490   */\n  dup5\n    /* \"#utility.yul\":2442:2491   */\n  tag_36\n  jump\t// in\ntag_94:\n    /* \"#utility.yul\":2426:2492   */\n  tag_32\n  jump\t// in\ntag_93:\n    /* \"#utility.yul\":2417:2492   */\n  swap1\n  pop\n    /* \"#utility.yul\":2515:2521   */\n  dup3\n    /* \"#utility.yul\":2508:2513   */\n  dup2\n    /* \"#utility.yul\":2501:2522   */\n  mstore\n    /* \"#utility.yul\":2553:2557   */\n  0x20\n    /* \"#utility.yul\":2546:2551   */\n  dup2\n    /* \"#utility.yul\":2542:2558   */\n  add\n    /* \"#utility.yul\":2591:2594   */\n  dup5\n    /* \"#utility.yul\":2582:2588   */\n  dup5\n    /* \"#utility.yul\":2577:2580   */\n  dup5\n    /* \"#utility.yul\":2573:2589   */\n  add\n    /* \"#utility.yul\":2570:2595   */\n  gt\n    /* \"#utility.yul\":2567:2679   */\n  iszero\n  tag_95\n  jumpi\n    /* \"#utility.yul\":2598:2677   */\n  tag_96\n  tag_35\n  jump\t// in\ntag_96:\n    /* \"#utility.yul\":2567:2679   */\ntag_95:\n    /* \"#utility.yul\":2688:2740   */\n  tag_97\n    /* \"#utility.yul\":2733:2739   */\n  dup5\n    /* \"#utility.yul\":2728:2731   */\n  dup3\n    /* \"#utility.yul\":2723:2726   */\n  dup6\n    /* \"#utility.yul\":2688:2740   */\n  tag_37\n  jump\t// in\ntag_97:\n    /* \"#utility.yul\":2407:2746   */\n  pop\n    /* \"#utility.yul\":2312:2746   */\n  swap4\n  swap3\n  pop\n  pop\n  pop\n  jump\t// out\n    /* \"#utility.yul\":2766:3121   */\ntag_39:\n    /* \"#utility.yul\":2833:2838   */\n  0x00\n    /* \"#utility.yul\":2882:2885   */\n  dup3\n    /* \"#utility.yul\":2875:2879   */\n  0x1f\n    /* \"#utility.yul\":2867:2873   */\n  dup4\n    /* \"#utility.yul\":2863:2880   */\n  add\n    /* \"#utility.yul\":2859:2886   */\n  slt\n    /* \"#utility.yul\":2849:2971   */\n  tag_99\n  jumpi\n    /* \"#utility.yul\":2890:2969   */\n  tag_100\n  tag_28\n  jump\t// in\ntag_100:\n    /* \"#utility.yul\":2849:2971   */\ntag_99:\n    /* \"#utility.yul\":3000:3006   */\n  dup2\n    /* \"#utility.yul\":2994:3007   */\n  mload\n    /* \"#utility.yul\":3025:3115   */\n  tag_101\n    /* \"#utility.yul\":3111:3114   */\n  dup5\n    /* \"#utility.yul\":3103:3109   */\n  dup3\n    /* \"#utility.yul\":3096:3100   */\n  0x20\n    /* \"#utility.yul\":3088:3094   */\n  dup7\n    /* \"#utility.yul\":3084:3101   */\n  add\n    /* \"#utility.yul\":3025:3115   */\n  tag_38\n  jump\t// in\ntag_101:\n    /* \"#utility.yul\":3016:3115   */\n  swap2\n  pop\n    /* \"#utility.yul\":2839:3121   */\n  pop\n    /* \"#utility.yul\":2766:3121   */\n  swap3\n  swap2\n  pop\n  pop\n  jump\t// out\n    /* \"#utility.yul\":3143:4103   */\ntag_40:\n    /* \"#utility.yul\":3260:3265   */\n  0x00\n    /* \"#utility.yul\":3285:3376   */\n  tag_103\n    /* \"#utility.yul\":3301:3375   */\n  tag_104\n    /* \"#utility.yul\":3368:3374   */\n  dup5\n    /* \"#utility.yul\":3301:3375   */\n  tag_33\n  jump\t// in\ntag_104:\n    /* \"#utility.yul\":3285:3376   */\n  tag_32\n  jump\t// in\ntag_103:\n    /* \"#utility.yul\":3276:3376   */\n  swap1\n  pop\n    /* \"#utility.yul\":3396:3401   */\n  dup1\n    /* \"#utility.yul\":3425:3431   */\n  dup4\n    /* \"#utility.yul\":3418:3423   */\n  dup3\n    /* \"#utility.yul\":3411:3432   */\n  mstore\n    /* \"#utility.yul\":3459:3463   */\n  0x20\n    /* \"#utility.yul\":3452:3457   */\n  dup3\n    /* \"#utility.yul\":3448:3464   */\n  add\n    /* \"#utility.yul\":3441:3464   */\n  swap1\n  pop\n    /* \"#utility.yul\":3512:3516   */\n  0x20\n    /* \"#utility.yul\":3504:3510   */\n  dup5\n    /* \"#utility.yul\":3500:3517   */\n  mul\n    /* \"#utility.yul\":3492:3498   */\n  dup4\n    /* \"#utility.yul\":3488:3518   */\n  add\n    /* \"#utility.yul\":3541:3544   */\n  dup6\n    /* \"#utility.yul\":3533:3539   */\n  dup2\n    /* \"#utility.yul\":3530:3545   */\n  gt\n    /* \"#utility.yul\":3527:3649   */\n  iszero\n  tag_105\n  jumpi\n    /* \"#utility.yul\":3560:3639   */\n  tag_106\n  tag_34\n  jump\t// in\ntag_106:\n    /* \"#utility.yul\":3527:3649   */\ntag_105:\n    /* \"#utility.yul\":3675:3681   */\n  dup4\n    /* \"#utility.yul\":3658:4097   */\ntag_107:\n    /* \"#utility.yul\":3692:3698   */\n  dup2\n    /* \"#utility.yul\":3687:3690   */\n  dup2\n    /* \"#utility.yul\":3684:3699   */\n  lt\n    /* \"#utility.yul\":3658:4097   */\n  iszero\n  tag_109\n  jumpi\n    /* \"#utility.yul\":3774:3777   */\n  dup1\n    /* \"#utility.yul\":3768:3778   */\n  mload\n    /* \"#utility.yul\":3810:3828   */\n  0xffffffffffffffff\n    /* \"#utility.yul\":3797:3808   */\n  dup2\n    /* \"#utility.yul\":3794:3829   */\n  gt\n    /* \"#utility.yul\":3791:3913   */\n  iszero\n  tag_110\n  jumpi\n    /* \"#utility.yul\":3832:3911   */\n  tag_111\n  tag_28\n  jump\t// in\ntag_111:\n    /* \"#utility.yul\":3791:3913   */\ntag_110:\n    /* \"#utility.yul\":3956:3967   */\n  dup1\n    /* \"#utility.yul\":3948:3954   */\n  dup7\n    /* \"#utility.yul\":3944:3968   */\n  add\n    /* \"#utility.yul\":3994:4052   */\n  tag_112\n    /* \"#utility.yul\":4048:4051   */\n  dup10\n    /* \"#utility.yul\":4036:4046   */\n  dup3\n    /* \"#utility.yul\":3994:4052   */\n  tag_39\n  jump\t// in\ntag_112:\n    /* \"#utility.yul\":3989:3992   */\n  dup6\n    /* \"#utility.yul\":3982:4053   */\n  mstore\n    /* \"#utility.yul\":4082:4086   */\n  0x20\n    /* \"#utility.yul\":4077:4080   */\n  dup6\n    /* \"#utility.yul\":4073:4087   */\n  add\n    /* \"#utility.yul\":4066:4087   */\n  swap5\n  pop\n    /* \"#utility.yul\":3734:4097   */\n  pop\n  pop\n    /* \"#utility.yul\":3718:3722   */\n  0x20\n    /* \"#utility.yul\":3713:3716   */\n  dup2\n    /* \"#utility.yul\":3709:3723   */\n  add\n    /* \"#utility.yul\":3702:3723   */\n  swap1\n  pop\n    /* \"#utility.yul\":3658:4097   */\n  jump(tag_107)\ntag_109:\n    /* \"#utility.yul\":3662:3683   */\n  pop\n    /* \"#utility.yul\":3266:4103   */\n  pop\n  pop\n    /* \"#utility.yul\":3143:4103   */\n  swap4\n  swap3\n  pop\n  pop\n  pop\n  jump\t// out\n    /* \"#utility.yul\":4125:4530   */\ntag_41:\n    /* \"#utility.yul\":4217:4222   */\n  0x00\n    /* \"#utility.yul\":4266:4269   */\n  dup3\n    /* \"#utility.yul\":4259:4263   */\n  0x1f\n    /* \"#utility.yul\":4251:4257   */\n  dup4\n    /* \"#utility.yul\":4247:4264   */\n  add\n    /* \"#utility.yul\":4243:4270   */\n  slt\n    /* \"#utility.yul\":4233:4355   */\n  tag_114\n  jumpi\n    /* \"#utility.yul\":4274:4353   */\n  tag_115\n  tag_28\n  jump\t// in\ntag_115:\n    /* \"#utility.yul\":4233:4355   */\ntag_114:\n    /* \"#utility.yul\":4384:4390   */\n  dup2\n    /* \"#utility.yul\":4378:4391   */\n  mload\n    /* \"#utility.yul\":4409:4524   */\n  tag_116\n    /* \"#utility.yul\":4520:4523   */\n  dup5\n    /* \"#utility.yul\":4512:4518   */\n  dup3\n    /* \"#utility.yul\":4505:4509   */\n  0x20\n    /* \"#utility.yul\":4497:4503   */\n  dup7\n    /* \"#utility.yul\":4493:4510   */\n  add\n    /* \"#utility.yul\":4409:4524   */\n  tag_40\n  jump\t// in\ntag_116:\n    /* \"#utility.yul\":4400:4524   */\n  swap2\n  pop\n    /* \"#utility.yul\":4223:4530   */\n  pop\n    /* \"#utility.yul\":4125:4530   */\n  swap3\n  swap2\n  pop\n  pop\n  jump\t// out\n    /* \"#utility.yul\":4536:5110   */\ntag_3:\n    /* \"#utility.yul\":4641:4647   */\n  0x00\n    /* \"#utility.yul\":4690:4692   */\n  0x20\n    /* \"#utility.yul\":4678:4687   */\n  dup3\n    /* \"#utility.yul\":4669:4676   */\n  dup5\n    /* \"#utility.yul\":4665:4688   */\n  sub\n    /* \"#utility.yul\":4661:4693   */\n  slt\n    /* \"#utility.yul\":4658:4777   */\n  iszero\n  tag_118\n  jumpi\n    /* \"#utility.yul\":4696:4775   */\n  tag_119\n  tag_26\n  jump\t// in\ntag_119:\n    /* \"#utility.yul\":4658:4777   */\ntag_118:\n    /* \"#utility.yul\":4837:4838   */\n  0x00\n    /* \"#utility.yul\":4826:4835   */\n  dup3\n    /* \"#utility.yul\":4822:4839   */\n  add\n    /* \"#utility.yul\":4816:4840   */\n  mload\n    /* \"#utility.yul\":4867:4885   */\n  0xffffffffffffffff\n    /* \"#utility.yul\":4859:4865   */\n  dup2\n    /* \"#utility.yul\":4856:4886   */\n  gt\n    /* \"#utility.yul\":4853:4970   */\n  iszero\n  tag_120\n  jumpi\n    /* \"#utility.yul\":4889:4968   */\n  tag_121\n  tag_27\n  jump\t// in\ntag_121:\n    /* \"#utility.yul\":4853:4970   */\ntag_120:\n    /* \"#utility.yul\":4994:5093   */\n  tag_122\n    /* \"#utility.yul\":5085:5092   */\n  dup5\n    /* \"#utility.yul\":5076:5082   */\n  dup3\n    /* \"#utility.yul\":5065:5074   */\n  dup6\n    /* \"#utility.yul\":5061:5083   */\n  add\n    /* \"#utility.yul\":4994:5093   */\n  tag_41\n  jump\t// in\ntag_122:\n    /* \"#utility.yul\":4984:5093   */\n  swap2\n  pop\n    /* \"#utility.yul\":4787:5103   */\n  pop\n    /* \"#utility.yul\":4536:5110   */\n  swap3\n  swap2\n  pop\n  pop\n  jump\t// out\n    /* \"#utility.yul\":5116:5296   */\ntag_8:\n    /* \"#utility.yul\":5164:5241   */\n  0x4e487b7100000000000000000000000000000000000000000000000000000000\n    /* \"#utility.yul\":5161:5162   */\n  0x00\n    /* \"#utility.yul\":5154:5242   */\n  mstore\n    /* \"#utility.yul\":5261:5265   */\n  0x21\n    /* \"#utility.yul\":5258:5259   */\n  0x04\n    /* \"#utility.yul\":5251:5266   */\n  mstore\n    /* \"#utility.yul\":5285:5289   */\n  0x24\n    /* \"#utility.yul\":5282:5283   */\n  0x00\n    /* \"#utility.yul\":5275:5290   */\n  revert\n    /* \"#utility.yul\":5302:5482   */\ntag_14:\n    /* \"#utility.yul\":5350:5427   */\n  0x4e487b7100000000000000000000000000000000000000000000000000000000\n    /* \"#utility.yul\":5347:5348   */\n  0x00\n    /* \"#utility.yul\":5340:5428   */\n  mstore\n    /* \"#utility.yul\":5447:5451   */\n  0x32\n    /* \"#utility.yul\":5444:5445   */\n  0x04\n    /* \"#utility.yul\":5437:5452   */\n  mstore\n    /* \"#utility.yul\":5471:5475   */\n  0x24\n    /* \"#utility.yul\":5468:5469   */\n  0x00\n    /* \"#utility.yul\":5461:5476   */\n  revert\n    /* \"#utility.yul\":5488:5587   */\ntag_42:\n    /* \"#utility.yul\":5540:5546   */\n  0x00\n    /* \"#utility.yul\":5574:5579   */\n  dup2\n    /* \"#utility.yul\":5568:5580   */\n  mload\n    /* \"#utility.yul\":5558:5580   */\n  swap1\n  pop\n    /* \"#utility.yul\":5488:5587   */\n  swap2\n  swap1\n  pop\n  jump\t// out\n    /* \"#utility.yul\":5593:5773   */\ntag_43:\n    /* \"#utility.yul\":5641:5718   */\n  0x4e487b7100000000000000000000000000000000000000000000000000000000\n    /* \"#utility.yul\":5638:5639   */\n  0x00\n    /* \"#utility.yul\":5631:5719   */\n  mstore\n    /* \"#utility.yul\":5738:5742   */\n  0x22\n    /* \"#utility.yul\":5735:5736   */\n  0x04\n    /* \"#utility.yul\":5728:5743   */\n  mstore\n    /* \"#utility.yul\":5762:5766   */\n  0x24\n    /* \"#utility.yul\":5759:5760   */\n  0x00\n    /* \"#utility.yul\":5752:5767   */\n  revert\n    /* \"#utility.yul\":5779:6099   */\ntag_44:\n    /* \"#utility.yul\":5823:5829   */\n  0x00\n    /* \"#utility.yul\":5860:5861   */\n  0x02\n    /* \"#utility.yul\":5854:5858   */\n  dup3\n    /* \"#utility.yul\":5850:5862   */\n  div\n    /* \"#utility.yul\":5840:5862   */\n  swap1\n  pop\n    /* \"#utility.yul\":5907:5908   */\n  0x01\n    /* \"#utility.yul\":5901:5905   */\n  dup3\n    /* \"#utility.yul\":5897:5909   */\n  and\n    /* \"#utility.yul\":5928:5946   */\n  dup1\n    /* \"#utility.yul\":5918:5999   */\n  tag_128\n  jumpi\n    /* \"#utility.yul\":5984:5988   */\n  0x7f\n    /* \"#utility.yul\":5976:5982   */\n  dup3\n    /* \"#utility.yul\":5972:5989   */\n  and\n    /* \"#utility.yul\":5962:5989   */\n  swap2\n  pop\n    /* \"#utility.yul\":5918:5999   */\ntag_128:\n    /* \"#utility.yul\":6046:6048   */\n  0x20\n    /* \"#utility.yul\":6038:6044   */\n  dup3\n    /* \"#utility.yul\":6035:6049   */\n  lt\n    /* \"#utility.yul\":6015:6033   */\n  dup2\n    /* \"#utility.yul\":6012:6050   */\n  sub\n    /* \"#utility.yul\":6009:6093   */\n  tag_129\n  jumpi\n    /* \"#utility.yul\":6065:6083   */\n  tag_130\n  tag_43\n  jump\t// in\ntag_130:\n    /* \"#utility.yul\":6009:6093   */\ntag_129:\n    /* \"#utility.yul\":5830:6099   */\n  pop\n    /* \"#utility.yul\":5779:6099   */\n  swap2\n  swap1\n  pop\n  jump\t// out\n    /* \"#utility.yul\":6105:6246   */\ntag_45:\n    /* \"#utility.yul\":6154:6158   */\n  0x00\n    /* \"#utility.yul\":6177:6180   */\n  dup2\n    /* \"#utility.yul\":6169:6180   */\n  swap1\n  pop\n    /* \"#utility.yul\":6200:6203   */\n  dup2\n    /* \"#utility.yul\":6197:6198   */\n  0x00\n    /* \"#utility.yul\":6190:6204   */\n  mstore\n    /* \"#utility.yul\":6234:6238   */\n  0x20\n    /* \"#utility.yul\":6231:6232   */\n  0x00\n    /* \"#utility.yul\":6221:6239   */\n  keccak256\n    /* \"#utility.yul\":6213:6239   */\n  swap1\n  pop\n    /* \"#utility.yul\":6105:6246   */\n  swap2\n  swap1\n  pop\n  jump\t// out\n    /* \"#utility.yul\":6252:6345   */\ntag_46:\n    /* \"#utility.yul\":6289:6295   */\n  0x00\n    /* \"#utility.yul\":6336:6338   */\n  0x20\n    /* \"#utility.yul\":6331:6333   */\n  0x1f\n    /* \"#utility.yul\":6324:6329   */\n  dup4\n    /* \"#utility.yul\":6320:6334   */\n  add\n    /* \"#utility.yul\":6316:6339   */\n  div\n    /* \"#utility.yul\":6306:6339   */\n  swap1\n  pop\n    /* \"#utility.yul\":6252:6345   */\n  swap2\n  swap1\n  pop\n  jump\t// out\n    /* \"#utility.yul\":6351:6458   */\ntag_47:\n    /* \"#utility.yul\":6395:6403   */\n  0x00\n    /* \"#utility.yul\":6445:6450   */\n  dup3\n    /* \"#utility.yul\":6439:6443   */\n  dup3\n    /* \"#utility.yul\":6435:6451   */\n  shl\n    /* \"#utility.yul\":6414:6451   */\n  swap1\n  pop\n    /* \"#utility.yul\":6351:6458   */\n  swap3\n  swap2\n  pop\n  pop\n  jump\t// out\n    /* \"#utility.yul\":6464:6857   */\ntag_48:\n    /* \"#utility.yul\":6533:6539   */\n  0x00\n    /* \"#utility.yul\":6583:6584   */\n  0x08\n    /* \"#utility.yul\":6571:6581   */\n  dup4\n    /* \"#utility.yul\":6567:6585   */\n  mul\n    /* \"#utility.yul\":6606:6703   */\n  tag_135\n    /* \"#utility.yul\":6636:6702   */\n  0xffffffffffffffffffffffffffffffffffffffffffffffffffffffffffffffff\n    /* \"#utility.yul\":6625:6634   */\n  dup3\n    /* \"#utility.yul\":6606:6703   */\n  tag_47\n  jump\t// in\ntag_135:\n    /* \"#utility.yul\":6724:6763   */\n  tag_136\n    /* \"#utility.yul\":6754:6762   */\n  dup7\n    /* \"#utility.yul\":6743:6752   */\n  dup4\n    /* \"#utility.yul\":6724:6763   */\n  tag_47\n  jump\t// in\ntag_136:\n    /* \"#utility.yul\":6712:6763   */\n  swap6\n  pop\n    /* \"#utility.yul\":6796:6800   */\n  dup1\n    /* \"#utility.yul\":6792:6801   */\n  not\n    /* \"#utility.yul\":6785:6790   */\n  dup5\n    /* \"#utility.yul\":6781:6802   */\n  and\n    /* \"#utility.yul\":6772:6802   */\n  swap4\n  pop\n    /* \"#utility.yul\":6845:6849   */\n  dup1\n    /* \"#utility.yul\":6835:6843   */\n  dup7\n    /* \"#utility.yul\":6831:6850   */\n  and\n    /* \"#utility.yul\":6824:6829   */\n  dup5\n    /* \"#utility.yul\":6821:6851   */\n  or\n    /* \"#utility.yul\":6811:6851   */\n  swap3\n  pop\n    /* \"#utility.yul\":6540:6857   */\n  pop\n  pop\n    /* \"#utility.yul\":6464:6857   */\n  swap4\n  swap3\n  pop\n  pop\n  pop\n  jump\t// out\n    /* \"#utility.yul\":6863:6940   */\ntag_49:\n    /* \"#utility.yul\":6900:6907   */\n  0x00\n    /* \"#utility.yul\":6929:6934   */\n  dup2\n    /* \"#utility.yul\":6918:6934   */\n  swap1\n  pop\n    /* \"#utility.yul\":6863:6940   */\n  swap2\n  swap1\n  pop\n  jump\t// out\n    /* \"#utility.yul\":6946:7006   */\ntag_50:\n    /* \"#utility.yul\":6974:6977   */\n  0x00\n    /* \"#utility.yul\":6995:7000   */\n  dup2\n    /* \"#utility.yul\":6988:7000   */\n  swap1\n  pop\n    /* \"#utility.yul\":6946:7006   */\n  swap2\n  swap1\n  pop\n  jump\t// out\n    /* \"#utility.yul\":7012:7154   */\ntag_51:\n    /* \"#utility.yul\":7062:7071   */\n  0x00\n    /* \"#utility.yul\":7095:7148   */\n  tag_140\n    /* \"#utility.yul\":7113:7147   */\n  tag_141\n    /* \"#utility.yul\":7122:7146   */\n  tag_142\n    /* \"#utility.yul\":7140:7145   */\n  dup5\n    /* \"#utility.yul\":7122:7146   */\n  tag_49\n  jump\t// in\ntag_142:\n    /* \"#utility.yul\":7113:7147   */\n  tag_50\n  jump\t// in\ntag_141:\n    /* \"#utility.yul\":7095:7148   */\n  tag_49\n  jump\t// in\ntag_140:\n    /* \"#utility.yul\":7082:7148   */\n  swap1\n  pop\n    /* \"#utility.yul\":7012:7154   */\n  swap2\n  swap1\n  pop\n  jump\t// out\n    /* \"#utility.yul\":7160:7235   */\ntag_52:\n    /* \"#utility.yul\":7203:7206   */\n  0x00\n    /* \"#utility.yul\":7224:7229   */\n  dup2\n    /* \"#utility.yul\":7217:7229   */\n  swap1\n  pop\n    /* \"#utility.yul\":7160:7235   */\n  swap2\n  swap1\n  pop\n  jump\t// out\n    /* \"#utility.yul\":7241:7510   */\ntag_53:\n    /* \"#utility.yul\":7351:7390   */\n  tag_145\n    /* \"#utility.yul\":7382:7389   */\n  dup4\n    /* \"#utility.yul\":7351:7390   */\n  tag_51\n  jump\t// in\ntag_145:\n    /* \"#utility.yul\":7412:7503   */\n  tag_146\n    /* \"#utility.yul\":7461:7502   */\n  tag_147\n    /* \"#utility.yul\":7485:7501   */\n  dup3\n    /* \"#utility.yul\":7461:7502   */\n  tag_52\n  jump\t// in\ntag_147:\n    /* \"#utility.yul\":7453:7459   */\n  dup5\n    /* \"#utility.yul\":7446:7450   */\n  dup5\n    /* \"#utility.yul\":7440:7451   */\n  sload\n    /* \"#utility.yul\":7412:7503   */\n  tag_48\n  jump\t// in\ntag_146:\n    /* \"#utility.yul\":7406:7410   */\n  dup3\n    /* \"#utility.yul\":7399:7504   */\n  sstore\n    /* \"#utility.yul\":7317:7510   */\n  pop\n    /* \"#utility.yul\":7241:7510   */\n  pop\n  pop\n  pop\n  jump\t// out\n    /* \"#utility.yul\":7516:7589   */\ntag_54:\n    /* \"#utility.yul\":7561:7564   */\n  0x00\n    /* \"#utility.yul\":7516:7589   */\n  swap1\n  jump\t// out\n    /* \"#utility.yul\":7595:7784   */\ntag_55:\n    /* \"#utility.yul\":7672:7704   */\n  tag_150\n  tag_54\n  jump\t// in\ntag_150:\n    /* \"#utility.yul\":7713:7778   */\n  tag_151\n    /* \"#utility.yul\":7771:7777   */\n  dup2\n    /* \"#utility.yul\":7763:7769   */\n  dup5\n    /* \"#utility.yul\":7757:7761   */\n  dup5\n    /* \"#utility.yul\":7713:7778   */\n  tag_53\n  jump\t// in\ntag_151:\n    /* \"#utility.yul\":7648:7784   */\n  pop\n    /* \"#utility.yul\":7595:7784   */\n  pop\n  pop\n  jump\t// out\n    /* \"#utility.yul\":7790:7976   */\ntag_56:\n    /* \"#utility.yul\":7850:7970   */\ntag_153:\n    /* \"#utility.yul\":7867:7870   */\n  dup2\n    /* \"#utility.yul\":7860:7865   */\n  dup2\n    /* \"#utility.yul\":7857:7871   */\n  lt\n    /* \"#utility.yul\":7850:7970   */\n  iszero\n  tag_155\n  jumpi\n    /* \"#utility.yul\":7921:7960   */\n  tag_156\n    /* \"#utility.yul\":7958:7959   */\n  0x00\n    /* \"#utility.yul\":7951:7956   */\n  dup3\n    /* \"#utility.yul\":7921:7960   */\n  tag_55\n  jump\t// in\ntag_156:\n    /* \"#utility.yul\":7894:7895   */\n  0x01\n    /* \"#utility.yul\":7887:7892   */\n  dup2\n    /* \"#utility.yul\":7883:7896   */\n  add\n    /* \"#utility.yul\":7874:7896   */\n  swap1\n  pop\n    /* \"#utility.yul\":7850:7970   */\n  jump(tag_153)\ntag_155:\n    /* \"#utility.yul\":7790:7976   */\n  pop\n  pop\n  jump\t// out\n    /* \"#utility.yul\":7982:8525   */\ntag_57:\n    /* \"#utility.yul\":8083:8085   */\n  0x1f\n    /* \"#utility.yul\":8078:8081   */\n  dup3\n    /* \"#utility.yul\":8075:8086   */\n  gt\n    /* \"#utility.yul\":8072:8518   */\n  iszero\n  tag_158\n  jumpi\n    /* \"#utility.yul\":8117:8155   */\n  tag_159\n    /* \"#utility.yul\":8149:8154   */\n  dup2\n    /* \"#utility.yul\":8117:8155   */\n  tag_45\n  jump\t// in\ntag_159:\n    /* \"#utility.yul\":8201:8230   */\n  tag_160\n    /* \"#utility.yul\":8219:8229   */\n  dup5\n    /* \"#utility.yul\":8201:8230   */\n  tag_46\n  jump\t// in\ntag_160:\n    /* \"#utility.yul\":8191:8199   */\n  dup2\n    /* \"#utility.yul\":8187:8231   */\n  add\n    /* \"#utility.yul\":8384:8386   */\n  0x20\n    /* \"#utility.yul\":8372:8382   */\n  dup6\n    /* \"#utility.yul\":8369:8387   */\n  lt\n    /* \"#utility.yul\":8366:8415   */\n  iszero\n  tag_161\n  jumpi\n    /* \"#utility.yul\":8405:8413   */\n  dup2\n    /* \"#utility.yul\":8390:8413   */\n  swap1\n  pop\n    /* \"#utility.yul\":8366:8415   */\ntag_161:\n    /* \"#utility.yul\":8428:8508   */\n  tag_162\n    /* \"#utility.yul\":8484:8506   */\n  tag_163\n    /* \"#utility.yul\":8502:8505   */\n  dup6\n    /* \"#utility.yul\":8484:8506   */\n  tag_46\n  jump\t// in\ntag_163:\n    /* \"#utility.yul\":8474:8482   */\n  dup4\n    /* \"#utility.yul\":8470:8507   */\n  add\n    /* \"#utility.yul\":8457:8468   */\n  dup3\n    /* \"#utility.yul\":8428:8508   */\n  tag_56\n  jump\t// in\ntag_162:\n    /* \"#utility.yul\":8087:8518   */\n  pop\n  pop\n    /* \"#utility.yul\":8072:8518   */\ntag_158:\n    /* \"#utility.yul\":7982:8525   */\n  pop\n  pop\n  pop\n  jump\t// out\n    /* \"#utility.yul\":8531:8648   */\ntag_58:\n    /* \"#utility.yul\":8585:8593   */\n  0x00\n    /* \"#utility.yul\":8635:8640   */\n  dup3\n    /* \"#utility.yul\":8629:8633   */\n  dup3\n    /* \"#utility.yul\":8625:8641   */\n  shr\n    /* \"#utility.yul\":8604:8641   */\n  swap1\n  pop\n    /* \"#utility.yul\":8531:8648   */\n  swap3\n  swap2\n  pop\n  pop\n  jump\t// out\n    /* \"#utility.yul\":8654:8823   */\ntag_59:\n    /* \"#utility.yul\":8698:8704   */\n  0x00\n    /* \"#utility.yul\":8731:8782   */\n  tag_166\n    /* \"#utility.yul\":8779:8780   */\n  0x00\n    /* \"#utility.yul\":8775:8781   */\n  not\n    /* \"#utility.yul\":8767:8772   */\n  dup5\n    /* \"#utility.yul\":8764:8765   */\n  0x08\n    /* \"#utility.yul\":8760:8773   */\n  mul\n    /* \"#utility.yul\":8731:8782   */\n  tag_58\n  jump\t// in\ntag_166:\n    /* \"#utility.yul\":8727:8783   */\n  not\n    /* \"#utility.yul\":8812:8816   */\n  dup1\n    /* \"#utility.yul\":8806:8810   */\n  dup4\n    /* \"#utility.yul\":8802:8817   */\n  and\n    /* \"#utility.yul\":8792:8817   */\n  swap2\n  pop\n    /* \"#utility.yul\":8705:8823   */\n  pop\n    /* \"#utility.yul\":8654:8823   */\n  swap3\n  swap2\n  pop\n  pop\n  jump\t// out\n    /* \"#utility.yul\":8828:9123   */\ntag_60:\n    /* \"#utility.yul\":8904:8908   */\n  0x00\n    /* \"#utility.yul\":9050:9079   */\n  tag_168\n    /* \"#utility.yul\":9075:9078   */\n  dup4\n    /* \"#utility.yul\":9069:9073   */\n  dup4\n    /* \"#utility.yul\":9050:9079   */\n  tag_59\n  jump\t// in\ntag_168:\n    /* \"#utility.yul\":9042:9079   */\n  swap2\n  pop\n    /* \"#utility.yul\":9112:9115   */\n  dup3\n    /* \"#utility.yul\":9109:9110   */\n  0x02\n    /* \"#utility.yul\":9105:9116   */\n  mul\n    /* \"#utility.yul\":9099:9103   */\n  dup3\n    /* \"#utility.yul\":9096:9117   */\n  or\n    /* \"#utility.yul\":9088:9117   */\n  swap1\n  pop\n    /* \"#utility.yul\":8828:9123   */\n  swap3\n  swap2\n  pop\n  pop\n  jump\t// out\n    /* \"#utility.yul\":9128:10523   */\ntag_17:\n    /* \"#utility.yul\":9245:9282   */\n  tag_170\n    /* \"#utility.yul\":9278:9281   */\n  dup3\n    /* \"#utility.yul\":9245:9282   */\n  tag_42\n  jump\t// in\ntag_170:\n    /* \"#utility.yul\":9347:9365   */\n  0xffffffffffffffff\n    /* \"#utility.yul\":9339:9345   */\n  dup2\n    /* \"#utility.yul\":9336:9366   */\n  gt\n    /* \"#utility.yul\":9333:9389   */\n  iszero\n  tag_171\n  jumpi\n    /* \"#utility.yul\":9369:9387   */\n  tag_172\n  tag_30\n  jump\t// in\ntag_172:\n    /* \"#utility.yul\":9333:9389   */\ntag_171:\n    /* \"#utility.yul\":9413:9451   */\n  tag_173\n    /* \"#utility.yul\":9445:9449   */\n  dup3\n    /* \"#utility.yul\":9439:9450   */\n  sload\n    /* \"#utility.yul\":9413:9451   */\n  tag_44\n  jump\t// in\ntag_173:\n    /* \"#utility.yul\":9498:9565   */\n  tag_174\n    /* \"#utility.yul\":9558:9564   */\n  dup3\n    /* \"#utility.yul\":9550:9556   */\n  dup3\n    /* \"#utility.yul\":9544:9548   */\n  dup6\n    /* \"#utility.yul\":9498:9565   */\n  tag_57\n  jump\t// in\ntag_174:\n    /* \"#utility.yul\":9592:9593   */\n  0x00\n    /* \"#utility.yul\":9616:9620   */\n  0x20\n    /* \"#utility.yul\":9603:9620   */\n  swap1\n  pop\n    /* \"#utility.yul\":9648:9650   */\n  0x1f\n    /* \"#utility.yul\":9640:9646   */\n  dup4\n    /* \"#utility.yul\":9637:9651   */\n  gt\n    /* \"#utility.yul\":9665:9666   */\n  0x01\n    /* \"#utility.yul\":9660:10278   */\n  dup2\n  eq\n  tag_176\n  jumpi\n    /* \"#utility.yul\":10322:10323   */\n  0x00\n    /* \"#utility.yul\":10339:10345   */\n  dup5\n    /* \"#utility.yul\":10336:10413   */\n  iszero\n  tag_177\n  jumpi\n    /* \"#utility.yul\":10388:10397   */\n  dup3\n    /* \"#utility.yul\":10383:10386   */\n  dup8\n    /* \"#utility.yul\":10379:10398   */\n  add\n    /* \"#utility.yul\":10373:10399   */\n  mload\n    /* \"#utility.yul\":10364:10399   */\n  swap1\n  pop\n    /* \"#utility.yul\":10336:10413   */\ntag_177:\n    /* \"#utility.yul\":10439:10506   */\n  tag_178\n    /* \"#utility.yul\":10499:10505   */\n  dup6\n    /* \"#utility.yul\":10492:10497   */\n  dup3\n    /* \"#utility.yul\":10439:10506   */\n  tag_60\n  jump\t// in\ntag_178:\n    /* \"#utility.yul\":10433:10437   */\n  dup7\n    /* \"#utility.yul\":10426:10507   */\n  sstore\n    /* \"#utility.yul\":10295:10517   */\n  pop\n    /* \"#utility.yul\":9630:10517   */\n  jump(tag_175)\n    /* \"#utility.yul\":9660:10278   */\ntag_176:\n    /* \"#utility.yul\":9712:9716   */\n  0x1f\n    /* \"#utility.yul\":9708:9717   */\n  not\n    /* \"#utility.yul\":9700:9706   */\n  dup5\n    /* \"#utility.yul\":9696:9718   */\n  and\n    /* \"#utility.yul\":9746:9783   */\n  tag_179\n    /* \"#utility.yul\":9778:9782   */\n  dup7\n    /* \"#utility.yul\":9746:9783   */\n  tag_45\n  jump\t// in\ntag_179:\n    /* \"#utility.yul\":9805:9806   */\n  0x00\n    /* \"#utility.yul\":9819:10027   */\ntag_180:\n    /* \"#utility.yul\":9833:9840   */\n  dup3\n    /* \"#utility.yul\":9830:9831   */\n  dup2\n    /* \"#utility.yul\":9827:9841   */\n  lt\n    /* \"#utility.yul\":9819:10027   */\n  iszero\n  tag_182\n  jumpi\n    /* \"#utility.yul\":9912:9921   */\n  dup5\n    /* \"#utility.yul\":9907:9910   */\n  dup10\n    /* \"#utility.yul\":9903:9922   */\n  add\n    /* \"#utility.yul\":9897:9923   */\n  mload\n    /* \"#utility.yul\":9889:9895   */\n  dup3\n    /* \"#utility.yul\":9882:9924   */\n  sstore\n    /* \"#utility.yul\":9963:9964   */\n  0x01\n    /* \"#utility.yul\":9955:9961   */\n  dup3\n    /* \"#utility.yul\":9951:9965   */\n  add\n    /* \"#utility.yul\":9941:9965   */\n  swap2\n  pop\n    /* \"#utility.yul\":10010:10012   */\n  0x20\n    /* \"#utility.yul\":9999:10008   */\n  dup6\n    /* \"#utility.yul\":9995:10013   */\n  add\n    /* \"#utility.yul\":9982:10013   */\n  swap5\n  pop\n    /* \"#utility.yul\":9856:9860   */\n  0x20\n    /* \"#utility.yul\":9853:9854   */\n  dup2\n    /* \"#utility.yul\":9849:9861   */\n  add\n    /* \"#utility.yul\":9844:9861   */\n  swap1\n  pop\n    /* \"#utility.yul\":9819:10027   */\n  jump(tag_180)\ntag_182:\n    /* \"#utility.yul\":10055:10061   */\n  dup7\n    /* \"#utility.yul\":10046:10053   */\n  dup4\n    /* \"#utility.yul\":10043:10062   */\n  lt\n    /* \"#utility.yul\":10040:10219   */\n  iszero\n  tag_183\n  jumpi\n    /* \"#utility.yul\":10113:10122   */\n  dup5\n    /* \"#utility.yul\":10108:10111   */\n  dup10\n    /* \"#utility.yul\":10104:10123   */\n  add\n    /* \"#utility.yul\":10098:10124   */\n  mload\n    /* \"#utility.yul\":10156:10204   */\n  tag_184\n    /* \"#utility.yul\":10198:10202   */\n  0x1f\n    /* \"#utility.yul\":10190:10196   */\n  dup10\n    /* \"#utility.yul\":10186:10203   */\n  and\n    /* \"#utility.yul\":10175:10184   */\n  dup3\n    /* \"#utility.yul\":10156:10204   */\n  tag_59\n  jump\t// in\ntag_184:\n    /* \"#utility.yul\":10148:10154   */\n  dup4\n    /* \"#utility.yul\":10141:10205   */\n  sstore\n    /* \"#utility.yul\":10063:10219   */\n  pop\n    /* \"#utility.yul\":10040:10219   */\ntag_183:\n    /* \"#utility.yul\":10265:10266   */\n  0x01\n    /* \"#utility.yul\":10261:10262   */\n  0x02\n    /* \"#utility.yul\":10253:10259   */\n  dup9\n    /* \"#utility.yul\":10249:10263   */\n  mul\n    /* \"#utility.yul\":10245:10267   */\n  add\n    /* \"#utility.yul\":10239:10243   */\n  dup9\n    /* \"#utility.yul\":10232:10268   */\n  sstore\n    /* \"#utility.yul\":9667:10278   */\n  pop\n  pop\n  pop\n    /* \"#utility.yul\":9630:10517   */\ntag_175:\n  pop\n    /* \"#utility.yul\":9220:10523   */\n  pop\n  pop\n  pop\n    /* \"#utility.yul\":9128:10523   */\n  pop\n  pop\n  jump\t// out\n    /* \"#utility.yul\":10529:10647   */\ntag_61:\n    /* \"#utility.yul\":10616:10640   */\n  tag_186\n    /* \"#utility.yul\":10634:10639   */\n  dup2\n    /* \"#utility.yul\":10616:10640   */\n  tag_49\n  jump\t// in\ntag_186:\n    /* \"#utility.yul\":10611:10614   */\n  dup3\n    /* \"#utility.yul\":10604:10641   */\n  mstore\n    /* \"#utility.yul\":10529:10647   */\n  pop\n  pop\n  jump\t// out\n    /* \"#utility.yul\":10653:10822   */\ntag_62:\n    /* \"#utility.yul\":10737:10748   */\n  0x00\n    /* \"#utility.yul\":10771:10777   */\n  dup3\n    /* \"#utility.yul\":10766:10769   */\n  dup3\n    /* \"#utility.yul\":10759:10778   */\n  mstore\n    /* \"#utility.yul\":10811:10815   */\n  0x20\n    /* \"#utility.yul\":10806:10809   */\n  dup3\n    /* \"#utility.yul\":10802:10816   */\n  add\n    /* \"#utility.yul\":10787:10816   */\n  swap1\n  pop\n    /* \"#utility.yul\":10653:10822   */\n  swap3\n  swap2\n  pop\n  pop\n  jump\t// out\n    /* \"#utility.yul\":10828:11205   */\ntag_63:\n    /* \"#utility.yul\":10916:10919   */\n  0x00\n    /* \"#utility.yul\":10944:10983   */\n  tag_189\n    /* \"#utility.yul\":10977:10982   */\n  dup3\n    /* \"#utility.yul\":10944:10983   */\n  tag_42\n  jump\t// in\ntag_189:\n    /* \"#utility.yul\":10999:11070   */\n  tag_190\n    /* \"#utility.yul\":11063:11069   */\n  dup2\n    /* \"#utility.yul\":11058:11061   */\n  dup6\n    /* \"#utility.yul\":10999:11070   */\n  tag_62\n  jump\t// in\ntag_190:\n    /* \"#utility.yul\":10992:11070   */\n  swap4\n  pop\n    /* \"#utility.yul\":11079:11144   */\n  tag_191\n    /* \"#utility.yul\":11137:11143   */\n  dup2\n    /* \"#utility.yul\":11132:11135   */\n  dup6\n    /* \"#utility.yul\":11125:11129   */\n  0x20\n    /* \"#utility.yul\":11118:11123   */\n  dup7\n    /* \"#utility.yul\":11114:11130   */\n  add\n    /* \"#utility.yul\":11079:11144   */\n  tag_37\n  jump\t// in\ntag_191:\n    /* \"#utility.yul\":11169:11198   */\n  tag_192\n    /* \"#utility.yul\":11191:11197   */\n  dup2\n    /* \"#utility.yul\":11169:11198   */\n  tag_29\n  jump\t// in\ntag_192:\n    /* \"#utility.yul\":11164:11167   */\n  dup5\n    /* \"#utility.yul\":11160:11199   */\n  add\n    /* \"#utility.yul\":11153:11199   */\n  swap2\n  pop\n    /* \"#utility.yul\":10920:11205   */\n  pop\n    /* \"#utility.yul\":10828:11205   */\n  swap3\n  swap2\n  pop\n  pop\n  jump\t// out\n    /* \"#utility.yul\":11211:11634   */\ntag_21:\n    /* \"#utility.yul\":11352:11356   */\n  0x00\n    /* \"#utility.yul\":11390:11392   */\n  0x40\n    /* \"#utility.yul\":11379:11388   */\n  dup3\n    /* \"#utility.yul\":11375:11393   */\n  add\n    /* \"#utility.yul\":11367:11393   */\n  swap1\n  pop\n    /* \"#utility.yul\":11403:11474   */\n  tag_194\n    /* \"#utility.yul\":11471:11472   */\n  0x00\n    /* \"#utility.yul\":11460:11469   */\n  dup4\n    /* \"#utility.yul\":11456:11473   */\n  add\n    /* \"#utility.yul\":11447:11453   */\n  dup6\n    /* \"#utility.yul\":11403:11474   */\n  tag_61\n  jump\t// in\ntag_194:\n    /* \"#utility.yul\":11521:11530   */\n  dup2\n    /* \"#utility.yul\":11515:11519   */\n  dup2\n    /* \"#utility.yul\":11511:11531   */\n  sub\n    /* \"#utility.yul\":11506:11508   */\n  0x20\n    /* \"#utility.yul\":11495:11504   */\n  dup4\n    /* \"#utility.yul\":11491:11509   */\n  add\n    /* \"#utility.yul\":11484:11532   */\n  mstore\n    /* \"#utility.yul\":11549:11627   */\n  tag_195\n    /* \"#utility.yul\":11622:11626   */\n  dup2\n    /* \"#utility.yul\":11613:11619   */\n  dup5\n    /* \"#utility.yul\":11549:11627   */\n  tag_63\n  jump\t// in\ntag_195:\n    /* \"#utility.yul\":11541:11627   */\n  swap1\n  pop\n    /* \"#utility.yul\":11211:11634   */\n  swap4\n  swap3\n  pop\n  pop\n  pop\n  jump\t// out\n    /* \"#utility.yul\":11640:11820   */\ntag_64:\n    /* \"#utility.yul\":11688:11765   */\n  0x4e487b7100000000000000000000000000000000000000000000000000000000\n    /* \"#utility.yul\":11685:11686   */\n  0x00\n    /* \"#utility.yul\":11678:11766   */\n  mstore\n    /* \"#utility.yul\":11785:11789   */\n  0x11\n    /* \"#utility.yul\":11782:11783   */\n  0x04\n    /* \"#utility.yul\":11775:11790   */\n  mstore\n    /* \"#utility.yul\":11809:11813   */\n  0x24\n    /* \"#utility.yul\":11806:11807   */\n  0x00\n    /* \"#utility.yul\":11799:11814   */\n  revert\n    /* \"#utility.yul\":11826:12059   */\ntag_23:\n    /* \"#utility.yul\":11865:11868   */\n  0x00\n    /* \"#utility.yul\":11888:11912   */\n  tag_198\n    /* \"#utility.yul\":11906:11911   */\n  dup3\n    /* \"#utility.yul\":11888:11912   */\n  tag_49\n  jump\t// in\ntag_198:\n    /* \"#utility.yul\":11879:11912   */\n  swap2\n  pop\n    /* \"#utility.yul\":11934:12000   */\n  0xffffffffffffffffffffffffffffffffffffffffffffffffffffffffffffffff\n    /* \"#utility.yul\":11927:11932   */\n  dup3\n    /* \"#utility.yul\":11924:12001   */\n  sub\n    /* \"#utility.yul\":11921:12024   */\n  tag_199\n  jumpi\n    /* \"#utility.yul\":12004:12022   */\n  tag_200\n  tag_64\n  jump\t// in\ntag_200:\n    /* \"#utility.yul\":11921:12024   */\ntag_199:\n    /* \"#utility.yul\":12051:12052   */\n  0x01\n    /* \"#utility.yul\":12044:12049   */\n  dup3\n    /* \"#utility.yul\":12040:12053   */\n  add\n    /* \"#utility.yul\":12033:12053   */\n  swap1\n  pop\n    /* \"#utility.yul\":11826:12059   */\n  swap2\n  swap1\n  pop\n  jump\t// out\n    /* \"contracts/voting.sol\":61:4074  contract Voting {... */\ntag_24:\n  dataSize(sub_0)\n  dup1\n  dataOffset(sub_0)\n  0x00\n  codecopy\n  0x00\n  return\nstop\n\nsub_0: assembly {\n        /* \"contracts/voting.sol\":61:4074  contract Voting {... */\n      mstore(0x40, 0x80)\n      callvalue\n      dup1\n      iszero\n      tag_1\n      jumpi\n      0x00\n      dup1\n      revert\n    tag_1:\n      pop\n      jumpi(tag_2, lt(calldatasize, 0x04))\n      shr(0xe0, calldataload(0x00))\n      dup1\n      0x5f5300ff\n      gt\n      tag_16\n      jumpi\n      dup1\n      0x9e866206\n      gt\n      tag_17\n      jumpi\n      dup1\n      0x9e866206\n      eq\n      tag_12\n      jumpi\n      dup1\n      0xb1c9fe6e\n      eq\n      tag_13\n      jumpi\n      dup1\n      0xe2ba53f0\n      eq\n      tag_14\n      jumpi\n      dup1\n      0xeced0280\n      eq\n      tag_15\n      jumpi\n      jump(tag_2)\n    tag_17:\n      dup1\n      0x5f5300ff\n      eq\n      tag_9\n      jumpi\n      dup1\n      0x8da5cb5b\n      eq\n      tag_10\n      jumpi\n      dup1\n      0x93b08bf5\n      eq\n      tag_11\n      jumpi\n      jump(tag_2)\n    tag_16:\n      dup1\n      0x0121b93f\n      eq\n      tag_3\n      jumpi\n      dup1\n      0x19f7588d\n      eq\n      tag_4\n      jumpi\n      dup1\n      0x3eadb6db\n      eq\n      tag_5\n      jumpi\n      dup1\n      0x4c105d1b\n      eq\n      tag_6\n      jumpi\n      dup1\n      0x4e0abf19\n      eq\n      tag_7\n      jumpi\n      dup1\n      0x5d495aea\n      eq\n      tag_8\n      jumpi\n    tag_2:\n      0x00\n      dup1\n      revert\n        /* \"contracts/voting.sol\":2918:3361  function vote(uint index) external {... */\n    tag_3:\n      tag_18\n      0x04\n      dup1\n      calldatasize\n      sub\n      dup2\n      add\n      swap1\n      tag_19\n      swap2\n      swap1\n      tag_20\n      jump\t// in\n    tag_19:\n      tag_21\n      jump\t// in\n    tag_18:\n      stop\n        /* \"contracts/voting.sol\":303:348  mapping(address => Voter) public voterMembers */\n    tag_4:\n      tag_22\n      0x04\n      dup1\n      calldatasize\n      sub\n      dup2\n      add\n      swap1\n      tag_23\n      swap2\n      swap1\n      tag_24\n      jump\t// in\n    tag_23:\n      tag_25\n      jump\t// in\n    tag_22:\n      mload(0x40)\n      tag_26\n      swap3\n      swap2\n      swap1\n      tag_27\n      jump\t// in\n    tag_26:\n      mload(0x40)\n      dup1\n      swap2\n      sub\n      swap1\n      return\n        /* \"contracts/voting.sol\":2160:2477  function nextPhase() external onlyOwner {... */\n    tag_5:\n      tag_28\n      tag_29\n      jump\t// in\n    tag_28:\n      stop\n        /* \"contracts/voting.sol\":1643:2102  function addVoters(address voter)... */\n    tag_6:\n      tag_30\n      0x04\n      dup1\n      calldatasize\n      sub\n      dup2\n      add\n      swap1\n      tag_31\n      swap2\n      swap1\n      tag_24\n      jump\t// in\n    tag_31:\n      tag_32\n      jump\t// in\n    tag_30:\n      stop\n        /* \"contracts/voting.sol\":263:296  Proposal[] public proposalMembers */\n    tag_7:\n      tag_33\n      0x04\n      dup1\n      calldatasize\n      sub\n      dup2\n      add\n      swap1\n      tag_34\n      swap2\n      swap1\n      tag_20\n      jump\t// in\n    tag_34:\n      tag_35\n      jump\t// in\n    tag_33:\n      mload(0x40)\n      tag_36\n      swap3\n      swap2\n      swap1\n      tag_37\n      jump\t// in\n    tag_36:\n      mload(0x40)\n      dup1\n      swap2\n      sub\n      swap1\n      return\n        /* \"contracts/voting.sol\":3413:3878  function pickWinner() external view returns (uint winnerIndex) {... */\n    tag_8:\n      tag_38\n      tag_39\n      jump\t// in\n    tag_38:\n      mload(0x40)\n      tag_40\n      swap2\n      swap1\n      tag_41\n      jump\t// in\n    tag_40:\n      mload(0x40)\n      dup1\n      swap2\n      sub\n      swap1\n      return\n        /* \"contracts/voting.sol\":355:378  uint public totalVoters */\n    tag_9:\n      tag_42\n      tag_43\n      jump\t// in\n    tag_42:\n      mload(0x40)\n      tag_44\n      swap2\n      swap1\n      tag_41\n      jump\t// in\n    tag_44:\n      mload(0x40)\n      dup1\n      swap2\n      sub\n      swap1\n      return\n        /* \"contracts/voting.sol\":84:104  address public owner */\n    tag_10:\n      tag_45\n      tag_46\n      jump\t// in\n    tag_45:\n      mload(0x40)\n      tag_47\n      swap2\n      swap1\n      tag_48\n      jump\t// in\n    tag_47:\n      mload(0x40)\n      dup1\n      swap2\n      sub\n      swap1\n      return\n        /* \"contracts/voting.sol\":2776:2882  function showProposals() external view returns(Proposal[] memory){... */\n    tag_11:\n      tag_49\n      tag_50\n      jump\t// in\n    tag_49:\n      mload(0x40)\n      tag_51\n      swap2\n      swap1\n      tag_52\n      jump\t// in\n    tag_51:\n      mload(0x40)\n      dup1\n      swap2\n      sub\n      swap1\n      return\n        /* \"contracts/voting.sol\":1249:1576  function addProposals(string memory proposalName)... */\n    tag_12:\n      tag_53\n      0x04\n      dup1\n      calldatasize\n      sub\n      dup2\n      add\n      swap1\n      tag_54\n      swap2\n      swap1\n      tag_55\n      jump\t// in\n    tag_54:\n      tag_56\n      jump\t// in\n    tag_53:\n      stop\n        /* \"contracts/voting.sol\":447:465  Phase public phase */\n    tag_13:\n      tag_57\n      tag_58\n      jump\t// in\n    tag_57:\n      mload(0x40)\n      tag_59\n      swap2\n      swap1\n      tag_60\n      jump\t// in\n    tag_59:\n      mload(0x40)\n      dup1\n      swap2\n      sub\n      swap1\n      return\n        /* \"contracts/voting.sol\":3914:4071  function winnerName() external view returns (string memory) {... */\n    tag_14:\n      tag_61\n      tag_62\n      jump\t// in\n    tag_61:\n      mload(0x40)\n      tag_63\n      swap2\n      swap1\n      tag_64\n      jump\t// in\n    tag_63:\n      mload(0x40)\n      dup1\n      swap2\n      sub\n      swap1\n      return\n        /* \"contracts/voting.sol\":2485:2768  function getPhase()external view returns(string memory){... */\n    tag_15:\n      tag_65\n      tag_66\n      jump\t// in\n    tag_65:\n      mload(0x40)\n      tag_67\n      swap2\n      swap1\n      tag_64\n      jump\t// in\n    tag_67:\n      mload(0x40)\n      dup1\n      swap2\n      sub\n      swap1\n      return\n        /* \"contracts/voting.sol\":2918:3361  function vote(uint index) external {... */\n    tag_21:\n        /* \"contracts/voting.sol\":2981:2993  Phase.Voting */\n      0x02\n        /* \"contracts/voting.sol\":2972:2993  phase == Phase.Voting */\n      0x03\n      dup2\n      gt\n      iszero\n      tag_69\n      jumpi\n      tag_70\n      tag_71\n      jump\t// in\n    tag_70:\n    tag_69:\n        /* \"contracts/voting.sol\":2972:2977  phase */\n      0x04\n      0x00\n      swap1\n      sload\n      swap1\n      0x0100\n      exp\n      swap1\n      div\n      0xff\n      and\n        /* \"contracts/voting.sol\":2972:2993  phase == Phase.Voting */\n      0x03\n      dup2\n      gt\n      iszero\n      tag_72\n      jumpi\n      tag_73\n      tag_71\n      jump\t// in\n    tag_73:\n    tag_72:\n      eq\n        /* \"contracts/voting.sol\":2964:3017  require(phase == Phase.Voting, \"Not in voting phase\") */\n      tag_74\n      jumpi\n      mload(0x40)\n      0x08c379a000000000000000000000000000000000000000000000000000000000\n      dup2\n      mstore\n      0x04\n      add\n      tag_75\n      swap1\n      tag_76\n      jump\t// in\n    tag_75:\n      mload(0x40)\n      dup1\n      swap2\n      sub\n      swap1\n      revert\n    tag_74:\n        /* \"contracts/voting.sol\":3044:3059  proposalMembers */\n      0x01\n        /* \"contracts/voting.sol\":3044:3066  proposalMembers.length */\n      dup1\n      sload\n      swap1\n      pop\n        /* \"contracts/voting.sol\":3036:3041  index */\n      dup2\n        /* \"contracts/voting.sol\":3036:3066  index < proposalMembers.length */\n      lt\n        /* \"contracts/voting.sol\":3028:3093  require(index < proposalMembers.length, \"Invalid proposal index\") */\n      tag_77\n      jumpi\n      mload(0x40)\n      0x08c379a000000000000000000000000000000000000000000000000000000000\n      dup2\n      mstore\n      0x04\n      add\n      tag_78\n      swap1\n      tag_79\n      jump\t// in\n    tag_78:\n      mload(0x40)\n      dup1\n      swap2\n      sub\n      swap1\n      revert\n    tag_77:\n        /* \"contracts/voting.sol\":3106:3125  Voter storage voter */\n      0x00\n        /* \"contracts/voting.sol\":3128:3140  voterMembers */\n      0x02\n        /* \"contracts/voting.sol\":3128:3152  voterMembers[msg.sender] */\n      0x00\n        /* \"contracts/voting.sol\":3141:3151  msg.sender */\n      caller\n        /* \"contracts/voting.sol\":3128:3152  voterMembers[msg.sender] */\n      0xffffffffffffffffffffffffffffffffffffffff\n      and\n      0xffffffffffffffffffffffffffffffffffffffff\n      and\n      dup2\n      mstore\n      0x20\n      add\n      swap1\n      dup2\n      mstore\n      0x20\n      add\n      0x00\n      keccak256\n        /* \"contracts/voting.sol\":3106:3152  Voter storage voter = voterMembers[msg.sender] */\n      swap1\n      pop\n        /* \"contracts/voting.sol\":3172:3177  voter */\n      dup1\n        /* \"contracts/voting.sol\":3172:3183  voter.voted */\n      0x00\n      add\n      0x00\n      swap1\n      sload\n      swap1\n      0x0100\n      exp\n      swap1\n      div\n      0xff\n      and\n        /* \"contracts/voting.sol\":3171:3183  !voter.voted */\n      iszero\n        /* \"contracts/voting.sol\":3163:3201  require(!voter.voted, \"Already voted\") */\n      tag_80\n      jumpi\n      mload(0x40)\n      0x08c379a000000000000000000000000000000000000000000000000000000000\n      dup2\n      mstore\n      0x04\n      add\n      tag_81\n      swap1\n      tag_82\n      jump\t// in\n    tag_81:\n      mload(0x40)\n      dup1\n      swap2\n      sub\n      swap1\n      revert\n    tag_80:\n        /* \"contracts/voting.sol\":3228:3232  true */\n      0x01\n        /* \"contracts/voting.sol\":3214:3219  voter */\n      dup2\n        /* \"contracts/voting.sol\":3214:3225  voter.voted */\n      0x00\n      add\n      0x00\n        /* \"contracts/voting.sol\":3214:3232  voter.voted = true */\n      0x0100\n      exp\n      dup2\n      sload\n      dup2\n      0xff\n      mul\n      not\n      and\n      swap1\n      dup4\n      iszero\n      iszero\n      mul\n      or\n      swap1\n      sstore\n      pop\n        /* \"contracts/voting.sol\":3256:3261  index */\n      dup2\n        /* \"contracts/voting.sol\":3243:3248  voter */\n      dup2\n        /* \"contracts/voting.sol\":3243:3253  voter.vote */\n      0x01\n      add\n        /* \"contracts/voting.sol\":3243:3261  voter.vote = index */\n      dup2\n      swap1\n      sstore\n      pop\n        /* \"contracts/voting.sol\":3310:3311  1 */\n      0x01\n        /* \"contracts/voting.sol\":3274:3289  proposalMembers */\n      dup1\n        /* \"contracts/voting.sol\":3290:3295  index */\n      dup4\n        /* \"contracts/voting.sol\":3274:3296  proposalMembers[index] */\n      dup2\n      sload\n      dup2\n      lt\n      tag_83\n      jumpi\n      tag_84\n      tag_85\n      jump\t// in\n    tag_84:\n    tag_83:\n      swap1\n      0x00\n      mstore\n      keccak256(0x00, 0x20)\n      swap1\n      0x02\n      mul\n      add\n        /* \"contracts/voting.sol\":3274:3306  proposalMembers[index].voteCount */\n      0x01\n      add\n      0x00\n        /* \"contracts/voting.sol\":3274:3311  proposalMembers[index].voteCount += 1 */\n      dup3\n      dup3\n      sload\n      tag_87\n      swap2\n      swap1\n      tag_88\n      jump\t// in\n    tag_87:\n      swap3\n      pop\n      pop\n      dup2\n      swap1\n      sstore\n      pop\n        /* \"contracts/voting.sol\":3329:3353  Voted(msg.sender, index) */\n      0x4d99b957a2bc29a30ebd96a7be8e68fe50a3c701db28a91436490b7d53870ca4\n        /* \"contracts/voting.sol\":3335:3345  msg.sender */\n      caller\n        /* \"contracts/voting.sol\":3347:3352  index */\n      dup4\n        /* \"contracts/voting.sol\":3329:3353  Voted(msg.sender, index) */\n      mload(0x40)\n      tag_89\n      swap3\n      swap2\n      swap1\n      tag_90\n      jump\t// in\n    tag_89:\n      mload(0x40)\n      dup1\n      swap2\n      sub\n      swap1\n      log1\n        /* \"contracts/voting.sol\":2953:3361  {... */\n      pop\n        /* \"contracts/voting.sol\":2918:3361  function vote(uint index) external {... */\n      pop\n      jump\t// out\n        /* \"contracts/voting.sol\":303:348  mapping(address => Voter) public voterMembers */\n    tag_25:\n      mstore(0x20, 0x02)\n      dup1\n      0x00\n      mstore\n      keccak256(0x00, 0x40)\n      0x00\n      swap2\n      pop\n      swap1\n      pop\n      dup1\n      0x00\n      add\n      0x00\n      swap1\n      sload\n      swap1\n      0x0100\n      exp\n      swap1\n      div\n      0xff\n      and\n      swap1\n      dup1\n      0x01\n      add\n      sload\n      swap1\n      pop\n      dup3\n      jump\t// out\n        /* \"contracts/voting.sol\":2160:2477  function nextPhase() external onlyOwner {... */\n    tag_29:\n        /* \"contracts/voting.sol\":739:744  owner */\n      0x00\n      dup1\n      sload\n      swap1\n      0x0100\n      exp\n      swap1\n      div\n      0xffffffffffffffffffffffffffffffffffffffff\n      and\n        /* \"contracts/voting.sol\":725:744  msg.sender == owner */\n      0xffffffffffffffffffffffffffffffffffffffff\n      and\n        /* \"contracts/voting.sol\":725:735  msg.sender */\n      caller\n        /* \"contracts/voting.sol\":725:744  msg.sender == owner */\n      0xffffffffffffffffffffffffffffffffffffffff\n      and\n      eq\n        /* \"contracts/voting.sol\":717:768  require(msg.sender == owner, \"Only owner can call\") */\n      tag_92\n      jumpi\n      mload(0x40)\n      0x08c379a000000000000000000000000000000000000000000000000000000000\n      dup2\n      mstore\n      0x04\n      add\n      tag_93\n      swap1\n      tag_94\n      jump\t// in\n    tag_93:\n      mload(0x40)\n      dup1\n      swap2\n      sub\n      swap1\n      revert\n    tag_92:\n        /* \"contracts/voting.sol\":2224:2242  Phase.Registration */\n      0x01\n        /* \"contracts/voting.sol\":2215:2242  phase == Phase.Registration */\n      0x03\n      dup2\n      gt\n      iszero\n      tag_96\n      jumpi\n      tag_97\n      tag_71\n      jump\t// in\n    tag_97:\n    tag_96:\n        /* \"contracts/voting.sol\":2215:2220  phase */\n      0x04\n      0x00\n      swap1\n      sload\n      swap1\n      0x0100\n      exp\n      swap1\n      div\n      0xff\n      and\n        /* \"contracts/voting.sol\":2215:2242  phase == Phase.Registration */\n      0x03\n      dup2\n      gt\n      iszero\n      tag_98\n      jumpi\n      tag_99\n      tag_71\n      jump\t// in\n    tag_99:\n    tag_98:\n      sub\n        /* \"contracts/voting.sol\":2211:2433  if (phase == Phase.Registration) {... */\n      tag_100\n      jumpi\n        /* \"contracts/voting.sol\":2267:2279  Phase.Voting */\n      0x02\n        /* \"contracts/voting.sol\":2259:2264  phase */\n      0x04\n      0x00\n        /* \"contracts/voting.sol\":2259:2279  phase = Phase.Voting */\n      0x0100\n      exp\n      dup2\n      sload\n      dup2\n      0xff\n      mul\n      not\n      and\n      swap1\n      dup4\n      0x03\n      dup2\n      gt\n      iszero\n      tag_101\n      jumpi\n      tag_102\n      tag_71\n      jump\t// in\n    tag_102:\n    tag_101:\n      mul\n      or\n      swap1\n      sstore\n      pop\n        /* \"contracts/voting.sol\":2211:2433  if (phase == Phase.Registration) {... */\n      jump(tag_103)\n    tag_100:\n        /* \"contracts/voting.sol\":2310:2322  Phase.Voting */\n      0x02\n        /* \"contracts/voting.sol\":2301:2322  phase == Phase.Voting */\n      0x03\n      dup2\n      gt\n      iszero\n      tag_104\n      jumpi\n      tag_105\n      tag_71\n      jump\t// in\n    tag_105:\n    tag_104:\n        /* \"contracts/voting.sol\":2301:2306  phase */\n      0x04\n      0x00\n      swap1\n      sload\n      swap1\n      0x0100\n      exp\n      swap1\n      div\n      0xff\n      and\n        /* \"contracts/voting.sol\":2301:2322  phase == Phase.Voting */\n      0x03\n      dup2\n      gt\n      iszero\n      tag_106\n      jumpi\n      tag_107\n      tag_71\n      jump\t// in\n    tag_107:\n    tag_106:\n      sub\n        /* \"contracts/voting.sol\":2297:2433  if (phase == Phase.Voting) {... */\n      tag_108\n      jumpi\n        /* \"contracts/voting.sol\":2347:2358  Phase.Ended */\n      0x03\n        /* \"contracts/voting.sol\":2339:2344  phase */\n      0x04\n      0x00\n        /* \"contracts/voting.sol\":2339:2358  phase = Phase.Ended */\n      0x0100\n      exp\n      dup2\n      sload\n      dup2\n      0xff\n      mul\n      not\n      and\n      swap1\n      dup4\n      0x03\n      dup2\n      gt\n      iszero\n      tag_109\n      jumpi\n      tag_110\n      tag_71\n      jump\t// in\n    tag_110:\n    tag_109:\n      mul\n      or\n      swap1\n      sstore\n      pop\n        /* \"contracts/voting.sol\":2297:2433  if (phase == Phase.Voting) {... */\n      jump(tag_111)\n    tag_108:\n        /* \"contracts/voting.sol\":2391:2421  revert(\"Voting already ended\") */\n      mload(0x40)\n      0x08c379a000000000000000000000000000000000000000000000000000000000\n      dup2\n      mstore\n      0x04\n      add\n      tag_112\n      swap1\n      tag_113\n      jump\t// in\n    tag_112:\n      mload(0x40)\n      dup1\n      swap2\n      sub\n      swap1\n      revert\n        /* \"contracts/voting.sol\":2297:2433  if (phase == Phase.Voting) {... */\n    tag_111:\n        /* \"contracts/voting.sol\":2211:2433  if (phase == Phase.Registration) {... */\n    tag_103:\n        /* \"contracts/voting.sol\":2450:2469  PhaseChanged(phase) */\n      0xa6dcc92f45df25789d5639b7a0c97ba1edf3bb1c0b5dd3376fd96a0db87c4642\n        /* \"contracts/voting.sol\":2463:2468  phase */\n      0x04\n      0x00\n      swap1\n      sload\n      swap1\n      0x0100\n      exp\n      swap1\n      div\n      0xff\n      and\n        /* \"contracts/voting.sol\":2450:2469  PhaseChanged(phase) */\n      mload(0x40)\n      tag_114\n      swap2\n      swap1\n      tag_60\n      jump\t// in\n    tag_114:\n      mload(0x40)\n      dup1\n      swap2\n      sub\n      swap1\n      log1\n        /* \"contracts/voting.sol\":2160:2477  function nextPhase() external onlyOwner {... */\n      jump\t// out\n        /* \"contracts/voting.sol\":1643:2102  function addVoters(address voter)... */\n    tag_32:\n        /* \"contracts/voting.sol\":739:744  owner */\n      0x00\n      dup1\n      sload\n      swap1\n      0x0100\n      exp\n      swap1\n      div\n      0xffffffffffffffffffffffffffffffffffffffff\n      and\n        /* \"contracts/voting.sol\":725:744  msg.sender == owner */\n      0xffffffffffffffffffffffffffffffffffffffff\n      and\n        /* \"contracts/voting.sol\":725:735  msg.sender */\n      caller\n        /* \"contracts/voting.sol\":725:744  msg.sender == owner */\n      0xffffffffffffffffffffffffffffffffffffffff\n      and\n      eq\n        /* \"contracts/voting.sol\":717:768  require(msg.sender == owner, \"Only owner can call\") */\n      tag_116\n      jumpi\n      mload(0x40)\n      0x08c379a000000000000000000000000000000000000000000000000000000000\n      dup2\n      mstore\n      0x04\n      add\n      tag_117\n      swap1\n      tag_94\n      jump\t// in\n    tag_117:\n      mload(0x40)\n      dup1\n      swap2\n      sub\n      swap1\n      revert\n    tag_116:\n        /* \"contracts/voting.sol\":1747:1765  Phase.Registration */\n      0x01\n        /* \"contracts/voting.sol\":1738:1765  phase == Phase.Registration */\n      0x03\n      dup2\n      gt\n      iszero\n      tag_119\n      jumpi\n      tag_120\n      tag_71\n      jump\t// in\n    tag_120:\n    tag_119:\n        /* \"contracts/voting.sol\":1738:1743  phase */\n      0x04\n      0x00\n      swap1\n      sload\n      swap1\n      0x0100\n      exp\n      swap1\n      div\n      0xff\n      and\n        /* \"contracts/voting.sol\":1738:1765  phase == Phase.Registration */\n      0x03\n      dup2\n      gt\n      iszero\n      tag_121\n      jumpi\n      tag_122\n      tag_71\n      jump\t// in\n    tag_122:\n    tag_121:\n      eq\n        /* \"contracts/voting.sol\":1730:1792  require(phase == Phase.Registration, \"Not registration phase\") */\n      tag_123\n      jumpi\n      mload(0x40)\n      0x08c379a000000000000000000000000000000000000000000000000000000000\n      dup2\n      mstore\n      0x04\n      add\n      tag_124\n      swap1\n      tag_125\n      jump\t// in\n    tag_124:\n      mload(0x40)\n      dup1\n      swap2\n      sub\n      swap1\n      revert\n    tag_123:\n        /* \"contracts/voting.sol\":1828:1829  0 */\n      0x00\n        /* \"contracts/voting.sol\":1811:1830  voter != address(0) */\n      0xffffffffffffffffffffffffffffffffffffffff\n      and\n        /* \"contracts/voting.sol\":1811:1816  voter */\n      dup2\n        /* \"contracts/voting.sol\":1811:1830  voter != address(0) */\n      0xffffffffffffffffffffffffffffffffffffffff\n      and\n      sub\n        /* \"contracts/voting.sol\":1803:1850  require(voter != address(0), \"Invalid address\") */\n      tag_126\n      jumpi\n      mload(0x40)\n      0x08c379a000000000000000000000000000000000000000000000000000000000\n      dup2\n      mstore\n      0x04\n      add\n      tag_127\n      swap1\n      tag_128\n      jump\t// in\n    tag_127:\n      mload(0x40)\n      dup1\n      swap2\n      sub\n      swap1\n      revert\n    tag_126:\n        /* \"contracts/voting.sol\":1863:1887  Voter storage voteMember */\n      0x00\n        /* \"contracts/voting.sol\":1890:1902  voterMembers */\n      0x02\n        /* \"contracts/voting.sol\":1890:1909  voterMembers[voter] */\n      0x00\n        /* \"contracts/voting.sol\":1903:1908  voter */\n      dup4\n        /* \"contracts/voting.sol\":1890:1909  voterMembers[voter] */\n      0xffffffffffffffffffffffffffffffffffffffff\n      and\n      0xffffffffffffffffffffffffffffffffffffffff\n      and\n      dup2\n      mstore\n      0x20\n      add\n      swap1\n      dup2\n      mstore\n      0x20\n      add\n      0x00\n      keccak256\n        /* \"contracts/voting.sol\":1863:1909  Voter storage voteMember = voterMembers[voter] */\n      swap1\n      pop\n        /* \"contracts/voting.sol\":1929:1939  voteMember */\n      dup1\n        /* \"contracts/voting.sol\":1929:1945  voteMember.voted */\n      0x00\n      add\n      0x00\n      swap1\n      sload\n      swap1\n      0x0100\n      exp\n      swap1\n      div\n      0xff\n      and\n        /* \"contracts/voting.sol\":1928:1945  !voteMember.voted */\n      iszero\n        /* \"contracts/voting.sol\":1920:1968  require(!voteMember.voted, \"Already registered\") */\n      tag_129\n      jumpi\n      mload(0x40)\n      0x08c379a000000000000000000000000000000000000000000000000000000000\n      dup2\n      mstore\n      0x04\n      add\n      tag_130\n      swap1\n      tag_131\n      jump\t// in\n    tag_130:\n      mload(0x40)\n      dup1\n      swap2\n      sub\n      swap1\n      revert\n    tag_129:\n        /* \"contracts/voting.sol\":2003:2035  Voter({ voted: false, vote: 0 }) */\n      mload(0x40)\n      dup1\n      0x40\n      add\n      0x40\n      mstore\n      dup1\n        /* \"contracts/voting.sol\":2018:2023  false */\n      0x00\n        /* \"contracts/voting.sol\":2003:2035  Voter({ voted: false, vote: 0 }) */\n      iszero\n      iszero\n      dup2\n      mstore\n      0x20\n      add\n        /* \"contracts/voting.sol\":2031:2032  0 */\n      0x00\n        /* \"contracts/voting.sol\":2003:2035  Voter({ voted: false, vote: 0 }) */\n      dup2\n      mstore\n      pop\n        /* \"contracts/voting.sol\":1981:1993  voterMembers */\n      0x02\n        /* \"contracts/voting.sol\":1981:2000  voterMembers[voter] */\n      0x00\n        /* \"contracts/voting.sol\":1994:1999  voter */\n      dup5\n        /* \"contracts/voting.sol\":1981:2000  voterMembers[voter] */\n      0xffffffffffffffffffffffffffffffffffffffff\n      and\n      0xffffffffffffffffffffffffffffffffffffffff\n      and\n      dup2\n      mstore\n      0x20\n      add\n      swap1\n      dup2\n      mstore\n      0x20\n      add\n      0x00\n      keccak256\n        /* \"contracts/voting.sol\":1981:2035  voterMembers[voter] = Voter({ voted: false, vote: 0 }) */\n      0x00\n      dup3\n      add\n      mload\n      dup2\n      0x00\n      add\n      exp(0x0100, 0x00)\n      dup2\n      sload\n      dup2\n      0xff\n      mul\n      not\n      and\n      swap1\n      dup4\n      iszero\n      iszero\n      mul\n      or\n      swap1\n      sstore\n      pop\n      0x20\n      dup3\n      add\n      mload\n      dup2\n      0x01\n      add\n      sstore\n      swap1\n      pop\n      pop\n        /* \"contracts/voting.sol\":2046:2057  totalVoters */\n      0x03\n      0x00\n        /* \"contracts/voting.sol\":2046:2059  totalVoters++ */\n      dup2\n      sload\n      dup1\n      swap3\n      swap2\n      swap1\n      tag_132\n      swap1\n      tag_133\n      jump\t// in\n    tag_132:\n      swap2\n      swap1\n      pop\n      sstore\n      pop\n        /* \"contracts/voting.sol\":2077:2094  VoterAdded(voter) */\n      0xa636f4a11e2d3ba7f89d042ecb0a6b886716e98cd49d8fd876ee0f73bced42b8\n        /* \"contracts/voting.sol\":2088:2093  voter */\n      dup3\n        /* \"contracts/voting.sol\":2077:2094  VoterAdded(voter) */\n      mload(0x40)\n      tag_134\n      swap2\n      swap1\n      tag_48\n      jump\t// in\n    tag_134:\n      mload(0x40)\n      dup1\n      swap2\n      sub\n      swap1\n      log1\n        /* \"contracts/voting.sol\":1719:2102  {... */\n      pop\n        /* \"contracts/voting.sol\":1643:2102  function addVoters(address voter)... */\n      pop\n      jump\t// out\n        /* \"contracts/voting.sol\":263:296  Proposal[] public proposalMembers */\n    tag_35:\n      0x01\n      dup2\n      dup2\n      sload\n      dup2\n      lt\n      tag_135\n      jumpi\n      0x00\n      dup1\n      revert\n    tag_135:\n      swap1\n      0x00\n      mstore\n      keccak256(0x00, 0x20)\n      swap1\n      0x02\n      mul\n      add\n      0x00\n      swap2\n      pop\n      swap1\n      pop\n      dup1\n      0x00\n      add\n      dup1\n      sload\n      tag_137\n      swap1\n      tag_138\n      jump\t// in\n    tag_137:\n      dup1\n      0x1f\n      add\n      0x20\n      dup1\n      swap2\n      div\n      mul\n      0x20\n      add\n      mload(0x40)\n      swap1\n      dup2\n      add\n      0x40\n      mstore\n      dup1\n      swap3\n      swap2\n      swap1\n      dup2\n      dup2\n      mstore\n      0x20\n      add\n      dup3\n      dup1\n      sload\n      tag_139\n      swap1\n      tag_138\n      jump\t// in\n    tag_139:\n      dup1\n      iszero\n      tag_140\n      jumpi\n      dup1\n      0x1f\n      lt\n      tag_141\n      jumpi\n      0x0100\n      dup1\n      dup4\n      sload\n      div\n      mul\n      dup4\n      mstore\n      swap2\n      0x20\n      add\n      swap2\n      jump(tag_140)\n    tag_141:\n      dup3\n      add\n      swap2\n      swap1\n      0x00\n      mstore\n      keccak256(0x00, 0x20)\n      swap1\n    tag_142:\n      dup2\n      sload\n      dup2\n      mstore\n      swap1\n      0x01\n      add\n      swap1\n      0x20\n      add\n      dup1\n      dup4\n      gt\n      tag_142\n      jumpi\n      dup3\n      swap1\n      sub\n      0x1f\n      and\n      dup3\n      add\n      swap2\n    tag_140:\n      pop\n      pop\n      pop\n      pop\n      pop\n      swap1\n      dup1\n      0x01\n      add\n      sload\n      swap1\n      pop\n      dup3\n      jump\t// out\n        /* \"contracts/voting.sol\":3413:3878  function pickWinner() external view returns (uint winnerIndex) {... */\n    tag_39:\n        /* \"contracts/voting.sol\":3458:3474  uint winnerIndex */\n      0x00\n        /* \"contracts/voting.sol\":3504:3515  Phase.Ended */\n      0x03\n        /* \"contracts/voting.sol\":3495:3515  phase == Phase.Ended */\n      dup1\n      dup2\n      gt\n      iszero\n      tag_144\n      jumpi\n      tag_145\n      tag_71\n      jump\t// in\n    tag_145:\n    tag_144:\n        /* \"contracts/voting.sol\":3495:3500  phase */\n      0x04\n      0x00\n      swap1\n      sload\n      swap1\n      0x0100\n      exp\n      swap1\n      div\n      0xff\n      and\n        /* \"contracts/voting.sol\":3495:3515  phase == Phase.Ended */\n      0x03\n      dup2\n      gt\n      iszero\n      tag_146\n      jumpi\n      tag_147\n      tag_71\n      jump\t// in\n    tag_147:\n    tag_146:\n      eq\n        /* \"contracts/voting.sol\":3487:3540  require(phase == Phase.Ended, \"Voting not ended yet\") */\n      tag_148\n      jumpi\n      mload(0x40)\n      0x08c379a000000000000000000000000000000000000000000000000000000000\n      dup2\n      mstore\n      0x04\n      add\n      tag_149\n      swap1\n      tag_150\n      jump\t// in\n    tag_149:\n      mload(0x40)\n      dup1\n      swap2\n      sub\n      swap1\n      revert\n    tag_148:\n        /* \"contracts/voting.sol\":3553:3570  uint highestVotes */\n      0x00\n        /* \"contracts/voting.sol\":3585:3596  uint winner */\n      dup1\n        /* \"contracts/voting.sol\":3618:3624  uint i */\n      0x00\n        /* \"contracts/voting.sol\":3613:3845  for (uint i = 0; i < proposalMembers.length; i++) {... */\n    tag_151:\n        /* \"contracts/voting.sol\":3634:3649  proposalMembers */\n      0x01\n        /* \"contracts/voting.sol\":3634:3656  proposalMembers.length */\n      dup1\n      sload\n      swap1\n      pop\n        /* \"contracts/voting.sol\":3630:3631  i */\n      dup2\n        /* \"contracts/voting.sol\":3630:3656  i < proposalMembers.length */\n      lt\n        /* \"contracts/voting.sol\":3613:3845  for (uint i = 0; i < proposalMembers.length; i++) {... */\n      iszero\n      tag_152\n      jumpi\n        /* \"contracts/voting.sol\":3713:3725  highestVotes */\n      dup3\n        /* \"contracts/voting.sol\":3682:3697  proposalMembers */\n      0x01\n        /* \"contracts/voting.sol\":3698:3699  i */\n      dup3\n        /* \"contracts/voting.sol\":3682:3700  proposalMembers[i] */\n      dup2\n      sload\n      dup2\n      lt\n      tag_154\n      jumpi\n      tag_155\n      tag_85\n      jump\t// in\n    tag_155:\n    tag_154:\n      swap1\n      0x00\n      mstore\n      keccak256(0x00, 0x20)\n      swap1\n      0x02\n      mul\n      add\n        /* \"contracts/voting.sol\":3682:3710  proposalMembers[i].voteCount */\n      0x01\n      add\n      sload\n        /* \"contracts/voting.sol\":3682:3725  proposalMembers[i].voteCount > highestVotes */\n      gt\n        /* \"contracts/voting.sol\":3678:3834  if (proposalMembers[i].voteCount > highestVotes) {... */\n      iszero\n      tag_157\n      jumpi\n        /* \"contracts/voting.sol\":3761:3776  proposalMembers */\n      0x01\n        /* \"contracts/voting.sol\":3777:3778  i */\n      dup2\n        /* \"contracts/voting.sol\":3761:3779  proposalMembers[i] */\n      dup2\n      sload\n      dup2\n      lt\n      tag_158\n      jumpi\n      tag_159\n      tag_85\n      jump\t// in\n    tag_159:\n    tag_158:\n      swap1\n      0x00\n      mstore\n      keccak256(0x00, 0x20)\n      swap1\n      0x02\n      mul\n      add\n        /* \"contracts/voting.sol\":3761:3789  proposalMembers[i].voteCount */\n      0x01\n      add\n      sload\n        /* \"contracts/voting.sol\":3746:3789  highestVotes = proposalMembers[i].voteCount */\n      swap3\n      pop\n        /* \"contracts/voting.sol\":3817:3818  i */\n      dup1\n        /* \"contracts/voting.sol\":3808:3818  winner = i */\n      swap2\n      pop\n        /* \"contracts/voting.sol\":3678:3834  if (proposalMembers[i].voteCount > highestVotes) {... */\n    tag_157:\n        /* \"contracts/voting.sol\":3658:3661  i++ */\n      dup1\n      dup1\n      tag_161\n      swap1\n      tag_133\n      jump\t// in\n    tag_161:\n      swap2\n      pop\n      pop\n        /* \"contracts/voting.sol\":3613:3845  for (uint i = 0; i < proposalMembers.length; i++) {... */\n      jump(tag_151)\n    tag_152:\n      pop\n        /* \"contracts/voting.sol\":3864:3870  winner */\n      dup1\n        /* \"contracts/voting.sol\":3857:3870  return winner */\n      swap3\n      pop\n      pop\n      pop\n        /* \"contracts/voting.sol\":3413:3878  function pickWinner() external view returns (uint winnerIndex) {... */\n      swap1\n      jump\t// out\n        /* \"contracts/voting.sol\":355:378  uint public totalVoters */\n    tag_43:\n      sload(0x03)\n      dup2\n      jump\t// out\n        /* \"contracts/voting.sol\":84:104  address public owner */\n    tag_46:\n      0x00\n      dup1\n      sload\n      swap1\n      0x0100\n      exp\n      swap1\n      div\n      0xffffffffffffffffffffffffffffffffffffffff\n      and\n      dup2\n      jump\t// out\n        /* \"contracts/voting.sol\":2776:2882  function showProposals() external view returns(Proposal[] memory){... */\n    tag_50:\n        /* \"contracts/voting.sol\":2823:2840  Proposal[] memory */\n      0x60\n        /* \"contracts/voting.sol\":2859:2874  proposalMembers */\n      0x01\n        /* \"contracts/voting.sol\":2852:2874  return proposalMembers */\n      dup1\n      sload\n      dup1\n      0x20\n      mul\n      0x20\n      add\n      mload(0x40)\n      swap1\n      dup2\n      add\n      0x40\n      mstore\n      dup1\n      swap3\n      swap2\n      swap1\n      dup2\n      dup2\n      mstore\n      0x20\n      add\n      0x00\n      swap1\n    tag_163:\n      dup3\n      dup3\n      lt\n      iszero\n      tag_164\n      jumpi\n      dup4\n      dup3\n      swap1\n      0x00\n      mstore\n      keccak256(0x00, 0x20)\n      swap1\n      0x02\n      mul\n      add\n      mload(0x40)\n      dup1\n      0x40\n      add\n      0x40\n      mstore\n      swap1\n      dup2\n      0x00\n      dup3\n      add\n      dup1\n      sload\n      tag_166\n      swap1\n      tag_138\n      jump\t// in\n    tag_166:\n      dup1\n      0x1f\n      add\n      0x20\n      dup1\n      swap2\n      div\n      mul\n      0x20\n      add\n      mload(0x40)\n      swap1\n      dup2\n      add\n      0x40\n      mstore\n      dup1\n      swap3\n      swap2\n      swap1\n      dup2\n      dup2\n      mstore\n      0x20\n      add\n      dup3\n      dup1\n      sload\n      tag_167\n      swap1\n      tag_138\n      jump\t// in\n    tag_167:\n      dup1\n      iszero\n      tag_168\n      jumpi\n      dup1\n      0x1f\n      lt\n      tag_169\n      jumpi\n      0x0100\n      dup1\n      dup4\n      sload\n      div\n      mul\n      dup4\n      mstore\n      swap2\n      0x20\n      add\n      swap2\n      jump(tag_168)\n    tag_169:\n      dup3\n      add\n      swap2\n      swap1\n      0x00\n      mstore\n      keccak256(0x00, 0x20)\n      swap1\n    tag_170:\n      dup2\n      sload\n      dup2\n      mstore\n      swap1\n      0x01\n      add\n      swap1\n      0x20\n      add\n      dup1\n      dup4\n      gt\n      tag_170\n      jumpi\n      dup3\n      swap1\n      sub\n      0x1f\n      and\n      dup3\n      add\n      swap2\n    tag_168:\n      pop\n      pop\n      pop\n      pop\n      pop\n      dup2\n      mstore\n      0x20\n      add\n      0x01\n      dup3\n      add\n      sload\n      dup2\n      mstore\n      pop\n      pop\n      dup2\n      mstore\n      0x20\n      add\n      swap1\n      0x01\n      add\n      swap1\n      jump(tag_163)\n    tag_164:\n      pop\n      pop\n      pop\n      pop\n      swap1\n      pop\n        /* \"contracts/voting.sol\":2776:2882  function showProposals() external view returns(Proposal[] memory){... */\n      swap1\n      jump\t// out\n        /* \"contracts/voting.sol\":1249:1576  function addProposals(string memory proposalName)... */\n    tag_56:\n        /* \"contracts/voting.sol\":739:744  owner */\n      0x00\n      dup1\n      sload\n      swap1\n      0x0100\n      exp\n      swap1\n      div\n      0xffffffffffffffffffffffffffffffffffffffff\n      and\n        /* \"contracts/voting.sol\":725:744  msg.sender == owner */\n      0xffffffffffffffffffffffffffffffffffffffff\n      and\n        /* \"contracts/voting.sol\":725:735  msg.sender */\n      caller\n        /* \"contracts/voting.sol\":725:744  msg.sender == owner */\n      0xffffffffffffffffffffffffffffffffffffffff\n      and\n      eq\n        /* \"contracts/voting.sol\":717:768  require(msg.sender == owner, \"Only owner can call\") */\n      tag_172\n      jumpi\n      mload(0x40)\n      0x08c379a000000000000000000000000000000000000000000000000000000000\n      dup2\n      mstore\n      0x04\n      add\n      tag_173\n      swap1\n      tag_94\n      jump\t// in\n    tag_173:\n      mload(0x40)\n      dup1\n      swap2\n      sub\n      swap1\n      revert\n    tag_172:\n        /* \"contracts/voting.sol\":1369:1387  Phase.Registration */\n      0x01\n        /* \"contracts/voting.sol\":1360:1387  phase == Phase.Registration */\n      0x03\n      dup2\n      gt\n      iszero\n      tag_175\n      jumpi\n      tag_176\n      tag_71\n      jump\t// in\n    tag_176:\n    tag_175:\n        /* \"contracts/voting.sol\":1360:1365  phase */\n      0x04\n      0x00\n      swap1\n      sload\n      swap1\n      0x0100\n      exp\n      swap1\n      div\n      0xff\n      and\n        /* \"contracts/voting.sol\":1360:1387  phase == Phase.Registration */\n      0x03\n      dup2\n      gt\n      iszero\n      tag_177\n      jumpi\n      tag_178\n      tag_71\n      jump\t// in\n    tag_178:\n    tag_177:\n      eq\n        /* \"contracts/voting.sol\":1352:1417  require(phase == Phase.Registration, \"Not in registration phase\") */\n      tag_179\n      jumpi\n      mload(0x40)\n      0x08c379a000000000000000000000000000000000000000000000000000000000\n      dup2\n      mstore\n      0x04\n      add\n      tag_180\n      swap1\n      tag_181\n      jump\t// in\n    tag_180:\n      mload(0x40)\n      dup1\n      swap2\n      sub\n      swap1\n      revert\n    tag_179:\n        /* \"contracts/voting.sol\":1428:1443  proposalMembers */\n      0x01\n        /* \"contracts/voting.sol\":1449:1496  Proposal({ title: proposalName, voteCount: 0 }) */\n      mload(0x40)\n      dup1\n      0x40\n      add\n      0x40\n      mstore\n      dup1\n        /* \"contracts/voting.sol\":1467:1479  proposalName */\n      dup4\n        /* \"contracts/voting.sol\":1449:1496  Proposal({ title: proposalName, voteCount: 0 }) */\n      dup2\n      mstore\n      0x20\n      add\n        /* \"contracts/voting.sol\":1492:1493  0 */\n      0x00\n        /* \"contracts/voting.sol\":1449:1496  Proposal({ title: proposalName, voteCount: 0 }) */\n      dup2\n      mstore\n      pop\n        /* \"contracts/voting.sol\":1428:1497  proposalMembers.push(Proposal({ title: proposalName, voteCount: 0 })) */\n      swap1\n      dup1\n      0x01\n      dup2\n      sload\n      add\n      dup1\n      dup3\n      sstore\n      dup1\n      swap2\n      pop\n      pop\n      0x01\n      swap1\n      sub\n      swap1\n      0x00\n      mstore\n      keccak256(0x00, 0x20)\n      swap1\n      0x02\n      mul\n      add\n      0x00\n      swap1\n      swap2\n      swap1\n      swap2\n      swap1\n      swap2\n      pop\n      0x00\n      dup3\n      add\n      mload\n      dup2\n      0x00\n      add\n      swap1\n      dup2\n      tag_183\n      swap2\n      swap1\n      tag_184\n      jump\t// in\n    tag_183:\n      pop\n      0x20\n      dup3\n      add\n      mload\n      dup2\n      0x01\n      add\n      sstore\n      pop\n      pop\n        /* \"contracts/voting.sol\":1513:1568  ProposalAdded(proposalMembers.length - 1, proposalName) */\n      0xf970aa486598017b8116c2beb18c50d4584ecbc3c688817f59b26796725f31bf\n        /* \"contracts/voting.sol\":1552:1553  1 */\n      0x01\n        /* \"contracts/voting.sol\":1527:1542  proposalMembers */\n      dup1\n        /* \"contracts/voting.sol\":1527:1549  proposalMembers.length */\n      dup1\n      sload\n      swap1\n      pop\n        /* \"contracts/voting.sol\":1527:1553  proposalMembers.length - 1 */\n      tag_185\n      swap2\n      swap1\n      tag_186\n      jump\t// in\n    tag_185:\n        /* \"contracts/voting.sol\":1555:1567  proposalName */\n      dup3\n        /* \"contracts/voting.sol\":1513:1568  ProposalAdded(proposalMembers.length - 1, proposalName) */\n      mload(0x40)\n      tag_187\n      swap3\n      swap2\n      swap1\n      tag_188\n      jump\t// in\n    tag_187:\n      mload(0x40)\n      dup1\n      swap2\n      sub\n      swap1\n      log1\n        /* \"contracts/voting.sol\":1249:1576  function addProposals(string memory proposalName)... */\n      pop\n      jump\t// out\n        /* \"contracts/voting.sol\":447:465  Phase public phase */\n    tag_58:\n      0x04\n      0x00\n      swap1\n      sload\n      swap1\n      0x0100\n      exp\n      swap1\n      div\n      0xff\n      and\n      dup2\n      jump\t// out\n        /* \"contracts/voting.sol\":3914:4071  function winnerName() external view returns (string memory) {... */\n    tag_62:\n        /* \"contracts/voting.sol\":3959:3972  string memory */\n      0x60\n        /* \"contracts/voting.sol\":3985:3996  uint winner */\n      0x00\n        /* \"contracts/voting.sol\":3999:4003  this */\n      address\n        /* \"contracts/voting.sol\":3999:4014  this.pickWinner */\n      0xffffffffffffffffffffffffffffffffffffffff\n      and\n      0x5d495aea\n        /* \"contracts/voting.sol\":3999:4016  this.pickWinner() */\n      mload(0x40)\n      dup2\n      0xffffffff\n      and\n      0xe0\n      shl\n      dup2\n      mstore\n      0x04\n      add\n      0x20\n      mload(0x40)\n      dup1\n      dup4\n      sub\n      dup2\n      dup7\n      gas\n      staticcall\n      iszero\n      dup1\n      iszero\n      tag_191\n      jumpi\n      returndatasize\n      0x00\n      dup1\n      returndatacopy\n      revert(0x00, returndatasize)\n    tag_191:\n      pop\n      pop\n      pop\n      pop\n      mload(0x40)\n      returndatasize\n      not(0x1f)\n      0x1f\n      dup3\n      add\n      and\n      dup3\n      add\n      dup1\n      0x40\n      mstore\n      pop\n      dup2\n      add\n      swap1\n      tag_192\n      swap2\n      swap1\n      tag_193\n      jump\t// in\n    tag_192:\n        /* \"contracts/voting.sol\":3985:4016  uint winner = this.pickWinner() */\n      swap1\n      pop\n        /* \"contracts/voting.sol\":4034:4049  proposalMembers */\n      0x01\n        /* \"contracts/voting.sol\":4050:4056  winner */\n      dup2\n        /* \"contracts/voting.sol\":4034:4057  proposalMembers[winner] */\n      dup2\n      sload\n      dup2\n      lt\n      tag_194\n      jumpi\n      tag_195\n      tag_85\n      jump\t// in\n    tag_195:\n    tag_194:\n      swap1\n      0x00\n      mstore\n      keccak256(0x00, 0x20)\n      swap1\n      0x02\n      mul\n      add\n        /* \"contracts/voting.sol\":4034:4063  proposalMembers[winner].title */\n      0x00\n      add\n        /* \"contracts/voting.sol\":4027:4063  return proposalMembers[winner].title */\n      dup1\n      sload\n      tag_197\n      swap1\n      tag_138\n      jump\t// in\n    tag_197:\n      dup1\n      0x1f\n      add\n      0x20\n      dup1\n      swap2\n      div\n      mul\n      0x20\n      add\n      mload(0x40)\n      swap1\n      dup2\n      add\n      0x40\n      mstore\n      dup1\n      swap3\n      swap2\n      swap1\n      dup2\n      dup2\n      mstore\n      0x20\n      add\n      dup3\n      dup1\n      sload\n      tag_198\n      swap1\n      tag_138\n      jump\t// in\n    tag_198:\n      dup1\n      iszero\n      tag_199\n      jumpi\n      dup1\n      0x1f\n      lt\n      tag_200\n      jumpi\n      0x0100\n      dup1\n      dup4\n      sload\n      div\n      mul\n      dup4\n      mstore\n      swap2\n      0x20\n      add\n      swap2\n      jump(tag_199)\n    tag_200:\n      dup3\n      add\n      swap2\n      swap1\n      0x00\n      mstore\n      keccak256(0x00, 0x20)\n      swap1\n    tag_201:\n      dup2\n      sload\n      dup2\n      mstore\n      swap1\n      0x01\n      add\n      swap1\n      0x20\n      add\n      dup1\n      dup4\n      gt\n      tag_201\n      jumpi\n      dup3\n      swap1\n      sub\n      0x1f\n      and\n      dup3\n      add\n      swap2\n    tag_199:\n      pop\n      pop\n      pop\n      pop\n      pop\n      swap2\n      pop\n      pop\n        /* \"contracts/voting.sol\":3914:4071  function winnerName() external view returns (string memory) {... */\n      swap1\n      jump\t// out\n        /* \"contracts/voting.sol\":2485:2768  function getPhase()external view returns(string memory){... */\n    tag_66:\n        /* \"contracts/voting.sol\":2526:2539  string memory */\n      0x60\n        /* \"contracts/voting.sol\":2564:2580  Phase.NotStarted */\n      0x00\n        /* \"contracts/voting.sol\":2555:2580  phase == Phase.NotStarted */\n      0x03\n      dup2\n      gt\n      iszero\n      tag_203\n      jumpi\n      tag_204\n      tag_71\n      jump\t// in\n    tag_204:\n    tag_203:\n        /* \"contracts/voting.sol\":2555:2560  phase */\n      0x04\n      0x00\n      swap1\n      sload\n      swap1\n      0x0100\n      exp\n      swap1\n      div\n      0xff\n      and\n        /* \"contracts/voting.sol\":2555:2580  phase == Phase.NotStarted */\n      0x03\n      dup2\n      gt\n      iszero\n      tag_205\n      jumpi\n      tag_206\n      tag_71\n      jump\t// in\n    tag_206:\n    tag_205:\n      sub\n        /* \"contracts/voting.sol\":2551:2760  if (phase == Phase.NotStarted) return \"Not Started\";... */\n      tag_207\n      jumpi\n        /* \"contracts/voting.sol\":2582:2602  return \"Not Started\" */\n      mload(0x40)\n      dup1\n      0x40\n      add\n      0x40\n      mstore\n      dup1\n      0x0b\n      dup2\n      mstore\n      0x20\n      add\n      0x4e6f742053746172746564000000000000000000000000000000000000000000\n      dup2\n      mstore\n      pop\n      swap1\n      pop\n      jump(tag_202)\n        /* \"contracts/voting.sol\":2551:2760  if (phase == Phase.NotStarted) return \"Not Started\";... */\n    tag_207:\n        /* \"contracts/voting.sol\":2631:2649  Phase.Registration */\n      0x01\n        /* \"contracts/voting.sol\":2622:2649  phase == Phase.Registration */\n      0x03\n      dup2\n      gt\n      iszero\n      tag_209\n      jumpi\n      tag_210\n      tag_71\n      jump\t// in\n    tag_210:\n    tag_209:\n        /* \"contracts/voting.sol\":2622:2627  phase */\n      0x04\n      0x00\n      swap1\n      sload\n      swap1\n      0x0100\n      exp\n      swap1\n      div\n      0xff\n      and\n        /* \"contracts/voting.sol\":2622:2649  phase == Phase.Registration */\n      0x03\n      dup2\n      gt\n      iszero\n      tag_211\n      jumpi\n      tag_212\n      tag_71\n      jump\t// in\n    tag_212:\n    tag_211:\n      sub\n        /* \"contracts/voting.sol\":2618:2760  if (phase == Phase.Registration) return \"Registration\";... */\n      tag_213\n      jumpi\n        /* \"contracts/voting.sol\":2651:2672  return \"Registration\" */\n      mload(0x40)\n      dup1\n      0x40\n      add\n      0x40\n      mstore\n      dup1\n      0x0c\n      dup2\n      mstore\n      0x20\n      add\n      0x526567697374726174696f6e0000000000000000000000000000000000000000\n      dup2\n      mstore\n      pop\n      swap1\n      pop\n      jump(tag_202)\n        /* \"contracts/voting.sol\":2618:2760  if (phase == Phase.Registration) return \"Registration\";... */\n    tag_213:\n        /* \"contracts/voting.sol\":2701:2713  Phase.Voting */\n      0x02\n        /* \"contracts/voting.sol\":2692:2713  phase == Phase.Voting */\n      0x03\n      dup2\n      gt\n      iszero\n      tag_215\n      jumpi\n      tag_216\n      tag_71\n      jump\t// in\n    tag_216:\n    tag_215:\n        /* \"contracts/voting.sol\":2692:2697  phase */\n      0x04\n      0x00\n      swap1\n      sload\n      swap1\n      0x0100\n      exp\n      swap1\n      div\n      0xff\n      and\n        /* \"contracts/voting.sol\":2692:2713  phase == Phase.Voting */\n      0x03\n      dup2\n      gt\n      iszero\n      tag_217\n      jumpi\n      tag_218\n      tag_71\n      jump\t// in\n    tag_218:\n    tag_217:\n      sub\n        /* \"contracts/voting.sol\":2688:2760  if (phase == Phase.Voting) return \"Voting\";... */\n      tag_219\n      jumpi\n        /* \"contracts/voting.sol\":2715:2730  return \"Voting\" */\n      mload(0x40)\n      dup1\n      0x40\n      add\n      0x40\n      mstore\n      dup1\n      0x06\n      dup2\n      mstore\n      0x20\n      add\n      0x566f74696e670000000000000000000000000000000000000000000000000000\n      dup2\n      mstore\n      pop\n      swap1\n      pop\n      jump(tag_202)\n        /* \"contracts/voting.sol\":2688:2760  if (phase == Phase.Voting) return \"Voting\";... */\n    tag_219:\n        /* \"contracts/voting.sol\":2746:2760  return \"Ended\" */\n      mload(0x40)\n      dup1\n      0x40\n      add\n      0x40\n      mstore\n      dup1\n      0x05\n      dup2\n      mstore\n      0x20\n      add\n      0x456e646564000000000000000000000000000000000000000000000000000000\n      dup2\n      mstore\n      pop\n      swap1\n      pop\n        /* \"contracts/voting.sol\":2485:2768  function getPhase()external view returns(string memory){... */\n    tag_202:\n      swap1\n      jump\t// out\n        /* \"#utility.yul\":7:82   */\n    tag_221:\n        /* \"#utility.yul\":40:46   */\n      0x00\n        /* \"#utility.yul\":73:75   */\n      0x40\n        /* \"#utility.yul\":67:76   */\n      mload\n        /* \"#utility.yul\":57:76   */\n      swap1\n      pop\n        /* \"#utility.yul\":7:82   */\n      swap1\n      jump\t// out\n        /* \"#utility.yul\":88:205   */\n    tag_222:\n        /* \"#utility.yul\":197:198   */\n      0x00\n        /* \"#utility.yul\":194:195   */\n      dup1\n        /* \"#utility.yul\":187:199   */\n      revert\n        /* \"#utility.yul\":211:328   */\n    tag_223:\n        /* \"#utility.yul\":320:321   */\n      0x00\n        /* \"#utility.yul\":317:318   */\n      dup1\n        /* \"#utility.yul\":310:322   */\n      revert\n        /* \"#utility.yul\":334:411   */\n    tag_224:\n        /* \"#utility.yul\":371:378   */\n      0x00\n        /* \"#utility.yul\":400:405   */\n      dup2\n        /* \"#utility.yul\":389:405   */\n      swap1\n      pop\n        /* \"#utility.yul\":334:411   */\n      swap2\n      swap1\n      pop\n      jump\t// out\n        /* \"#utility.yul\":417:539   */\n    tag_225:\n        /* \"#utility.yul\":490:514   */\n      tag_307\n        /* \"#utility.yul\":508:513   */\n      dup2\n        /* \"#utility.yul\":490:514   */\n      tag_224\n      jump\t// in\n    tag_307:\n        /* \"#utility.yul\":483:488   */\n      dup2\n        /* \"#utility.yul\":480:515   */\n      eq\n        /* \"#utility.yul\":470:533   */\n      tag_308\n      jumpi\n        /* \"#utility.yul\":529:530   */\n      0x00\n        /* \"#utility.yul\":526:527   */\n      dup1\n        /* \"#utility.yul\":519:531   */\n      revert\n        /* \"#utility.yul\":470:533   */\n    tag_308:\n        /* \"#utility.yul\":417:539   */\n      pop\n      jump\t// out\n        /* \"#utility.yul\":545:684   */\n    tag_226:\n        /* \"#utility.yul\":591:596   */\n      0x00\n        /* \"#utility.yul\":629:635   */\n      dup2\n        /* \"#utility.yul\":616:636   */\n      calldataload\n        /* \"#utility.yul\":607:636   */\n      swap1\n      pop\n        /* \"#utility.yul\":645:678   */\n      tag_310\n        /* \"#utility.yul\":672:677   */\n      dup2\n        /* \"#utility.yul\":645:678   */\n      tag_225\n      jump\t// in\n    tag_310:\n        /* \"#utility.yul\":545:684   */\n      swap3\n      swap2\n      pop\n      pop\n      jump\t// out\n        /* \"#utility.yul\":690:1019   */\n    tag_20:\n        /* \"#utility.yul\":749:755   */\n      0x00\n        /* \"#utility.yul\":798:800   */\n      0x20\n        /* \"#utility.yul\":786:795   */\n      dup3\n        /* \"#utility.yul\":777:784   */\n      dup5\n        /* \"#utility.yul\":773:796   */\n      sub\n        /* \"#utility.yul\":769:801   */\n      slt\n        /* \"#utility.yul\":766:885   */\n      iszero\n      tag_312\n      jumpi\n        /* \"#utility.yul\":804:883   */\n      tag_313\n      tag_222\n      jump\t// in\n    tag_313:\n        /* \"#utility.yul\":766:885   */\n    tag_312:\n        /* \"#utility.yul\":924:925   */\n      0x00\n        /* \"#utility.yul\":949:1002   */\n      tag_314\n        /* \"#utility.yul\":994:1001   */\n      dup5\n        /* \"#utility.yul\":985:991   */\n      dup3\n        /* \"#utility.yul\":974:983   */\n      dup6\n        /* \"#utility.yul\":970:992   */\n      add\n        /* \"#utility.yul\":949:1002   */\n      tag_226\n      jump\t// in\n    tag_314:\n        /* \"#utility.yul\":939:1002   */\n      swap2\n      pop\n        /* \"#utility.yul\":895:1012   */\n      pop\n        /* \"#utility.yul\":690:1019   */\n      swap3\n      swap2\n      pop\n      pop\n      jump\t// out\n        /* \"#utility.yul\":1025:1151   */\n    tag_227:\n        /* \"#utility.yul\":1062:1069   */\n      0x00\n        /* \"#utility.yul\":1102:1144   */\n      0xffffffffffffffffffffffffffffffffffffffff\n        /* \"#utility.yul\":1095:1100   */\n      dup3\n        /* \"#utility.yul\":1091:1145   */\n      and\n        /* \"#utility.yul\":1080:1145   */\n      swap1\n      pop\n        /* \"#utility.yul\":1025:1151   */\n      swap2\n      swap1\n      pop\n      jump\t// out\n        /* \"#utility.yul\":1157:1253   */\n    tag_228:\n        /* \"#utility.yul\":1194:1201   */\n      0x00\n        /* \"#utility.yul\":1223:1247   */\n      tag_317\n        /* \"#utility.yul\":1241:1246   */\n      dup3\n        /* \"#utility.yul\":1223:1247   */\n      tag_227\n      jump\t// in\n    tag_317:\n        /* \"#utility.yul\":1212:1247   */\n      swap1\n      pop\n        /* \"#utility.yul\":1157:1253   */\n      swap2\n      swap1\n      pop\n      jump\t// out\n        /* \"#utility.yul\":1259:1381   */\n    tag_229:\n        /* \"#utility.yul\":1332:1356   */\n      tag_319\n        /* \"#utility.yul\":1350:1355   */\n      dup2\n        /* \"#utility.yul\":1332:1356   */\n      tag_228\n      jump\t// in\n    tag_319:\n        /* \"#utility.yul\":1325:1330   */\n      dup2\n        /* \"#utility.yul\":1322:1357   */\n      eq\n        /* \"#utility.yul\":1312:1375   */\n      tag_320\n      jumpi\n        /* \"#utility.yul\":1371:1372   */\n      0x00\n        /* \"#utility.yul\":1368:1369   */\n      dup1\n        /* \"#utility.yul\":1361:1373   */\n      revert\n        /* \"#utility.yul\":1312:1375   */\n    tag_320:\n        /* \"#utility.yul\":1259:1381   */\n      pop\n      jump\t// out\n        /* \"#utility.yul\":1387:1526   */\n    tag_230:\n        /* \"#utility.yul\":1433:1438   */\n      0x00\n        /* \"#utility.yul\":1471:1477   */\n      dup2\n        /* \"#utility.yul\":1458:1478   */\n      calldataload\n        /* \"#utility.yul\":1449:1478   */\n      swap1\n      pop\n        /* \"#utility.yul\":1487:1520   */\n      tag_322\n        /* \"#utility.yul\":1514:1519   */\n      dup2\n        /* \"#utility.yul\":1487:1520   */\n      tag_229\n      jump\t// in\n    tag_322:\n        /* \"#utility.yul\":1387:1526   */\n      swap3\n      swap2\n      pop\n      pop\n      jump\t// out\n        /* \"#utility.yul\":1532:1861   */\n    tag_24:\n        /* \"#utility.yul\":1591:1597   */\n      0x00\n        /* \"#utility.yul\":1640:1642   */\n      0x20\n        /* \"#utility.yul\":1628:1637   */\n      dup3\n        /* \"#utility.yul\":1619:1626   */\n      dup5\n        /* \"#utility.yul\":1615:1638   */\n      sub\n        /* \"#utility.yul\":1611:1643   */\n      slt\n        /* \"#utility.yul\":1608:1727   */\n      iszero\n      tag_324\n      jumpi\n        /* \"#utility.yul\":1646:1725   */\n      tag_325\n      tag_222\n      jump\t// in\n    tag_325:\n        /* \"#utility.yul\":1608:1727   */\n    tag_324:\n        /* \"#utility.yul\":1766:1767   */\n      0x00\n        /* \"#utility.yul\":1791:1844   */\n      tag_326\n        /* \"#utility.yul\":1836:1843   */\n      dup5\n        /* \"#utility.yul\":1827:1833   */\n      dup3\n        /* \"#utility.yul\":1816:1825   */\n      dup6\n        /* \"#utility.yul\":1812:1834   */\n      add\n        /* \"#utility.yul\":1791:1844   */\n      tag_230\n      jump\t// in\n    tag_326:\n        /* \"#utility.yul\":1781:1844   */\n      swap2\n      pop\n        /* \"#utility.yul\":1737:1854   */\n      pop\n        /* \"#utility.yul\":1532:1861   */\n      swap3\n      swap2\n      pop\n      pop\n      jump\t// out\n        /* \"#utility.yul\":1867:1957   */\n    tag_231:\n        /* \"#utility.yul\":1901:1908   */\n      0x00\n        /* \"#utility.yul\":1944:1949   */\n      dup2\n        /* \"#utility.yul\":1937:1950   */\n      iszero\n        /* \"#utility.yul\":1930:1951   */\n      iszero\n        /* \"#utility.yul\":1919:1951   */\n      swap1\n      pop\n        /* \"#utility.yul\":1867:1957   */\n      swap2\n      swap1\n      pop\n      jump\t// out\n        /* \"#utility.yul\":1963:2072   */\n    tag_232:\n        /* \"#utility.yul\":2044:2065   */\n      tag_329\n        /* \"#utility.yul\":2059:2064   */\n      dup2\n        /* \"#utility.yul\":2044:2065   */\n      tag_231\n      jump\t// in\n    tag_329:\n        /* \"#utility.yul\":2039:2042   */\n      dup3\n        /* \"#utility.yul\":2032:2066   */\n      mstore\n        /* \"#utility.yul\":1963:2072   */\n      pop\n      pop\n      jump\t// out\n        /* \"#utility.yul\":2078:2196   */\n    tag_233:\n        /* \"#utility.yul\":2165:2189   */\n      tag_331\n        /* \"#utility.yul\":2183:2188   */\n      dup2\n        /* \"#utility.yul\":2165:2189   */\n      tag_224\n      jump\t// in\n    tag_331:\n        /* \"#utility.yul\":2160:2163   */\n      dup3\n        /* \"#utility.yul\":2153:2190   */\n      mstore\n        /* \"#utility.yul\":2078:2196   */\n      pop\n      pop\n      jump\t// out\n        /* \"#utility.yul\":2202:2522   */\n    tag_27:\n        /* \"#utility.yul\":2317:2321   */\n      0x00\n        /* \"#utility.yul\":2355:2357   */\n      0x40\n        /* \"#utility.yul\":2344:2353   */\n      dup3\n        /* \"#utility.yul\":2340:2358   */\n      add\n        /* \"#utility.yul\":2332:2358   */\n      swap1\n      pop\n        /* \"#utility.yul\":2368:2433   */\n      tag_333\n        /* \"#utility.yul\":2430:2431   */\n      0x00\n        /* \"#utility.yul\":2419:2428   */\n      dup4\n        /* \"#utility.yul\":2415:2432   */\n      add\n        /* \"#utility.yul\":2406:2412   */\n      dup6\n        /* \"#utility.yul\":2368:2433   */\n      tag_232\n      jump\t// in\n    tag_333:\n        /* \"#utility.yul\":2443:2515   */\n      tag_334\n        /* \"#utility.yul\":2511:2513   */\n      0x20\n        /* \"#utility.yul\":2500:2509   */\n      dup4\n        /* \"#utility.yul\":2496:2514   */\n      add\n        /* \"#utility.yul\":2487:2493   */\n      dup5\n        /* \"#utility.yul\":2443:2515   */\n      tag_233\n      jump\t// in\n    tag_334:\n        /* \"#utility.yul\":2202:2522   */\n      swap4\n      swap3\n      pop\n      pop\n      pop\n      jump\t// out\n        /* \"#utility.yul\":2528:2627   */\n    tag_234:\n        /* \"#utility.yul\":2580:2586   */\n      0x00\n        /* \"#utility.yul\":2614:2619   */\n      dup2\n        /* \"#utility.yul\":2608:2620   */\n      mload\n        /* \"#utility.yul\":2598:2620   */\n      swap1\n      pop\n        /* \"#utility.yul\":2528:2627   */\n      swap2\n      swap1\n      pop\n      jump\t// out\n        /* \"#utility.yul\":2633:2802   */\n    tag_235:\n        /* \"#utility.yul\":2717:2728   */\n      0x00\n        /* \"#utility.yul\":2751:2757   */\n      dup3\n        /* \"#utility.yul\":2746:2749   */\n      dup3\n        /* \"#utility.yul\":2739:2758   */\n      mstore\n        /* \"#utility.yul\":2791:2795   */\n      0x20\n        /* \"#utility.yul\":2786:2789   */\n      dup3\n        /* \"#utility.yul\":2782:2796   */\n      add\n        /* \"#utility.yul\":2767:2796   */\n      swap1\n      pop\n        /* \"#utility.yul\":2633:2802   */\n      swap3\n      swap2\n      pop\n      pop\n      jump\t// out\n        /* \"#utility.yul\":2808:3054   */\n    tag_236:\n        /* \"#utility.yul\":2889:2890   */\n      0x00\n        /* \"#utility.yul\":2899:3012   */\n    tag_338:\n        /* \"#utility.yul\":2913:2919   */\n      dup4\n        /* \"#utility.yul\":2910:2911   */\n      dup2\n        /* \"#utility.yul\":2907:2920   */\n      lt\n        /* \"#utility.yul\":2899:3012   */\n      iszero\n      tag_340\n      jumpi\n        /* \"#utility.yul\":2998:2999   */\n      dup1\n        /* \"#utility.yul\":2993:2996   */\n      dup3\n        /* \"#utility.yul\":2989:3000   */\n      add\n        /* \"#utility.yul\":2983:3001   */\n      mload\n        /* \"#utility.yul\":2979:2980   */\n      dup2\n        /* \"#utility.yul\":2974:2977   */\n      dup5\n        /* \"#utility.yul\":2970:2981   */\n      add\n        /* \"#utility.yul\":2963:3002   */\n      mstore\n        /* \"#utility.yul\":2935:2937   */\n      0x20\n        /* \"#utility.yul\":2932:2933   */\n      dup2\n        /* \"#utility.yul\":2928:2938   */\n      add\n        /* \"#utility.yul\":2923:2938   */\n      swap1\n      pop\n        /* \"#utility.yul\":2899:3012   */\n      jump(tag_338)\n    tag_340:\n        /* \"#utility.yul\":3046:3047   */\n      0x00\n        /* \"#utility.yul\":3037:3043   */\n      dup5\n        /* \"#utility.yul\":3032:3035   */\n      dup5\n        /* \"#utility.yul\":3028:3044   */\n      add\n        /* \"#utility.yul\":3021:3048   */\n      mstore\n        /* \"#utility.yul\":2870:3054   */\n      pop\n        /* \"#utility.yul\":2808:3054   */\n      pop\n      pop\n      pop\n      jump\t// out\n        /* \"#utility.yul\":3060:3162   */\n    tag_237:\n        /* \"#utility.yul\":3101:3107   */\n      0x00\n        /* \"#utility.yul\":3152:3154   */\n      0x1f\n        /* \"#utility.yul\":3148:3155   */\n      not\n        /* \"#utility.yul\":3143:3145   */\n      0x1f\n        /* \"#utility.yul\":3136:3141   */\n      dup4\n        /* \"#utility.yul\":3132:3146   */\n      add\n        /* \"#utility.yul\":3128:3156   */\n      and\n        /* \"#utility.yul\":3118:3156   */\n      swap1\n      pop\n        /* \"#utility.yul\":3060:3162   */\n      swap2\n      swap1\n      pop\n      jump\t// out\n        /* \"#utility.yul\":3168:3545   */\n    tag_238:\n        /* \"#utility.yul\":3256:3259   */\n      0x00\n        /* \"#utility.yul\":3284:3323   */\n      tag_343\n        /* \"#utility.yul\":3317:3322   */\n      dup3\n        /* \"#utility.yul\":3284:3323   */\n      tag_234\n      jump\t// in\n    tag_343:\n        /* \"#utility.yul\":3339:3410   */\n      tag_344\n        /* \"#utility.yul\":3403:3409   */\n      dup2\n        /* \"#utility.yul\":3398:3401   */\n      dup6\n        /* \"#utility.yul\":3339:3410   */\n      tag_235\n      jump\t// in\n    tag_344:\n        /* \"#utility.yul\":3332:3410   */\n      swap4\n      pop\n        /* \"#utility.yul\":3419:3484   */\n      tag_345\n        /* \"#utility.yul\":3477:3483   */\n      dup2\n        /* \"#utility.yul\":3472:3475   */\n      dup6\n        /* \"#utility.yul\":3465:3469   */\n      0x20\n        /* \"#utility.yul\":3458:3463   */\n      dup7\n        /* \"#utility.yul\":3454:3470   */\n      add\n        /* \"#utility.yul\":3419:3484   */\n      tag_236\n      jump\t// in\n    tag_345:\n        /* \"#utility.yul\":3509:3538   */\n      tag_346\n        /* \"#utility.yul\":3531:3537   */\n      dup2\n        /* \"#utility.yul\":3509:3538   */\n      tag_237\n      jump\t// in\n    tag_346:\n        /* \"#utility.yul\":3504:3507   */\n      dup5\n        /* \"#utility.yul\":3500:3539   */\n      add\n        /* \"#utility.yul\":3493:3539   */\n      swap2\n      pop\n        /* \"#utility.yul\":3260:3545   */\n      pop\n        /* \"#utility.yul\":3168:3545   */\n      swap3\n      swap2\n      pop\n      pop\n      jump\t// out\n        /* \"#utility.yul\":3551:3974   */\n    tag_37:\n        /* \"#utility.yul\":3692:3696   */\n      0x00\n        /* \"#utility.yul\":3730:3732   */\n      0x40\n        /* \"#utility.yul\":3719:3728   */\n      dup3\n        /* \"#utility.yul\":3715:3733   */\n      add\n        /* \"#utility.yul\":3707:3733   */\n      swap1\n      pop\n        /* \"#utility.yul\":3779:3788   */\n      dup2\n        /* \"#utility.yul\":3773:3777   */\n      dup2\n        /* \"#utility.yul\":3769:3789   */\n      sub\n        /* \"#utility.yul\":3765:3766   */\n      0x00\n        /* \"#utility.yul\":3754:3763   */\n      dup4\n        /* \"#utility.yul\":3750:3767   */\n      add\n        /* \"#utility.yul\":3743:3790   */\n      mstore\n        /* \"#utility.yul\":3807:3885   */\n      tag_348\n        /* \"#utility.yul\":3880:3884   */\n      dup2\n        /* \"#utility.yul\":3871:3877   */\n      dup6\n        /* \"#utility.yul\":3807:3885   */\n      tag_238\n      jump\t// in\n    tag_348:\n        /* \"#utility.yul\":3799:3885   */\n      swap1\n      pop\n        /* \"#utility.yul\":3895:3967   */\n      tag_349\n        /* \"#utility.yul\":3963:3965   */\n      0x20\n        /* \"#utility.yul\":3952:3961   */\n      dup4\n        /* \"#utility.yul\":3948:3966   */\n      add\n        /* \"#utility.yul\":3939:3945   */\n      dup5\n        /* \"#utility.yul\":3895:3967   */\n      tag_233\n      jump\t// in\n    tag_349:\n        /* \"#utility.yul\":3551:3974   */\n      swap4\n      swap3\n      pop\n      pop\n      pop\n      jump\t// out\n        /* \"#utility.yul\":3980:4202   */\n    tag_41:\n        /* \"#utility.yul\":4073:4077   */\n      0x00\n        /* \"#utility.yul\":4111:4113   */\n      0x20\n        /* \"#utility.yul\":4100:4109   */\n      dup3\n        /* \"#utility.yul\":4096:4114   */\n      add\n        /* \"#utility.yul\":4088:4114   */\n      swap1\n      pop\n        /* \"#utility.yul\":4124:4195   */\n      tag_351\n        /* \"#utility.yul\":4192:4193   */\n      0x00\n        /* \"#utility.yul\":4181:4190   */\n      dup4\n        /* \"#utility.yul\":4177:4194   */\n      add\n        /* \"#utility.yul\":4168:4174   */\n      dup5\n        /* \"#utility.yul\":4124:4195   */\n      tag_233\n      jump\t// in\n    tag_351:\n        /* \"#utility.yul\":3980:4202   */\n      swap3\n      swap2\n      pop\n      pop\n      jump\t// out\n        /* \"#utility.yul\":4208:4326   */\n    tag_239:\n        /* \"#utility.yul\":4295:4319   */\n      tag_353\n        /* \"#utility.yul\":4313:4318   */\n      dup2\n        /* \"#utility.yul\":4295:4319   */\n      tag_228\n      jump\t// in\n    tag_353:\n        /* \"#utility.yul\":4290:4293   */\n      dup3\n        /* \"#utility.yul\":4283:4320   */\n      mstore\n        /* \"#utility.yul\":4208:4326   */\n      pop\n      pop\n      jump\t// out\n        /* \"#utility.yul\":4332:4554   */\n    tag_48:\n        /* \"#utility.yul\":4425:4429   */\n      0x00\n        /* \"#utility.yul\":4463:4465   */\n      0x20\n        /* \"#utility.yul\":4452:4461   */\n      dup3\n        /* \"#utility.yul\":4448:4466   */\n      add\n        /* \"#utility.yul\":4440:4466   */\n      swap1\n      pop\n        /* \"#utility.yul\":4476:4547   */\n      tag_355\n        /* \"#utility.yul\":4544:4545   */\n      0x00\n        /* \"#utility.yul\":4533:4542   */\n      dup4\n        /* \"#utility.yul\":4529:4546   */\n      add\n        /* \"#utility.yul\":4520:4526   */\n      dup5\n        /* \"#utility.yul\":4476:4547   */\n      tag_239\n      jump\t// in\n    tag_355:\n        /* \"#utility.yul\":4332:4554   */\n      swap3\n      swap2\n      pop\n      pop\n      jump\t// out\n        /* \"#utility.yul\":4560:4697   */\n    tag_240:\n        /* \"#utility.yul\":4650:4656   */\n      0x00\n        /* \"#utility.yul\":4684:4689   */\n      dup2\n        /* \"#utility.yul\":4678:4690   */\n      mload\n        /* \"#utility.yul\":4668:4690   */\n      swap1\n      pop\n        /* \"#utility.yul\":4560:4697   */\n      swap2\n      swap1\n      pop\n      jump\t// out\n        /* \"#utility.yul\":4703:4910   */\n    tag_241:\n        /* \"#utility.yul\":4825:4836   */\n      0x00\n        /* \"#utility.yul\":4859:4865   */\n      dup3\n        /* \"#utility.yul\":4854:4857   */\n      dup3\n        /* \"#utility.yul\":4847:4866   */\n      mstore\n        /* \"#utility.yul\":4899:4903   */\n      0x20\n        /* \"#utility.yul\":4894:4897   */\n      dup3\n        /* \"#utility.yul\":4890:4904   */\n      add\n        /* \"#utility.yul\":4875:4904   */\n      swap1\n      pop\n        /* \"#utility.yul\":4703:4910   */\n      swap3\n      swap2\n      pop\n      pop\n      jump\t// out\n        /* \"#utility.yul\":4916:5071   */\n    tag_242:\n        /* \"#utility.yul\":5006:5010   */\n      0x00\n        /* \"#utility.yul\":5029:5032   */\n      dup2\n        /* \"#utility.yul\":5021:5032   */\n      swap1\n      pop\n        /* \"#utility.yul\":5059:5063   */\n      0x20\n        /* \"#utility.yul\":5054:5057   */\n      dup3\n        /* \"#utility.yul\":5050:5064   */\n      add\n        /* \"#utility.yul\":5042:5064   */\n      swap1\n      pop\n        /* \"#utility.yul\":4916:5071   */\n      swap2\n      swap1\n      pop\n      jump\t// out\n        /* \"#utility.yul\":5077:5236   */\n    tag_243:\n        /* \"#utility.yul\":5151:5162   */\n      0x00\n        /* \"#utility.yul\":5185:5191   */\n      dup3\n        /* \"#utility.yul\":5180:5183   */\n      dup3\n        /* \"#utility.yul\":5173:5192   */\n      mstore\n        /* \"#utility.yul\":5225:5229   */\n      0x20\n        /* \"#utility.yul\":5220:5223   */\n      dup3\n        /* \"#utility.yul\":5216:5230   */\n      add\n        /* \"#utility.yul\":5201:5230   */\n      swap1\n      pop\n        /* \"#utility.yul\":5077:5236   */\n      swap3\n      swap2\n      pop\n      pop\n      jump\t// out\n        /* \"#utility.yul\":5242:5599   */\n    tag_244:\n        /* \"#utility.yul\":5320:5323   */\n      0x00\n        /* \"#utility.yul\":5348:5387   */\n      tag_361\n        /* \"#utility.yul\":5381:5386   */\n      dup3\n        /* \"#utility.yul\":5348:5387   */\n      tag_234\n      jump\t// in\n    tag_361:\n        /* \"#utility.yul\":5403:5464   */\n      tag_362\n        /* \"#utility.yul\":5457:5463   */\n      dup2\n        /* \"#utility.yul\":5452:5455   */\n      dup6\n        /* \"#utility.yul\":5403:5464   */\n      tag_243\n      jump\t// in\n    tag_362:\n        /* \"#utility.yul\":5396:5464   */\n      swap4\n      pop\n        /* \"#utility.yul\":5473:5538   */\n      tag_363\n        /* \"#utility.yul\":5531:5537   */\n      dup2\n        /* \"#utility.yul\":5526:5529   */\n      dup6\n        /* \"#utility.yul\":5519:5523   */\n      0x20\n        /* \"#utility.yul\":5512:5517   */\n      dup7\n        /* \"#utility.yul\":5508:5524   */\n      add\n        /* \"#utility.yul\":5473:5538   */\n      tag_236\n      jump\t// in\n    tag_363:\n        /* \"#utility.yul\":5563:5592   */\n      tag_364\n        /* \"#utility.yul\":5585:5591   */\n      dup2\n        /* \"#utility.yul\":5563:5592   */\n      tag_237\n      jump\t// in\n    tag_364:\n        /* \"#utility.yul\":5558:5561   */\n      dup5\n        /* \"#utility.yul\":5554:5593   */\n      add\n        /* \"#utility.yul\":5547:5593   */\n      swap2\n      pop\n        /* \"#utility.yul\":5324:5599   */\n      pop\n        /* \"#utility.yul\":5242:5599   */\n      swap3\n      swap2\n      pop\n      pop\n      jump\t// out\n        /* \"#utility.yul\":5605:5713   */\n    tag_245:\n        /* \"#utility.yul\":5682:5706   */\n      tag_366\n        /* \"#utility.yul\":5700:5705   */\n      dup2\n        /* \"#utility.yul\":5682:5706   */\n      tag_224\n      jump\t// in\n    tag_366:\n        /* \"#utility.yul\":5677:5680   */\n      dup3\n        /* \"#utility.yul\":5670:5707   */\n      mstore\n        /* \"#utility.yul\":5605:5713   */\n      pop\n      pop\n      jump\t// out\n        /* \"#utility.yul\":5775:6373   */\n    tag_246:\n        /* \"#utility.yul\":5880:5883   */\n      0x00\n        /* \"#utility.yul\":5916:5920   */\n      0x40\n        /* \"#utility.yul\":5911:5914   */\n      dup4\n        /* \"#utility.yul\":5907:5921   */\n      add\n        /* \"#utility.yul\":6004:6008   */\n      0x00\n        /* \"#utility.yul\":5997:6002   */\n      dup4\n        /* \"#utility.yul\":5993:6009   */\n      add\n        /* \"#utility.yul\":5987:6010   */\n      mload\n        /* \"#utility.yul\":6057:6060   */\n      dup5\n        /* \"#utility.yul\":6051:6055   */\n      dup3\n        /* \"#utility.yul\":6047:6061   */\n      sub\n        /* \"#utility.yul\":6040:6044   */\n      0x00\n        /* \"#utility.yul\":6035:6038   */\n      dup7\n        /* \"#utility.yul\":6031:6045   */\n      add\n        /* \"#utility.yul\":6024:6062   */\n      mstore\n        /* \"#utility.yul\":6083:6156   */\n      tag_368\n        /* \"#utility.yul\":6151:6155   */\n      dup3\n        /* \"#utility.yul\":6137:6149   */\n      dup3\n        /* \"#utility.yul\":6083:6156   */\n      tag_244\n      jump\t// in\n    tag_368:\n        /* \"#utility.yul\":6075:6156   */\n      swap2\n      pop\n        /* \"#utility.yul\":5931:6167   */\n      pop\n        /* \"#utility.yul\":6254:6258   */\n      0x20\n        /* \"#utility.yul\":6247:6252   */\n      dup4\n        /* \"#utility.yul\":6243:6259   */\n      add\n        /* \"#utility.yul\":6237:6260   */\n      mload\n        /* \"#utility.yul\":6273:6336   */\n      tag_369\n        /* \"#utility.yul\":6330:6334   */\n      0x20\n        /* \"#utility.yul\":6325:6328   */\n      dup7\n        /* \"#utility.yul\":6321:6335   */\n      add\n        /* \"#utility.yul\":6307:6319   */\n      dup3\n        /* \"#utility.yul\":6273:6336   */\n      tag_245\n      jump\t// in\n    tag_369:\n        /* \"#utility.yul\":6177:6346   */\n      pop\n        /* \"#utility.yul\":6363:6367   */\n      dup1\n        /* \"#utility.yul\":6356:6367   */\n      swap2\n      pop\n        /* \"#utility.yul\":5885:6373   */\n      pop\n        /* \"#utility.yul\":5775:6373   */\n      swap3\n      swap2\n      pop\n      pop\n      jump\t// out\n        /* \"#utility.yul\":6379:6627   */\n    tag_247:\n        /* \"#utility.yul\":6494:6504   */\n      0x00\n        /* \"#utility.yul\":6529:6621   */\n      tag_371\n        /* \"#utility.yul\":6617:6620   */\n      dup4\n        /* \"#utility.yul\":6609:6615   */\n      dup4\n        /* \"#utility.yul\":6529:6621   */\n      tag_246\n      jump\t// in\n    tag_371:\n        /* \"#utility.yul\":6515:6621   */\n      swap1\n      pop\n        /* \"#utility.yul\":6379:6627   */\n      swap3\n      swap2\n      pop\n      pop\n      jump\t// out\n        /* \"#utility.yul\":6633:6769   */\n    tag_248:\n        /* \"#utility.yul\":6726:6730   */\n      0x00\n        /* \"#utility.yul\":6758:6762   */\n      0x20\n        /* \"#utility.yul\":6753:6756   */\n      dup3\n        /* \"#utility.yul\":6749:6763   */\n      add\n        /* \"#utility.yul\":6741:6763   */\n      swap1\n      pop\n        /* \"#utility.yul\":6633:6769   */\n      swap2\n      swap1\n      pop\n      jump\t// out\n        /* \"#utility.yul\":6835:7930   */\n    tag_249:\n        /* \"#utility.yul\":7000:7003   */\n      0x00\n        /* \"#utility.yul\":7029:7106   */\n      tag_374\n        /* \"#utility.yul\":7100:7105   */\n      dup3\n        /* \"#utility.yul\":7029:7106   */\n      tag_240\n      jump\t// in\n    tag_374:\n        /* \"#utility.yul\":7122:7231   */\n      tag_375\n        /* \"#utility.yul\":7224:7230   */\n      dup2\n        /* \"#utility.yul\":7219:7222   */\n      dup6\n        /* \"#utility.yul\":7122:7231   */\n      tag_241\n      jump\t// in\n    tag_375:\n        /* \"#utility.yul\":7115:7231   */\n      swap4\n      pop\n        /* \"#utility.yul\":7257:7260   */\n      dup4\n        /* \"#utility.yul\":7302:7306   */\n      0x20\n        /* \"#utility.yul\":7294:7300   */\n      dup3\n        /* \"#utility.yul\":7290:7307   */\n      mul\n        /* \"#utility.yul\":7285:7288   */\n      dup6\n        /* \"#utility.yul\":7281:7308   */\n      add\n        /* \"#utility.yul\":7332:7411   */\n      tag_376\n        /* \"#utility.yul\":7405:7410   */\n      dup6\n        /* \"#utility.yul\":7332:7411   */\n      tag_242\n      jump\t// in\n    tag_376:\n        /* \"#utility.yul\":7434:7441   */\n      dup1\n        /* \"#utility.yul\":7465:7466   */\n      0x00\n        /* \"#utility.yul\":7450:7885   */\n    tag_377:\n        /* \"#utility.yul\":7475:7481   */\n      dup6\n        /* \"#utility.yul\":7472:7473   */\n      dup2\n        /* \"#utility.yul\":7469:7482   */\n      lt\n        /* \"#utility.yul\":7450:7885   */\n      iszero\n      tag_379\n      jumpi\n        /* \"#utility.yul\":7546:7555   */\n      dup5\n        /* \"#utility.yul\":7540:7544   */\n      dup5\n        /* \"#utility.yul\":7536:7556   */\n      sub\n        /* \"#utility.yul\":7531:7534   */\n      dup10\n        /* \"#utility.yul\":7524:7557   */\n      mstore\n        /* \"#utility.yul\":7597:7603   */\n      dup2\n        /* \"#utility.yul\":7591:7604   */\n      mload\n        /* \"#utility.yul\":7625:7735   */\n      tag_380\n        /* \"#utility.yul\":7730:7734   */\n      dup6\n        /* \"#utility.yul\":7715:7728   */\n      dup3\n        /* \"#utility.yul\":7625:7735   */\n      tag_247\n      jump\t// in\n    tag_380:\n        /* \"#utility.yul\":7617:7735   */\n      swap5\n      pop\n        /* \"#utility.yul\":7758:7841   */\n      tag_381\n        /* \"#utility.yul\":7834:7840   */\n      dup4\n        /* \"#utility.yul\":7758:7841   */\n      tag_248\n      jump\t// in\n    tag_381:\n        /* \"#utility.yul\":7748:7841   */\n      swap3\n      pop\n        /* \"#utility.yul\":7870:7874   */\n      0x20\n        /* \"#utility.yul\":7865:7868   */\n      dup11\n        /* \"#utility.yul\":7861:7875   */\n      add\n        /* \"#utility.yul\":7854:7875   */\n      swap10\n      pop\n        /* \"#utility.yul\":7510:7885   */\n      pop\n        /* \"#utility.yul\":7497:7498   */\n      0x01\n        /* \"#utility.yul\":7494:7495   */\n      dup2\n        /* \"#utility.yul\":7490:7499   */\n      add\n        /* \"#utility.yul\":7485:7499   */\n      swap1\n      pop\n        /* \"#utility.yul\":7450:7885   */\n      jump(tag_377)\n    tag_379:\n        /* \"#utility.yul\":7454:7468   */\n      pop\n        /* \"#utility.yul\":7901:7905   */\n      dup3\n        /* \"#utility.yul\":7894:7905   */\n      swap8\n      pop\n        /* \"#utility.yul\":7921:7924   */\n      dup8\n        /* \"#utility.yul\":7914:7924   */\n      swap6\n      pop\n        /* \"#utility.yul\":7005:7930   */\n      pop\n      pop\n      pop\n      pop\n      pop\n        /* \"#utility.yul\":6835:7930   */\n      swap3\n      swap2\n      pop\n      pop\n      jump\t// out\n        /* \"#utility.yul\":7936:8401   */\n    tag_52:\n        /* \"#utility.yul\":8125:8129   */\n      0x00\n        /* \"#utility.yul\":8163:8165   */\n      0x20\n        /* \"#utility.yul\":8152:8161   */\n      dup3\n        /* \"#utility.yul\":8148:8166   */\n      add\n        /* \"#utility.yul\":8140:8166   */\n      swap1\n      pop\n        /* \"#utility.yul\":8212:8221   */\n      dup2\n        /* \"#utility.yul\":8206:8210   */\n      dup2\n        /* \"#utility.yul\":8202:8222   */\n      sub\n        /* \"#utility.yul\":8198:8199   */\n      0x00\n        /* \"#utility.yul\":8187:8196   */\n      dup4\n        /* \"#utility.yul\":8183:8200   */\n      add\n        /* \"#utility.yul\":8176:8223   */\n      mstore\n        /* \"#utility.yul\":8240:8394   */\n      tag_383\n        /* \"#utility.yul\":8389:8393   */\n      dup2\n        /* \"#utility.yul\":8380:8386   */\n      dup5\n        /* \"#utility.yul\":8240:8394   */\n      tag_249\n      jump\t// in\n    tag_383:\n        /* \"#utility.yul\":8232:8394   */\n      swap1\n      pop\n        /* \"#utility.yul\":7936:8401   */\n      swap3\n      swap2\n      pop\n      pop\n      jump\t// out\n        /* \"#utility.yul\":8407:8524   */\n    tag_250:\n        /* \"#utility.yul\":8516:8517   */\n      0x00\n        /* \"#utility.yul\":8513:8514   */\n      dup1\n        /* \"#utility.yul\":8506:8518   */\n      revert\n        /* \"#utility.yul\":8530:8647   */\n    tag_251:\n        /* \"#utility.yul\":8639:8640   */\n      0x00\n        /* \"#utility.yul\":8636:8637   */\n      dup1\n        /* \"#utility.yul\":8629:8641   */\n      revert\n        /* \"#utility.yul\":8653:8833   */\n    tag_252:\n        /* \"#utility.yul\":8701:8778   */\n      0x4e487b7100000000000000000000000000000000000000000000000000000000\n        /* \"#utility.yul\":8698:8699   */\n      0x00\n        /* \"#utility.yul\":8691:8779   */\n      mstore\n        /* \"#utility.yul\":8798:8802   */\n      0x41\n        /* \"#utility.yul\":8795:8796   */\n      0x04\n        /* \"#utility.yul\":8788:8803   */\n      mstore\n        /* \"#utility.yul\":8822:8826   */\n      0x24\n        /* \"#utility.yul\":8819:8820   */\n      0x00\n        /* \"#utility.yul\":8812:8827   */\n      revert\n        /* \"#utility.yul\":8839:9120   */\n    tag_253:\n        /* \"#utility.yul\":8922:8949   */\n      tag_388\n        /* \"#utility.yul\":8944:8948   */\n      dup3\n        /* \"#utility.yul\":8922:8949   */\n      tag_237\n      jump\t// in\n    tag_388:\n        /* \"#utility.yul\":8914:8920   */\n      dup2\n        /* \"#utility.yul\":8910:8950   */\n      add\n        /* \"#utility.yul\":9052:9058   */\n      dup2\n        /* \"#utility.yul\":9040:9050   */\n      dup2\n        /* \"#utility.yul\":9037:9059   */\n      lt\n        /* \"#utility.yul\":9016:9034   */\n      0xffffffffffffffff\n        /* \"#utility.yul\":9004:9014   */\n      dup3\n        /* \"#utility.yul\":9001:9035   */\n      gt\n        /* \"#utility.yul\":8998:9060   */\n      or\n        /* \"#utility.yul\":8995:9083   */\n      iszero\n      tag_389\n      jumpi\n        /* \"#utility.yul\":9063:9081   */\n      tag_390\n      tag_252\n      jump\t// in\n    tag_390:\n        /* \"#utility.yul\":8995:9083   */\n    tag_389:\n        /* \"#utility.yul\":9103:9113   */\n      dup1\n        /* \"#utility.yul\":9099:9101   */\n      0x40\n        /* \"#utility.yul\":9092:9114   */\n      mstore\n        /* \"#utility.yul\":8882:9120   */\n      pop\n        /* \"#utility.yul\":8839:9120   */\n      pop\n      pop\n      jump\t// out\n        /* \"#utility.yul\":9126:9255   */\n    tag_254:\n        /* \"#utility.yul\":9160:9166   */\n      0x00\n        /* \"#utility.yul\":9187:9207   */\n      tag_392\n      tag_221\n      jump\t// in\n    tag_392:\n        /* \"#utility.yul\":9177:9207   */\n      swap1\n      pop\n        /* \"#utility.yul\":9216:9249   */\n      tag_393\n        /* \"#utility.yul\":9244:9248   */\n      dup3\n        /* \"#utility.yul\":9236:9242   */\n      dup3\n        /* \"#utility.yul\":9216:9249   */\n      tag_253\n      jump\t// in\n    tag_393:\n        /* \"#utility.yul\":9126:9255   */\n      swap2\n      swap1\n      pop\n      jump\t// out\n        /* \"#utility.yul\":9261:9569   */\n    tag_255:\n        /* \"#utility.yul\":9323:9327   */\n      0x00\n        /* \"#utility.yul\":9413:9431   */\n      0xffffffffffffffff\n        /* \"#utility.yul\":9405:9411   */\n      dup3\n        /* \"#utility.yul\":9402:9432   */\n      gt\n        /* \"#utility.yul\":9399:9455   */\n      iszero\n      tag_395\n      jumpi\n        /* \"#utility.yul\":9435:9453   */\n      tag_396\n      tag_252\n      jump\t// in\n    tag_396:\n        /* \"#utility.yul\":9399:9455   */\n    tag_395:\n        /* \"#utility.yul\":9473:9502   */\n      tag_397\n        /* \"#utility.yul\":9495:9501   */\n      dup3\n        /* \"#utility.yul\":9473:9502   */\n      tag_237\n      jump\t// in\n    tag_397:\n        /* \"#utility.yul\":9465:9502   */\n      swap1\n      pop\n        /* \"#utility.yul\":9557:9561   */\n      0x20\n        /* \"#utility.yul\":9551:9555   */\n      dup2\n        /* \"#utility.yul\":9547:9562   */\n      add\n        /* \"#utility.yul\":9539:9562   */\n      swap1\n      pop\n        /* \"#utility.yul\":9261:9569   */\n      swap2\n      swap1\n      pop\n      jump\t// out\n        /* \"#utility.yul\":9575:9721   */\n    tag_256:\n        /* \"#utility.yul\":9672:9678   */\n      dup3\n        /* \"#utility.yul\":9667:9670   */\n      dup2\n        /* \"#utility.yul\":9662:9665   */\n      dup4\n        /* \"#utility.yul\":9649:9679   */\n      calldatacopy\n        /* \"#utility.yul\":9713:9714   */\n      0x00\n        /* \"#utility.yul\":9704:9710   */\n      dup4\n        /* \"#utility.yul\":9699:9702   */\n      dup4\n        /* \"#utility.yul\":9695:9711   */\n      add\n        /* \"#utility.yul\":9688:9715   */\n      mstore\n        /* \"#utility.yul\":9575:9721   */\n      pop\n      pop\n      pop\n      jump\t// out\n        /* \"#utility.yul\":9727:10152   */\n    tag_257:\n        /* \"#utility.yul\":9805:9810   */\n      0x00\n        /* \"#utility.yul\":9830:9896   */\n      tag_400\n        /* \"#utility.yul\":9846:9895   */\n      tag_401\n        /* \"#utility.yul\":9888:9894   */\n      dup5\n        /* \"#utility.yul\":9846:9895   */\n      tag_255\n      jump\t// in\n    tag_401:\n        /* \"#utility.yul\":9830:9896   */\n      tag_254\n      jump\t// in\n    tag_400:\n        /* \"#utility.yul\":9821:9896   */\n      swap1\n      pop\n        /* \"#utility.yul\":9919:9925   */\n      dup3\n        /* \"#utility.yul\":9912:9917   */\n      dup2\n        /* \"#utility.yul\":9905:9926   */\n      mstore\n        /* \"#utility.yul\":9957:9961   */\n      0x20\n        /* \"#utility.yul\":9950:9955   */\n      dup2\n        /* \"#utility.yul\":9946:9962   */\n      add\n        /* \"#utility.yul\":9995:9998   */\n      dup5\n        /* \"#utility.yul\":9986:9992   */\n      dup5\n        /* \"#utility.yul\":9981:9984   */\n      dup5\n        /* \"#utility.yul\":9977:9993   */\n      add\n        /* \"#utility.yul\":9974:9999   */\n      gt\n        /* \"#utility.yul\":9971:10083   */\n      iszero\n      tag_402\n      jumpi\n        /* \"#utility.yul\":10002:10081   */\n      tag_403\n      tag_251\n      jump\t// in\n    tag_403:\n        /* \"#utility.yul\":9971:10083   */\n    tag_402:\n        /* \"#utility.yul\":10092:10146   */\n      tag_404\n        /* \"#utility.yul\":10139:10145   */\n      dup5\n        /* \"#utility.yul\":10134:10137   */\n      dup3\n        /* \"#utility.yul\":10129:10132   */\n      dup6\n        /* \"#utility.yul\":10092:10146   */\n      tag_256\n      jump\t// in\n    tag_404:\n        /* \"#utility.yul\":9811:10152   */\n      pop\n        /* \"#utility.yul\":9727:10152   */\n      swap4\n      swap3\n      pop\n      pop\n      pop\n      jump\t// out\n        /* \"#utility.yul\":10172:10512   */\n    tag_258:\n        /* \"#utility.yul\":10228:10233   */\n      0x00\n        /* \"#utility.yul\":10277:10280   */\n      dup3\n        /* \"#utility.yul\":10270:10274   */\n      0x1f\n        /* \"#utility.yul\":10262:10268   */\n      dup4\n        /* \"#utility.yul\":10258:10275   */\n      add\n        /* \"#utility.yul\":10254:10281   */\n      slt\n        /* \"#utility.yul\":10244:10366   */\n      tag_406\n      jumpi\n        /* \"#utility.yul\":10285:10364   */\n      tag_407\n      tag_250\n      jump\t// in\n    tag_407:\n        /* \"#utility.yul\":10244:10366   */\n    tag_406:\n        /* \"#utility.yul\":10402:10408   */\n      dup2\n        /* \"#utility.yul\":10389:10409   */\n      calldataload\n        /* \"#utility.yul\":10427:10506   */\n      tag_408\n        /* \"#utility.yul\":10502:10505   */\n      dup5\n        /* \"#utility.yul\":10494:10500   */\n      dup3\n        /* \"#utility.yul\":10487:10491   */\n      0x20\n        /* \"#utility.yul\":10479:10485   */\n      dup7\n        /* \"#utility.yul\":10475:10492   */\n      add\n        /* \"#utility.yul\":10427:10506   */\n      tag_257\n      jump\t// in\n    tag_408:\n        /* \"#utility.yul\":10418:10506   */\n      swap2\n      pop\n        /* \"#utility.yul\":10234:10512   */\n      pop\n        /* \"#utility.yul\":10172:10512   */\n      swap3\n      swap2\n      pop\n      pop\n      jump\t// out\n        /* \"#utility.yul\":10518:11027   */\n    tag_55:\n        /* \"#utility.yul\":10587:10593   */\n      0x00\n        /* \"#utility.yul\":10636:10638   */\n      0x20\n        /* \"#utility.yul\":10624:10633   */\n      dup3\n        /* \"#utility.yul\":10615:10622   */\n      dup5\n        /* \"#utility.yul\":10611:10634   */\n      sub\n        /* \"#utility.yul\":10607:10639   */\n      slt\n        /* \"#utility.yul\":10604:10723   */\n      iszero\n      tag_410\n      jumpi\n        /* \"#utility.yul\":10642:10721   */\n      tag_411\n      tag_222\n      jump\t// in\n    tag_411:\n        /* \"#utility.yul\":10604:10723   */\n    tag_410:\n        /* \"#utility.yul\":10790:10791   */\n      0x00\n        /* \"#utility.yul\":10779:10788   */\n      dup3\n        /* \"#utility.yul\":10775:10792   */\n      add\n        /* \"#utility.yul\":10762:10793   */\n      calldataload\n        /* \"#utility.yul\":10820:10838   */\n      0xffffffffffffffff\n        /* \"#utility.yul\":10812:10818   */\n      dup2\n        /* \"#utility.yul\":10809:10839   */\n      gt\n        /* \"#utility.yul\":10806:10923   */\n      iszero\n      tag_412\n      jumpi\n        /* \"#utility.yul\":10842:10921   */\n      tag_413\n      tag_223\n      jump\t// in\n    tag_413:\n        /* \"#utility.yul\":10806:10923   */\n    tag_412:\n        /* \"#utility.yul\":10947:11010   */\n      tag_414\n        /* \"#utility.yul\":11002:11009   */\n      dup5\n        /* \"#utility.yul\":10993:10999   */\n      dup3\n        /* \"#utility.yul\":10982:10991   */\n      dup6\n        /* \"#utility.yul\":10978:11000   */\n      add\n        /* \"#utility.yul\":10947:11010   */\n      tag_258\n      jump\t// in\n    tag_414:\n        /* \"#utility.yul\":10937:11010   */\n      swap2\n      pop\n        /* \"#utility.yul\":10733:11020   */\n      pop\n        /* \"#utility.yul\":10518:11027   */\n      swap3\n      swap2\n      pop\n      pop\n      jump\t// out\n        /* \"#utility.yul\":11033:11213   */\n    tag_71:\n        /* \"#utility.yul\":11081:11158   */\n      0x4e487b7100000000000000000000000000000000000000000000000000000000\n        /* \"#utility.yul\":11078:11079   */\n      0x00\n        /* \"#utility.yul\":11071:11159   */\n      mstore\n        /* \"#utility.yul\":11178:11182   */\n      0x21\n        /* \"#utility.yul\":11175:11176   */\n      0x04\n        /* \"#utility.yul\":11168:11183   */\n      mstore\n        /* \"#utility.yul\":11202:11206   */\n      0x24\n        /* \"#utility.yul\":11199:11200   */\n      0x00\n        /* \"#utility.yul\":11192:11207   */\n      revert\n        /* \"#utility.yul\":11219:11332   */\n    tag_259:\n        /* \"#utility.yul\":11300:11301   */\n      0x04\n        /* \"#utility.yul\":11293:11298   */\n      dup2\n        /* \"#utility.yul\":11290:11302   */\n      lt\n        /* \"#utility.yul\":11280:11326   */\n      tag_417\n      jumpi\n        /* \"#utility.yul\":11306:11324   */\n      tag_418\n      tag_71\n      jump\t// in\n    tag_418:\n        /* \"#utility.yul\":11280:11326   */\n    tag_417:\n        /* \"#utility.yul\":11219:11332   */\n      pop\n      jump\t// out\n        /* \"#utility.yul\":11338:11465   */\n    tag_260:\n        /* \"#utility.yul\":11383:11390   */\n      0x00\n        /* \"#utility.yul\":11412:11417   */\n      dup2\n        /* \"#utility.yul\":11401:11417   */\n      swap1\n      pop\n        /* \"#utility.yul\":11418:11459   */\n      tag_420\n        /* \"#utility.yul\":11453:11458   */\n      dup3\n        /* \"#utility.yul\":11418:11459   */\n      tag_259\n      jump\t// in\n    tag_420:\n        /* \"#utility.yul\":11338:11465   */\n      swap2\n      swap1\n      pop\n      jump\t// out\n        /* \"#utility.yul\":11471:11598   */\n    tag_261:\n        /* \"#utility.yul\":11527:11536   */\n      0x00\n        /* \"#utility.yul\":11560:11592   */\n      tag_422\n        /* \"#utility.yul\":11586:11591   */\n      dup3\n        /* \"#utility.yul\":11560:11592   */\n      tag_260\n      jump\t// in\n    tag_422:\n        /* \"#utility.yul\":11547:11592   */\n      swap1\n      pop\n        /* \"#utility.yul\":11471:11598   */\n      swap2\n      swap1\n      pop\n      jump\t// out\n        /* \"#utility.yul\":11604:11747   */\n    tag_262:\n        /* \"#utility.yul\":11697:11740   */\n      tag_424\n        /* \"#utility.yul\":11734:11739   */\n      dup2\n        /* \"#utility.yul\":11697:11740   */\n      tag_261\n      jump\t// in\n    tag_424:\n        /* \"#utility.yul\":11692:11695   */\n      dup3\n        /* \"#utility.yul\":11685:11741   */\n      mstore\n        /* \"#utility.yul\":11604:11747   */\n      pop\n      pop\n      jump\t// out\n        /* \"#utility.yul\":11753:11987   */\n    tag_60:\n        /* \"#utility.yul\":11852:11856   */\n      0x00\n        /* \"#utility.yul\":11890:11892   */\n      0x20\n        /* \"#utility.yul\":11879:11888   */\n      dup3\n        /* \"#utility.yul\":11875:11893   */\n      add\n        /* \"#utility.yul\":11867:11893   */\n      swap1\n      pop\n        /* \"#utility.yul\":11903:11980   */\n      tag_426\n        /* \"#utility.yul\":11977:11978   */\n      0x00\n        /* \"#utility.yul\":11966:11975   */\n      dup4\n        /* \"#utility.yul\":11962:11979   */\n      add\n        /* \"#utility.yul\":11953:11959   */\n      dup5\n        /* \"#utility.yul\":11903:11980   */\n      tag_262\n      jump\t// in\n    tag_426:\n        /* \"#utility.yul\":11753:11987   */\n      swap3\n      swap2\n      pop\n      pop\n      jump\t// out\n        /* \"#utility.yul\":11993:12306   */\n    tag_64:\n        /* \"#utility.yul\":12106:12110   */\n      0x00\n        /* \"#utility.yul\":12144:12146   */\n      0x20\n        /* \"#utility.yul\":12133:12142   */\n      dup3\n        /* \"#utility.yul\":12129:12147   */\n      add\n        /* \"#utility.yul\":12121:12147   */\n      swap1\n      pop\n        /* \"#utility.yul\":12193:12202   */\n      dup2\n        /* \"#utility.yul\":12187:12191   */\n      dup2\n        /* \"#utility.yul\":12183:12203   */\n      sub\n        /* \"#utility.yul\":12179:12180   */\n      0x00\n        /* \"#utility.yul\":12168:12177   */\n      dup4\n        /* \"#utility.yul\":12164:12181   */\n      add\n        /* \"#utility.yul\":12157:12204   */\n      mstore\n        /* \"#utility.yul\":12221:12299   */\n      tag_428\n        /* \"#utility.yul\":12294:12298   */\n      dup2\n        /* \"#utility.yul\":12285:12291   */\n      dup5\n        /* \"#utility.yul\":12221:12299   */\n      tag_238\n      jump\t// in\n    tag_428:\n        /* \"#utility.yul\":12213:12299   */\n      swap1\n      pop\n        /* \"#utility.yul\":11993:12306   */\n      swap3\n      swap2\n      pop\n      pop\n      jump\t// out\n        /* \"#utility.yul\":12312:12481   */\n    tag_263:\n        /* \"#utility.yul\":12452:12473   */\n      0x4e6f7420696e20766f74696e6720706861736500000000000000000000000000\n        /* \"#utility.yul\":12448:12449   */\n      0x00\n        /* \"#utility.yul\":12440:12446   */\n      dup3\n        /* \"#utility.yul\":12436:12450   */\n      add\n        /* \"#utility.yul\":12429:12474   */\n      mstore\n        /* \"#utility.yul\":12312:12481   */\n      pop\n      jump\t// out\n        /* \"#utility.yul\":12487:12853   */\n    tag_264:\n        /* \"#utility.yul\":12629:12632   */\n      0x00\n        /* \"#utility.yul\":12650:12717   */\n      tag_431\n        /* \"#utility.yul\":12714:12716   */\n      0x13\n        /* \"#utility.yul\":12709:12712   */\n      dup4\n        /* \"#utility.yul\":12650:12717   */\n      tag_235\n      jump\t// in\n    tag_431:\n        /* \"#utility.yul\":12643:12717   */\n      swap2\n      pop\n        /* \"#utility.yul\":12726:12819   */\n      tag_432\n        /* \"#utility.yul\":12815:12818   */\n      dup3\n        /* \"#utility.yul\":12726:12819   */\n      tag_263\n      jump\t// in\n    tag_432:\n        /* \"#utility.yul\":12844:12846   */\n      0x20\n        /* \"#utility.yul\":12839:12842   */\n      dup3\n        /* \"#utility.yul\":12835:12847   */\n      add\n        /* \"#utility.yul\":12828:12847   */\n      swap1\n      pop\n        /* \"#utility.yul\":12487:12853   */\n      swap2\n      swap1\n      pop\n      jump\t// out\n        /* \"#utility.yul\":12859:13278   */\n    tag_76:\n        /* \"#utility.yul\":13025:13029   */\n      0x00\n        /* \"#utility.yul\":13063:13065   */\n      0x20\n        /* \"#utility.yul\":13052:13061   */\n      dup3\n        /* \"#utility.yul\":13048:13066   */\n      add\n        /* \"#utility.yul\":13040:13066   */\n      swap1\n      pop\n        /* \"#utility.yul\":13112:13121   */\n      dup2\n        /* \"#utility.yul\":13106:13110   */\n      dup2\n        /* \"#utility.yul\":13102:13122   */\n      sub\n        /* \"#utility.yul\":13098:13099   */\n      0x00\n        /* \"#utility.yul\":13087:13096   */\n      dup4\n        /* \"#utility.yul\":13083:13100   */\n      add\n        /* \"#utility.yul\":13076:13123   */\n      mstore\n        /* \"#utility.yul\":13140:13271   */\n      tag_434\n        /* \"#utility.yul\":13266:13270   */\n      dup2\n        /* \"#utility.yul\":13140:13271   */\n      tag_264\n      jump\t// in\n    tag_434:\n        /* \"#utility.yul\":13132:13271   */\n      swap1\n      pop\n        /* \"#utility.yul\":12859:13278   */\n      swap2\n      swap1\n      pop\n      jump\t// out\n        /* \"#utility.yul\":13284:13456   */\n    tag_265:\n        /* \"#utility.yul\":13424:13448   */\n      0x496e76616c69642070726f706f73616c20696e64657800000000000000000000\n        /* \"#utility.yul\":13420:13421   */\n      0x00\n        /* \"#utility.yul\":13412:13418   */\n      dup3\n        /* \"#utility.yul\":13408:13422   */\n      add\n        /* \"#utility.yul\":13401:13449   */\n      mstore\n        /* \"#utility.yul\":13284:13456   */\n      pop\n      jump\t// out\n        /* \"#utility.yul\":13462:13828   */\n    tag_266:\n        /* \"#utility.yul\":13604:13607   */\n      0x00\n        /* \"#utility.yul\":13625:13692   */\n      tag_437\n        /* \"#utility.yul\":13689:13691   */\n      0x16\n        /* \"#utility.yul\":13684:13687   */\n      dup4\n        /* \"#utility.yul\":13625:13692   */\n      tag_235\n      jump\t// in\n    tag_437:\n        /* \"#utility.yul\":13618:13692   */\n      swap2\n      pop\n        /* \"#utility.yul\":13701:13794   */\n      tag_438\n        /* \"#utility.yul\":13790:13793   */\n      dup3\n        /* \"#utility.yul\":13701:13794   */\n      tag_265\n      jump\t// in\n    tag_438:\n        /* \"#utility.yul\":13819:13821   */\n      0x20\n        /* \"#utility.yul\":13814:13817   */\n      dup3\n        /* \"#utility.yul\":13810:13822   */\n      add\n        /* \"#utility.yul\":13803:13822   */\n      swap1\n      pop\n        /* \"#utility.yul\":13462:13828   */\n      swap2\n      swap1\n      pop\n      jump\t// out\n        /* \"#utility.yul\":13834:14253   */\n    tag_79:\n        /* \"#utility.yul\":14000:14004   */\n      0x00\n        /* \"#utility.yul\":14038:14040   */\n      0x20\n        /* \"#utility.yul\":14027:14036   */\n      dup3\n        /* \"#utility.yul\":14023:14041   */\n      add\n        /* \"#utility.yul\":14015:14041   */\n      swap1\n      pop\n        /* \"#utility.yul\":14087:14096   */\n      dup2\n        /* \"#utility.yul\":14081:14085   */\n      dup2\n        /* \"#utility.yul\":14077:14097   */\n      sub\n        /* \"#utility.yul\":14073:14074   */\n      0x00\n        /* \"#utility.yul\":14062:14071   */\n      dup4\n        /* \"#utility.yul\":14058:14075   */\n      add\n        /* \"#utility.yul\":14051:14098   */\n      mstore\n        /* \"#utility.yul\":14115:14246   */\n      tag_440\n        /* \"#utility.yul\":14241:14245   */\n      dup2\n        /* \"#utility.yul\":14115:14246   */\n      tag_266\n      jump\t// in\n    tag_440:\n        /* \"#utility.yul\":14107:14246   */\n      swap1\n      pop\n        /* \"#utility.yul\":13834:14253   */\n      swap2\n      swap1\n      pop\n      jump\t// out\n        /* \"#utility.yul\":14259:14422   */\n    tag_267:\n        /* \"#utility.yul\":14399:14414   */\n      0x416c726561647920766f74656400000000000000000000000000000000000000\n        /* \"#utility.yul\":14395:14396   */\n      0x00\n        /* \"#utility.yul\":14387:14393   */\n      dup3\n        /* \"#utility.yul\":14383:14397   */\n      add\n        /* \"#utility.yul\":14376:14415   */\n      mstore\n        /* \"#utility.yul\":14259:14422   */\n      pop\n      jump\t// out\n        /* \"#utility.yul\":14428:14794   */\n    tag_268:\n        /* \"#utility.yul\":14570:14573   */\n      0x00\n        /* \"#utility.yul\":14591:14658   */\n      tag_443\n        /* \"#utility.yul\":14655:14657   */\n      0x0d\n        /* \"#utility.yul\":14650:14653   */\n      dup4\n        /* \"#utility.yul\":14591:14658   */\n      tag_235\n      jump\t// in\n    tag_443:\n        /* \"#utility.yul\":14584:14658   */\n      swap2\n      pop\n        /* \"#utility.yul\":14667:14760   */\n      tag_444\n        /* \"#utility.yul\":14756:14759   */\n      dup3\n        /* \"#utility.yul\":14667:14760   */\n      tag_267\n      jump\t// in\n    tag_444:\n        /* \"#utility.yul\":14785:14787   */\n      0x20\n        /* \"#utility.yul\":14780:14783   */\n      dup3\n        /* \"#utility.yul\":14776:14788   */\n      add\n        /* \"#utility.yul\":14769:14788   */\n      swap1\n      pop\n        /* \"#utility.yul\":14428:14794   */\n      swap2\n      swap1\n      pop\n      jump\t// out\n        /* \"#utility.yul\":14800:15219   */\n    tag_82:\n        /* \"#utility.yul\":14966:14970   */\n      0x00\n        /* \"#utility.yul\":15004:15006   */\n      0x20\n        /* \"#utility.yul\":14993:15002   */\n      dup3\n        /* \"#utility.yul\":14989:15007   */\n      add\n        /* \"#utility.yul\":14981:15007   */\n      swap1\n      pop\n        /* \"#utility.yul\":15053:15062   */\n      dup2\n        /* \"#utility.yul\":15047:15051   */\n      dup2\n        /* \"#utility.yul\":15043:15063   */\n      sub\n        /* \"#utility.yul\":15039:15040   */\n      0x00\n        /* \"#utility.yul\":15028:15037   */\n      dup4\n        /* \"#utility.yul\":15024:15041   */\n      add\n        /* \"#utility.yul\":15017:15064   */\n      mstore\n        /* \"#utility.yul\":15081:15212   */\n      tag_446\n        /* \"#utility.yul\":15207:15211   */\n      dup2\n        /* \"#utility.yul\":15081:15212   */\n      tag_268\n      jump\t// in\n    tag_446:\n        /* \"#utility.yul\":15073:15212   */\n      swap1\n      pop\n        /* \"#utility.yul\":14800:15219   */\n      swap2\n      swap1\n      pop\n      jump\t// out\n        /* \"#utility.yul\":15225:15405   */\n    tag_85:\n        /* \"#utility.yul\":15273:15350   */\n      0x4e487b7100000000000000000000000000000000000000000000000000000000\n        /* \"#utility.yul\":15270:15271   */\n      0x00\n        /* \"#utility.yul\":15263:15351   */\n      mstore\n        /* \"#utility.yul\":15370:15374   */\n      0x32\n        /* \"#utility.yul\":15367:15368   */\n      0x04\n        /* \"#utility.yul\":15360:15375   */\n      mstore\n        /* \"#utility.yul\":15394:15398   */\n      0x24\n        /* \"#utility.yul\":15391:15392   */\n      0x00\n        /* \"#utility.yul\":15384:15399   */\n      revert\n        /* \"#utility.yul\":15411:15591   */\n    tag_269:\n        /* \"#utility.yul\":15459:15536   */\n      0x4e487b7100000000000000000000000000000000000000000000000000000000\n        /* \"#utility.yul\":15456:15457   */\n      0x00\n        /* \"#utility.yul\":15449:15537   */\n      mstore\n        /* \"#utility.yul\":15556:15560   */\n      0x11\n        /* \"#utility.yul\":15553:15554   */\n      0x04\n        /* \"#utility.yul\":15546:15561   */\n      mstore\n        /* \"#utility.yul\":15580:15584   */\n      0x24\n        /* \"#utility.yul\":15577:15578   */\n      0x00\n        /* \"#utility.yul\":15570:15585   */\n      revert\n        /* \"#utility.yul\":15597:15788   */\n    tag_88:\n        /* \"#utility.yul\":15637:15640   */\n      0x00\n        /* \"#utility.yul\":15656:15676   */\n      tag_450\n        /* \"#utility.yul\":15674:15675   */\n      dup3\n        /* \"#utility.yul\":15656:15676   */\n      tag_224\n      jump\t// in\n    tag_450:\n        /* \"#utility.yul\":15651:15676   */\n      swap2\n      pop\n        /* \"#utility.yul\":15690:15710   */\n      tag_451\n        /* \"#utility.yul\":15708:15709   */\n      dup4\n        /* \"#utility.yul\":15690:15710   */\n      tag_224\n      jump\t// in\n    tag_451:\n        /* \"#utility.yul\":15685:15710   */\n      swap3\n      pop\n        /* \"#utility.yul\":15733:15734   */\n      dup3\n        /* \"#utility.yul\":15730:15731   */\n      dup3\n        /* \"#utility.yul\":15726:15735   */\n      add\n        /* \"#utility.yul\":15719:15735   */\n      swap1\n      pop\n        /* \"#utility.yul\":15754:15757   */\n      dup1\n        /* \"#utility.yul\":15751:15752   */\n      dup3\n        /* \"#utility.yul\":15748:15758   */\n      gt\n        /* \"#utility.yul\":15745:15781   */\n      iszero\n      tag_452\n      jumpi\n        /* \"#utility.yul\":15761:15779   */\n      tag_453\n      tag_269\n      jump\t// in\n    tag_453:\n        /* \"#utility.yul\":15745:15781   */\n    tag_452:\n        /* \"#utility.yul\":15597:15788   */\n      swap3\n      swap2\n      pop\n      pop\n      jump\t// out\n        /* \"#utility.yul\":15794:16126   */\n    tag_90:\n        /* \"#utility.yul\":15915:15919   */\n      0x00\n        /* \"#utility.yul\":15953:15955   */\n      0x40\n        /* \"#utility.yul\":15942:15951   */\n      dup3\n        /* \"#utility.yul\":15938:15956   */\n      add\n        /* \"#utility.yul\":15930:15956   */\n      swap1\n      pop\n        /* \"#utility.yul\":15966:16037   */\n      tag_455\n        /* \"#utility.yul\":16034:16035   */\n      0x00\n        /* \"#utility.yul\":16023:16032   */\n      dup4\n        /* \"#utility.yul\":16019:16036   */\n      add\n        /* \"#utility.yul\":16010:16016   */\n      dup6\n        /* \"#utility.yul\":15966:16037   */\n      tag_239\n      jump\t// in\n    tag_455:\n        /* \"#utility.yul\":16047:16119   */\n      tag_456\n        /* \"#utility.yul\":16115:16117   */\n      0x20\n        /* \"#utility.yul\":16104:16113   */\n      dup4\n        /* \"#utility.yul\":16100:16118   */\n      add\n        /* \"#utility.yul\":16091:16097   */\n      dup5\n        /* \"#utility.yul\":16047:16119   */\n      tag_233\n      jump\t// in\n    tag_456:\n        /* \"#utility.yul\":15794:16126   */\n      swap4\n      swap3\n      pop\n      pop\n      pop\n      jump\t// out\n        /* \"#utility.yul\":16132:16301   */\n    tag_270:\n        /* \"#utility.yul\":16272:16293   */\n      0x4f6e6c79206f776e65722063616e2063616c6c00000000000000000000000000\n        /* \"#utility.yul\":16268:16269   */\n      0x00\n        /* \"#utility.yul\":16260:16266   */\n      dup3\n        /* \"#utility.yul\":16256:16270   */\n      add\n        /* \"#utility.yul\":16249:16294   */\n      mstore\n        /* \"#utility.yul\":16132:16301   */\n      pop\n      jump\t// out\n        /* \"#utility.yul\":16307:16673   */\n    tag_271:\n        /* \"#utility.yul\":16449:16452   */\n      0x00\n        /* \"#utility.yul\":16470:16537   */\n      tag_459\n        /* \"#utility.yul\":16534:16536   */\n      0x13\n        /* \"#utility.yul\":16529:16532   */\n      dup4\n        /* \"#utility.yul\":16470:16537   */\n      tag_235\n      jump\t// in\n    tag_459:\n        /* \"#utility.yul\":16463:16537   */\n      swap2\n      pop\n        /* \"#utility.yul\":16546:16639   */\n      tag_460\n        /* \"#utility.yul\":16635:16638   */\n      dup3\n        /* \"#utility.yul\":16546:16639   */\n      tag_270\n      jump\t// in\n    tag_460:\n        /* \"#utility.yul\":16664:16666   */\n      0x20\n        /* \"#utility.yul\":16659:16662   */\n      dup3\n        /* \"#utility.yul\":16655:16667   */\n      add\n        /* \"#utility.yul\":16648:16667   */\n      swap1\n      pop\n        /* \"#utility.yul\":16307:16673   */\n      swap2\n      swap1\n      pop\n      jump\t// out\n        /* \"#utility.yul\":16679:17098   */\n    tag_94:\n        /* \"#utility.yul\":16845:16849   */\n      0x00\n        /* \"#utility.yul\":16883:16885   */\n      0x20\n        /* \"#utility.yul\":16872:16881   */\n      dup3\n        /* \"#utility.yul\":16868:16886   */\n      add\n        /* \"#utility.yul\":16860:16886   */\n      swap1\n      pop\n        /* \"#utility.yul\":16932:16941   */\n      dup2\n        /* \"#utility.yul\":16926:16930   */\n      dup2\n        /* \"#utility.yul\":16922:16942   */\n      sub\n        /* \"#utility.yul\":16918:16919   */\n      0x00\n        /* \"#utility.yul\":16907:16916   */\n      dup4\n        /* \"#utility.yul\":16903:16920   */\n      add\n        /* \"#utility.yul\":16896:16943   */\n      mstore\n        /* \"#utility.yul\":16960:17091   */\n      tag_462\n        /* \"#utility.yul\":17086:17090   */\n      dup2\n        /* \"#utility.yul\":16960:17091   */\n      tag_271\n      jump\t// in\n    tag_462:\n        /* \"#utility.yul\":16952:17091   */\n      swap1\n      pop\n        /* \"#utility.yul\":16679:17098   */\n      swap2\n      swap1\n      pop\n      jump\t// out\n        /* \"#utility.yul\":17104:17274   */\n    tag_272:\n        /* \"#utility.yul\":17244:17266   */\n      0x566f74696e6720616c726561647920656e646564000000000000000000000000\n        /* \"#utility.yul\":17240:17241   */\n      0x00\n        /* \"#utility.yul\":17232:17238   */\n      dup3\n        /* \"#utility.yul\":17228:17242   */\n      add\n        /* \"#utility.yul\":17221:17267   */\n      mstore\n        /* \"#utility.yul\":17104:17274   */\n      pop\n      jump\t// out\n        /* \"#utility.yul\":17280:17646   */\n    tag_273:\n        /* \"#utility.yul\":17422:17425   */\n      0x00\n        /* \"#utility.yul\":17443:17510   */\n      tag_465\n        /* \"#utility.yul\":17507:17509   */\n      0x14\n        /* \"#utility.yul\":17502:17505   */\n      dup4\n        /* \"#utility.yul\":17443:17510   */\n      tag_235\n      jump\t// in\n    tag_465:\n        /* \"#utility.yul\":17436:17510   */\n      swap2\n      pop\n        /* \"#utility.yul\":17519:17612   */\n      tag_466\n        /* \"#utility.yul\":17608:17611   */\n      dup3\n        /* \"#utility.yul\":17519:17612   */\n      tag_272\n      jump\t// in\n    tag_466:\n        /* \"#utility.yul\":17637:17639   */\n      0x20\n        /* \"#utility.yul\":17632:17635   */\n      dup3\n        /* \"#utility.yul\":17628:17640   */\n      add\n        /* \"#utility.yul\":17621:17640   */\n      swap1\n      pop\n        /* \"#utility.yul\":17280:17646   */\n      swap2\n      swap1\n      pop\n      jump\t// out\n        /* \"#utility.yul\":17652:18071   */\n    tag_113:\n        /* \"#utility.yul\":17818:17822   */\n      0x00\n        /* \"#utility.yul\":17856:17858   */\n      0x20\n        /* \"#utility.yul\":17845:17854   */\n      dup3\n        /* \"#utility.yul\":17841:17859   */\n      add\n        /* \"#utility.yul\":17833:17859   */\n      swap1\n      pop\n        /* \"#utility.yul\":17905:17914   */\n      dup2\n        /* \"#utility.yul\":17899:17903   */\n      dup2\n        /* \"#utility.yul\":17895:17915   */\n      sub\n        /* \"#utility.yul\":17891:17892   */\n      0x00\n        /* \"#utility.yul\":17880:17889   */\n      dup4\n        /* \"#utility.yul\":17876:17893   */\n      add\n        /* \"#utility.yul\":17869:17916   */\n      mstore\n        /* \"#utility.yul\":17933:18064   */\n      tag_468\n        /* \"#utility.yul\":18059:18063   */\n      dup2\n        /* \"#utility.yul\":17933:18064   */\n      tag_273\n      jump\t// in\n    tag_468:\n        /* \"#utility.yul\":17925:18064   */\n      swap1\n      pop\n        /* \"#utility.yul\":17652:18071   */\n      swap2\n      swap1\n      pop\n      jump\t// out\n        /* \"#utility.yul\":18077:18249   */\n    tag_274:\n        /* \"#utility.yul\":18217:18241   */\n      0x4e6f7420726567697374726174696f6e20706861736500000000000000000000\n        /* \"#utility.yul\":18213:18214   */\n      0x00\n        /* \"#utility.yul\":18205:18211   */\n      dup3\n        /* \"#utility.yul\":18201:18215   */\n      add\n        /* \"#utility.yul\":18194:18242   */\n      mstore\n        /* \"#utility.yul\":18077:18249   */\n      pop\n      jump\t// out\n        /* \"#utility.yul\":18255:18621   */\n    tag_275:\n        /* \"#utility.yul\":18397:18400   */\n      0x00\n        /* \"#utility.yul\":18418:18485   */\n      tag_471\n        /* \"#utility.yul\":18482:18484   */\n      0x16\n        /* \"#utility.yul\":18477:18480   */\n      dup4\n        /* \"#utility.yul\":18418:18485   */\n      tag_235\n      jump\t// in\n    tag_471:\n        /* \"#utility.yul\":18411:18485   */\n      swap2\n      pop\n        /* \"#utility.yul\":18494:18587   */\n      tag_472\n        /* \"#utility.yul\":18583:18586   */\n      dup3\n        /* \"#utility.yul\":18494:18587   */\n      tag_274\n      jump\t// in\n    tag_472:\n        /* \"#utility.yul\":18612:18614   */\n      0x20\n        /* \"#utility.yul\":18607:18610   */\n      dup3\n        /* \"#utility.yul\":18603:18615   */\n      add\n        /* \"#utility.yul\":18596:18615   */\n      swap1\n      pop\n        /* \"#utility.yul\":18255:18621   */\n      swap2\n      swap1\n      pop\n      jump\t// out\n        /* \"#utility.yul\":18627:19046   */\n    tag_125:\n        /* \"#utility.yul\":18793:18797   */\n      0x00\n        /* \"#utility.yul\":18831:18833   */\n      0x20\n        /* \"#utility.yul\":18820:18829   */\n      dup3\n        /* \"#utility.yul\":18816:18834   */\n      add\n        /* \"#utility.yul\":18808:18834   */\n      swap1\n      pop\n        /* \"#utility.yul\":18880:18889   */\n      dup2\n        /* \"#utility.yul\":18874:18878   */\n      dup2\n        /* \"#utility.yul\":18870:18890   */\n      sub\n        /* \"#utility.yul\":18866:18867   */\n      0x00\n        /* \"#utility.yul\":18855:18864   */\n      dup4\n        /* \"#utility.yul\":18851:18868   */\n      add\n        /* \"#utility.yul\":18844:18891   */\n      mstore\n        /* \"#utility.yul\":18908:19039   */\n      tag_474\n        /* \"#utility.yul\":19034:19038   */\n      dup2\n        /* \"#utility.yul\":18908:19039   */\n      tag_275\n      jump\t// in\n    tag_474:\n        /* \"#utility.yul\":18900:19039   */\n      swap1\n      pop\n        /* \"#utility.yul\":18627:19046   */\n      swap2\n      swap1\n      pop\n      jump\t// out\n        /* \"#utility.yul\":19052:19217   */\n    tag_276:\n        /* \"#utility.yul\":19192:19209   */\n      0x496e76616c696420616464726573730000000000000000000000000000000000\n        /* \"#utility.yul\":19188:19189   */\n      0x00\n        /* \"#utility.yul\":19180:19186   */\n      dup3\n        /* \"#utility.yul\":19176:19190   */\n      add\n        /* \"#utility.yul\":19169:19210   */\n      mstore\n        /* \"#utility.yul\":19052:19217   */\n      pop\n      jump\t// out\n        /* \"#utility.yul\":19223:19589   */\n    tag_277:\n        /* \"#utility.yul\":19365:19368   */\n      0x00\n        /* \"#utility.yul\":19386:19453   */\n      tag_477\n        /* \"#utility.yul\":19450:19452   */\n      0x0f\n        /* \"#utility.yul\":19445:19448   */\n      dup4\n        /* \"#utility.yul\":19386:19453   */\n      tag_235\n      jump\t// in\n    tag_477:\n        /* \"#utility.yul\":19379:19453   */\n      swap2\n      pop\n        /* \"#utility.yul\":19462:19555   */\n      tag_478\n        /* \"#utility.yul\":19551:19554   */\n      dup3\n        /* \"#utility.yul\":19462:19555   */\n      tag_276\n      jump\t// in\n    tag_478:\n        /* \"#utility.yul\":19580:19582   */\n      0x20\n        /* \"#utility.yul\":19575:19578   */\n      dup3\n        /* \"#utility.yul\":19571:19583   */\n      add\n        /* \"#utility.yul\":19564:19583   */\n      swap1\n      pop\n        /* \"#utility.yul\":19223:19589   */\n      swap2\n      swap1\n      pop\n      jump\t// out\n        /* \"#utility.yul\":19595:20014   */\n    tag_128:\n        /* \"#utility.yul\":19761:19765   */\n      0x00\n        /* \"#utility.yul\":19799:19801   */\n      0x20\n        /* \"#utility.yul\":19788:19797   */\n      dup3\n        /* \"#utility.yul\":19784:19802   */\n      add\n        /* \"#utility.yul\":19776:19802   */\n      swap1\n      pop\n        /* \"#utility.yul\":19848:19857   */\n      dup2\n        /* \"#utility.yul\":19842:19846   */\n      dup2\n        /* \"#utility.yul\":19838:19858   */\n      sub\n        /* \"#utility.yul\":19834:19835   */\n      0x00\n        /* \"#utility.yul\":19823:19832   */\n      dup4\n        /* \"#utility.yul\":19819:19836   */\n      add\n        /* \"#utility.yul\":19812:19859   */\n      mstore\n        /* \"#utility.yul\":19876:20007   */\n      tag_480\n        /* \"#utility.yul\":20002:20006   */\n      dup2\n        /* \"#utility.yul\":19876:20007   */\n      tag_277\n      jump\t// in\n    tag_480:\n        /* \"#utility.yul\":19868:20007   */\n      swap1\n      pop\n        /* \"#utility.yul\":19595:20014   */\n      swap2\n      swap1\n      pop\n      jump\t// out\n        /* \"#utility.yul\":20020:20188   */\n    tag_278:\n        /* \"#utility.yul\":20160:20180   */\n      0x416c726561647920726567697374657265640000000000000000000000000000\n        /* \"#utility.yul\":20156:20157   */\n      0x00\n        /* \"#utility.yul\":20148:20154   */\n      dup3\n        /* \"#utility.yul\":20144:20158   */\n      add\n        /* \"#utility.yul\":20137:20181   */\n      mstore\n        /* \"#utility.yul\":20020:20188   */\n      pop\n      jump\t// out\n        /* \"#utility.yul\":20194:20560   */\n    tag_279:\n        /* \"#utility.yul\":20336:20339   */\n      0x00\n        /* \"#utility.yul\":20357:20424   */\n      tag_483\n        /* \"#utility.yul\":20421:20423   */\n      0x12\n        /* \"#utility.yul\":20416:20419   */\n      dup4\n        /* \"#utility.yul\":20357:20424   */\n      tag_235\n      jump\t// in\n    tag_483:\n        /* \"#utility.yul\":20350:20424   */\n      swap2\n      pop\n        /* \"#utility.yul\":20433:20526   */\n      tag_484\n        /* \"#utility.yul\":20522:20525   */\n      dup3\n        /* \"#utility.yul\":20433:20526   */\n      tag_278\n      jump\t// in\n    tag_484:\n        /* \"#utility.yul\":20551:20553   */\n      0x20\n        /* \"#utility.yul\":20546:20549   */\n      dup3\n        /* \"#utility.yul\":20542:20554   */\n      add\n        /* \"#utility.yul\":20535:20554   */\n      swap1\n      pop\n        /* \"#utility.yul\":20194:20560   */\n      swap2\n      swap1\n      pop\n      jump\t// out\n        /* \"#utility.yul\":20566:20985   */\n    tag_131:\n        /* \"#utility.yul\":20732:20736   */\n      0x00\n        /* \"#utility.yul\":20770:20772   */\n      0x20\n        /* \"#utility.yul\":20759:20768   */\n      dup3\n        /* \"#utility.yul\":20755:20773   */\n      add\n        /* \"#utility.yul\":20747:20773   */\n      swap1\n      pop\n        /* \"#utility.yul\":20819:20828   */\n      dup2\n        /* \"#utility.yul\":20813:20817   */\n      dup2\n        /* \"#utility.yul\":20809:20829   */\n      sub\n        /* \"#utility.yul\":20805:20806   */\n      0x00\n        /* \"#utility.yul\":20794:20803   */\n      dup4\n        /* \"#utility.yul\":20790:20807   */\n      add\n        /* \"#utility.yul\":20783:20830   */\n      mstore\n        /* \"#utility.yul\":20847:20978   */\n      tag_486\n        /* \"#utility.yul\":20973:20977   */\n      dup2\n        /* \"#utility.yul\":20847:20978   */\n      tag_279\n      jump\t// in\n    tag_486:\n        /* \"#utility.yul\":20839:20978   */\n      swap1\n      pop\n        /* \"#utility.yul\":20566:20985   */\n      swap2\n      swap1\n      pop\n      jump\t// out\n        /* \"#utility.yul\":20991:21224   */\n    tag_133:\n        /* \"#utility.yul\":21030:21033   */\n      0x00\n        /* \"#utility.yul\":21053:21077   */\n      tag_488\n        /* \"#utility.yul\":21071:21076   */\n      dup3\n        /* \"#utility.yul\":21053:21077   */\n      tag_224\n      jump\t// in\n    tag_488:\n        /* \"#utility.yul\":21044:21077   */\n      swap2\n      pop\n        /* \"#utility.yul\":21099:21165   */\n      0xffffffffffffffffffffffffffffffffffffffffffffffffffffffffffffffff\n        /* \"#utility.yul\":21092:21097   */\n      dup3\n        /* \"#utility.yul\":21089:21166   */\n      sub\n        /* \"#utility.yul\":21086:21189   */\n      tag_489\n      jumpi\n        /* \"#utility.yul\":21169:21187   */\n      tag_490\n      tag_269\n      jump\t// in\n    tag_490:\n        /* \"#utility.yul\":21086:21189   */\n    tag_489:\n        /* \"#utility.yul\":21216:21217   */\n      0x01\n        /* \"#utility.yul\":21209:21214   */\n      dup3\n        /* \"#utility.yul\":21205:21218   */\n      add\n        /* \"#utility.yul\":21198:21218   */\n      swap1\n      pop\n        /* \"#utility.yul\":20991:21224   */\n      swap2\n      swap1\n      pop\n      jump\t// out\n        /* \"#utility.yul\":21230:21410   */\n    tag_280:\n        /* \"#utility.yul\":21278:21355   */\n      0x4e487b7100000000000000000000000000000000000000000000000000000000\n        /* \"#utility.yul\":21275:21276   */\n      0x00\n        /* \"#utility.yul\":21268:21356   */\n      mstore\n        /* \"#utility.yul\":21375:21379   */\n      0x22\n        /* \"#utility.yul\":21372:21373   */\n      0x04\n        /* \"#utility.yul\":21365:21380   */\n      mstore\n        /* \"#utility.yul\":21399:21403   */\n      0x24\n        /* \"#utility.yul\":21396:21397   */\n      0x00\n        /* \"#utility.yul\":21389:21404   */\n      revert\n        /* \"#utility.yul\":21416:21736   */\n    tag_138:\n        /* \"#utility.yul\":21460:21466   */\n      0x00\n        /* \"#utility.yul\":21497:21498   */\n      0x02\n        /* \"#utility.yul\":21491:21495   */\n      dup3\n        /* \"#utility.yul\":21487:21499   */\n      div\n        /* \"#utility.yul\":21477:21499   */\n      swap1\n      pop\n        /* \"#utility.yul\":21544:21545   */\n      0x01\n        /* \"#utility.yul\":21538:21542   */\n      dup3\n        /* \"#utility.yul\":21534:21546   */\n      and\n        /* \"#utility.yul\":21565:21583   */\n      dup1\n        /* \"#utility.yul\":21555:21636   */\n      tag_493\n      jumpi\n        /* \"#utility.yul\":21621:21625   */\n      0x7f\n        /* \"#utility.yul\":21613:21619   */\n      dup3\n        /* \"#utility.yul\":21609:21626   */\n      and\n        /* \"#utility.yul\":21599:21626   */\n      swap2\n      pop\n        /* \"#utility.yul\":21555:21636   */\n    tag_493:\n        /* \"#utility.yul\":21683:21685   */\n      0x20\n        /* \"#utility.yul\":21675:21681   */\n      dup3\n        /* \"#utility.yul\":21672:21686   */\n      lt\n        /* \"#utility.yul\":21652:21670   */\n      dup2\n        /* \"#utility.yul\":21649:21687   */\n      sub\n        /* \"#utility.yul\":21646:21730   */\n      tag_494\n      jumpi\n        /* \"#utility.yul\":21702:21720   */\n      tag_495\n      tag_280\n      jump\t// in\n    tag_495:\n        /* \"#utility.yul\":21646:21730   */\n    tag_494:\n        /* \"#utility.yul\":21467:21736   */\n      pop\n        /* \"#utility.yul\":21416:21736   */\n      swap2\n      swap1\n      pop\n      jump\t// out\n        /* \"#utility.yul\":21742:21912   */\n    tag_281:\n        /* \"#utility.yul\":21882:21904   */\n      0x566f74696e67206e6f7420656e64656420796574000000000000000000000000\n        /* \"#utility.yul\":21878:21879   */\n      0x00\n        /* \"#utility.yul\":21870:21876   */\n      dup3\n        /* \"#utility.yul\":21866:21880   */\n      add\n        /* \"#utility.yul\":21859:21905   */\n      mstore\n        /* \"#utility.yul\":21742:21912   */\n      pop\n      jump\t// out\n        /* \"#utility.yul\":21918:22284   */\n    tag_282:\n        /* \"#utility.yul\":22060:22063   */\n      0x00\n        /* \"#utility.yul\":22081:22148   */\n      tag_498\n        /* \"#utility.yul\":22145:22147   */\n      0x14\n        /* \"#utility.yul\":22140:22143   */\n      dup4\n        /* \"#utility.yul\":22081:22148   */\n      tag_235\n      jump\t// in\n    tag_498:\n        /* \"#utility.yul\":22074:22148   */\n      swap2\n      pop\n        /* \"#utility.yul\":22157:22250   */\n      tag_499\n        /* \"#utility.yul\":22246:22249   */\n      dup3\n        /* \"#utility.yul\":22157:22250   */\n      tag_281\n      jump\t// in\n    tag_499:\n        /* \"#utility.yul\":22275:22277   */\n      0x20\n        /* \"#utility.yul\":22270:22273   */\n      dup3\n        /* \"#utility.yul\":22266:22278   */\n      add\n        /* \"#utility.yul\":22259:22278   */\n      swap1\n      pop\n        /* \"#utility.yul\":21918:22284   */\n      swap2\n      swap1\n      pop\n      jump\t// out\n        /* \"#utility.yul\":22290:22709   */\n    tag_150:\n        /* \"#utility.yul\":22456:22460   */\n      0x00\n        /* \"#utility.yul\":22494:22496   */\n      0x20\n        /* \"#utility.yul\":22483:22492   */\n      dup3\n        /* \"#utility.yul\":22479:22497   */\n      add\n        /* \"#utility.yul\":22471:22497   */\n      swap1\n      pop\n        /* \"#utility.yul\":22543:22552   */\n      dup2\n        /* \"#utility.yul\":22537:22541   */\n      dup2\n        /* \"#utility.yul\":22533:22553   */\n      sub\n        /* \"#utility.yul\":22529:22530   */\n      0x00\n        /* \"#utility.yul\":22518:22527   */\n      dup4\n        /* \"#utility.yul\":22514:22531   */\n      add\n        /* \"#utility.yul\":22507:22554   */\n      mstore\n        /* \"#utility.yul\":22571:22702   */\n      tag_501\n        /* \"#utility.yul\":22697:22701   */\n      dup2\n        /* \"#utility.yul\":22571:22702   */\n      tag_282\n      jump\t// in\n    tag_501:\n        /* \"#utility.yul\":22563:22702   */\n      swap1\n      pop\n        /* \"#utility.yul\":22290:22709   */\n      swap2\n      swap1\n      pop\n      jump\t// out\n        /* \"#utility.yul\":22715:22890   */\n    tag_283:\n        /* \"#utility.yul\":22855:22882   */\n      0x4e6f7420696e20726567697374726174696f6e20706861736500000000000000\n        /* \"#utility.yul\":22851:22852   */\n      0x00\n        /* \"#utility.yul\":22843:22849   */\n      dup3\n        /* \"#utility.yul\":22839:22853   */\n      add\n        /* \"#utility.yul\":22832:22883   */\n      mstore\n        /* \"#utility.yul\":22715:22890   */\n      pop\n      jump\t// out\n        /* \"#utility.yul\":22896:23262   */\n    tag_284:\n        /* \"#utility.yul\":23038:23041   */\n      0x00\n        /* \"#utility.yul\":23059:23126   */\n      tag_504\n        /* \"#utility.yul\":23123:23125   */\n      0x19\n        /* \"#utility.yul\":23118:23121   */\n      dup4\n        /* \"#utility.yul\":23059:23126   */\n      tag_235\n      jump\t// in\n    tag_504:\n        /* \"#utility.yul\":23052:23126   */\n      swap2\n      pop\n        /* \"#utility.yul\":23135:23228   */\n      tag_505\n        /* \"#utility.yul\":23224:23227   */\n      dup3\n        /* \"#utility.yul\":23135:23228   */\n      tag_283\n      jump\t// in\n    tag_505:\n        /* \"#utility.yul\":23253:23255   */\n      0x20\n        /* \"#utility.yul\":23248:23251   */\n      dup3\n        /* \"#utility.yul\":23244:23256   */\n      add\n        /* \"#utility.yul\":23237:23256   */\n      swap1\n      pop\n        /* \"#utility.yul\":22896:23262   */\n      swap2\n      swap1\n      pop\n      jump\t// out\n        /* \"#utility.yul\":23268:23687   */\n    tag_181:\n        /* \"#utility.yul\":23434:23438   */\n      0x00\n        /* \"#utility.yul\":23472:23474   */\n      0x20\n        /* \"#utility.yul\":23461:23470   */\n      dup3\n        /* \"#utility.yul\":23457:23475   */\n      add\n        /* \"#utility.yul\":23449:23475   */\n      swap1\n      pop\n        /* \"#utility.yul\":23521:23530   */\n      dup2\n        /* \"#utility.yul\":23515:23519   */\n      dup2\n        /* \"#utility.yul\":23511:23531   */\n      sub\n        /* \"#utility.yul\":23507:23508   */\n      0x00\n        /* \"#utility.yul\":23496:23505   */\n      dup4\n        /* \"#utility.yul\":23492:23509   */\n      add\n        /* \"#utility.yul\":23485:23532   */\n      mstore\n        /* \"#utility.yul\":23549:23680   */\n      tag_507\n        /* \"#utility.yul\":23675:23679   */\n      dup2\n        /* \"#utility.yul\":23549:23680   */\n      tag_284\n      jump\t// in\n    tag_507:\n        /* \"#utility.yul\":23541:23680   */\n      swap1\n      pop\n        /* \"#utility.yul\":23268:23687   */\n      swap2\n      swap1\n      pop\n      jump\t// out\n        /* \"#utility.yul\":23693:23834   */\n    tag_285:\n        /* \"#utility.yul\":23742:23746   */\n      0x00\n        /* \"#utility.yul\":23765:23768   */\n      dup2\n        /* \"#utility.yul\":23757:23768   */\n      swap1\n      pop\n        /* \"#utility.yul\":23788:23791   */\n      dup2\n        /* \"#utility.yul\":23785:23786   */\n      0x00\n        /* \"#utility.yul\":23778:23792   */\n      mstore\n        /* \"#utility.yul\":23822:23826   */\n      0x20\n        /* \"#utility.yul\":23819:23820   */\n      0x00\n        /* \"#utility.yul\":23809:23827   */\n      keccak256\n        /* \"#utility.yul\":23801:23827   */\n      swap1\n      pop\n        /* \"#utility.yul\":23693:23834   */\n      swap2\n      swap1\n      pop\n      jump\t// out\n        /* \"#utility.yul\":23840:23933   */\n    tag_286:\n        /* \"#utility.yul\":23877:23883   */\n      0x00\n        /* \"#utility.yul\":23924:23926   */\n      0x20\n        /* \"#utility.yul\":23919:23921   */\n      0x1f\n        /* \"#utility.yul\":23912:23917   */\n      dup4\n        /* \"#utility.yul\":23908:23922   */\n      add\n        /* \"#utility.yul\":23904:23927   */\n      div\n        /* \"#utility.yul\":23894:23927   */\n      swap1\n      pop\n        /* \"#utility.yul\":23840:23933   */\n      swap2\n      swap1\n      pop\n      jump\t// out\n        /* \"#utility.yul\":23939:24046   */\n    tag_287:\n        /* \"#utility.yul\":23983:23991   */\n      0x00\n        /* \"#utility.yul\":24033:24038   */\n      dup3\n        /* \"#utility.yul\":24027:24031   */\n      dup3\n        /* \"#utility.yul\":24023:24039   */\n      shl\n        /* \"#utility.yul\":24002:24039   */\n      swap1\n      pop\n        /* \"#utility.yul\":23939:24046   */\n      swap3\n      swap2\n      pop\n      pop\n      jump\t// out\n        /* \"#utility.yul\":24052:24445   */\n    tag_288:\n        /* \"#utility.yul\":24121:24127   */\n      0x00\n        /* \"#utility.yul\":24171:24172   */\n      0x08\n        /* \"#utility.yul\":24159:24169   */\n      dup4\n        /* \"#utility.yul\":24155:24173   */\n      mul\n        /* \"#utility.yul\":24194:24291   */\n      tag_512\n        /* \"#utility.yul\":24224:24290   */\n      0xffffffffffffffffffffffffffffffffffffffffffffffffffffffffffffffff\n        /* \"#utility.yul\":24213:24222   */\n      dup3\n        /* \"#utility.yul\":24194:24291   */\n      tag_287\n      jump\t// in\n    tag_512:\n        /* \"#utility.yul\":24312:24351   */\n      tag_513\n        /* \"#utility.yul\":24342:24350   */\n      dup7\n        /* \"#utility.yul\":24331:24340   */\n      dup4\n        /* \"#utility.yul\":24312:24351   */\n      tag_287\n      jump\t// in\n    tag_513:\n        /* \"#utility.yul\":24300:24351   */\n      swap6\n      pop\n        /* \"#utility.yul\":24384:24388   */\n      dup1\n        /* \"#utility.yul\":24380:24389   */\n      not\n        /* \"#utility.yul\":24373:24378   */\n      dup5\n        /* \"#utility.yul\":24369:24390   */\n      and\n        /* \"#utility.yul\":24360:24390   */\n      swap4\n      pop\n        /* \"#utility.yul\":24433:24437   */\n      dup1\n        /* \"#utility.yul\":24423:24431   */\n      dup7\n        /* \"#utility.yul\":24419:24438   */\n      and\n        /* \"#utility.yul\":24412:24417   */\n      dup5\n        /* \"#utility.yul\":24409:24439   */\n      or\n        /* \"#utility.yul\":24399:24439   */\n      swap3\n      pop\n        /* \"#utility.yul\":24128:24445   */\n      pop\n      pop\n        /* \"#utility.yul\":24052:24445   */\n      swap4\n      swap3\n      pop\n      pop\n      pop\n      jump\t// out\n        /* \"#utility.yul\":24451:24511   */\n    tag_289:\n        /* \"#utility.yul\":24479:24482   */\n      0x00\n        /* \"#utility.yul\":24500:24505   */\n      dup2\n        /* \"#utility.yul\":24493:24505   */\n      swap1\n      pop\n        /* \"#utility.yul\":24451:24511   */\n      swap2\n      swap1\n      pop\n      jump\t// out\n        /* \"#utility.yul\":24517:24659   */\n    tag_290:\n        /* \"#utility.yul\":24567:24576   */\n      0x00\n        /* \"#utility.yul\":24600:24653   */\n      tag_516\n        /* \"#utility.yul\":24618:24652   */\n      tag_517\n        /* \"#utility.yul\":24627:24651   */\n      tag_518\n        /* \"#utility.yul\":24645:24650   */\n      dup5\n        /* \"#utility.yul\":24627:24651   */\n      tag_224\n      jump\t// in\n    tag_518:\n        /* \"#utility.yul\":24618:24652   */\n      tag_289\n      jump\t// in\n    tag_517:\n        /* \"#utility.yul\":24600:24653   */\n      tag_224\n      jump\t// in\n    tag_516:\n        /* \"#utility.yul\":24587:24653   */\n      swap1\n      pop\n        /* \"#utility.yul\":24517:24659   */\n      swap2\n      swap1\n      pop\n      jump\t// out\n        /* \"#utility.yul\":24665:24740   */\n    tag_291:\n        /* \"#utility.yul\":24708:24711   */\n      0x00\n        /* \"#utility.yul\":24729:24734   */\n      dup2\n        /* \"#utility.yul\":24722:24734   */\n      swap1\n      pop\n        /* \"#utility.yul\":24665:24740   */\n      swap2\n      swap1\n      pop\n      jump\t// out\n        /* \"#utility.yul\":24746:25015   */\n    tag_292:\n        /* \"#utility.yul\":24856:24895   */\n      tag_521\n        /* \"#utility.yul\":24887:24894   */\n      dup4\n        /* \"#utility.yul\":24856:24895   */\n      tag_290\n      jump\t// in\n    tag_521:\n        /* \"#utility.yul\":24917:25008   */\n      tag_522\n        /* \"#utility.yul\":24966:25007   */\n      tag_523\n        /* \"#utility.yul\":24990:25006   */\n      dup3\n        /* \"#utility.yul\":24966:25007   */\n      tag_291\n      jump\t// in\n    tag_523:\n        /* \"#utility.yul\":24958:24964   */\n      dup5\n        /* \"#utility.yul\":24951:24955   */\n      dup5\n        /* \"#utility.yul\":24945:24956   */\n      sload\n        /* \"#utility.yul\":24917:25008   */\n      tag_288\n      jump\t// in\n    tag_522:\n        /* \"#utility.yul\":24911:24915   */\n      dup3\n        /* \"#utility.yul\":24904:25009   */\n      sstore\n        /* \"#utility.yul\":24822:25015   */\n      pop\n        /* \"#utility.yul\":24746:25015   */\n      pop\n      pop\n      pop\n      jump\t// out\n        /* \"#utility.yul\":25021:25094   */\n    tag_293:\n        /* \"#utility.yul\":25066:25069   */\n      0x00\n        /* \"#utility.yul\":25021:25094   */\n      swap1\n      jump\t// out\n        /* \"#utility.yul\":25100:25289   */\n    tag_294:\n        /* \"#utility.yul\":25177:25209   */\n      tag_526\n      tag_293\n      jump\t// in\n    tag_526:\n        /* \"#utility.yul\":25218:25283   */\n      tag_527\n        /* \"#utility.yul\":25276:25282   */\n      dup2\n        /* \"#utility.yul\":25268:25274   */\n      dup5\n        /* \"#utility.yul\":25262:25266   */\n      dup5\n        /* \"#utility.yul\":25218:25283   */\n      tag_292\n      jump\t// in\n    tag_527:\n        /* \"#utility.yul\":25153:25289   */\n      pop\n        /* \"#utility.yul\":25100:25289   */\n      pop\n      pop\n      jump\t// out\n        /* \"#utility.yul\":25295:25481   */\n    tag_295:\n        /* \"#utility.yul\":25355:25475   */\n    tag_529:\n        /* \"#utility.yul\":25372:25375   */\n      dup2\n        /* \"#utility.yul\":25365:25370   */\n      dup2\n        /* \"#utility.yul\":25362:25376   */\n      lt\n        /* \"#utility.yul\":25355:25475   */\n      iszero\n      tag_531\n      jumpi\n        /* \"#utility.yul\":25426:25465   */\n      tag_532\n        /* \"#utility.yul\":25463:25464   */\n      0x00\n        /* \"#utility.yul\":25456:25461   */\n      dup3\n        /* \"#utility.yul\":25426:25465   */\n      tag_294\n      jump\t// in\n    tag_532:\n        /* \"#utility.yul\":25399:25400   */\n      0x01\n        /* \"#utility.yul\":25392:25397   */\n      dup2\n        /* \"#utility.yul\":25388:25401   */\n      add\n        /* \"#utility.yul\":25379:25401   */\n      swap1\n      pop\n        /* \"#utility.yul\":25355:25475   */\n      jump(tag_529)\n    tag_531:\n        /* \"#utility.yul\":25295:25481   */\n      pop\n      pop\n      jump\t// out\n        /* \"#utility.yul\":25487:26030   */\n    tag_296:\n        /* \"#utility.yul\":25588:25590   */\n      0x1f\n        /* \"#utility.yul\":25583:25586   */\n      dup3\n        /* \"#utility.yul\":25580:25591   */\n      gt\n        /* \"#utility.yul\":25577:26023   */\n      iszero\n      tag_534\n      jumpi\n        /* \"#utility.yul\":25622:25660   */\n      tag_535\n        /* \"#utility.yul\":25654:25659   */\n      dup2\n        /* \"#utility.yul\":25622:25660   */\n      tag_285\n      jump\t// in\n    tag_535:\n        /* \"#utility.yul\":25706:25735   */\n      tag_536\n        /* \"#utility.yul\":25724:25734   */\n      dup5\n        /* \"#utility.yul\":25706:25735   */\n      tag_286\n      jump\t// in\n    tag_536:\n        /* \"#utility.yul\":25696:25704   */\n      dup2\n        /* \"#utility.yul\":25692:25736   */\n      add\n        /* \"#utility.yul\":25889:25891   */\n      0x20\n        /* \"#utility.yul\":25877:25887   */\n      dup6\n        /* \"#utility.yul\":25874:25892   */\n      lt\n        /* \"#utility.yul\":25871:25920   */\n      iszero\n      tag_537\n      jumpi\n        /* \"#utility.yul\":25910:25918   */\n      dup2\n        /* \"#utility.yul\":25895:25918   */\n      swap1\n      pop\n        /* \"#utility.yul\":25871:25920   */\n    tag_537:\n        /* \"#utility.yul\":25933:26013   */\n      tag_538\n        /* \"#utility.yul\":25989:26011   */\n      tag_539\n        /* \"#utility.yul\":26007:26010   */\n      dup6\n        /* \"#utility.yul\":25989:26011   */\n      tag_286\n      jump\t// in\n    tag_539:\n        /* \"#utility.yul\":25979:25987   */\n      dup4\n        /* \"#utility.yul\":25975:26012   */\n      add\n        /* \"#utility.yul\":25962:25973   */\n      dup3\n        /* \"#utility.yul\":25933:26013   */\n      tag_295\n      jump\t// in\n    tag_538:\n        /* \"#utility.yul\":25592:26023   */\n      pop\n      pop\n        /* \"#utility.yul\":25577:26023   */\n    tag_534:\n        /* \"#utility.yul\":25487:26030   */\n      pop\n      pop\n      pop\n      jump\t// out\n        /* \"#utility.yul\":26036:26153   */\n    tag_297:\n        /* \"#utility.yul\":26090:26098   */\n      0x00\n        /* \"#utility.yul\":26140:26145   */\n      dup3\n        /* \"#utility.yul\":26134:26138   */\n      dup3\n        /* \"#utility.yul\":26130:26146   */\n      shr\n        /* \"#utility.yul\":26109:26146   */\n      swap1\n      pop\n        /* \"#utility.yul\":26036:26153   */\n      swap3\n      swap2\n      pop\n      pop\n      jump\t// out\n        /* \"#utility.yul\":26159:26328   */\n    tag_298:\n        /* \"#utility.yul\":26203:26209   */\n      0x00\n        /* \"#utility.yul\":26236:26287   */\n      tag_542\n        /* \"#utility.yul\":26284:26285   */\n      0x00\n        /* \"#utility.yul\":26280:26286   */\n      not\n        /* \"#utility.yul\":26272:26277   */\n      dup5\n        /* \"#utility.yul\":26269:26270   */\n      0x08\n        /* \"#utility.yul\":26265:26278   */\n      mul\n        /* \"#utility.yul\":26236:26287   */\n      tag_297\n      jump\t// in\n    tag_542:\n        /* \"#utility.yul\":26232:26288   */\n      not\n        /* \"#utility.yul\":26317:26321   */\n      dup1\n        /* \"#utility.yul\":26311:26315   */\n      dup4\n        /* \"#utility.yul\":26307:26322   */\n      and\n        /* \"#utility.yul\":26297:26322   */\n      swap2\n      pop\n        /* \"#utility.yul\":26210:26328   */\n      pop\n        /* \"#utility.yul\":26159:26328   */\n      swap3\n      swap2\n      pop\n      pop\n      jump\t// out\n        /* \"#utility.yul\":26333:26628   */\n    tag_299:\n        /* \"#utility.yul\":26409:26413   */\n      0x00\n        /* \"#utility.yul\":26555:26584   */\n      tag_544\n        /* \"#utility.yul\":26580:26583   */\n      dup4\n        /* \"#utility.yul\":26574:26578   */\n      dup4\n        /* \"#utility.yul\":26555:26584   */\n      tag_298\n      jump\t// in\n    tag_544:\n        /* \"#utility.yul\":26547:26584   */\n      swap2\n      pop\n        /* \"#utility.yul\":26617:26620   */\n      dup3\n        /* \"#utility.yul\":26614:26615   */\n      0x02\n        /* \"#utility.yul\":26610:26621   */\n      mul\n        /* \"#utility.yul\":26604:26608   */\n      dup3\n        /* \"#utility.yul\":26601:26622   */\n      or\n        /* \"#utility.yul\":26593:26622   */\n      swap1\n      pop\n        /* \"#utility.yul\":26333:26628   */\n      swap3\n      swap2\n      pop\n      pop\n      jump\t// out\n        /* \"#utility.yul\":26633:28028   */\n    tag_184:\n        /* \"#utility.yul\":26750:26787   */\n      tag_546\n        /* \"#utility.yul\":26783:26786   */\n      dup3\n        /* \"#utility.yul\":26750:26787   */\n      tag_234\n      jump\t// in\n    tag_546:\n        /* \"#utility.yul\":26852:26870   */\n      0xffffffffffffffff\n        /* \"#utility.yul\":26844:26850   */\n      dup2\n        /* \"#utility.yul\":26841:26871   */\n      gt\n        /* \"#utility.yul\":26838:26894   */\n      iszero\n      tag_547\n      jumpi\n        /* \"#utility.yul\":26874:26892   */\n      tag_548\n      tag_252\n      jump\t// in\n    tag_548:\n        /* \"#utility.yul\":26838:26894   */\n    tag_547:\n        /* \"#utility.yul\":26918:26956   */\n      tag_549\n        /* \"#utility.yul\":26950:26954   */\n      dup3\n        /* \"#utility.yul\":26944:26955   */\n      sload\n        /* \"#utility.yul\":26918:26956   */\n      tag_138\n      jump\t// in\n    tag_549:\n        /* \"#utility.yul\":27003:27070   */\n      tag_550\n        /* \"#utility.yul\":27063:27069   */\n      dup3\n        /* \"#utility.yul\":27055:27061   */\n      dup3\n        /* \"#utility.yul\":27049:27053   */\n      dup6\n        /* \"#utility.yul\":27003:27070   */\n      tag_296\n      jump\t// in\n    tag_550:\n        /* \"#utility.yul\":27097:27098   */\n      0x00\n        /* \"#utility.yul\":27121:27125   */\n      0x20\n        /* \"#utility.yul\":27108:27125   */\n      swap1\n      pop\n        /* \"#utility.yul\":27153:27155   */\n      0x1f\n        /* \"#utility.yul\":27145:27151   */\n      dup4\n        /* \"#utility.yul\":27142:27156   */\n      gt\n        /* \"#utility.yul\":27170:27171   */\n      0x01\n        /* \"#utility.yul\":27165:27783   */\n      dup2\n      eq\n      tag_552\n      jumpi\n        /* \"#utility.yul\":27827:27828   */\n      0x00\n        /* \"#utility.yul\":27844:27850   */\n      dup5\n        /* \"#utility.yul\":27841:27918   */\n      iszero\n      tag_553\n      jumpi\n        /* \"#utility.yul\":27893:27902   */\n      dup3\n        /* \"#utility.yul\":27888:27891   */\n      dup8\n        /* \"#utility.yul\":27884:27903   */\n      add\n        /* \"#utility.yul\":27878:27904   */\n      mload\n        /* \"#utility.yul\":27869:27904   */\n      swap1\n      pop\n        /* \"#utility.yul\":27841:27918   */\n    tag_553:\n        /* \"#utility.yul\":27944:28011   */\n      tag_554\n        /* \"#utility.yul\":28004:28010   */\n      dup6\n        /* \"#utility.yul\":27997:28002   */\n      dup3\n        /* \"#utility.yul\":27944:28011   */\n      tag_299\n      jump\t// in\n    tag_554:\n        /* \"#utility.yul\":27938:27942   */\n      dup7\n        /* \"#utility.yul\":27931:28012   */\n      sstore\n        /* \"#utility.yul\":27800:28022   */\n      pop\n        /* \"#utility.yul\":27135:28022   */\n      jump(tag_551)\n        /* \"#utility.yul\":27165:27783   */\n    tag_552:\n        /* \"#utility.yul\":27217:27221   */\n      0x1f\n        /* \"#utility.yul\":27213:27222   */\n      not\n        /* \"#utility.yul\":27205:27211   */\n      dup5\n        /* \"#utility.yul\":27201:27223   */\n      and\n        /* \"#utility.yul\":27251:27288   */\n      tag_555\n        /* \"#utility.yul\":27283:27287   */\n      dup7\n        /* \"#utility.yul\":27251:27288   */\n      tag_285\n      jump\t// in\n    tag_555:\n        /* \"#utility.yul\":27310:27311   */\n      0x00\n        /* \"#utility.yul\":27324:27532   */\n    tag_556:\n        /* \"#utility.yul\":27338:27345   */\n      dup3\n        /* \"#utility.yul\":27335:27336   */\n      dup2\n        /* \"#utility.yul\":27332:27346   */\n      lt\n        /* \"#utility.yul\":27324:27532   */\n      iszero\n      tag_558\n      jumpi\n        /* \"#utility.yul\":27417:27426   */\n      dup5\n        /* \"#utility.yul\":27412:27415   */\n      dup10\n        /* \"#utility.yul\":27408:27427   */\n      add\n        /* \"#utility.yul\":27402:27428   */\n      mload\n        /* \"#utility.yul\":27394:27400   */\n      dup3\n        /* \"#utility.yul\":27387:27429   */\n      sstore\n        /* \"#utility.yul\":27468:27469   */\n      0x01\n        /* \"#utility.yul\":27460:27466   */\n      dup3\n        /* \"#utility.yul\":27456:27470   */\n      add\n        /* \"#utility.yul\":27446:27470   */\n      swap2\n      pop\n        /* \"#utility.yul\":27515:27517   */\n      0x20\n        /* \"#utility.yul\":27504:27513   */\n      dup6\n        /* \"#utility.yul\":27500:27518   */\n      add\n        /* \"#utility.yul\":27487:27518   */\n      swap5\n      pop\n        /* \"#utility.yul\":27361:27365   */\n      0x20\n        /* \"#utility.yul\":27358:27359   */\n      dup2\n        /* \"#utility.yul\":27354:27366   */\n      add\n        /* \"#utility.yul\":27349:27366   */\n      swap1\n      pop\n        /* \"#utility.yul\":27324:27532   */\n      jump(tag_556)\n    tag_558:\n        /* \"#utility.yul\":27560:27566   */\n      dup7\n        /* \"#utility.yul\":27551:27558   */\n      dup4\n        /* \"#utility.yul\":27548:27567   */\n      lt\n        /* \"#utility.yul\":27545:27724   */\n      iszero\n      tag_559\n      jumpi\n        /* \"#utility.yul\":27618:27627   */\n      dup5\n        /* \"#utility.yul\":27613:27616   */\n      dup10\n        /* \"#utility.yul\":27609:27628   */\n      add\n        /* \"#utility.yul\":27603:27629   */\n      mload\n        /* \"#utility.yul\":27661:27709   */\n      tag_560\n        /* \"#utility.yul\":27703:27707   */\n      0x1f\n        /* \"#utility.yul\":27695:27701   */\n      dup10\n        /* \"#utility.yul\":27691:27708   */\n      and\n        /* \"#utility.yul\":27680:27689   */\n      dup3\n        /* \"#utility.yul\":27661:27709   */\n      tag_298\n      jump\t// in\n    tag_560:\n        /* \"#utility.yul\":27653:27659   */\n      dup4\n        /* \"#utility.yul\":27646:27710   */\n      sstore\n        /* \"#utility.yul\":27568:27724   */\n      pop\n        /* \"#utility.yul\":27545:27724   */\n    tag_559:\n        /* \"#utility.yul\":27770:27771   */\n      0x01\n        /* \"#utility.yul\":27766:27767   */\n      0x02\n        /* \"#utility.yul\":27758:27764   */\n      dup9\n        /* \"#utility.yul\":27754:27768   */\n      mul\n        /* \"#utility.yul\":27750:27772   */\n      add\n        /* \"#utility.yul\":27744:27748   */\n      dup9\n        /* \"#utility.yul\":27737:27773   */\n      sstore\n        /* \"#utility.yul\":27172:27783   */\n      pop\n      pop\n      pop\n        /* \"#utility.yul\":27135:28022   */\n    tag_551:\n      pop\n        /* \"#utility.yul\":26725:28028   */\n      pop\n      pop\n      pop\n        /* \"#utility.yul\":26633:28028   */\n      pop\n      pop\n      jump\t// out\n        /* \"#utility.yul\":28034:28228   */\n    tag_186:\n        /* \"#utility.yul\":28074:28078   */\n      0x00\n        /* \"#utility.yul\":28094:28114   */\n      tag_562\n        /* \"#utility.yul\":28112:28113   */\n      dup3\n        /* \"#utility.yul\":28094:28114   */\n      tag_224\n      jump\t// in\n    tag_562:\n        /* \"#utility.yul\":28089:28114   */\n      swap2\n      pop\n        /* \"#utility.yul\":28128:28148   */\n      tag_563\n        /* \"#utility.yul\":28146:28147   */\n      dup4\n        /* \"#utility.yul\":28128:28148   */\n      tag_224\n      jump\t// in\n    tag_563:\n        /* \"#utility.yul\":28123:28148   */\n      swap3\n      pop\n        /* \"#utility.yul\":28172:28173   */\n      dup3\n        /* \"#utility.yul\":28169:28170   */\n      dup3\n        /* \"#utility.yul\":28165:28174   */\n      sub\n        /* \"#utility.yul\":28157:28174   */\n      swap1\n      pop\n        /* \"#utility.yul\":28196:28197   */\n      dup2\n        /* \"#utility.yul\":28190:28194   */\n      dup2\n        /* \"#utility.yul\":28187:28198   */\n      gt\n        /* \"#utility.yul\":28184:28221   */\n      iszero\n      tag_564\n      jumpi\n        /* \"#utility.yul\":28201:28219   */\n      tag_565\n      tag_269\n      jump\t// in\n    tag_565:\n        /* \"#utility.yul\":28184:28221   */\n    tag_564:\n        /* \"#utility.yul\":28034:28228   */\n      swap3\n      swap2\n      pop\n      pop\n      jump\t// out\n        /* \"#utility.yul\":28234:28657   */\n    tag_188:\n        /* \"#utility.yul\":28375:28379   */\n      0x00\n        /* \"#utility.yul\":28413:28415   */\n      0x40\n        /* \"#utility.yul\":28402:28411   */\n      dup3\n        /* \"#utility.yul\":28398:28416   */\n      add\n        /* \"#utility.yul\":28390:28416   */\n      swap1\n      pop\n        /* \"#utility.yul\":28426:28497   */\n      tag_567\n        /* \"#utility.yul\":28494:28495   */\n      0x00\n        /* \"#utility.yul\":28483:28492   */\n      dup4\n        /* \"#utility.yul\":28479:28496   */\n      add\n        /* \"#utility.yul\":28470:28476   */\n      dup6\n        /* \"#utility.yul\":28426:28497   */\n      tag_233\n      jump\t// in\n    tag_567:\n        /* \"#utility.yul\":28544:28553   */\n      dup2\n        /* \"#utility.yul\":28538:28542   */\n      dup2\n        /* \"#utility.yul\":28534:28554   */\n      sub\n        /* \"#utility.yul\":28529:28531   */\n      0x20\n        /* \"#utility.yul\":28518:28527   */\n      dup4\n        /* \"#utility.yul\":28514:28532   */\n      add\n        /* \"#utility.yul\":28507:28555   */\n      mstore\n        /* \"#utility.yul\":28572:28650   */\n      tag_568\n        /* \"#utility.yul\":28645:28649   */\n      dup2\n        /* \"#utility.yul\":28636:28642   */\n      dup5\n        /* \"#utility.yul\":28572:28650   */\n      tag_238\n      jump\t// in\n    tag_568:\n        /* \"#utility.yul\":28564:28650   */\n      swap1\n      pop\n        /* \"#utility.yul\":28234:28657   */\n      swap4\n      swap3\n      pop\n      pop\n      pop\n      jump\t// out\n        /* \"#utility.yul\":28663:28806   */\n    tag_300:\n        /* \"#utility.yul\":28720:28725   */\n      0x00\n        /* \"#utility.yul\":28751:28757   */\n      dup2\n        /* \"#utility.yul\":28745:28758   */\n      mload\n        /* \"#utility.yul\":28736:28758   */\n      swap1\n      pop\n        /* \"#utility.yul\":28767:28800   */\n      tag_570\n        /* \"#utility.yul\":28794:28799   */\n      dup2\n        /* \"#utility.yul\":28767:28800   */\n      tag_225\n      jump\t// in\n    tag_570:\n        /* \"#utility.yul\":28663:28806   */\n      swap3\n      swap2\n      pop\n      pop\n      jump\t// out\n        /* \"#utility.yul\":28812:29163   */\n    tag_193:\n        /* \"#utility.yul\":28882:28888   */\n      0x00\n        /* \"#utility.yul\":28931:28933   */\n      0x20\n        /* \"#utility.yul\":28919:28928   */\n      dup3\n        /* \"#utility.yul\":28910:28917   */\n      dup5\n        /* \"#utility.yul\":28906:28929   */\n      sub\n        /* \"#utility.yul\":28902:28934   */\n      slt\n        /* \"#utility.yul\":28899:29018   */\n      iszero\n      tag_572\n      jumpi\n        /* \"#utility.yul\":28937:29016   */\n      tag_573\n      tag_222\n      jump\t// in\n    tag_573:\n        /* \"#utility.yul\":28899:29018   */\n    tag_572:\n        /* \"#utility.yul\":29057:29058   */\n      0x00\n        /* \"#utility.yul\":29082:29146   */\n      tag_574\n        /* \"#utility.yul\":29138:29145   */\n      dup5\n        /* \"#utility.yul\":29129:29135   */\n      dup3\n        /* \"#utility.yul\":29118:29127   */\n      dup6\n        /* \"#utility.yul\":29114:29136   */\n      add\n        /* \"#utility.yul\":29082:29146   */\n      tag_300\n      jump\t// in\n    tag_574:\n        /* \"#utility.yul\":29072:29146   */\n      swap2\n      pop\n        /* \"#utility.yul\":29028:29156   */\n      pop\n        /* \"#utility.yul\":28812:29163   */\n      swap3\n      swap2\n      pop\n      pop\n      jump\t// out\n\n    auxdata: 0xa2646970667358221220abb8136d103fdd073afa085dccf4fb7912f50a66f11d870d733dead16ec4387664736f6c63430008140033\n}\n",
				"bytecode": {
					"linkReferences": {},
					"object": "608060405234801562000010575f80fd5b50604051620027de380380620027de83398181016040528101906200003691906200041d565b335f806101000a81548173ffffffffffffffffffffffffffffffffffffffff021916908373ffffffffffffffffffffffffffffffffffffffff160217905550600160045f6101000a81548160ff021916908360038111156200009d576200009c6200046c565b5b02179055505f5b8151811015620001985760016040518060400160405280848481518110620000d157620000d062000499565b5b602002602001015181526020015f815250908060018154018082558091505060019003905f5260205f2090600202015f909190919091505f820151815f0190816200011d9190620006fd565b506020820151816001015550507ff970aa486598017b8116c2beb18c50d4584ecbc3c688817f59b26796725f31bf8183838151811062000162576200016162000499565b5b60200260200101516040516200017a92919062000842565b60405180910390a180806200018f90620008a1565b915050620000a4565b5050620008ed565b5f604051905090565b5f80fd5b5f80fd5b5f80fd5b5f601f19601f8301169050919050565b7f4e487b71000000000000000000000000000000000000000000000000000000005f52604160045260245ffd5b620001fd82620001b5565b810181811067ffffffffffffffff821117156200021f576200021e620001c5565b5b80604052505050565b5f62000233620001a0565b9050620002418282620001f2565b919050565b5f67ffffffffffffffff821115620002635762000262620001c5565b5b602082029050602081019050919050565b5f80fd5b5f80fd5b5f67ffffffffffffffff821115620002995762000298620001c5565b5b620002a482620001b5565b9050602081019050919050565b5f5b83811015620002d0578082015181840152602081019050620002b3565b5f8484015250505050565b5f620002f1620002eb846200027c565b62000228565b90508281526020810184848401111562000310576200030f62000278565b5b6200031d848285620002b1565b509392505050565b5f82601f8301126200033c576200033b620001b1565b5b81516200034e848260208601620002db565b91505092915050565b5f6200036d620003678462000246565b62000228565b9050808382526020820190506020840283018581111562000393576200039262000274565b5b835b81811015620003e157805167ffffffffffffffff811115620003bc57620003bb620001b1565b5b808601620003cb898262000325565b8552602085019450505060208101905062000395565b5050509392505050565b5f82601f830112620004025762000401620001b1565b5b81516200041484826020860162000357565b91505092915050565b5f60208284031215620004355762000434620001a9565b5b5f82015167ffffffffffffffff811115620004555762000454620001ad565b5b6200046384828501620003eb565b91505092915050565b7f4e487b71000000000000000000000000000000000000000000000000000000005f52602160045260245ffd5b7f4e487b71000000000000000000000000000000000000000000000000000000005f52603260045260245ffd5b5f81519050919050565b7f4e487b71000000000000000000000000000000000000000000000000000000005f52602260045260245ffd5b5f60028204905060018216806200051557607f821691505b6020821081036200052b576200052a620004d0565b5b50919050565b5f819050815f5260205f209050919050565b5f6020601f8301049050919050565b5f82821b905092915050565b5f600883026200058f7fffffffffffffffffffffffffffffffffffffffffffffffffffffffffffffffff8262000552565b6200059b868362000552565b95508019841693508086168417925050509392505050565b5f819050919050565b5f819050919050565b5f620005e5620005df620005d984620005b3565b620005bc565b620005b3565b9050919050565b5f819050919050565b6200060083620005c5565b620006186200060f82620005ec565b8484546200055e565b825550505050565b5f90565b6200062e62000620565b6200063b818484620005f5565b505050565b5b818110156200066257620006565f8262000624565b60018101905062000641565b5050565b601f821115620006b1576200067b8162000531565b620006868462000543565b8101602085101562000696578190505b620006ae620006a58562000543565b83018262000640565b50505b505050565b5f82821c905092915050565b5f620006d35f1984600802620006b6565b1980831691505092915050565b5f620006ed8383620006c2565b9150826002028217905092915050565b6200070882620004c6565b67ffffffffffffffff811115620007245762000723620001c5565b5b620007308254620004fd565b6200073d82828562000666565b5f60209050601f83116001811462000773575f84156200075e578287015190505b6200076a8582620006e0565b865550620007d9565b601f198416620007838662000531565b5f5b82811015620007ac5784890151825560018201915060208501945060208101905062000785565b86831015620007cc5784890151620007c8601f891682620006c2565b8355505b6001600288020188555050505b505050505050565b620007ec81620005b3565b82525050565b5f82825260208201905092915050565b5f6200080e82620004c6565b6200081a8185620007f2565b93506200082c818560208601620002b1565b6200083781620001b5565b840191505092915050565b5f604082019050620008575f830185620007e1565b81810360208301526200086b818462000802565b90509392505050565b7f4e487b71000000000000000000000000000000000000000000000000000000005f52601160045260245ffd5b5f620008ad82620005b3565b91507fffffffffffffffffffffffffffffffffffffffffffffffffffffffffffffffff8203620008e257620008e162000874565b5b600182019050919050565b611ee380620008fb5f395ff3fe608060405234801561000f575f80fd5b50600436106100cd575f3560e01c80635f5300ff1161008a5780639e866206116100645780639e866206146101ed578063b1c9fe6e14610209578063e2ba53f014610227578063eced028014610245576100cd565b80635f5300ff146101935780638da5cb5b146101b157806393b08bf5146101cf576100cd565b80630121b93f146100d157806319f7588d146100ed5780633eadb6db1461011e5780634c105d1b146101285780634e0abf19146101445780635d495aea14610175575b5f80fd5b6100eb60048036038101906100e691906110b5565b610263565b005b6101076004803603810190610102919061113a565b610449565b60405161011592919061118e565b60405180910390f35b610126610475565b005b610142600480360381019061013d919061113a565b610657565b005b61015e600480360381019061015991906110b5565b610927565b60405161016c92919061123f565b60405180910390f35b61017d6109dc565b60405161018a919061126d565b60405180910390f35b61019b610ad3565b6040516101a8919061126d565b60405180910390f35b6101b9610ad9565b6040516101c69190611295565b60405180910390f35b6101d7610afc565b6040516101e491906113fa565b60405180910390f35b61020760048036038101906102029190611546565b610bf1565b005b610211610d9c565b60405161021e9190611600565b60405180910390f35b61022f610dae565b60405161023c9190611619565b60405180910390f35b61024d610ecf565b60405161025a9190611619565b60405180910390f35b600260038111156102775761027661158d565b5b60045f9054906101000a900460ff1660038111156102985761029761158d565b5b146102d8576040517f08c379a00000000000000000000000000000000000000000000000000000000081526004016102cf90611683565b60405180910390fd5b600180549050811061031f576040517f08c379a0000000000000000000000000000000000000000000000000000000008152600401610316906116eb565b60405180910390fd5b5f60025f3373ffffffffffffffffffffffffffffffffffffffff1673ffffffffffffffffffffffffffffffffffffffff1681526020019081526020015f209050805f015f9054906101000a900460ff16156103af576040517f08c379a00000000000000000000000000000000000000000000000000000000081526004016103a690611753565b60405180910390fd5b6001815f015f6101000a81548160ff02191690831515021790555081816001018190555060018083815481106103e8576103e7611771565b5b905f5260205f2090600202016001015f82825461040591906117cb565b925050819055507f4d99b957a2bc29a30ebd96a7be8e68fe50a3c701db28a91436490b7d53870ca4338360405161043d9291906117fe565b60405180910390a15050565b6002602052805f5260405f205f91509050805f015f9054906101000a900460ff16908060010154905082565b5f8054906101000a900473ffffffffffffffffffffffffffffffffffffffff1673ffffffffffffffffffffffffffffffffffffffff163373ffffffffffffffffffffffffffffffffffffffff1614610502576040517f08c379a00000000000000000000000000000000000000000000000000000000081526004016104f99061186f565b60405180910390fd5b600160038111156105165761051561158d565b5b60045f9054906101000a900460ff1660038111156105375761053661158d565b5b0361056b57600260045f6101000a81548160ff021916908360038111156105615761056061158d565b5b0217905550610610565b6002600381111561057f5761057e61158d565b5b60045f9054906101000a900460ff1660038111156105a05761059f61158d565b5b036105d457600360045f6101000a81548160ff021916908360038111156105ca576105c961158d565b5b021790555061060f565b6040517f08c379a0000000000000000000000000000000000000000000000000000000008152600401610606906118d7565b60405180910390fd5b5b7fa6dcc92f45df25789d5639b7a0c97ba1edf3bb1c0b5dd3376fd96a0db87c464260045f9054906101000a900460ff1660405161064d9190611600565b60405180910390a1565b5f8054906101000a900473ffffffffffffffffffffffffffffffffffffffff1673ffffffffffffffffffffffffffffffffffffffff163373ffffffffffffffffffffffffffffffffffffffff16146106e4576040517f08c379a00000000000000000000000000000000000000000000000000000000081526004016106db9061186f565b60405180910390fd5b600160038111156106f8576106f761158d565b5b60045f9054906101000a900460ff1660038111156107195761071861158d565b5b14610759576040517f08c379a00000000000000000000000000000000000000000000000000000000081526004016107509061193f565b60405180910390fd5b5f73ffffffffffffffffffffffffffffffffffffffff168173ffffffffffffffffffffffffffffffffffffffff16036107c7576040517f08c379a00000000000000000000000000000000000000000000000000000000081526004016107be906119a7565b60405180910390fd5b5f60025f8373ffffffffffffffffffffffffffffffffffffffff1673ffffffffffffffffffffffffffffffffffffffff1681526020019081526020015f209050805f015f9054906101000a900460ff1615610857576040517f08c379a000000000000000000000000000000000000000000000000000000000815260040161084e90611a0f565b60405180910390fd5b60405180604001604052805f151581526020015f81525060025f8473ffffffffffffffffffffffffffffffffffffffff1673ffffffffffffffffffffffffffffffffffffffff1681526020019081526020015f205f820151815f015f6101000a81548160ff0219169083151502179055506020820151816001015590505060035f8154809291906108e790611a2d565b91905055507fa636f4a11e2d3ba7f89d042ecb0a6b886716e98cd49d8fd876ee0f73bced42b88260405161091b9190611295565b60405180910390a15050565b60018181548110610936575f80fd5b905f5260205f2090600202015f91509050805f01805461095590611aa1565b80601f016020809104026020016040519081016040528092919081815260200182805461098190611aa1565b80156109cc5780601f106109a3576101008083540402835291602001916109cc565b820191905f5260205f20905b8154815290600101906020018083116109af57829003601f168201915b5050505050908060010154905082565b5f6003808111156109f0576109ef61158d565b5b60045f9054906101000a900460ff166003811115610a1157610a1061158d565b5b14610a51576040517f08c379a0000000000000000000000000000000000000000000000000000000008152600401610a4890611b1b565b60405180910390fd5b5f805f5b600180549050811015610aca578260018281548110610a7757610a76611771565b5b905f5260205f209060020201600101541115610ab75760018181548110610aa157610aa0611771565b5b905f5260205f2090600202016001015492508091505b8080610ac290611a2d565b915050610a55565b50809250505090565b60035481565b5f8054906101000a900473ffffffffffffffffffffffffffffffffffffffff1681565b60606001805480602002602001604051908101604052809291908181526020015f905b82821015610be8578382905f5260205f2090600202016040518060400160405290815f82018054610b4f90611aa1565b80601f0160208091040260200160405190810160405280929190818152602001828054610b7b90611aa1565b8015610bc65780601f10610b9d57610100808354040283529160200191610bc6565b820191905f5260205f20905b815481529060010190602001808311610ba957829003601f168201915b5050505050815260200160018201548152505081526020019060010190610b1f565b50505050905090565b5f8054906101000a900473ffffffffffffffffffffffffffffffffffffffff1673ffffffffffffffffffffffffffffffffffffffff163373ffffffffffffffffffffffffffffffffffffffff1614610c7e576040517f08c379a0000000000000000000000000000000000000000000000000000000008152600401610c759061186f565b60405180910390fd5b60016003811115610c9257610c9161158d565b5b60045f9054906101000a900460ff166003811115610cb357610cb261158d565b5b14610cf3576040517f08c379a0000000000000000000000000000000000000000000000000000000008152600401610cea90611b83565b60405180910390fd5b600160405180604001604052808381526020015f815250908060018154018082558091505060019003905f5260205f2090600202015f909190919091505f820151815f019081610d439190611d3e565b506020820151816001015550507ff970aa486598017b8116c2beb18c50d4584ecbc3c688817f59b26796725f31bf60018080549050610d829190611e0d565b82604051610d91929190611e40565b60405180910390a150565b60045f9054906101000a900460ff1681565b60605f3073ffffffffffffffffffffffffffffffffffffffff16635d495aea6040518163ffffffff1660e01b8152600401602060405180830381865afa158015610dfa573d5f803e3d5ffd5b505050506040513d601f19601f82011682018060405250810190610e1e9190611e82565b905060018181548110610e3457610e33611771565b5b905f5260205f2090600202015f018054610e4d90611aa1565b80601f0160208091040260200160405190810160405280929190818152602001828054610e7990611aa1565b8015610ec45780601f10610e9b57610100808354040283529160200191610ec4565b820191905f5260205f20905b815481529060010190602001808311610ea757829003601f168201915b505050505091505090565b60605f6003811115610ee457610ee361158d565b5b60045f9054906101000a900460ff166003811115610f0557610f0461158d565b5b03610f47576040518060400160405280600b81526020017f4e6f742053746172746564000000000000000000000000000000000000000000815250905061106e565b60016003811115610f5b57610f5a61158d565b5b60045f9054906101000a900460ff166003811115610f7c57610f7b61158d565b5b03610fbe576040518060400160405280600c81526020017f526567697374726174696f6e0000000000000000000000000000000000000000815250905061106e565b60026003811115610fd257610fd161158d565b5b60045f9054906101000a900460ff166003811115610ff357610ff261158d565b5b03611035576040518060400160405280600681526020017f566f74696e670000000000000000000000000000000000000000000000000000815250905061106e565b6040518060400160405280600581526020017f456e64656400000000000000000000000000000000000000000000000000000081525090505b90565b5f604051905090565b5f80fd5b5f80fd5b5f819050919050565b61109481611082565b811461109e575f80fd5b50565b5f813590506110af8161108b565b92915050565b5f602082840312156110ca576110c961107a565b5b5f6110d7848285016110a1565b91505092915050565b5f73ffffffffffffffffffffffffffffffffffffffff82169050919050565b5f611109826110e0565b9050919050565b611119816110ff565b8114611123575f80fd5b50565b5f8135905061113481611110565b92915050565b5f6020828403121561114f5761114e61107a565b5b5f61115c84828501611126565b91505092915050565b5f8115159050919050565b61117981611165565b82525050565b61118881611082565b82525050565b5f6040820190506111a15f830185611170565b6111ae602083018461117f565b9392505050565b5f81519050919050565b5f82825260208201905092915050565b5f5b838110156111ec5780820151818401526020810190506111d1565b5f8484015250505050565b5f601f19601f8301169050919050565b5f611211826111b5565b61121b81856111bf565b935061122b8185602086016111cf565b611234816111f7565b840191505092915050565b5f6040820190508181035f8301526112578185611207565b9050611266602083018461117f565b9392505050565b5f6020820190506112805f83018461117f565b92915050565b61128f816110ff565b82525050565b5f6020820190506112a85f830184611286565b92915050565b5f81519050919050565b5f82825260208201905092915050565b5f819050602082019050919050565b5f82825260208201905092915050565b5f6112f1826111b5565b6112fb81856112d7565b935061130b8185602086016111cf565b611314816111f7565b840191505092915050565b61132881611082565b82525050565b5f604083015f8301518482035f86015261134882826112e7565b915050602083015161135d602086018261131f565b508091505092915050565b5f611373838361132e565b905092915050565b5f602082019050919050565b5f611391826112ae565b61139b81856112b8565b9350836020820285016113ad856112c8565b805f5b858110156113e857848403895281516113c98582611368565b94506113d48361137b565b925060208a019950506001810190506113b0565b50829750879550505050505092915050565b5f6020820190508181035f8301526114128184611387565b905092915050565b5f80fd5b5f80fd5b7f4e487b71000000000000000000000000000000000000000000000000000000005f52604160045260245ffd5b611458826111f7565b810181811067ffffffffffffffff8211171561147757611476611422565b5b80604052505050565b5f611489611071565b9050611495828261144f565b919050565b5f67ffffffffffffffff8211156114b4576114b3611422565b5b6114bd826111f7565b9050602081019050919050565b828183375f83830152505050565b5f6114ea6114e58461149a565b611480565b9050828152602081018484840111156115065761150561141e565b5b6115118482856114ca565b509392505050565b5f82601f83011261152d5761152c61141a565b5b813561153d8482602086016114d8565b91505092915050565b5f6020828403121561155b5761155a61107a565b5b5f82013567ffffffffffffffff8111156115785761157761107e565b5b61158484828501611519565b91505092915050565b7f4e487b71000000000000000000000000000000000000000000000000000000005f52602160045260245ffd5b600481106115cb576115ca61158d565b5b50565b5f8190506115db826115ba565b919050565b5f6115ea826115ce565b9050919050565b6115fa816115e0565b82525050565b5f6020820190506116135f8301846115f1565b92915050565b5f6020820190508181035f8301526116318184611207565b905092915050565b7f4e6f7420696e20766f74696e67207068617365000000000000000000000000005f82015250565b5f61166d6013836111bf565b915061167882611639565b602082019050919050565b5f6020820190508181035f83015261169a81611661565b9050919050565b7f496e76616c69642070726f706f73616c20696e646578000000000000000000005f82015250565b5f6116d56016836111bf565b91506116e0826116a1565b602082019050919050565b5f6020820190508181035f830152611702816116c9565b9050919050565b7f416c726561647920766f746564000000000000000000000000000000000000005f82015250565b5f61173d600d836111bf565b915061174882611709565b602082019050919050565b5f6020820190508181035f83015261176a81611731565b9050919050565b7f4e487b71000000000000000000000000000000000000000000000000000000005f52603260045260245ffd5b7f4e487b71000000000000000000000000000000000000000000000000000000005f52601160045260245ffd5b5f6117d582611082565b91506117e083611082565b92508282019050808211156117f8576117f761179e565b5b92915050565b5f6040820190506118115f830185611286565b61181e602083018461117f565b9392505050565b7f4f6e6c79206f776e65722063616e2063616c6c000000000000000000000000005f82015250565b5f6118596013836111bf565b915061186482611825565b602082019050919050565b5f6020820190508181035f8301526118868161184d565b9050919050565b7f566f74696e6720616c726561647920656e6465640000000000000000000000005f82015250565b5f6118c16014836111bf565b91506118cc8261188d565b602082019050919050565b5f6020820190508181035f8301526118ee816118b5565b9050919050565b7f4e6f7420726567697374726174696f6e207068617365000000000000000000005f82015250565b5f6119296016836111bf565b9150611934826118f5565b602082019050919050565b5f6020820190508181035f8301526119568161191d565b9050919050565b7f496e76616c6964206164647265737300000000000000000000000000000000005f82015250565b5f611991600f836111bf565b915061199c8261195d565b602082019050919050565b5f6020820190508181035f8301526119be81611985565b9050919050565b7f416c7265616479207265676973746572656400000000000000000000000000005f82015250565b5f6119f96012836111bf565b9150611a04826119c5565b602082019050919050565b5f6020820190508181035f830152611a26816119ed565b9050919050565b5f611a3782611082565b91507fffffffffffffffffffffffffffffffffffffffffffffffffffffffffffffffff8203611a6957611a6861179e565b5b600182019050919050565b7f4e487b71000000000000000000000000000000000000000000000000000000005f52602260045260245ffd5b5f6002820490506001821680611ab857607f821691505b602082108103611acb57611aca611a74565b5b50919050565b7f566f74696e67206e6f7420656e646564207965740000000000000000000000005f82015250565b5f611b056014836111bf565b9150611b1082611ad1565b602082019050919050565b5f6020820190508181035f830152611b3281611af9565b9050919050565b7f4e6f7420696e20726567697374726174696f6e207068617365000000000000005f82015250565b5f611b6d6019836111bf565b9150611b7882611b39565b602082019050919050565b5f6020820190508181035f830152611b9a81611b61565b9050919050565b5f819050815f5260205f209050919050565b5f6020601f8301049050919050565b5f82821b905092915050565b5f60088302611bfd7fffffffffffffffffffffffffffffffffffffffffffffffffffffffffffffffff82611bc2565b611c078683611bc2565b95508019841693508086168417925050509392505050565b5f819050919050565b5f611c42611c3d611c3884611082565b611c1f565b611082565b9050919050565b5f819050919050565b611c5b83611c28565b611c6f611c6782611c49565b848454611bce565b825550505050565b5f90565b611c83611c77565b611c8e818484611c52565b505050565b5b81811015611cb157611ca65f82611c7b565b600181019050611c94565b5050565b601f821115611cf657611cc781611ba1565b611cd084611bb3565b81016020851015611cdf578190505b611cf3611ceb85611bb3565b830182611c93565b50505b505050565b5f82821c905092915050565b5f611d165f1984600802611cfb565b1980831691505092915050565b5f611d2e8383611d07565b9150826002028217905092915050565b611d47826111b5565b67ffffffffffffffff811115611d6057611d5f611422565b5b611d6a8254611aa1565b611d75828285611cb5565b5f60209050601f831160018114611da6575f8415611d94578287015190505b611d9e8582611d23565b865550611e05565b601f198416611db486611ba1565b5f5b82811015611ddb57848901518255600182019150602085019450602081019050611db6565b86831015611df85784890151611df4601f891682611d07565b8355505b6001600288020188555050505b505050505050565b5f611e1782611082565b9150611e2283611082565b9250828203905081811115611e3a57611e3961179e565b5b92915050565b5f604082019050611e535f83018561117f565b8181036020830152611e658184611207565b90509392505050565b5f81519050611e7c8161108b565b92915050565b5f60208284031215611e9757611e9661107a565b5b5f611ea484828501611e6e565b9150509291505056fea2646970667358221220abb8136d103fdd073afa085dccf4fb7912f50a66f11d870d733dead16ec4387664736f6c63430008140033",
					"opcodes": "PUSH1 0x80 PUSH1 0x40 MSTORE CALLVALUE DUP1 ISZERO PUSH3 0x10 JUMPI PUSH0 DUP1 REVERT JUMPDEST POP PUSH1 0x40 MLOAD PUSH3 0x27DE CODESIZE SUB DUP1 PUSH3 0x27DE DUP4 CODECOPY DUP2 DUP2 ADD PUSH1 0x40 MSTORE DUP2 ADD SWAP1 PUSH3 0x36 SWAP2 SWAP1 PUSH3 0x41D JUMP JUMPDEST CALLER PUSH0 DUP1 PUSH2 0x100 EXP DUP2 SLOAD DUP2 PUSH20 0xFFFFFFFFFFFFFFFFFFFFFFFFFFFFFFFFFFFFFFFF MUL NOT AND SWAP1 DUP4 PUSH20 0xFFFFFFFFFFFFFFFFFFFFFFFFFFFFFFFFFFFFFFFF AND MUL OR SWAP1 SSTORE POP PUSH1 0x1 PUSH1 0x4 PUSH0 PUSH2 0x100 EXP DUP2 SLOAD DUP2 PUSH1 0xFF MUL NOT AND SWAP1 DUP4 PUSH1 0x3 DUP2 GT ISZERO PUSH3 0x9D JUMPI PUSH3 0x9C PUSH3 0x46C JUMP JUMPDEST JUMPDEST MUL OR SWAP1 SSTORE POP PUSH0 JUMPDEST DUP2 MLOAD DUP2 LT ISZERO PUSH3 0x198 JUMPI PUSH1 0x1 PUSH1 0x40 MLOAD DUP1 PUSH1 0x40 ADD PUSH1 0x40 MSTORE DUP1 DUP5 DUP5 DUP2 MLOAD DUP2 LT PUSH3 0xD1 JUMPI PUSH3 0xD0 PUSH3 0x499 JUMP JUMPDEST JUMPDEST PUSH1 0x20 MUL PUSH1 0x20 ADD ADD MLOAD DUP2 MSTORE PUSH1 0x20 ADD PUSH0 DUP2 MSTORE POP SWAP1 DUP1 PUSH1 0x1 DUP2 SLOAD ADD DUP1 DUP3 SSTORE DUP1 SWAP2 POP POP PUSH1 0x1 SWAP1 SUB SWAP1 PUSH0 MSTORE PUSH1 0x20 PUSH0 KECCAK256 SWAP1 PUSH1 0x2 MUL ADD PUSH0 SWAP1 SWAP2 SWAP1 SWAP2 SWAP1 SWAP2 POP PUSH0 DUP3 ADD MLOAD DUP2 PUSH0 ADD SWAP1 DUP2 PUSH3 0x11D SWAP2 SWAP1 PUSH3 0x6FD JUMP JUMPDEST POP PUSH1 0x20 DUP3 ADD MLOAD DUP2 PUSH1 0x1 ADD SSTORE POP POP PUSH32 0xF970AA486598017B8116C2BEB18C50D4584ECBC3C688817F59B26796725F31BF DUP2 DUP4 DUP4 DUP2 MLOAD DUP2 LT PUSH3 0x162 JUMPI PUSH3 0x161 PUSH3 0x499 JUMP JUMPDEST JUMPDEST PUSH1 0x20 MUL PUSH1 0x20 ADD ADD MLOAD PUSH1 0x40 MLOAD PUSH3 0x17A SWAP3 SWAP2 SWAP1 PUSH3 0x842 JUMP JUMPDEST PUSH1 0x40 MLOAD DUP1 SWAP2 SUB SWAP1 LOG1 DUP1 DUP1 PUSH3 0x18F SWAP1 PUSH3 0x8A1 JUMP JUMPDEST SWAP2 POP POP PUSH3 0xA4 JUMP JUMPDEST POP POP PUSH3 0x8ED JUMP JUMPDEST PUSH0 PUSH1 0x40 MLOAD SWAP1 POP SWAP1 JUMP JUMPDEST PUSH0 DUP1 REVERT JUMPDEST PUSH0 DUP1 REVERT JUMPDEST PUSH0 DUP1 REVERT JUMPDEST PUSH0 PUSH1 0x1F NOT PUSH1 0x1F DUP4 ADD AND SWAP1 POP SWAP2 SWAP1 POP JUMP JUMPDEST PUSH32 0x4E487B7100000000000000000000000000000000000000000000000000000000 PUSH0 MSTORE PUSH1 0x41 PUSH1 0x4 MSTORE PUSH1 0x24 PUSH0 REVERT JUMPDEST PUSH3 0x1FD DUP3 PUSH3 0x1B5 JUMP JUMPDEST DUP2 ADD DUP2 DUP2 LT PUSH8 0xFFFFFFFFFFFFFFFF DUP3 GT OR ISZERO PUSH3 0x21F JUMPI PUSH3 0x21E PUSH3 0x1C5 JUMP JUMPDEST JUMPDEST DUP1 PUSH1 0x40 MSTORE POP POP POP JUMP JUMPDEST PUSH0 PUSH3 0x233 PUSH3 0x1A0 JUMP JUMPDEST SWAP1 POP PUSH3 0x241 DUP3 DUP3 PUSH3 0x1F2 JUMP JUMPDEST SWAP2 SWAP1 POP JUMP JUMPDEST PUSH0 PUSH8 0xFFFFFFFFFFFFFFFF DUP3 GT ISZERO PUSH3 0x263 JUMPI PUSH3 0x262 PUSH3 0x1C5 JUMP JUMPDEST JUMPDEST PUSH1 0x20 DUP3 MUL SWAP1 POP PUSH1 0x20 DUP2 ADD SWAP1 POP SWAP2 SWAP1 POP JUMP JUMPDEST PUSH0 DUP1 REVERT JUMPDEST PUSH0 DUP1 REVERT JUMPDEST PUSH0 PUSH8 0xFFFFFFFFFFFFFFFF DUP3 GT ISZERO PUSH3 0x299 JUMPI PUSH3 0x298 PUSH3 0x1C5 JUMP JUMPDEST JUMPDEST PUSH3 0x2A4 DUP3 PUSH3 0x1B5 JUMP JUMPDEST SWAP1 POP PUSH1 0x20 DUP2 ADD SWAP1 POP SWAP2 SWAP1 POP JUMP JUMPDEST PUSH0 JUMPDEST DUP4 DUP2 LT ISZERO PUSH3 0x2D0 JUMPI DUP1 DUP3 ADD MLOAD DUP2 DUP5 ADD MSTORE PUSH1 0x20 DUP2 ADD SWAP1 POP PUSH3 0x2B3 JUMP JUMPDEST PUSH0 DUP5 DUP5 ADD MSTORE POP POP POP POP JUMP JUMPDEST PUSH0 PUSH3 0x2F1 PUSH3 0x2EB DUP5 PUSH3 0x27C JUMP JUMPDEST PUSH3 0x228 JUMP JUMPDEST SWAP1 POP DUP3 DUP2 MSTORE PUSH1 0x20 DUP2 ADD DUP5 DUP5 DUP5 ADD GT ISZERO PUSH3 0x310 JUMPI PUSH3 0x30F PUSH3 0x278 JUMP JUMPDEST JUMPDEST PUSH3 0x31D DUP5 DUP3 DUP6 PUSH3 0x2B1 JUMP JUMPDEST POP SWAP4 SWAP3 POP POP POP JUMP JUMPDEST PUSH0 DUP3 PUSH1 0x1F DUP4 ADD SLT PUSH3 0x33C JUMPI PUSH3 0x33B PUSH3 0x1B1 JUMP JUMPDEST JUMPDEST DUP2 MLOAD PUSH3 0x34E DUP5 DUP3 PUSH1 0x20 DUP7 ADD PUSH3 0x2DB JUMP JUMPDEST SWAP2 POP POP SWAP3 SWAP2 POP POP JUMP JUMPDEST PUSH0 PUSH3 0x36D PUSH3 0x367 DUP5 PUSH3 0x246 JUMP JUMPDEST PUSH3 0x228 JUMP JUMPDEST SWAP1 POP DUP1 DUP4 DUP3 MSTORE PUSH1 0x20 DUP3 ADD SWAP1 POP PUSH1 0x20 DUP5 MUL DUP4 ADD DUP6 DUP2 GT ISZERO PUSH3 0x393 JUMPI PUSH3 0x392 PUSH3 0x274 JUMP JUMPDEST JUMPDEST DUP4 JUMPDEST DUP2 DUP2 LT ISZERO PUSH3 0x3E1 JUMPI DUP1 MLOAD PUSH8 0xFFFFFFFFFFFFFFFF DUP2 GT ISZERO PUSH3 0x3BC JUMPI PUSH3 0x3BB PUSH3 0x1B1 JUMP JUMPDEST JUMPDEST DUP1 DUP7 ADD PUSH3 0x3CB DUP10 DUP3 PUSH3 0x325 JUMP JUMPDEST DUP6 MSTORE PUSH1 0x20 DUP6 ADD SWAP5 POP POP POP PUSH1 0x20 DUP2 ADD SWAP1 POP PUSH3 0x395 JUMP JUMPDEST POP POP POP SWAP4 SWAP3 POP POP POP JUMP JUMPDEST PUSH0 DUP3 PUSH1 0x1F DUP4 ADD SLT PUSH3 0x402 JUMPI PUSH3 0x401 PUSH3 0x1B1 JUMP JUMPDEST JUMPDEST DUP2 MLOAD PUSH3 0x414 DUP5 DUP3 PUSH1 0x20 DUP7 ADD PUSH3 0x357 JUMP JUMPDEST SWAP2 POP POP SWAP3 SWAP2 POP POP JUMP JUMPDEST PUSH0 PUSH1 0x20 DUP3 DUP5 SUB SLT ISZERO PUSH3 0x435 JUMPI PUSH3 0x434 PUSH3 0x1A9 JUMP JUMPDEST JUMPDEST PUSH0 DUP3 ADD MLOAD PUSH8 0xFFFFFFFFFFFFFFFF DUP2 GT ISZERO PUSH3 0x455 JUMPI PUSH3 0x454 PUSH3 0x1AD JUMP JUMPDEST JUMPDEST PUSH3 0x463 DUP5 DUP3 DUP6 ADD PUSH3 0x3EB JUMP JUMPDEST SWAP2 POP POP SWAP3 SWAP2 POP POP JUMP JUMPDEST PUSH32 0x4E487B7100000000000000000000000000000000000000000000000000000000 PUSH0 MSTORE PUSH1 0x21 PUSH1 0x4 MSTORE PUSH1 0x24 PUSH0 REVERT JUMPDEST PUSH32 0x4E487B7100000000000000000000000000000000000000000000000000000000 PUSH0 MSTORE PUSH1 0x32 PUSH1 0x4 MSTORE PUSH1 0x24 PUSH0 REVERT JUMPDEST PUSH0 DUP2 MLOAD SWAP1 POP SWAP2 SWAP1 POP JUMP JUMPDEST PUSH32 0x4E487B7100000000000000000000000000000000000000000000000000000000 PUSH0 MSTORE PUSH1 0x22 PUSH1 0x4 MSTORE PUSH1 0x24 PUSH0 REVERT JUMPDEST PUSH0 PUSH1 0x2 DUP3 DIV SWAP1 POP PUSH1 0x1 DUP3 AND DUP1 PUSH3 0x515 JUMPI PUSH1 0x7F DUP3 AND SWAP2 POP JUMPDEST PUSH1 0x20 DUP3 LT DUP2 SUB PUSH3 0x52B JUMPI PUSH3 0x52A PUSH3 0x4D0 JUMP JUMPDEST JUMPDEST POP SWAP2 SWAP1 POP JUMP JUMPDEST PUSH0 DUP2 SWAP1 POP DUP2 PUSH0 MSTORE PUSH1 0x20 PUSH0 KECCAK256 SWAP1 POP SWAP2 SWAP1 POP JUMP JUMPDEST PUSH0 PUSH1 0x20 PUSH1 0x1F DUP4 ADD DIV SWAP1 POP SWAP2 SWAP1 POP JUMP JUMPDEST PUSH0 DUP3 DUP3 SHL SWAP1 POP SWAP3 SWAP2 POP POP JUMP JUMPDEST PUSH0 PUSH1 0x8 DUP4 MUL PUSH3 0x58F PUSH32 0xFFFFFFFFFFFFFFFFFFFFFFFFFFFFFFFFFFFFFFFFFFFFFFFFFFFFFFFFFFFFFFFF DUP3 PUSH3 0x552 JUMP JUMPDEST PUSH3 0x59B DUP7 DUP4 PUSH3 0x552 JUMP JUMPDEST SWAP6 POP DUP1 NOT DUP5 AND SWAP4 POP DUP1 DUP7 AND DUP5 OR SWAP3 POP POP POP SWAP4 SWAP3 POP POP POP JUMP JUMPDEST PUSH0 DUP2 SWAP1 POP SWAP2 SWAP1 POP JUMP JUMPDEST PUSH0 DUP2 SWAP1 POP SWAP2 SWAP1 POP JUMP JUMPDEST PUSH0 PUSH3 0x5E5 PUSH3 0x5DF PUSH3 0x5D9 DUP5 PUSH3 0x5B3 JUMP JUMPDEST PUSH3 0x5BC JUMP JUMPDEST PUSH3 0x5B3 JUMP JUMPDEST SWAP1 POP SWAP2 SWAP1 POP JUMP JUMPDEST PUSH0 DUP2 SWAP1 POP SWAP2 SWAP1 POP JUMP JUMPDEST PUSH3 0x600 DUP4 PUSH3 0x5C5 JUMP JUMPDEST PUSH3 0x618 PUSH3 0x60F DUP3 PUSH3 0x5EC JUMP JUMPDEST DUP5 DUP5 SLOAD PUSH3 0x55E JUMP JUMPDEST DUP3 SSTORE POP POP POP POP JUMP JUMPDEST PUSH0 SWAP1 JUMP JUMPDEST PUSH3 0x62E PUSH3 0x620 JUMP JUMPDEST PUSH3 0x63B DUP2 DUP5 DUP5 PUSH3 0x5F5 JUMP JUMPDEST POP POP POP JUMP JUMPDEST JUMPDEST DUP2 DUP2 LT ISZERO PUSH3 0x662 JUMPI PUSH3 0x656 PUSH0 DUP3 PUSH3 0x624 JUMP JUMPDEST PUSH1 0x1 DUP2 ADD SWAP1 POP PUSH3 0x641 JUMP JUMPDEST POP POP JUMP JUMPDEST PUSH1 0x1F DUP3 GT ISZERO PUSH3 0x6B1 JUMPI PUSH3 0x67B DUP2 PUSH3 0x531 JUMP JUMPDEST PUSH3 0x686 DUP5 PUSH3 0x543 JUMP JUMPDEST DUP2 ADD PUSH1 0x20 DUP6 LT ISZERO PUSH3 0x696 JUMPI DUP2 SWAP1 POP JUMPDEST PUSH3 0x6AE PUSH3 0x6A5 DUP6 PUSH3 0x543 JUMP JUMPDEST DUP4 ADD DUP3 PUSH3 0x640 JUMP JUMPDEST POP POP JUMPDEST POP POP POP JUMP JUMPDEST PUSH0 DUP3 DUP3 SHR SWAP1 POP SWAP3 SWAP2 POP POP JUMP JUMPDEST PUSH0 PUSH3 0x6D3 PUSH0 NOT DUP5 PUSH1 0x8 MUL PUSH3 0x6B6 JUMP JUMPDEST NOT DUP1 DUP4 AND SWAP2 POP POP SWAP3 SWAP2 POP POP JUMP JUMPDEST PUSH0 PUSH3 0x6ED DUP4 DUP4 PUSH3 0x6C2 JUMP JUMPDEST SWAP2 POP DUP3 PUSH1 0x2 MUL DUP3 OR SWAP1 POP SWAP3 SWAP2 POP POP JUMP JUMPDEST PUSH3 0x708 DUP3 PUSH3 0x4C6 JUMP JUMPDEST PUSH8 0xFFFFFFFFFFFFFFFF DUP2 GT ISZERO PUSH3 0x724 JUMPI PUSH3 0x723 PUSH3 0x1C5 JUMP JUMPDEST JUMPDEST PUSH3 0x730 DUP3 SLOAD PUSH3 0x4FD JUMP JUMPDEST PUSH3 0x73D DUP3 DUP3 DUP6 PUSH3 0x666 JUMP JUMPDEST PUSH0 PUSH1 0x20 SWAP1 POP PUSH1 0x1F DUP4 GT PUSH1 0x1 DUP2 EQ PUSH3 0x773 JUMPI PUSH0 DUP5 ISZERO PUSH3 0x75E JUMPI DUP3 DUP8 ADD MLOAD SWAP1 POP JUMPDEST PUSH3 0x76A DUP6 DUP3 PUSH3 0x6E0 JUMP JUMPDEST DUP7 SSTORE POP PUSH3 0x7D9 JUMP JUMPDEST PUSH1 0x1F NOT DUP5 AND PUSH3 0x783 DUP7 PUSH3 0x531 JUMP JUMPDEST PUSH0 JUMPDEST DUP3 DUP2 LT ISZERO PUSH3 0x7AC JUMPI DUP5 DUP10 ADD MLOAD DUP3 SSTORE PUSH1 0x1 DUP3 ADD SWAP2 POP PUSH1 0x20 DUP6 ADD SWAP5 POP PUSH1 0x20 DUP2 ADD SWAP1 POP PUSH3 0x785 JUMP JUMPDEST DUP7 DUP4 LT ISZERO PUSH3 0x7CC JUMPI DUP5 DUP10 ADD MLOAD PUSH3 0x7C8 PUSH1 0x1F DUP10 AND DUP3 PUSH3 0x6C2 JUMP JUMPDEST DUP4 SSTORE POP JUMPDEST PUSH1 0x1 PUSH1 0x2 DUP9 MUL ADD DUP9 SSTORE POP POP POP JUMPDEST POP POP POP POP POP POP JUMP JUMPDEST PUSH3 0x7EC DUP2 PUSH3 0x5B3 JUMP JUMPDEST DUP3 MSTORE POP POP JUMP JUMPDEST PUSH0 DUP3 DUP3 MSTORE PUSH1 0x20 DUP3 ADD SWAP1 POP SWAP3 SWAP2 POP POP JUMP JUMPDEST PUSH0 PUSH3 0x80E DUP3 PUSH3 0x4C6 JUMP JUMPDEST PUSH3 0x81A DUP2 DUP6 PUSH3 0x7F2 JUMP JUMPDEST SWAP4 POP PUSH3 0x82C DUP2 DUP6 PUSH1 0x20 DUP7 ADD PUSH3 0x2B1 JUMP JUMPDEST PUSH3 0x837 DUP2 PUSH3 0x1B5 JUMP JUMPDEST DUP5 ADD SWAP2 POP POP SWAP3 SWAP2 POP POP JUMP JUMPDEST PUSH0 PUSH1 0x40 DUP3 ADD SWAP1 POP PUSH3 0x857 PUSH0 DUP4 ADD DUP6 PUSH3 0x7E1 JUMP JUMPDEST DUP2 DUP2 SUB PUSH1 0x20 DUP4 ADD MSTORE PUSH3 0x86B DUP2 DUP5 PUSH3 0x802 JUMP JUMPDEST SWAP1 POP SWAP4 SWAP3 POP POP POP JUMP JUMPDEST PUSH32 0x4E487B7100000000000000000000000000000000000000000000000000000000 PUSH0 MSTORE PUSH1 0x11 PUSH1 0x4 MSTORE PUSH1 0x24 PUSH0 REVERT JUMPDEST PUSH0 PUSH3 0x8AD DUP3 PUSH3 0x5B3 JUMP JUMPDEST SWAP2 POP PUSH32 0xFFFFFFFFFFFFFFFFFFFFFFFFFFFFFFFFFFFFFFFFFFFFFFFFFFFFFFFFFFFFFFFF DUP3 SUB PUSH3 0x8E2 JUMPI PUSH3 0x8E1 PUSH3 0x874 JUMP JUMPDEST JUMPDEST PUSH1 0x1 DUP3 ADD SWAP1 POP SWAP2 SWAP1 POP JUMP JUMPDEST PUSH2 0x1EE3 DUP1 PUSH3 0x8FB PUSH0 CODECOPY PUSH0 RETURN INVALID PUSH1 0x80 PUSH1 0x40 MSTORE CALLVALUE DUP1 ISZERO PUSH2 0xF JUMPI PUSH0 DUP1 REVERT JUMPDEST POP PUSH1 0x4 CALLDATASIZE LT PUSH2 0xCD JUMPI PUSH0 CALLDATALOAD PUSH1 0xE0 SHR DUP1 PUSH4 0x5F5300FF GT PUSH2 0x8A JUMPI DUP1 PUSH4 0x9E866206 GT PUSH2 0x64 JUMPI DUP1 PUSH4 0x9E866206 EQ PUSH2 0x1ED JUMPI DUP1 PUSH4 0xB1C9FE6E EQ PUSH2 0x209 JUMPI DUP1 PUSH4 0xE2BA53F0 EQ PUSH2 0x227 JUMPI DUP1 PUSH4 0xECED0280 EQ PUSH2 0x245 JUMPI PUSH2 0xCD JUMP JUMPDEST DUP1 PUSH4 0x5F5300FF EQ PUSH2 0x193 JUMPI DUP1 PUSH4 0x8DA5CB5B EQ PUSH2 0x1B1 JUMPI DUP1 PUSH4 0x93B08BF5 EQ PUSH2 0x1CF JUMPI PUSH2 0xCD JUMP JUMPDEST DUP1 PUSH4 0x121B93F EQ PUSH2 0xD1 JUMPI DUP1 PUSH4 0x19F7588D EQ PUSH2 0xED JUMPI DUP1 PUSH4 0x3EADB6DB EQ PUSH2 0x11E JUMPI DUP1 PUSH4 0x4C105D1B EQ PUSH2 0x128 JUMPI DUP1 PUSH4 0x4E0ABF19 EQ PUSH2 0x144 JUMPI DUP1 PUSH4 0x5D495AEA EQ PUSH2 0x175 JUMPI JUMPDEST PUSH0 DUP1 REVERT JUMPDEST PUSH2 0xEB PUSH1 0x4 DUP1 CALLDATASIZE SUB DUP2 ADD SWAP1 PUSH2 0xE6 SWAP2 SWAP1 PUSH2 0x10B5 JUMP JUMPDEST PUSH2 0x263 JUMP JUMPDEST STOP JUMPDEST PUSH2 0x107 PUSH1 0x4 DUP1 CALLDATASIZE SUB DUP2 ADD SWAP1 PUSH2 0x102 SWAP2 SWAP1 PUSH2 0x113A JUMP JUMPDEST PUSH2 0x449 JUMP JUMPDEST PUSH1 0x40 MLOAD PUSH2 0x115 SWAP3 SWAP2 SWAP1 PUSH2 0x118E JUMP JUMPDEST PUSH1 0x40 MLOAD DUP1 SWAP2 SUB SWAP1 RETURN JUMPDEST PUSH2 0x126 PUSH2 0x475 JUMP JUMPDEST STOP JUMPDEST PUSH2 0x142 PUSH1 0x4 DUP1 CALLDATASIZE SUB DUP2 ADD SWAP1 PUSH2 0x13D SWAP2 SWAP1 PUSH2 0x113A JUMP JUMPDEST PUSH2 0x657 JUMP JUMPDEST STOP JUMPDEST PUSH2 0x15E PUSH1 0x4 DUP1 CALLDATASIZE SUB DUP2 ADD SWAP1 PUSH2 0x159 SWAP2 SWAP1 PUSH2 0x10B5 JUMP JUMPDEST PUSH2 0x927 JUMP JUMPDEST PUSH1 0x40 MLOAD PUSH2 0x16C SWAP3 SWAP2 SWAP1 PUSH2 0x123F JUMP JUMPDEST PUSH1 0x40 MLOAD DUP1 SWAP2 SUB SWAP1 RETURN JUMPDEST PUSH2 0x17D PUSH2 0x9DC JUMP JUMPDEST PUSH1 0x40 MLOAD PUSH2 0x18A SWAP2 SWAP1 PUSH2 0x126D JUMP JUMPDEST PUSH1 0x40 MLOAD DUP1 SWAP2 SUB SWAP1 RETURN JUMPDEST PUSH2 0x19B PUSH2 0xAD3 JUMP JUMPDEST PUSH1 0x40 MLOAD PUSH2 0x1A8 SWAP2 SWAP1 PUSH2 0x126D JUMP JUMPDEST PUSH1 0x40 MLOAD DUP1 SWAP2 SUB SWAP1 RETURN JUMPDEST PUSH2 0x1B9 PUSH2 0xAD9 JUMP JUMPDEST PUSH1 0x40 MLOAD PUSH2 0x1C6 SWAP2 SWAP1 PUSH2 0x1295 JUMP JUMPDEST PUSH1 0x40 MLOAD DUP1 SWAP2 SUB SWAP1 RETURN JUMPDEST PUSH2 0x1D7 PUSH2 0xAFC JUMP JUMPDEST PUSH1 0x40 MLOAD PUSH2 0x1E4 SWAP2 SWAP1 PUSH2 0x13FA JUMP JUMPDEST PUSH1 0x40 MLOAD DUP1 SWAP2 SUB SWAP1 RETURN JUMPDEST PUSH2 0x207 PUSH1 0x4 DUP1 CALLDATASIZE SUB DUP2 ADD SWAP1 PUSH2 0x202 SWAP2 SWAP1 PUSH2 0x1546 JUMP JUMPDEST PUSH2 0xBF1 JUMP JUMPDEST STOP JUMPDEST PUSH2 0x211 PUSH2 0xD9C JUMP JUMPDEST PUSH1 0x40 MLOAD PUSH2 0x21E SWAP2 SWAP1 PUSH2 0x1600 JUMP JUMPDEST PUSH1 0x40 MLOAD DUP1 SWAP2 SUB SWAP1 RETURN JUMPDEST PUSH2 0x22F PUSH2 0xDAE JUMP JUMPDEST PUSH1 0x40 MLOAD PUSH2 0x23C SWAP2 SWAP1 PUSH2 0x1619 JUMP JUMPDEST PUSH1 0x40 MLOAD DUP1 SWAP2 SUB SWAP1 RETURN JUMPDEST PUSH2 0x24D PUSH2 0xECF JUMP JUMPDEST PUSH1 0x40 MLOAD PUSH2 0x25A SWAP2 SWAP1 PUSH2 0x1619 JUMP JUMPDEST PUSH1 0x40 MLOAD DUP1 SWAP2 SUB SWAP1 RETURN JUMPDEST PUSH1 0x2 PUSH1 0x3 DUP2 GT ISZERO PUSH2 0x277 JUMPI PUSH2 0x276 PUSH2 0x158D JUMP JUMPDEST JUMPDEST PUSH1 0x4 PUSH0 SWAP1 SLOAD SWAP1 PUSH2 0x100 EXP SWAP1 DIV PUSH1 0xFF AND PUSH1 0x3 DUP2 GT ISZERO PUSH2 0x298 JUMPI PUSH2 0x297 PUSH2 0x158D JUMP JUMPDEST JUMPDEST EQ PUSH2 0x2D8 JUMPI PUSH1 0x40 MLOAD PUSH32 0x8C379A000000000000000000000000000000000000000000000000000000000 DUP2 MSTORE PUSH1 0x4 ADD PUSH2 0x2CF SWAP1 PUSH2 0x1683 JUMP JUMPDEST PUSH1 0x40 MLOAD DUP1 SWAP2 SUB SWAP1 REVERT JUMPDEST PUSH1 0x1 DUP1 SLOAD SWAP1 POP DUP2 LT PUSH2 0x31F JUMPI PUSH1 0x40 MLOAD PUSH32 0x8C379A000000000000000000000000000000000000000000000000000000000 DUP2 MSTORE PUSH1 0x4 ADD PUSH2 0x316 SWAP1 PUSH2 0x16EB JUMP JUMPDEST PUSH1 0x40 MLOAD DUP1 SWAP2 SUB SWAP1 REVERT JUMPDEST PUSH0 PUSH1 0x2 PUSH0 CALLER PUSH20 0xFFFFFFFFFFFFFFFFFFFFFFFFFFFFFFFFFFFFFFFF AND PUSH20 0xFFFFFFFFFFFFFFFFFFFFFFFFFFFFFFFFFFFFFFFF AND DUP2 MSTORE PUSH1 0x20 ADD SWAP1 DUP2 MSTORE PUSH1 0x20 ADD PUSH0 KECCAK256 SWAP1 POP DUP1 PUSH0 ADD PUSH0 SWAP1 SLOAD SWAP1 PUSH2 0x100 EXP SWAP1 DIV PUSH1 0xFF AND ISZERO PUSH2 0x3AF JUMPI PUSH1 0x40 MLOAD PUSH32 0x8C379A000000000000000000000000000000000000000000000000000000000 DUP2 MSTORE PUSH1 0x4 ADD PUSH2 0x3A6 SWAP1 PUSH2 0x1753 JUMP JUMPDEST PUSH1 0x40 MLOAD DUP1 SWAP2 SUB SWAP1 REVERT JUMPDEST PUSH1 0x1 DUP2 PUSH0 ADD PUSH0 PUSH2 0x100 EXP DUP2 SLOAD DUP2 PUSH1 0xFF MUL NOT AND SWAP1 DUP4 ISZERO ISZERO MUL OR SWAP1 SSTORE POP DUP2 DUP2 PUSH1 0x1 ADD DUP2 SWAP1 SSTORE POP PUSH1 0x1 DUP1 DUP4 DUP2 SLOAD DUP2 LT PUSH2 0x3E8 JUMPI PUSH2 0x3E7 PUSH2 0x1771 JUMP JUMPDEST JUMPDEST SWAP1 PUSH0 MSTORE PUSH1 0x20 PUSH0 KECCAK256 SWAP1 PUSH1 0x2 MUL ADD PUSH1 0x1 ADD PUSH0 DUP3 DUP3 SLOAD PUSH2 0x405 SWAP2 SWAP1 PUSH2 0x17CB JUMP JUMPDEST SWAP3 POP POP DUP2 SWAP1 SSTORE POP PUSH32 0x4D99B957A2BC29A30EBD96A7BE8E68FE50A3C701DB28A91436490B7D53870CA4 CALLER DUP4 PUSH1 0x40 MLOAD PUSH2 0x43D SWAP3 SWAP2 SWAP1 PUSH2 0x17FE JUMP JUMPDEST PUSH1 0x40 MLOAD DUP1 SWAP2 SUB SWAP1 LOG1 POP POP JUMP JUMPDEST PUSH1 0x2 PUSH1 0x20 MSTORE DUP1 PUSH0 MSTORE PUSH1 0x40 PUSH0 KECCAK256 PUSH0 SWAP2 POP SWAP1 POP DUP1 PUSH0 ADD PUSH0 SWAP1 SLOAD SWAP1 PUSH2 0x100 EXP SWAP1 DIV PUSH1 0xFF AND SWAP1 DUP1 PUSH1 0x1 ADD SLOAD SWAP1 POP DUP3 JUMP JUMPDEST PUSH0 DUP1 SLOAD SWAP1 PUSH2 0x100 EXP SWAP1 DIV PUSH20 0xFFFFFFFFFFFFFFFFFFFFFFFFFFFFFFFFFFFFFFFF AND PUSH20 0xFFFFFFFFFFFFFFFFFFFFFFFFFFFFFFFFFFFFFFFF AND CALLER PUSH20 0xFFFFFFFFFFFFFFFFFFFFFFFFFFFFFFFFFFFFFFFF AND EQ PUSH2 0x502 JUMPI PUSH1 0x40 MLOAD PUSH32 0x8C379A000000000000000000000000000000000000000000000000000000000 DUP2 MSTORE PUSH1 0x4 ADD PUSH2 0x4F9 SWAP1 PUSH2 0x186F JUMP JUMPDEST PUSH1 0x40 MLOAD DUP1 SWAP2 SUB SWAP1 REVERT JUMPDEST PUSH1 0x1 PUSH1 0x3 DUP2 GT ISZERO PUSH2 0x516 JUMPI PUSH2 0x515 PUSH2 0x158D JUMP JUMPDEST JUMPDEST PUSH1 0x4 PUSH0 SWAP1 SLOAD SWAP1 PUSH2 0x100 EXP SWAP1 DIV PUSH1 0xFF AND PUSH1 0x3 DUP2 GT ISZERO PUSH2 0x537 JUMPI PUSH2 0x536 PUSH2 0x158D JUMP JUMPDEST JUMPDEST SUB PUSH2 0x56B JUMPI PUSH1 0x2 PUSH1 0x4 PUSH0 PUSH2 0x100 EXP DUP2 SLOAD DUP2 PUSH1 0xFF MUL NOT AND SWAP1 DUP4 PUSH1 0x3 DUP2 GT ISZERO PUSH2 0x561 JUMPI PUSH2 0x560 PUSH2 0x158D JUMP JUMPDEST JUMPDEST MUL OR SWAP1 SSTORE POP PUSH2 0x610 JUMP JUMPDEST PUSH1 0x2 PUSH1 0x3 DUP2 GT ISZERO PUSH2 0x57F JUMPI PUSH2 0x57E PUSH2 0x158D JUMP JUMPDEST JUMPDEST PUSH1 0x4 PUSH0 SWAP1 SLOAD SWAP1 PUSH2 0x100 EXP SWAP1 DIV PUSH1 0xFF AND PUSH1 0x3 DUP2 GT ISZERO PUSH2 0x5A0 JUMPI PUSH2 0x59F PUSH2 0x158D JUMP JUMPDEST JUMPDEST SUB PUSH2 0x5D4 JUMPI PUSH1 0x3 PUSH1 0x4 PUSH0 PUSH2 0x100 EXP DUP2 SLOAD DUP2 PUSH1 0xFF MUL NOT AND SWAP1 DUP4 PUSH1 0x3 DUP2 GT ISZERO PUSH2 0x5CA JUMPI PUSH2 0x5C9 PUSH2 0x158D JUMP JUMPDEST JUMPDEST MUL OR SWAP1 SSTORE POP PUSH2 0x60F JUMP JUMPDEST PUSH1 0x40 MLOAD PUSH32 0x8C379A000000000000000000000000000000000000000000000000000000000 DUP2 MSTORE PUSH1 0x4 ADD PUSH2 0x606 SWAP1 PUSH2 0x18D7 JUMP JUMPDEST PUSH1 0x40 MLOAD DUP1 SWAP2 SUB SWAP1 REVERT JUMPDEST JUMPDEST PUSH32 0xA6DCC92F45DF25789D5639B7A0C97BA1EDF3BB1C0B5DD3376FD96A0DB87C4642 PUSH1 0x4 PUSH0 SWAP1 SLOAD SWAP1 PUSH2 0x100 EXP SWAP1 DIV PUSH1 0xFF AND PUSH1 0x40 MLOAD PUSH2 0x64D SWAP2 SWAP1 PUSH2 0x1600 JUMP JUMPDEST PUSH1 0x40 MLOAD DUP1 SWAP2 SUB SWAP1 LOG1 JUMP JUMPDEST PUSH0 DUP1 SLOAD SWAP1 PUSH2 0x100 EXP SWAP1 DIV PUSH20 0xFFFFFFFFFFFFFFFFFFFFFFFFFFFFFFFFFFFFFFFF AND PUSH20 0xFFFFFFFFFFFFFFFFFFFFFFFFFFFFFFFFFFFFFFFF AND CALLER PUSH20 0xFFFFFFFFFFFFFFFFFFFFFFFFFFFFFFFFFFFFFFFF AND EQ PUSH2 0x6E4 JUMPI PUSH1 0x40 MLOAD PUSH32 0x8C379A000000000000000000000000000000000000000000000000000000000 DUP2 MSTORE PUSH1 0x4 ADD PUSH2 0x6DB SWAP1 PUSH2 0x186F JUMP JUMPDEST PUSH1 0x40 MLOAD DUP1 SWAP2 SUB SWAP1 REVERT JUMPDEST PUSH1 0x1 PUSH1 0x3 DUP2 GT ISZERO PUSH2 0x6F8 JUMPI PUSH2 0x6F7 PUSH2 0x158D JUMP JUMPDEST JUMPDEST PUSH1 0x4 PUSH0 SWAP1 SLOAD SWAP1 PUSH2 0x100 EXP SWAP1 DIV PUSH1 0xFF AND PUSH1 0x3 DUP2 GT ISZERO PUSH2 0x719 JUMPI PUSH2 0x718 PUSH2 0x158D JUMP JUMPDEST JUMPDEST EQ PUSH2 0x759 JUMPI PUSH1 0x40 MLOAD PUSH32 0x8C379A000000000000000000000000000000000000000000000000000000000 DUP2 MSTORE PUSH1 0x4 ADD PUSH2 0x750 SWAP1 PUSH2 0x193F JUMP JUMPDEST PUSH1 0x40 MLOAD DUP1 SWAP2 SUB SWAP1 REVERT JUMPDEST PUSH0 PUSH20 0xFFFFFFFFFFFFFFFFFFFFFFFFFFFFFFFFFFFFFFFF AND DUP2 PUSH20 0xFFFFFFFFFFFFFFFFFFFFFFFFFFFFFFFFFFFFFFFF AND SUB PUSH2 0x7C7 JUMPI PUSH1 0x40 MLOAD PUSH32 0x8C379A000000000000000000000000000000000000000000000000000000000 DUP2 MSTORE PUSH1 0x4 ADD PUSH2 0x7BE SWAP1 PUSH2 0x19A7 JUMP JUMPDEST PUSH1 0x40 MLOAD DUP1 SWAP2 SUB SWAP1 REVERT JUMPDEST PUSH0 PUSH1 0x2 PUSH0 DUP4 PUSH20 0xFFFFFFFFFFFFFFFFFFFFFFFFFFFFFFFFFFFFFFFF AND PUSH20 0xFFFFFFFFFFFFFFFFFFFFFFFFFFFFFFFFFFFFFFFF AND DUP2 MSTORE PUSH1 0x20 ADD SWAP1 DUP2 MSTORE PUSH1 0x20 ADD PUSH0 KECCAK256 SWAP1 POP DUP1 PUSH0 ADD PUSH0 SWAP1 SLOAD SWAP1 PUSH2 0x100 EXP SWAP1 DIV PUSH1 0xFF AND ISZERO PUSH2 0x857 JUMPI PUSH1 0x40 MLOAD PUSH32 0x8C379A000000000000000000000000000000000000000000000000000000000 DUP2 MSTORE PUSH1 0x4 ADD PUSH2 0x84E SWAP1 PUSH2 0x1A0F JUMP JUMPDEST PUSH1 0x40 MLOAD DUP1 SWAP2 SUB SWAP1 REVERT JUMPDEST PUSH1 0x40 MLOAD DUP1 PUSH1 0x40 ADD PUSH1 0x40 MSTORE DUP1 PUSH0 ISZERO ISZERO DUP2 MSTORE PUSH1 0x20 ADD PUSH0 DUP2 MSTORE POP PUSH1 0x2 PUSH0 DUP5 PUSH20 0xFFFFFFFFFFFFFFFFFFFFFFFFFFFFFFFFFFFFFFFF AND PUSH20 0xFFFFFFFFFFFFFFFFFFFFFFFFFFFFFFFFFFFFFFFF AND DUP2 MSTORE PUSH1 0x20 ADD SWAP1 DUP2 MSTORE PUSH1 0x20 ADD PUSH0 KECCAK256 PUSH0 DUP3 ADD MLOAD DUP2 PUSH0 ADD PUSH0 PUSH2 0x100 EXP DUP2 SLOAD DUP2 PUSH1 0xFF MUL NOT AND SWAP1 DUP4 ISZERO ISZERO MUL OR SWAP1 SSTORE POP PUSH1 0x20 DUP3 ADD MLOAD DUP2 PUSH1 0x1 ADD SSTORE SWAP1 POP POP PUSH1 0x3 PUSH0 DUP2 SLOAD DUP1 SWAP3 SWAP2 SWAP1 PUSH2 0x8E7 SWAP1 PUSH2 0x1A2D JUMP JUMPDEST SWAP2 SWAP1 POP SSTORE POP PUSH32 0xA636F4A11E2D3BA7F89D042ECB0A6B886716E98CD49D8FD876EE0F73BCED42B8 DUP3 PUSH1 0x40 MLOAD PUSH2 0x91B SWAP2 SWAP1 PUSH2 0x1295 JUMP JUMPDEST PUSH1 0x40 MLOAD DUP1 SWAP2 SUB SWAP1 LOG1 POP POP JUMP JUMPDEST PUSH1 0x1 DUP2 DUP2 SLOAD DUP2 LT PUSH2 0x936 JUMPI PUSH0 DUP1 REVERT JUMPDEST SWAP1 PUSH0 MSTORE PUSH1 0x20 PUSH0 KECCAK256 SWAP1 PUSH1 0x2 MUL ADD PUSH0 SWAP2 POP SWAP1 POP DUP1 PUSH0 ADD DUP1 SLOAD PUSH2 0x955 SWAP1 PUSH2 0x1AA1 JUMP JUMPDEST DUP1 PUSH1 0x1F ADD PUSH1 0x20 DUP1 SWAP2 DIV MUL PUSH1 0x20 ADD PUSH1 0x40 MLOAD SWAP1 DUP2 ADD PUSH1 0x40 MSTORE DUP1 SWAP3 SWAP2 SWAP1 DUP2 DUP2 MSTORE PUSH1 0x20 ADD DUP3 DUP1 SLOAD PUSH2 0x981 SWAP1 PUSH2 0x1AA1 JUMP JUMPDEST DUP1 ISZERO PUSH2 0x9CC JUMPI DUP1 PUSH1 0x1F LT PUSH2 0x9A3 JUMPI PUSH2 0x100 DUP1 DUP4 SLOAD DIV MUL DUP4 MSTORE SWAP2 PUSH1 0x20 ADD SWAP2 PUSH2 0x9CC JUMP JUMPDEST DUP3 ADD SWAP2 SWAP1 PUSH0 MSTORE PUSH1 0x20 PUSH0 KECCAK256 SWAP1 JUMPDEST DUP2 SLOAD DUP2 MSTORE SWAP1 PUSH1 0x1 ADD SWAP1 PUSH1 0x20 ADD DUP1 DUP4 GT PUSH2 0x9AF JUMPI DUP3 SWAP1 SUB PUSH1 0x1F AND DUP3 ADD SWAP2 JUMPDEST POP POP POP POP POP SWAP1 DUP1 PUSH1 0x1 ADD SLOAD SWAP1 POP DUP3 JUMP JUMPDEST PUSH0 PUSH1 0x3 DUP1 DUP2 GT ISZERO PUSH2 0x9F0 JUMPI PUSH2 0x9EF PUSH2 0x158D JUMP JUMPDEST JUMPDEST PUSH1 0x4 PUSH0 SWAP1 SLOAD SWAP1 PUSH2 0x100 EXP SWAP1 DIV PUSH1 0xFF AND PUSH1 0x3 DUP2 GT ISZERO PUSH2 0xA11 JUMPI PUSH2 0xA10 PUSH2 0x158D JUMP JUMPDEST JUMPDEST EQ PUSH2 0xA51 JUMPI PUSH1 0x40 MLOAD PUSH32 0x8C379A000000000000000000000000000000000000000000000000000000000 DUP2 MSTORE PUSH1 0x4 ADD PUSH2 0xA48 SWAP1 PUSH2 0x1B1B JUMP JUMPDEST PUSH1 0x40 MLOAD DUP1 SWAP2 SUB SWAP1 REVERT JUMPDEST PUSH0 DUP1 PUSH0 JUMPDEST PUSH1 0x1 DUP1 SLOAD SWAP1 POP DUP2 LT ISZERO PUSH2 0xACA JUMPI DUP3 PUSH1 0x1 DUP3 DUP2 SLOAD DUP2 LT PUSH2 0xA77 JUMPI PUSH2 0xA76 PUSH2 0x1771 JUMP JUMPDEST JUMPDEST SWAP1 PUSH0 MSTORE PUSH1 0x20 PUSH0 KECCAK256 SWAP1 PUSH1 0x2 MUL ADD PUSH1 0x1 ADD SLOAD GT ISZERO PUSH2 0xAB7 JUMPI PUSH1 0x1 DUP2 DUP2 SLOAD DUP2 LT PUSH2 0xAA1 JUMPI PUSH2 0xAA0 PUSH2 0x1771 JUMP JUMPDEST JUMPDEST SWAP1 PUSH0 MSTORE PUSH1 0x20 PUSH0 KECCAK256 SWAP1 PUSH1 0x2 MUL ADD PUSH1 0x1 ADD SLOAD SWAP3 POP DUP1 SWAP2 POP JUMPDEST DUP1 DUP1 PUSH2 0xAC2 SWAP1 PUSH2 0x1A2D JUMP JUMPDEST SWAP2 POP POP PUSH2 0xA55 JUMP JUMPDEST POP DUP1 SWAP3 POP POP POP SWAP1 JUMP JUMPDEST PUSH1 0x3 SLOAD DUP2 JUMP JUMPDEST PUSH0 DUP1 SLOAD SWAP1 PUSH2 0x100 EXP SWAP1 DIV PUSH20 0xFFFFFFFFFFFFFFFFFFFFFFFFFFFFFFFFFFFFFFFF AND DUP2 JUMP JUMPDEST PUSH1 0x60 PUSH1 0x1 DUP1 SLOAD DUP1 PUSH1 0x20 MUL PUSH1 0x20 ADD PUSH1 0x40 MLOAD SWAP1 DUP2 ADD PUSH1 0x40 MSTORE DUP1 SWAP3 SWAP2 SWAP1 DUP2 DUP2 MSTORE PUSH1 0x20 ADD PUSH0 SWAP1 JUMPDEST DUP3 DUP3 LT ISZERO PUSH2 0xBE8 JUMPI DUP4 DUP3 SWAP1 PUSH0 MSTORE PUSH1 0x20 PUSH0 KECCAK256 SWAP1 PUSH1 0x2 MUL ADD PUSH1 0x40 MLOAD DUP1 PUSH1 0x40 ADD PUSH1 0x40 MSTORE SWAP1 DUP2 PUSH0 DUP3 ADD DUP1 SLOAD PUSH2 0xB4F SWAP1 PUSH2 0x1AA1 JUMP JUMPDEST DUP1 PUSH1 0x1F ADD PUSH1 0x20 DUP1 SWAP2 DIV MUL PUSH1 0x20 ADD PUSH1 0x40 MLOAD SWAP1 DUP2 ADD PUSH1 0x40 MSTORE DUP1 SWAP3 SWAP2 SWAP1 DUP2 DUP2 MSTORE PUSH1 0x20 ADD DUP3 DUP1 SLOAD PUSH2 0xB7B SWAP1 PUSH2 0x1AA1 JUMP JUMPDEST DUP1 ISZERO PUSH2 0xBC6 JUMPI DUP1 PUSH1 0x1F LT PUSH2 0xB9D JUMPI PUSH2 0x100 DUP1 DUP4 SLOAD DIV MUL DUP4 MSTORE SWAP2 PUSH1 0x20 ADD SWAP2 PUSH2 0xBC6 JUMP JUMPDEST DUP3 ADD SWAP2 SWAP1 PUSH0 MSTORE PUSH1 0x20 PUSH0 KECCAK256 SWAP1 JUMPDEST DUP2 SLOAD DUP2 MSTORE SWAP1 PUSH1 0x1 ADD SWAP1 PUSH1 0x20 ADD DUP1 DUP4 GT PUSH2 0xBA9 JUMPI DUP3 SWAP1 SUB PUSH1 0x1F AND DUP3 ADD SWAP2 JUMPDEST POP POP POP POP POP DUP2 MSTORE PUSH1 0x20 ADD PUSH1 0x1 DUP3 ADD SLOAD DUP2 MSTORE POP POP DUP2 MSTORE PUSH1 0x20 ADD SWAP1 PUSH1 0x1 ADD SWAP1 PUSH2 0xB1F JUMP JUMPDEST POP POP POP POP SWAP1 POP SWAP1 JUMP JUMPDEST PUSH0 DUP1 SLOAD SWAP1 PUSH2 0x100 EXP SWAP1 DIV PUSH20 0xFFFFFFFFFFFFFFFFFFFFFFFFFFFFFFFFFFFFFFFF AND PUSH20 0xFFFFFFFFFFFFFFFFFFFFFFFFFFFFFFFFFFFFFFFF AND CALLER PUSH20 0xFFFFFFFFFFFFFFFFFFFFFFFFFFFFFFFFFFFFFFFF AND EQ PUSH2 0xC7E JUMPI PUSH1 0x40 MLOAD PUSH32 0x8C379A000000000000000000000000000000000000000000000000000000000 DUP2 MSTORE PUSH1 0x4 ADD PUSH2 0xC75 SWAP1 PUSH2 0x186F JUMP JUMPDEST PUSH1 0x40 MLOAD DUP1 SWAP2 SUB SWAP1 REVERT JUMPDEST PUSH1 0x1 PUSH1 0x3 DUP2 GT ISZERO PUSH2 0xC92 JUMPI PUSH2 0xC91 PUSH2 0x158D JUMP JUMPDEST JUMPDEST PUSH1 0x4 PUSH0 SWAP1 SLOAD SWAP1 PUSH2 0x100 EXP SWAP1 DIV PUSH1 0xFF AND PUSH1 0x3 DUP2 GT ISZERO PUSH2 0xCB3 JUMPI PUSH2 0xCB2 PUSH2 0x158D JUMP JUMPDEST JUMPDEST EQ PUSH2 0xCF3 JUMPI PUSH1 0x40 MLOAD PUSH32 0x8C379A000000000000000000000000000000000000000000000000000000000 DUP2 MSTORE PUSH1 0x4 ADD PUSH2 0xCEA SWAP1 PUSH2 0x1B83 JUMP JUMPDEST PUSH1 0x40 MLOAD DUP1 SWAP2 SUB SWAP1 REVERT JUMPDEST PUSH1 0x1 PUSH1 0x40 MLOAD DUP1 PUSH1 0x40 ADD PUSH1 0x40 MSTORE DUP1 DUP4 DUP2 MSTORE PUSH1 0x20 ADD PUSH0 DUP2 MSTORE POP SWAP1 DUP1 PUSH1 0x1 DUP2 SLOAD ADD DUP1 DUP3 SSTORE DUP1 SWAP2 POP POP PUSH1 0x1 SWAP1 SUB SWAP1 PUSH0 MSTORE PUSH1 0x20 PUSH0 KECCAK256 SWAP1 PUSH1 0x2 MUL ADD PUSH0 SWAP1 SWAP2 SWAP1 SWAP2 SWAP1 SWAP2 POP PUSH0 DUP3 ADD MLOAD DUP2 PUSH0 ADD SWAP1 DUP2 PUSH2 0xD43 SWAP2 SWAP1 PUSH2 0x1D3E JUMP JUMPDEST POP PUSH1 0x20 DUP3 ADD MLOAD DUP2 PUSH1 0x1 ADD SSTORE POP POP PUSH32 0xF970AA486598017B8116C2BEB18C50D4584ECBC3C688817F59B26796725F31BF PUSH1 0x1 DUP1 DUP1 SLOAD SWAP1 POP PUSH2 0xD82 SWAP2 SWAP1 PUSH2 0x1E0D JUMP JUMPDEST DUP3 PUSH1 0x40 MLOAD PUSH2 0xD91 SWAP3 SWAP2 SWAP1 PUSH2 0x1E40 JUMP JUMPDEST PUSH1 0x40 MLOAD DUP1 SWAP2 SUB SWAP1 LOG1 POP JUMP JUMPDEST PUSH1 0x4 PUSH0 SWAP1 SLOAD SWAP1 PUSH2 0x100 EXP SWAP1 DIV PUSH1 0xFF AND DUP2 JUMP JUMPDEST PUSH1 0x60 PUSH0 ADDRESS PUSH20 0xFFFFFFFFFFFFFFFFFFFFFFFFFFFFFFFFFFFFFFFF AND PUSH4 0x5D495AEA PUSH1 0x40 MLOAD DUP2 PUSH4 0xFFFFFFFF AND PUSH1 0xE0 SHL DUP2 MSTORE PUSH1 0x4 ADD PUSH1 0x20 PUSH1 0x40 MLOAD DUP1 DUP4 SUB DUP2 DUP7 GAS STATICCALL ISZERO DUP1 ISZERO PUSH2 0xDFA JUMPI RETURNDATASIZE PUSH0 DUP1 RETURNDATACOPY RETURNDATASIZE PUSH0 REVERT JUMPDEST POP POP POP POP PUSH1 0x40 MLOAD RETURNDATASIZE PUSH1 0x1F NOT PUSH1 0x1F DUP3 ADD AND DUP3 ADD DUP1 PUSH1 0x40 MSTORE POP DUP2 ADD SWAP1 PUSH2 0xE1E SWAP2 SWAP1 PUSH2 0x1E82 JUMP JUMPDEST SWAP1 POP PUSH1 0x1 DUP2 DUP2 SLOAD DUP2 LT PUSH2 0xE34 JUMPI PUSH2 0xE33 PUSH2 0x1771 JUMP JUMPDEST JUMPDEST SWAP1 PUSH0 MSTORE PUSH1 0x20 PUSH0 KECCAK256 SWAP1 PUSH1 0x2 MUL ADD PUSH0 ADD DUP1 SLOAD PUSH2 0xE4D SWAP1 PUSH2 0x1AA1 JUMP JUMPDEST DUP1 PUSH1 0x1F ADD PUSH1 0x20 DUP1 SWAP2 DIV MUL PUSH1 0x20 ADD PUSH1 0x40 MLOAD SWAP1 DUP2 ADD PUSH1 0x40 MSTORE DUP1 SWAP3 SWAP2 SWAP1 DUP2 DUP2 MSTORE PUSH1 0x20 ADD DUP3 DUP1 SLOAD PUSH2 0xE79 SWAP1 PUSH2 0x1AA1 JUMP JUMPDEST DUP1 ISZERO PUSH2 0xEC4 JUMPI DUP1 PUSH1 0x1F LT PUSH2 0xE9B JUMPI PUSH2 0x100 DUP1 DUP4 SLOAD DIV MUL DUP4 MSTORE SWAP2 PUSH1 0x20 ADD SWAP2 PUSH2 0xEC4 JUMP JUMPDEST DUP3 ADD SWAP2 SWAP1 PUSH0 MSTORE PUSH1 0x20 PUSH0 KECCAK256 SWAP1 JUMPDEST DUP2 SLOAD DUP2 MSTORE SWAP1 PUSH1 0x1 ADD SWAP1 PUSH1 0x20 ADD DUP1 DUP4 GT PUSH2 0xEA7 JUMPI DUP3 SWAP1 SUB PUSH1 0x1F AND DUP3 ADD SWAP2 JUMPDEST POP POP POP POP POP SWAP2 POP POP SWAP1 JUMP JUMPDEST PUSH1 0x60 PUSH0 PUSH1 0x3 DUP2 GT ISZERO PUSH2 0xEE4 JUMPI PUSH2 0xEE3 PUSH2 0x158D JUMP JUMPDEST JUMPDEST PUSH1 0x4 PUSH0 SWAP1 SLOAD SWAP1 PUSH2 0x100 EXP SWAP1 DIV PUSH1 0xFF AND PUSH1 0x3 DUP2 GT ISZERO PUSH2 0xF05 JUMPI PUSH2 0xF04 PUSH2 0x158D JUMP JUMPDEST JUMPDEST SUB PUSH2 0xF47 JUMPI PUSH1 0x40 MLOAD DUP1 PUSH1 0x40 ADD PUSH1 0x40 MSTORE DUP1 PUSH1 0xB DUP2 MSTORE PUSH1 0x20 ADD PUSH32 0x4E6F742053746172746564000000000000000000000000000000000000000000 DUP2 MSTORE POP SWAP1 POP PUSH2 0x106E JUMP JUMPDEST PUSH1 0x1 PUSH1 0x3 DUP2 GT ISZERO PUSH2 0xF5B JUMPI PUSH2 0xF5A PUSH2 0x158D JUMP JUMPDEST JUMPDEST PUSH1 0x4 PUSH0 SWAP1 SLOAD SWAP1 PUSH2 0x100 EXP SWAP1 DIV PUSH1 0xFF AND PUSH1 0x3 DUP2 GT ISZERO PUSH2 0xF7C JUMPI PUSH2 0xF7B PUSH2 0x158D JUMP JUMPDEST JUMPDEST SUB PUSH2 0xFBE JUMPI PUSH1 0x40 MLOAD DUP1 PUSH1 0x40 ADD PUSH1 0x40 MSTORE DUP1 PUSH1 0xC DUP2 MSTORE PUSH1 0x20 ADD PUSH32 0x526567697374726174696F6E0000000000000000000000000000000000000000 DUP2 MSTORE POP SWAP1 POP PUSH2 0x106E JUMP JUMPDEST PUSH1 0x2 PUSH1 0x3 DUP2 GT ISZERO PUSH2 0xFD2 JUMPI PUSH2 0xFD1 PUSH2 0x158D JUMP JUMPDEST JUMPDEST PUSH1 0x4 PUSH0 SWAP1 SLOAD SWAP1 PUSH2 0x100 EXP SWAP1 DIV PUSH1 0xFF AND PUSH1 0x3 DUP2 GT ISZERO PUSH2 0xFF3 JUMPI PUSH2 0xFF2 PUSH2 0x158D JUMP JUMPDEST JUMPDEST SUB PUSH2 0x1035 JUMPI PUSH1 0x40 MLOAD DUP1 PUSH1 0x40 ADD PUSH1 0x40 MSTORE DUP1 PUSH1 0x6 DUP2 MSTORE PUSH1 0x20 ADD PUSH32 0x566F74696E670000000000000000000000000000000000000000000000000000 DUP2 MSTORE POP SWAP1 POP PUSH2 0x106E JUMP JUMPDEST PUSH1 0x40 MLOAD DUP1 PUSH1 0x40 ADD PUSH1 0x40 MSTORE DUP1 PUSH1 0x5 DUP2 MSTORE PUSH1 0x20 ADD PUSH32 0x456E646564000000000000000000000000000000000000000000000000000000 DUP2 MSTORE POP SWAP1 POP JUMPDEST SWAP1 JUMP JUMPDEST PUSH0 PUSH1 0x40 MLOAD SWAP1 POP SWAP1 JUMP JUMPDEST PUSH0 DUP1 REVERT JUMPDEST PUSH0 DUP1 REVERT JUMPDEST PUSH0 DUP2 SWAP1 POP SWAP2 SWAP1 POP JUMP JUMPDEST PUSH2 0x1094 DUP2 PUSH2 0x1082 JUMP JUMPDEST DUP2 EQ PUSH2 0x109E JUMPI PUSH0 DUP1 REVERT JUMPDEST POP JUMP JUMPDEST PUSH0 DUP2 CALLDATALOAD SWAP1 POP PUSH2 0x10AF DUP2 PUSH2 0x108B JUMP JUMPDEST SWAP3 SWAP2 POP POP JUMP JUMPDEST PUSH0 PUSH1 0x20 DUP3 DUP5 SUB SLT ISZERO PUSH2 0x10CA JUMPI PUSH2 0x10C9 PUSH2 0x107A JUMP JUMPDEST JUMPDEST PUSH0 PUSH2 0x10D7 DUP5 DUP3 DUP6 ADD PUSH2 0x10A1 JUMP JUMPDEST SWAP2 POP POP SWAP3 SWAP2 POP POP JUMP JUMPDEST PUSH0 PUSH20 0xFFFFFFFFFFFFFFFFFFFFFFFFFFFFFFFFFFFFFFFF DUP3 AND SWAP1 POP SWAP2 SWAP1 POP JUMP JUMPDEST PUSH0 PUSH2 0x1109 DUP3 PUSH2 0x10E0 JUMP JUMPDEST SWAP1 POP SWAP2 SWAP1 POP JUMP JUMPDEST PUSH2 0x1119 DUP2 PUSH2 0x10FF JUMP JUMPDEST DUP2 EQ PUSH2 0x1123 JUMPI PUSH0 DUP1 REVERT JUMPDEST POP JUMP JUMPDEST PUSH0 DUP2 CALLDATALOAD SWAP1 POP PUSH2 0x1134 DUP2 PUSH2 0x1110 JUMP JUMPDEST SWAP3 SWAP2 POP POP JUMP JUMPDEST PUSH0 PUSH1 0x20 DUP3 DUP5 SUB SLT ISZERO PUSH2 0x114F JUMPI PUSH2 0x114E PUSH2 0x107A JUMP JUMPDEST JUMPDEST PUSH0 PUSH2 0x115C DUP5 DUP3 DUP6 ADD PUSH2 0x1126 JUMP JUMPDEST SWAP2 POP POP SWAP3 SWAP2 POP POP JUMP JUMPDEST PUSH0 DUP2 ISZERO ISZERO SWAP1 POP SWAP2 SWAP1 POP JUMP JUMPDEST PUSH2 0x1179 DUP2 PUSH2 0x1165 JUMP JUMPDEST DUP3 MSTORE POP POP JUMP JUMPDEST PUSH2 0x1188 DUP2 PUSH2 0x1082 JUMP JUMPDEST DUP3 MSTORE POP POP JUMP JUMPDEST PUSH0 PUSH1 0x40 DUP3 ADD SWAP1 POP PUSH2 0x11A1 PUSH0 DUP4 ADD DUP6 PUSH2 0x1170 JUMP JUMPDEST PUSH2 0x11AE PUSH1 0x20 DUP4 ADD DUP5 PUSH2 0x117F JUMP JUMPDEST SWAP4 SWAP3 POP POP POP JUMP JUMPDEST PUSH0 DUP2 MLOAD SWAP1 POP SWAP2 SWAP1 POP JUMP JUMPDEST PUSH0 DUP3 DUP3 MSTORE PUSH1 0x20 DUP3 ADD SWAP1 POP SWAP3 SWAP2 POP POP JUMP JUMPDEST PUSH0 JUMPDEST DUP4 DUP2 LT ISZERO PUSH2 0x11EC JUMPI DUP1 DUP3 ADD MLOAD DUP2 DUP5 ADD MSTORE PUSH1 0x20 DUP2 ADD SWAP1 POP PUSH2 0x11D1 JUMP JUMPDEST PUSH0 DUP5 DUP5 ADD MSTORE POP POP POP POP JUMP JUMPDEST PUSH0 PUSH1 0x1F NOT PUSH1 0x1F DUP4 ADD AND SWAP1 POP SWAP2 SWAP1 POP JUMP JUMPDEST PUSH0 PUSH2 0x1211 DUP3 PUSH2 0x11B5 JUMP JUMPDEST PUSH2 0x121B DUP2 DUP6 PUSH2 0x11BF JUMP JUMPDEST SWAP4 POP PUSH2 0x122B DUP2 DUP6 PUSH1 0x20 DUP7 ADD PUSH2 0x11CF JUMP JUMPDEST PUSH2 0x1234 DUP2 PUSH2 0x11F7 JUMP JUMPDEST DUP5 ADD SWAP2 POP POP SWAP3 SWAP2 POP POP JUMP JUMPDEST PUSH0 PUSH1 0x40 DUP3 ADD SWAP1 POP DUP2 DUP2 SUB PUSH0 DUP4 ADD MSTORE PUSH2 0x1257 DUP2 DUP6 PUSH2 0x1207 JUMP JUMPDEST SWAP1 POP PUSH2 0x1266 PUSH1 0x20 DUP4 ADD DUP5 PUSH2 0x117F JUMP JUMPDEST SWAP4 SWAP3 POP POP POP JUMP JUMPDEST PUSH0 PUSH1 0x20 DUP3 ADD SWAP1 POP PUSH2 0x1280 PUSH0 DUP4 ADD DUP5 PUSH2 0x117F JUMP JUMPDEST SWAP3 SWAP2 POP POP JUMP JUMPDEST PUSH2 0x128F DUP2 PUSH2 0x10FF JUMP JUMPDEST DUP3 MSTORE POP POP JUMP JUMPDEST PUSH0 PUSH1 0x20 DUP3 ADD SWAP1 POP PUSH2 0x12A8 PUSH0 DUP4 ADD DUP5 PUSH2 0x1286 JUMP JUMPDEST SWAP3 SWAP2 POP POP JUMP JUMPDEST PUSH0 DUP2 MLOAD SWAP1 POP SWAP2 SWAP1 POP JUMP JUMPDEST PUSH0 DUP3 DUP3 MSTORE PUSH1 0x20 DUP3 ADD SWAP1 POP SWAP3 SWAP2 POP POP JUMP JUMPDEST PUSH0 DUP2 SWAP1 POP PUSH1 0x20 DUP3 ADD SWAP1 POP SWAP2 SWAP1 POP JUMP JUMPDEST PUSH0 DUP3 DUP3 MSTORE PUSH1 0x20 DUP3 ADD SWAP1 POP SWAP3 SWAP2 POP POP JUMP JUMPDEST PUSH0 PUSH2 0x12F1 DUP3 PUSH2 0x11B5 JUMP JUMPDEST PUSH2 0x12FB DUP2 DUP6 PUSH2 0x12D7 JUMP JUMPDEST SWAP4 POP PUSH2 0x130B DUP2 DUP6 PUSH1 0x20 DUP7 ADD PUSH2 0x11CF JUMP JUMPDEST PUSH2 0x1314 DUP2 PUSH2 0x11F7 JUMP JUMPDEST DUP5 ADD SWAP2 POP POP SWAP3 SWAP2 POP POP JUMP JUMPDEST PUSH2 0x1328 DUP2 PUSH2 0x1082 JUMP JUMPDEST DUP3 MSTORE POP POP JUMP JUMPDEST PUSH0 PUSH1 0x40 DUP4 ADD PUSH0 DUP4 ADD MLOAD DUP5 DUP3 SUB PUSH0 DUP7 ADD MSTORE PUSH2 0x1348 DUP3 DUP3 PUSH2 0x12E7 JUMP JUMPDEST SWAP2 POP POP PUSH1 0x20 DUP4 ADD MLOAD PUSH2 0x135D PUSH1 0x20 DUP7 ADD DUP3 PUSH2 0x131F JUMP JUMPDEST POP DUP1 SWAP2 POP POP SWAP3 SWAP2 POP POP JUMP JUMPDEST PUSH0 PUSH2 0x1373 DUP4 DUP4 PUSH2 0x132E JUMP JUMPDEST SWAP1 POP SWAP3 SWAP2 POP POP JUMP JUMPDEST PUSH0 PUSH1 0x20 DUP3 ADD SWAP1 POP SWAP2 SWAP1 POP JUMP JUMPDEST PUSH0 PUSH2 0x1391 DUP3 PUSH2 0x12AE JUMP JUMPDEST PUSH2 0x139B DUP2 DUP6 PUSH2 0x12B8 JUMP JUMPDEST SWAP4 POP DUP4 PUSH1 0x20 DUP3 MUL DUP6 ADD PUSH2 0x13AD DUP6 PUSH2 0x12C8 JUMP JUMPDEST DUP1 PUSH0 JUMPDEST DUP6 DUP2 LT ISZERO PUSH2 0x13E8 JUMPI DUP5 DUP5 SUB DUP10 MSTORE DUP2 MLOAD PUSH2 0x13C9 DUP6 DUP3 PUSH2 0x1368 JUMP JUMPDEST SWAP5 POP PUSH2 0x13D4 DUP4 PUSH2 0x137B JUMP JUMPDEST SWAP3 POP PUSH1 0x20 DUP11 ADD SWAP10 POP POP PUSH1 0x1 DUP2 ADD SWAP1 POP PUSH2 0x13B0 JUMP JUMPDEST POP DUP3 SWAP8 POP DUP8 SWAP6 POP POP POP POP POP POP SWAP3 SWAP2 POP POP JUMP JUMPDEST PUSH0 PUSH1 0x20 DUP3 ADD SWAP1 POP DUP2 DUP2 SUB PUSH0 DUP4 ADD MSTORE PUSH2 0x1412 DUP2 DUP5 PUSH2 0x1387 JUMP JUMPDEST SWAP1 POP SWAP3 SWAP2 POP POP JUMP JUMPDEST PUSH0 DUP1 REVERT JUMPDEST PUSH0 DUP1 REVERT JUMPDEST PUSH32 0x4E487B7100000000000000000000000000000000000000000000000000000000 PUSH0 MSTORE PUSH1 0x41 PUSH1 0x4 MSTORE PUSH1 0x24 PUSH0 REVERT JUMPDEST PUSH2 0x1458 DUP3 PUSH2 0x11F7 JUMP JUMPDEST DUP2 ADD DUP2 DUP2 LT PUSH8 0xFFFFFFFFFFFFFFFF DUP3 GT OR ISZERO PUSH2 0x1477 JUMPI PUSH2 0x1476 PUSH2 0x1422 JUMP JUMPDEST JUMPDEST DUP1 PUSH1 0x40 MSTORE POP POP POP JUMP JUMPDEST PUSH0 PUSH2 0x1489 PUSH2 0x1071 JUMP JUMPDEST SWAP1 POP PUSH2 0x1495 DUP3 DUP3 PUSH2 0x144F JUMP JUMPDEST SWAP2 SWAP1 POP JUMP JUMPDEST PUSH0 PUSH8 0xFFFFFFFFFFFFFFFF DUP3 GT ISZERO PUSH2 0x14B4 JUMPI PUSH2 0x14B3 PUSH2 0x1422 JUMP JUMPDEST JUMPDEST PUSH2 0x14BD DUP3 PUSH2 0x11F7 JUMP JUMPDEST SWAP1 POP PUSH1 0x20 DUP2 ADD SWAP1 POP SWAP2 SWAP1 POP JUMP JUMPDEST DUP3 DUP2 DUP4 CALLDATACOPY PUSH0 DUP4 DUP4 ADD MSTORE POP POP POP JUMP JUMPDEST PUSH0 PUSH2 0x14EA PUSH2 0x14E5 DUP5 PUSH2 0x149A JUMP JUMPDEST PUSH2 0x1480 JUMP JUMPDEST SWAP1 POP DUP3 DUP2 MSTORE PUSH1 0x20 DUP2 ADD DUP5 DUP5 DUP5 ADD GT ISZERO PUSH2 0x1506 JUMPI PUSH2 0x1505 PUSH2 0x141E JUMP JUMPDEST JUMPDEST PUSH2 0x1511 DUP5 DUP3 DUP6 PUSH2 0x14CA JUMP JUMPDEST POP SWAP4 SWAP3 POP POP POP JUMP JUMPDEST PUSH0 DUP3 PUSH1 0x1F DUP4 ADD SLT PUSH2 0x152D JUMPI PUSH2 0x152C PUSH2 0x141A JUMP JUMPDEST JUMPDEST DUP2 CALLDATALOAD PUSH2 0x153D DUP5 DUP3 PUSH1 0x20 DUP7 ADD PUSH2 0x14D8 JUMP JUMPDEST SWAP2 POP POP SWAP3 SWAP2 POP POP JUMP JUMPDEST PUSH0 PUSH1 0x20 DUP3 DUP5 SUB SLT ISZERO PUSH2 0x155B JUMPI PUSH2 0x155A PUSH2 0x107A JUMP JUMPDEST JUMPDEST PUSH0 DUP3 ADD CALLDATALOAD PUSH8 0xFFFFFFFFFFFFFFFF DUP2 GT ISZERO PUSH2 0x1578 JUMPI PUSH2 0x1577 PUSH2 0x107E JUMP JUMPDEST JUMPDEST PUSH2 0x1584 DUP5 DUP3 DUP6 ADD PUSH2 0x1519 JUMP JUMPDEST SWAP2 POP POP SWAP3 SWAP2 POP POP JUMP JUMPDEST PUSH32 0x4E487B7100000000000000000000000000000000000000000000000000000000 PUSH0 MSTORE PUSH1 0x21 PUSH1 0x4 MSTORE PUSH1 0x24 PUSH0 REVERT JUMPDEST PUSH1 0x4 DUP2 LT PUSH2 0x15CB JUMPI PUSH2 0x15CA PUSH2 0x158D JUMP JUMPDEST JUMPDEST POP JUMP JUMPDEST PUSH0 DUP2 SWAP1 POP PUSH2 0x15DB DUP3 PUSH2 0x15BA JUMP JUMPDEST SWAP2 SWAP1 POP JUMP JUMPDEST PUSH0 PUSH2 0x15EA DUP3 PUSH2 0x15CE JUMP JUMPDEST SWAP1 POP SWAP2 SWAP1 POP JUMP JUMPDEST PUSH2 0x15FA DUP2 PUSH2 0x15E0 JUMP JUMPDEST DUP3 MSTORE POP POP JUMP JUMPDEST PUSH0 PUSH1 0x20 DUP3 ADD SWAP1 POP PUSH2 0x1613 PUSH0 DUP4 ADD DUP5 PUSH2 0x15F1 JUMP JUMPDEST SWAP3 SWAP2 POP POP JUMP JUMPDEST PUSH0 PUSH1 0x20 DUP3 ADD SWAP1 POP DUP2 DUP2 SUB PUSH0 DUP4 ADD MSTORE PUSH2 0x1631 DUP2 DUP5 PUSH2 0x1207 JUMP JUMPDEST SWAP1 POP SWAP3 SWAP2 POP POP JUMP JUMPDEST PUSH32 0x4E6F7420696E20766F74696E6720706861736500000000000000000000000000 PUSH0 DUP3 ADD MSTORE POP JUMP JUMPDEST PUSH0 PUSH2 0x166D PUSH1 0x13 DUP4 PUSH2 0x11BF JUMP JUMPDEST SWAP2 POP PUSH2 0x1678 DUP3 PUSH2 0x1639 JUMP JUMPDEST PUSH1 0x20 DUP3 ADD SWAP1 POP SWAP2 SWAP1 POP JUMP JUMPDEST PUSH0 PUSH1 0x20 DUP3 ADD SWAP1 POP DUP2 DUP2 SUB PUSH0 DUP4 ADD MSTORE PUSH2 0x169A DUP2 PUSH2 0x1661 JUMP JUMPDEST SWAP1 POP SWAP2 SWAP1 POP JUMP JUMPDEST PUSH32 0x496E76616C69642070726F706F73616C20696E64657800000000000000000000 PUSH0 DUP3 ADD MSTORE POP JUMP JUMPDEST PUSH0 PUSH2 0x16D5 PUSH1 0x16 DUP4 PUSH2 0x11BF JUMP JUMPDEST SWAP2 POP PUSH2 0x16E0 DUP3 PUSH2 0x16A1 JUMP JUMPDEST PUSH1 0x20 DUP3 ADD SWAP1 POP SWAP2 SWAP1 POP JUMP JUMPDEST PUSH0 PUSH1 0x20 DUP3 ADD SWAP1 POP DUP2 DUP2 SUB PUSH0 DUP4 ADD MSTORE PUSH2 0x1702 DUP2 PUSH2 0x16C9 JUMP JUMPDEST SWAP1 POP SWAP2 SWAP1 POP JUMP JUMPDEST PUSH32 0x416C726561647920766F74656400000000000000000000000000000000000000 PUSH0 DUP3 ADD MSTORE POP JUMP JUMPDEST PUSH0 PUSH2 0x173D PUSH1 0xD DUP4 PUSH2 0x11BF JUMP JUMPDEST SWAP2 POP PUSH2 0x1748 DUP3 PUSH2 0x1709 JUMP JUMPDEST PUSH1 0x20 DUP3 ADD SWAP1 POP SWAP2 SWAP1 POP JUMP JUMPDEST PUSH0 PUSH1 0x20 DUP3 ADD SWAP1 POP DUP2 DUP2 SUB PUSH0 DUP4 ADD MSTORE PUSH2 0x176A DUP2 PUSH2 0x1731 JUMP JUMPDEST SWAP1 POP SWAP2 SWAP1 POP JUMP JUMPDEST PUSH32 0x4E487B7100000000000000000000000000000000000000000000000000000000 PUSH0 MSTORE PUSH1 0x32 PUSH1 0x4 MSTORE PUSH1 0x24 PUSH0 REVERT JUMPDEST PUSH32 0x4E487B7100000000000000000000000000000000000000000000000000000000 PUSH0 MSTORE PUSH1 0x11 PUSH1 0x4 MSTORE PUSH1 0x24 PUSH0 REVERT JUMPDEST PUSH0 PUSH2 0x17D5 DUP3 PUSH2 0x1082 JUMP JUMPDEST SWAP2 POP PUSH2 0x17E0 DUP4 PUSH2 0x1082 JUMP JUMPDEST SWAP3 POP DUP3 DUP3 ADD SWAP1 POP DUP1 DUP3 GT ISZERO PUSH2 0x17F8 JUMPI PUSH2 0x17F7 PUSH2 0x179E JUMP JUMPDEST JUMPDEST SWAP3 SWAP2 POP POP JUMP JUMPDEST PUSH0 PUSH1 0x40 DUP3 ADD SWAP1 POP PUSH2 0x1811 PUSH0 DUP4 ADD DUP6 PUSH2 0x1286 JUMP JUMPDEST PUSH2 0x181E PUSH1 0x20 DUP4 ADD DUP5 PUSH2 0x117F JUMP JUMPDEST SWAP4 SWAP3 POP POP POP JUMP JUMPDEST PUSH32 0x4F6E6C79206F776E65722063616E2063616C6C00000000000000000000000000 PUSH0 DUP3 ADD MSTORE POP JUMP JUMPDEST PUSH0 PUSH2 0x1859 PUSH1 0x13 DUP4 PUSH2 0x11BF JUMP JUMPDEST SWAP2 POP PUSH2 0x1864 DUP3 PUSH2 0x1825 JUMP JUMPDEST PUSH1 0x20 DUP3 ADD SWAP1 POP SWAP2 SWAP1 POP JUMP JUMPDEST PUSH0 PUSH1 0x20 DUP3 ADD SWAP1 POP DUP2 DUP2 SUB PUSH0 DUP4 ADD MSTORE PUSH2 0x1886 DUP2 PUSH2 0x184D JUMP JUMPDEST SWAP1 POP SWAP2 SWAP1 POP JUMP JUMPDEST PUSH32 0x566F74696E6720616C726561647920656E646564000000000000000000000000 PUSH0 DUP3 ADD MSTORE POP JUMP JUMPDEST PUSH0 PUSH2 0x18C1 PUSH1 0x14 DUP4 PUSH2 0x11BF JUMP JUMPDEST SWAP2 POP PUSH2 0x18CC DUP3 PUSH2 0x188D JUMP JUMPDEST PUSH1 0x20 DUP3 ADD SWAP1 POP SWAP2 SWAP1 POP JUMP JUMPDEST PUSH0 PUSH1 0x20 DUP3 ADD SWAP1 POP DUP2 DUP2 SUB PUSH0 DUP4 ADD MSTORE PUSH2 0x18EE DUP2 PUSH2 0x18B5 JUMP JUMPDEST SWAP1 POP SWAP2 SWAP1 POP JUMP JUMPDEST PUSH32 0x4E6F7420726567697374726174696F6E20706861736500000000000000000000 PUSH0 DUP3 ADD MSTORE POP JUMP JUMPDEST PUSH0 PUSH2 0x1929 PUSH1 0x16 DUP4 PUSH2 0x11BF JUMP JUMPDEST SWAP2 POP PUSH2 0x1934 DUP3 PUSH2 0x18F5 JUMP JUMPDEST PUSH1 0x20 DUP3 ADD SWAP1 POP SWAP2 SWAP1 POP JUMP JUMPDEST PUSH0 PUSH1 0x20 DUP3 ADD SWAP1 POP DUP2 DUP2 SUB PUSH0 DUP4 ADD MSTORE PUSH2 0x1956 DUP2 PUSH2 0x191D JUMP JUMPDEST SWAP1 POP SWAP2 SWAP1 POP JUMP JUMPDEST PUSH32 0x496E76616C696420616464726573730000000000000000000000000000000000 PUSH0 DUP3 ADD MSTORE POP JUMP JUMPDEST PUSH0 PUSH2 0x1991 PUSH1 0xF DUP4 PUSH2 0x11BF JUMP JUMPDEST SWAP2 POP PUSH2 0x199C DUP3 PUSH2 0x195D JUMP JUMPDEST PUSH1 0x20 DUP3 ADD SWAP1 POP SWAP2 SWAP1 POP JUMP JUMPDEST PUSH0 PUSH1 0x20 DUP3 ADD SWAP1 POP DUP2 DUP2 SUB PUSH0 DUP4 ADD MSTORE PUSH2 0x19BE DUP2 PUSH2 0x1985 JUMP JUMPDEST SWAP1 POP SWAP2 SWAP1 POP JUMP JUMPDEST PUSH32 0x416C726561647920726567697374657265640000000000000000000000000000 PUSH0 DUP3 ADD MSTORE POP JUMP JUMPDEST PUSH0 PUSH2 0x19F9 PUSH1 0x12 DUP4 PUSH2 0x11BF JUMP JUMPDEST SWAP2 POP PUSH2 0x1A04 DUP3 PUSH2 0x19C5 JUMP JUMPDEST PUSH1 0x20 DUP3 ADD SWAP1 POP SWAP2 SWAP1 POP JUMP JUMPDEST PUSH0 PUSH1 0x20 DUP3 ADD SWAP1 POP DUP2 DUP2 SUB PUSH0 DUP4 ADD MSTORE PUSH2 0x1A26 DUP2 PUSH2 0x19ED JUMP JUMPDEST SWAP1 POP SWAP2 SWAP1 POP JUMP JUMPDEST PUSH0 PUSH2 0x1A37 DUP3 PUSH2 0x1082 JUMP JUMPDEST SWAP2 POP PUSH32 0xFFFFFFFFFFFFFFFFFFFFFFFFFFFFFFFFFFFFFFFFFFFFFFFFFFFFFFFFFFFFFFFF DUP3 SUB PUSH2 0x1A69 JUMPI PUSH2 0x1A68 PUSH2 0x179E JUMP JUMPDEST JUMPDEST PUSH1 0x1 DUP3 ADD SWAP1 POP SWAP2 SWAP1 POP JUMP JUMPDEST PUSH32 0x4E487B7100000000000000000000000000000000000000000000000000000000 PUSH0 MSTORE PUSH1 0x22 PUSH1 0x4 MSTORE PUSH1 0x24 PUSH0 REVERT JUMPDEST PUSH0 PUSH1 0x2 DUP3 DIV SWAP1 POP PUSH1 0x1 DUP3 AND DUP1 PUSH2 0x1AB8 JUMPI PUSH1 0x7F DUP3 AND SWAP2 POP JUMPDEST PUSH1 0x20 DUP3 LT DUP2 SUB PUSH2 0x1ACB JUMPI PUSH2 0x1ACA PUSH2 0x1A74 JUMP JUMPDEST JUMPDEST POP SWAP2 SWAP1 POP JUMP JUMPDEST PUSH32 0x566F74696E67206E6F7420656E64656420796574000000000000000000000000 PUSH0 DUP3 ADD MSTORE POP JUMP JUMPDEST PUSH0 PUSH2 0x1B05 PUSH1 0x14 DUP4 PUSH2 0x11BF JUMP JUMPDEST SWAP2 POP PUSH2 0x1B10 DUP3 PUSH2 0x1AD1 JUMP JUMPDEST PUSH1 0x20 DUP3 ADD SWAP1 POP SWAP2 SWAP1 POP JUMP JUMPDEST PUSH0 PUSH1 0x20 DUP3 ADD SWAP1 POP DUP2 DUP2 SUB PUSH0 DUP4 ADD MSTORE PUSH2 0x1B32 DUP2 PUSH2 0x1AF9 JUMP JUMPDEST SWAP1 POP SWAP2 SWAP1 POP JUMP JUMPDEST PUSH32 0x4E6F7420696E20726567697374726174696F6E20706861736500000000000000 PUSH0 DUP3 ADD MSTORE POP JUMP JUMPDEST PUSH0 PUSH2 0x1B6D PUSH1 0x19 DUP4 PUSH2 0x11BF JUMP JUMPDEST SWAP2 POP PUSH2 0x1B78 DUP3 PUSH2 0x1B39 JUMP JUMPDEST PUSH1 0x20 DUP3 ADD SWAP1 POP SWAP2 SWAP1 POP JUMP JUMPDEST PUSH0 PUSH1 0x20 DUP3 ADD SWAP1 POP DUP2 DUP2 SUB PUSH0 DUP4 ADD MSTORE PUSH2 0x1B9A DUP2 PUSH2 0x1B61 JUMP JUMPDEST SWAP1 POP SWAP2 SWAP1 POP JUMP JUMPDEST PUSH0 DUP2 SWAP1 POP DUP2 PUSH0 MSTORE PUSH1 0x20 PUSH0 KECCAK256 SWAP1 POP SWAP2 SWAP1 POP JUMP JUMPDEST PUSH0 PUSH1 0x20 PUSH1 0x1F DUP4 ADD DIV SWAP1 POP SWAP2 SWAP1 POP JUMP JUMPDEST PUSH0 DUP3 DUP3 SHL SWAP1 POP SWAP3 SWAP2 POP POP JUMP JUMPDEST PUSH0 PUSH1 0x8 DUP4 MUL PUSH2 0x1BFD PUSH32 0xFFFFFFFFFFFFFFFFFFFFFFFFFFFFFFFFFFFFFFFFFFFFFFFFFFFFFFFFFFFFFFFF DUP3 PUSH2 0x1BC2 JUMP JUMPDEST PUSH2 0x1C07 DUP7 DUP4 PUSH2 0x1BC2 JUMP JUMPDEST SWAP6 POP DUP1 NOT DUP5 AND SWAP4 POP DUP1 DUP7 AND DUP5 OR SWAP3 POP POP POP SWAP4 SWAP3 POP POP POP JUMP JUMPDEST PUSH0 DUP2 SWAP1 POP SWAP2 SWAP1 POP JUMP JUMPDEST PUSH0 PUSH2 0x1C42 PUSH2 0x1C3D PUSH2 0x1C38 DUP5 PUSH2 0x1082 JUMP JUMPDEST PUSH2 0x1C1F JUMP JUMPDEST PUSH2 0x1082 JUMP JUMPDEST SWAP1 POP SWAP2 SWAP1 POP JUMP JUMPDEST PUSH0 DUP2 SWAP1 POP SWAP2 SWAP1 POP JUMP JUMPDEST PUSH2 0x1C5B DUP4 PUSH2 0x1C28 JUMP JUMPDEST PUSH2 0x1C6F PUSH2 0x1C67 DUP3 PUSH2 0x1C49 JUMP JUMPDEST DUP5 DUP5 SLOAD PUSH2 0x1BCE JUMP JUMPDEST DUP3 SSTORE POP POP POP POP JUMP JUMPDEST PUSH0 SWAP1 JUMP JUMPDEST PUSH2 0x1C83 PUSH2 0x1C77 JUMP JUMPDEST PUSH2 0x1C8E DUP2 DUP5 DUP5 PUSH2 0x1C52 JUMP JUMPDEST POP POP POP JUMP JUMPDEST JUMPDEST DUP2 DUP2 LT ISZERO PUSH2 0x1CB1 JUMPI PUSH2 0x1CA6 PUSH0 DUP3 PUSH2 0x1C7B JUMP JUMPDEST PUSH1 0x1 DUP2 ADD SWAP1 POP PUSH2 0x1C94 JUMP JUMPDEST POP POP JUMP JUMPDEST PUSH1 0x1F DUP3 GT ISZERO PUSH2 0x1CF6 JUMPI PUSH2 0x1CC7 DUP2 PUSH2 0x1BA1 JUMP JUMPDEST PUSH2 0x1CD0 DUP5 PUSH2 0x1BB3 JUMP JUMPDEST DUP2 ADD PUSH1 0x20 DUP6 LT ISZERO PUSH2 0x1CDF JUMPI DUP2 SWAP1 POP JUMPDEST PUSH2 0x1CF3 PUSH2 0x1CEB DUP6 PUSH2 0x1BB3 JUMP JUMPDEST DUP4 ADD DUP3 PUSH2 0x1C93 JUMP JUMPDEST POP POP JUMPDEST POP POP POP JUMP JUMPDEST PUSH0 DUP3 DUP3 SHR SWAP1 POP SWAP3 SWAP2 POP POP JUMP JUMPDEST PUSH0 PUSH2 0x1D16 PUSH0 NOT DUP5 PUSH1 0x8 MUL PUSH2 0x1CFB JUMP JUMPDEST NOT DUP1 DUP4 AND SWAP2 POP POP SWAP3 SWAP2 POP POP JUMP JUMPDEST PUSH0 PUSH2 0x1D2E DUP4 DUP4 PUSH2 0x1D07 JUMP JUMPDEST SWAP2 POP DUP3 PUSH1 0x2 MUL DUP3 OR SWAP1 POP SWAP3 SWAP2 POP POP JUMP JUMPDEST PUSH2 0x1D47 DUP3 PUSH2 0x11B5 JUMP JUMPDEST PUSH8 0xFFFFFFFFFFFFFFFF DUP2 GT ISZERO PUSH2 0x1D60 JUMPI PUSH2 0x1D5F PUSH2 0x1422 JUMP JUMPDEST JUMPDEST PUSH2 0x1D6A DUP3 SLOAD PUSH2 0x1AA1 JUMP JUMPDEST PUSH2 0x1D75 DUP3 DUP3 DUP6 PUSH2 0x1CB5 JUMP JUMPDEST PUSH0 PUSH1 0x20 SWAP1 POP PUSH1 0x1F DUP4 GT PUSH1 0x1 DUP2 EQ PUSH2 0x1DA6 JUMPI PUSH0 DUP5 ISZERO PUSH2 0x1D94 JUMPI DUP3 DUP8 ADD MLOAD SWAP1 POP JUMPDEST PUSH2 0x1D9E DUP6 DUP3 PUSH2 0x1D23 JUMP JUMPDEST DUP7 SSTORE POP PUSH2 0x1E05 JUMP JUMPDEST PUSH1 0x1F NOT DUP5 AND PUSH2 0x1DB4 DUP7 PUSH2 0x1BA1 JUMP JUMPDEST PUSH0 JUMPDEST DUP3 DUP2 LT ISZERO PUSH2 0x1DDB JUMPI DUP5 DUP10 ADD MLOAD DUP3 SSTORE PUSH1 0x1 DUP3 ADD SWAP2 POP PUSH1 0x20 DUP6 ADD SWAP5 POP PUSH1 0x20 DUP2 ADD SWAP1 POP PUSH2 0x1DB6 JUMP JUMPDEST DUP7 DUP4 LT ISZERO PUSH2 0x1DF8 JUMPI DUP5 DUP10 ADD MLOAD PUSH2 0x1DF4 PUSH1 0x1F DUP10 AND DUP3 PUSH2 0x1D07 JUMP JUMPDEST DUP4 SSTORE POP JUMPDEST PUSH1 0x1 PUSH1 0x2 DUP9 MUL ADD DUP9 SSTORE POP POP POP JUMPDEST POP POP POP POP POP POP JUMP JUMPDEST PUSH0 PUSH2 0x1E17 DUP3 PUSH2 0x1082 JUMP JUMPDEST SWAP2 POP PUSH2 0x1E22 DUP4 PUSH2 0x1082 JUMP JUMPDEST SWAP3 POP DUP3 DUP3 SUB SWAP1 POP DUP2 DUP2 GT ISZERO PUSH2 0x1E3A JUMPI PUSH2 0x1E39 PUSH2 0x179E JUMP JUMPDEST JUMPDEST SWAP3 SWAP2 POP POP JUMP JUMPDEST PUSH0 PUSH1 0x40 DUP3 ADD SWAP1 POP PUSH2 0x1E53 PUSH0 DUP4 ADD DUP6 PUSH2 0x117F JUMP JUMPDEST DUP2 DUP2 SUB PUSH1 0x20 DUP4 ADD MSTORE PUSH2 0x1E65 DUP2 DUP5 PUSH2 0x1207 JUMP JUMPDEST SWAP1 POP SWAP4 SWAP3 POP POP POP JUMP JUMPDEST PUSH0 DUP2 MLOAD SWAP1 POP PUSH2 0x1E7C DUP2 PUSH2 0x108B JUMP JUMPDEST SWAP3 SWAP2 POP POP JUMP JUMPDEST PUSH0 PUSH1 0x20 DUP3 DUP5 SUB SLT ISZERO PUSH2 0x1E97 JUMPI PUSH2 0x1E96 PUSH2 0x107A JUMP JUMPDEST JUMPDEST PUSH0 PUSH2 0x1EA4 DUP5 DUP3 DUP6 ADD PUSH2 0x1E6E JUMP JUMPDEST SWAP2 POP POP SWAP3 SWAP2 POP POP JUMP INVALID LOG2 PUSH5 0x6970667358 0x22 SLT KECCAK256 0xAB 0xB8 SGT PUSH14 0x103FDD073AFA085DCCF4FB7912F5 EXP PUSH7 0xF11D870D733DEA 0xD1 PUSH15 0xC4387664736F6C6343000814003300 "
				},
				"gasEstimates": {
					"creation": {
						"codeDepositCost": "1581400",
						"executionCost": "infinite",
						"totalCost": "infinite"
					},
					"external": {
						"addProposals(string)": "infinite",
						"addVoters(address)": "infinite",
						"getPhase()": "infinite",
						"nextPhase()": "34489",
						"owner()": "2550",
						"phase()": "2598",
						"pickWinner()": "infinite",
						"proposalMembers(uint256)": "infinite",
						"showProposals()": "infinite",
						"totalVoters()": "2448",
						"vote(uint256)": "infinite",
						"voterMembers(address)": "5090",
						"winnerName()": "infinite"
					}
				},
				"methodIdentifiers": {
					"addProposals(string)": "9e866206",
					"addVoters(address)": "4c105d1b",
					"getPhase()": "eced0280",
					"nextPhase()": "3eadb6db",
					"owner()": "8da5cb5b",
					"phase()": "b1c9fe6e",
					"pickWinner()": "5d495aea",
					"proposalMembers(uint256)": "4e0abf19",
					"showProposals()": "93b08bf5",
					"totalVoters()": "5f5300ff",
					"vote(uint256)": "0121b93f",
					"voterMembers(address)": "19f7588d",
					"winnerName()": "e2ba53f0"
				}
			},
			"storageLayout": {
				"storage": [
					{
						"astId": 3,
						"contract": "contracts/voting.sol:Voting",
						"label": "owner",
						"offset": 0,
						"slot": "0",
						"type": "t_address"
					},
					{
						"astId": 17,
						"contract": "contracts/voting.sol:Voting",
						"label": "proposalMembers",
						"offset": 0,
						"slot": "1",
						"type": "t_array(t_struct(Proposal)8_storage)dyn_storage"
					},
					{
						"astId": 22,
						"contract": "contracts/voting.sol:Voting",
						"label": "voterMembers",
						"offset": 0,
						"slot": "2",
						"type": "t_mapping(t_address,t_struct(Voter)13_storage)"
					},
					{
						"astId": 24,
						"contract": "contracts/voting.sol:Voting",
						"label": "totalVoters",
						"offset": 0,
						"slot": "3",
						"type": "t_uint256"
					},
					{
						"astId": 32,
						"contract": "contracts/voting.sol:Voting",
						"label": "phase",
						"offset": 0,
						"slot": "4",
						"type": "t_enum(Phase)29"
					}
				],
				"types": {
					"t_address": {
						"encoding": "inplace",
						"label": "address",
						"numberOfBytes": "20"
					},
					"t_array(t_struct(Proposal)8_storage)dyn_storage": {
						"base": "t_struct(Proposal)8_storage",
						"encoding": "dynamic_array",
						"label": "struct Voting.Proposal[]",
						"numberOfBytes": "32"
					},
					"t_bool": {
						"encoding": "inplace",
						"label": "bool",
						"numberOfBytes": "1"
					},
					"t_enum(Phase)29": {
						"encoding": "inplace",
						"label": "enum Voting.Phase",
						"numberOfBytes": "1"
					},
					"t_mapping(t_address,t_struct(Voter)13_storage)": {
						"encoding": "mapping",
						"key": "t_address",
						"label": "mapping(address => struct Voting.Voter)",
						"numberOfBytes": "32",
						"value": "t_struct(Voter)13_storage"
					},
					"t_string_storage": {
						"encoding": "bytes",
						"label": "string",
						"numberOfBytes": "32"
					},
					"t_struct(Proposal)8_storage": {
						"encoding": "inplace",
						"label": "struct Voting.Proposal",
						"members": [
							{
								"astId": 5,
								"contract": "contracts/voting.sol:Voting",
								"label": "title",
								"offset": 0,
								"slot": "0",
								"type": "t_string_storage"
							},
							{
								"astId": 7,
								"contract": "contracts/voting.sol:Voting",
								"label": "voteCount",
								"offset": 0,
								"slot": "1",
								"type": "t_uint256"
							}
						],
						"numberOfBytes": "64"
					},
					"t_struct(Voter)13_storage": {
						"encoding": "inplace",
						"label": "struct Voting.Voter",
						"members": [
							{
								"astId": 10,
								"contract": "contracts/voting.sol:Voting",
								"label": "voted",
								"offset": 0,
								"slot": "0",
								"type": "t_bool"
							},
							{
								"astId": 12,
								"contract": "contracts/voting.sol:Voting",
								"label": "vote",
								"offset": 0,
								"slot": "1",
								"type": "t_uint256"
							}
						],
						"numberOfBytes": "64"
					},
					"t_uint256": {
						"encoding": "inplace",
						"label": "uint256",
						"numberOfBytes": "32"
					}
				}
			},
			"userdoc": {
				"kind": "user",
				"methods": {},
				"version": 1
			}
		}
	}
}