{
	"contracts/1_Storage.sol": {
		"Campaign": {
			"abi": [
				{
					"inputs": [],
					"stateMutability": "nonpayable",
					"type": "constructor"
				},
				{
					"anonymous": false,
					"inputs": [
						{
							"indexed": false,
							"internalType": "uint256",
							"name": "campaignId",
							"type": "uint256"
						},
						{
							"indexed": false,
							"internalType": "address",
							"name": "owner",
							"type": "address"
						}
					],
					"name": "campaignCreated",
					"type": "event"
				},
				{
					"anonymous": false,
					"inputs": [
						{
							"indexed": false,
							"internalType": "uint256",
							"name": "campaignId",
							"type": "uint256"
						},
						{
							"indexed": false,
							"internalType": "address",
							"name": "donator",
							"type": "address"
						},
						{
							"indexed": false,
							"internalType": "uint256",
							"name": "amount",
							"type": "uint256"
						}
					],
					"name": "donationReceived",
					"type": "event"
				},
				{
					"anonymous": false,
					"inputs": [
						{
							"indexed": false,
							"internalType": "uint256",
							"name": "campaignId",
							"type": "uint256"
						},
						{
							"indexed": false,
							"internalType": "address",
							"name": "donator",
							"type": "address"
						},
						{
							"indexed": false,
							"internalType": "uint256",
							"name": "amount",
							"type": "uint256"
						}
					],
					"name": "refunded",
					"type": "event"
				},
				{
					"anonymous": false,
					"inputs": [
						{
							"indexed": false,
							"internalType": "uint256",
							"name": "campaignId",
							"type": "uint256"
						},
						{
							"indexed": false,
							"internalType": "address",
							"name": "owner",
							"type": "address"
						}
					],
					"name": "requestWithDrawCalled",
					"type": "event"
				},
				{
					"anonymous": false,
					"inputs": [
						{
							"indexed": false,
							"internalType": "uint256",
							"name": "campaignId",
							"type": "uint256"
						},
						{
							"indexed": false,
							"internalType": "address",
							"name": "owner",
							"type": "address"
						}
					],
					"name": "withdrawn",
					"type": "event"
				},
				{
					"inputs": [
						{
							"internalType": "uint256",
							"name": "",
							"type": "uint256"
						}
					],
					"name": "campaings",
					"outputs": [
						{
							"internalType": "address",
							"name": "owner",
							"type": "address"
						},
						{
							"internalType": "string",
							"name": "title",
							"type": "string"
						},
						{
							"internalType": "uint256",
							"name": "targetAmount",
							"type": "uint256"
						},
						{
							"internalType": "uint256",
							"name": "collectedAmount",
							"type": "uint256"
						},
						{
							"internalType": "uint256",
							"name": "deadLine",
							"type": "uint256"
						},
						{
							"internalType": "bool",
							"name": "withdrawn",
							"type": "bool"
						},
						{
							"internalType": "bool",
							"name": "requestWithDrawn",
							"type": "bool"
						}
					],
					"stateMutability": "view",
					"type": "function"
				},
				{
					"inputs": [],
					"name": "capmaignCount",
					"outputs": [
						{
							"internalType": "uint256",
							"name": "",
							"type": "uint256"
						}
					],
					"stateMutability": "view",
					"type": "function"
				},
				{
					"inputs": [
						{
							"internalType": "string",
							"name": "title_",
							"type": "string"
						},
						{
							"internalType": "uint256",
							"name": "targetAmount_",
							"type": "uint256"
						},
						{
							"internalType": "uint256",
							"name": "deadLine_",
							"type": "uint256"
						}
					],
					"name": "createCampaign",
					"outputs": [],
					"stateMutability": "nonpayable",
					"type": "function"
				},
				{
					"inputs": [
						{
							"internalType": "uint256",
							"name": "campaignId",
							"type": "uint256"
						}
					],
					"name": "donateToCampaign",
					"outputs": [],
					"stateMutability": "payable",
					"type": "function"
				},
				{
					"inputs": [],
					"name": "manager",
					"outputs": [
						{
							"internalType": "address",
							"name": "",
							"type": "address"
						}
					],
					"stateMutability": "view",
					"type": "function"
				},
				{
					"inputs": [
						{
							"internalType": "uint256",
							"name": "campaignId",
							"type": "uint256"
						}
					],
					"name": "refund",
					"outputs": [],
					"stateMutability": "nonpayable",
					"type": "function"
				},
				{
					"inputs": [
						{
							"internalType": "uint256",
							"name": "campaignId",
							"type": "uint256"
						}
					],
					"name": "requestWithDraw",
					"outputs": [],
					"stateMutability": "nonpayable",
					"type": "function"
				},
				{
					"inputs": [
						{
							"internalType": "uint256",
							"name": "campaignId",
							"type": "uint256"
						}
					],
					"name": "withDrawn",
					"outputs": [],
					"stateMutability": "nonpayable",
					"type": "function"
				}
			],
			"devdoc": {
				"kind": "dev",
				"methods": {},
				"version": 1
			},
			"evm": {
				"assembly": "    /* \"contracts/1_Storage.sol\":62:3162  contract Campaign {... */\n  mstore(0x40, 0x80)\n    /* \"contracts/1_Storage.sol\":496:546  constructor(){... */\n  callvalue\n  dup1\n  iszero\n  tag_1\n  jumpi\n  0x00\n  dup1\n  revert\ntag_1:\n  pop\n    /* \"contracts/1_Storage.sol\":529:539  msg.sender */\n  caller\n    /* \"contracts/1_Storage.sol\":519:526  manager */\n  0x00\n  dup1\n    /* \"contracts/1_Storage.sol\":519:539  manager = msg.sender */\n  0x0100\n  exp\n  dup2\n  sload\n  dup2\n  0xffffffffffffffffffffffffffffffffffffffff\n  mul\n  not\n  and\n  swap1\n  dup4\n  0xffffffffffffffffffffffffffffffffffffffff\n  and\n  mul\n  or\n  swap1\n  sstore\n  pop\n    /* \"contracts/1_Storage.sol\":62:3162  contract Campaign {... */\n  dataSize(sub_0)\n  dup1\n  dataOffset(sub_0)\n  0x00\n  codecopy\n  0x00\n  return\nstop\n\nsub_0: assembly {\n        /* \"contracts/1_Storage.sol\":62:3162  contract Campaign {... */\n      mstore(0x40, 0x80)\n      jumpi(tag_1, lt(calldatasize, 0x04))\n      shr(0xe0, calldataload(0x00))\n      dup1\n      0x42a4fda8\n      gt\n      tag_10\n      jumpi\n      dup1\n      0x42a4fda8\n      eq\n      tag_6\n      jumpi\n      dup1\n      0x481c6a75\n      eq\n      tag_7\n      jumpi\n      dup1\n      0xb2395a14\n      eq\n      tag_8\n      jumpi\n      dup1\n      0xf31e42cc\n      eq\n      tag_9\n      jumpi\n      jump(tag_1)\n    tag_10:\n      dup1\n      0x09f61175\n      eq\n      tag_2\n      jumpi\n      dup1\n      0x278ecde1\n      eq\n      tag_3\n      jumpi\n      dup1\n      0x2d0b862d\n      eq\n      tag_4\n      jumpi\n      dup1\n      0x3020580b\n      eq\n      tag_5\n      jumpi\n    tag_1:\n      0x00\n      dup1\n      revert\n        /* \"contracts/1_Storage.sol\":1886:2309  function withDrawn(uint campaignId) external isOwner  {... */\n    tag_2:\n      callvalue\n      dup1\n      iszero\n      tag_11\n      jumpi\n      0x00\n      dup1\n      revert\n    tag_11:\n      pop\n      tag_12\n      0x04\n      dup1\n      calldatasize\n      sub\n      dup2\n      add\n      swap1\n      tag_13\n      swap2\n      swap1\n      tag_14\n      jump\t// in\n    tag_13:\n      tag_15\n      jump\t// in\n    tag_12:\n      stop\n        /* \"contracts/1_Storage.sol\":2683:3160  function refund(uint campaignId) external isOwner {... */\n    tag_3:\n      callvalue\n      dup1\n      iszero\n      tag_16\n      jumpi\n      0x00\n      dup1\n      revert\n    tag_16:\n      pop\n      tag_17\n      0x04\n      dup1\n      calldatasize\n      sub\n      dup2\n      add\n      swap1\n      tag_18\n      swap2\n      swap1\n      tag_14\n      jump\t// in\n    tag_18:\n      tag_19\n      jump\t// in\n    tag_17:\n      stop\n        /* \"contracts/1_Storage.sol\":2315:2677  function requestWithDraw(uint campaignId) external {... */\n    tag_4:\n      callvalue\n      dup1\n      iszero\n      tag_20\n      jumpi\n      0x00\n      dup1\n      revert\n    tag_20:\n      pop\n      tag_21\n      0x04\n      dup1\n      calldatasize\n      sub\n      dup2\n      add\n      swap1\n      tag_22\n      swap2\n      swap1\n      tag_14\n      jump\t// in\n    tag_22:\n      tag_23\n      jump\t// in\n    tag_21:\n      stop\n        /* \"contracts/1_Storage.sol\":904:1452  function createCampaign( string memory title_, uint  targetAmount_, uint  deadLine_ ) external {... */\n    tag_5:\n      callvalue\n      dup1\n      iszero\n      tag_24\n      jumpi\n      0x00\n      dup1\n      revert\n    tag_24:\n      pop\n      tag_25\n      0x04\n      dup1\n      calldatasize\n      sub\n      dup2\n      add\n      swap1\n      tag_26\n      swap2\n      swap1\n      tag_27\n      jump\t// in\n    tag_26:\n      tag_28\n      jump\t// in\n    tag_25:\n      stop\n        /* \"contracts/1_Storage.sol\":1458:1796  function donateToCampaign(uint campaignId) external payable {... */\n    tag_6:\n      tag_29\n      0x04\n      dup1\n      calldatasize\n      sub\n      dup2\n      add\n      swap1\n      tag_30\n      swap2\n      swap1\n      tag_14\n      jump\t// in\n    tag_30:\n      tag_31\n      jump\t// in\n    tag_29:\n      stop\n        /* \"contracts/1_Storage.sol\":382:404  address public manager */\n    tag_7:\n      callvalue\n      dup1\n      iszero\n      tag_32\n      jumpi\n      0x00\n      dup1\n      revert\n    tag_32:\n      pop\n      tag_33\n      tag_34\n      jump\t// in\n    tag_33:\n      mload(0x40)\n      tag_35\n      swap2\n      swap1\n      tag_36\n      jump\t// in\n    tag_35:\n      mload(0x40)\n      dup1\n      swap2\n      sub\n      swap1\n      return\n        /* \"contracts/1_Storage.sol\":415:457  mapping(uint => campaign) public campaings */\n    tag_8:\n      callvalue\n      dup1\n      iszero\n      tag_37\n      jumpi\n      0x00\n      dup1\n      revert\n    tag_37:\n      pop\n      tag_38\n      0x04\n      dup1\n      calldatasize\n      sub\n      dup2\n      add\n      swap1\n      tag_39\n      swap2\n      swap1\n      tag_14\n      jump\t// in\n    tag_39:\n      tag_40\n      jump\t// in\n    tag_38:\n      mload(0x40)\n      tag_41\n      swap8\n      swap7\n      swap6\n      swap5\n      swap4\n      swap3\n      swap2\n      swap1\n      tag_42\n      jump\t// in\n    tag_41:\n      mload(0x40)\n      dup1\n      swap2\n      sub\n      swap1\n      return\n        /* \"contracts/1_Storage.sol\":464:489  uint public capmaignCount */\n    tag_9:\n      callvalue\n      dup1\n      iszero\n      tag_43\n      jumpi\n      0x00\n      dup1\n      revert\n    tag_43:\n      pop\n      tag_44\n      tag_45\n      jump\t// in\n    tag_44:\n      mload(0x40)\n      tag_46\n      swap2\n      swap1\n      tag_47\n      jump\t// in\n    tag_46:\n      mload(0x40)\n      dup1\n      swap2\n      sub\n      swap1\n      return\n        /* \"contracts/1_Storage.sol\":1886:2309  function withDrawn(uint campaignId) external isOwner  {... */\n    tag_15:\n        /* \"contracts/1_Storage.sol\":1853:1860  manager */\n      0x00\n      dup1\n      sload\n      swap1\n      0x0100\n      exp\n      swap1\n      div\n      0xffffffffffffffffffffffffffffffffffffffff\n      and\n        /* \"contracts/1_Storage.sol\":1839:1860  msg.sender == manager */\n      0xffffffffffffffffffffffffffffffffffffffff\n      and\n        /* \"contracts/1_Storage.sol\":1839:1849  msg.sender */\n      caller\n        /* \"contracts/1_Storage.sol\":1839:1860  msg.sender == manager */\n      0xffffffffffffffffffffffffffffffffffffffff\n      and\n      eq\n        /* \"contracts/1_Storage.sol\":1831:1861  require(msg.sender == manager) */\n      tag_49\n      jumpi\n      0x00\n      dup1\n      revert\n    tag_49:\n        /* \"contracts/1_Storage.sol\":1949:1970  campaign storage camp */\n      0x00\n        /* \"contracts/1_Storage.sol\":1973:1982  campaings */\n      0x01\n        /* \"contracts/1_Storage.sol\":1973:1994  campaings[campaignId] */\n      0x00\n        /* \"contracts/1_Storage.sol\":1983:1993  campaignId */\n      dup4\n        /* \"contracts/1_Storage.sol\":1973:1994  campaings[campaignId] */\n      dup2\n      mstore\n      0x20\n      add\n      swap1\n      dup2\n      mstore\n      0x20\n      add\n      0x00\n      keccak256\n        /* \"contracts/1_Storage.sol\":1949:1994  campaign storage camp = campaings[campaignId] */\n      swap1\n      pop\n        /* \"contracts/1_Storage.sol\":2011:2015  camp */\n      dup1\n        /* \"contracts/1_Storage.sol\":2011:2032  camp.requestWithDrawn */\n      0x07\n      add\n      0x01\n      swap1\n      sload\n      swap1\n      0x0100\n      exp\n      swap1\n      div\n      0xff\n      and\n        /* \"contracts/1_Storage.sol\":2003:2060  require(camp.requestWithDrawn, \"No request to withdrawn\") */\n      tag_51\n      jumpi\n      mload(0x40)\n      0x08c379a000000000000000000000000000000000000000000000000000000000\n      dup2\n      mstore\n      0x04\n      add\n      tag_52\n      swap1\n      tag_53\n      jump\t// in\n    tag_52:\n      mload(0x40)\n      dup1\n      swap2\n      sub\n      swap1\n      revert\n    tag_51:\n        /* \"contracts/1_Storage.sol\":2071:2083  bool success */\n      0x00\n        /* \"contracts/1_Storage.sol\":2097:2101  camp */\n      dup2\n        /* \"contracts/1_Storage.sol\":2097:2107  camp.owner */\n      0x00\n      add\n      0x00\n      swap1\n      sload\n      swap1\n      0x0100\n      exp\n      swap1\n      div\n      0xffffffffffffffffffffffffffffffffffffffff\n      and\n        /* \"contracts/1_Storage.sol\":2089:2113  payable(camp.owner).call */\n      0xffffffffffffffffffffffffffffffffffffffff\n      and\n        /* \"contracts/1_Storage.sol\":2120:2124  camp */\n      dup3\n        /* \"contracts/1_Storage.sol\":2120:2140  camp.collectedAmount */\n      0x03\n      add\n      sload\n        /* \"contracts/1_Storage.sol\":2089:2145  payable(camp.owner).call{value:camp.collectedAmount}(\"\") */\n      mload(0x40)\n      tag_54\n      swap1\n      tag_55\n      jump\t// in\n    tag_54:\n      0x00\n      mload(0x40)\n      dup1\n      dup4\n      sub\n      dup2\n      dup6\n      dup8\n      gas\n      call\n      swap3\n      pop\n      pop\n      pop\n      returndatasize\n      dup1\n      0x00\n      dup2\n      eq\n      tag_58\n      jumpi\n      mload(0x40)\n      swap2\n      pop\n      and(add(returndatasize, 0x3f), not(0x1f))\n      dup3\n      add\n      0x40\n      mstore\n      returndatasize\n      dup3\n      mstore\n      returndatasize\n      0x00\n      0x20\n      dup5\n      add\n      returndatacopy\n      jump(tag_57)\n    tag_58:\n      0x60\n      swap2\n      pop\n    tag_57:\n      pop\n        /* \"contracts/1_Storage.sol\":2070:2145  (bool success, ) = payable(camp.owner).call{value:camp.collectedAmount}(\"\") */\n      pop\n      swap1\n      pop\n        /* \"contracts/1_Storage.sol\":2163:2170  success */\n      dup1\n        /* \"contracts/1_Storage.sol\":2155:2190  require(success, \"Transfer Failed\") */\n      tag_59\n      jumpi\n      mload(0x40)\n      0x08c379a000000000000000000000000000000000000000000000000000000000\n      dup2\n      mstore\n      0x04\n      add\n      tag_60\n      swap1\n      tag_61\n      jump\t// in\n    tag_60:\n      mload(0x40)\n      dup1\n      swap2\n      sub\n      swap1\n      revert\n    tag_59:\n        /* \"contracts/1_Storage.sol\":2222:2223  0 */\n      0x00\n        /* \"contracts/1_Storage.sol\":2199:2203  camp */\n      dup3\n        /* \"contracts/1_Storage.sol\":2199:2219  camp.collectedAmount */\n      0x03\n      add\n        /* \"contracts/1_Storage.sol\":2199:2223  camp.collectedAmount = 0 */\n      dup2\n      swap1\n      sstore\n      pop\n        /* \"contracts/1_Storage.sol\":2249:2253  true */\n      0x01\n        /* \"contracts/1_Storage.sol\":2232:2236  camp */\n      dup3\n        /* \"contracts/1_Storage.sol\":2232:2246  camp.withdrawn */\n      0x07\n      add\n      0x00\n        /* \"contracts/1_Storage.sol\":2232:2253  camp.withdrawn = true */\n      0x0100\n      exp\n      dup2\n      sload\n      dup2\n      0xff\n      mul\n      not\n      and\n      swap1\n      dup4\n      iszero\n      iszero\n      mul\n      or\n      swap1\n      sstore\n      pop\n        /* \"contracts/1_Storage.sol\":2268:2301  withdrawn(campaignId, msg.sender) */\n      0x9e9a0c3e94415e1517985ecb15bcc13cdc4e907a7b6760a95bee46ba1ba596d3\n        /* \"contracts/1_Storage.sol\":2278:2288  campaignId */\n      dup4\n        /* \"contracts/1_Storage.sol\":2290:2300  msg.sender */\n      caller\n        /* \"contracts/1_Storage.sol\":2268:2301  withdrawn(campaignId, msg.sender) */\n      mload(0x40)\n      tag_62\n      swap3\n      swap2\n      swap1\n      tag_63\n      jump\t// in\n    tag_62:\n      mload(0x40)\n      dup1\n      swap2\n      sub\n      swap1\n      log1\n        /* \"contracts/1_Storage.sol\":1940:2309  {... */\n      pop\n      pop\n        /* \"contracts/1_Storage.sol\":1886:2309  function withDrawn(uint campaignId) external isOwner  {... */\n      pop\n      jump\t// out\n        /* \"contracts/1_Storage.sol\":2683:3160  function refund(uint campaignId) external isOwner {... */\n    tag_19:\n        /* \"contracts/1_Storage.sol\":1853:1860  manager */\n      0x00\n      dup1\n      sload\n      swap1\n      0x0100\n      exp\n      swap1\n      div\n      0xffffffffffffffffffffffffffffffffffffffff\n      and\n        /* \"contracts/1_Storage.sol\":1839:1860  msg.sender == manager */\n      0xffffffffffffffffffffffffffffffffffffffff\n      and\n        /* \"contracts/1_Storage.sol\":1839:1849  msg.sender */\n      caller\n        /* \"contracts/1_Storage.sol\":1839:1860  msg.sender == manager */\n      0xffffffffffffffffffffffffffffffffffffffff\n      and\n      eq\n        /* \"contracts/1_Storage.sol\":1831:1861  require(msg.sender == manager) */\n      tag_65\n      jumpi\n      0x00\n      dup1\n      revert\n    tag_65:\n        /* \"contracts/1_Storage.sol\":2743:2764  campaign storage camp */\n      0x00\n        /* \"contracts/1_Storage.sol\":2767:2776  campaings */\n      0x01\n        /* \"contracts/1_Storage.sol\":2767:2788  campaings[campaignId] */\n      0x00\n        /* \"contracts/1_Storage.sol\":2777:2787  campaignId */\n      dup4\n        /* \"contracts/1_Storage.sol\":2767:2788  campaings[campaignId] */\n      dup2\n      mstore\n      0x20\n      add\n      swap1\n      dup2\n      mstore\n      0x20\n      add\n      0x00\n      keccak256\n        /* \"contracts/1_Storage.sol\":2743:2788  campaign storage camp = campaings[campaignId] */\n      swap1\n      pop\n        /* \"contracts/1_Storage.sol\":2803:2809  uint i */\n      0x00\n        /* \"contracts/1_Storage.sol\":2799:3154  for(uint i = 0; i < camp.donatorsList.length; i++){... */\n    tag_67:\n        /* \"contracts/1_Storage.sol\":2819:2823  camp */\n      dup2\n        /* \"contracts/1_Storage.sol\":2819:2836  camp.donatorsList */\n      0x06\n      add\n        /* \"contracts/1_Storage.sol\":2819:2843  camp.donatorsList.length */\n      dup1\n      sload\n      swap1\n      pop\n        /* \"contracts/1_Storage.sol\":2815:2816  i */\n      dup2\n        /* \"contracts/1_Storage.sol\":2815:2843  i < camp.donatorsList.length */\n      lt\n        /* \"contracts/1_Storage.sol\":2799:3154  for(uint i = 0; i < camp.donatorsList.length; i++){... */\n      iszero\n      tag_68\n      jumpi\n        /* \"contracts/1_Storage.sol\":2863:2878  address donator */\n      0x00\n        /* \"contracts/1_Storage.sol\":2881:2885  camp */\n      dup3\n        /* \"contracts/1_Storage.sol\":2881:2898  camp.donatorsList */\n      0x06\n      add\n        /* \"contracts/1_Storage.sol\":2899:2900  i */\n      dup3\n        /* \"contracts/1_Storage.sol\":2881:2901  camp.donatorsList[i] */\n      dup2\n      sload\n      dup2\n      lt\n      tag_70\n      jumpi\n      tag_71\n      tag_72\n      jump\t// in\n    tag_71:\n    tag_70:\n      swap1\n      0x00\n      mstore\n      keccak256(0x00, 0x20)\n      add\n      0x00\n      swap1\n      sload\n      swap1\n      0x0100\n      exp\n      swap1\n      div\n      0xffffffffffffffffffffffffffffffffffffffff\n      and\n        /* \"contracts/1_Storage.sol\":2863:2901  address donator = camp.donatorsList[i] */\n      swap1\n      pop\n        /* \"contracts/1_Storage.sol\":2915:2926  uint amount */\n      0x00\n        /* \"contracts/1_Storage.sol\":2929:2933  camp */\n      dup4\n        /* \"contracts/1_Storage.sol\":2929:2942  camp.donators */\n      0x05\n      add\n        /* \"contracts/1_Storage.sol\":2929:2951  camp.donators[donator] */\n      0x00\n        /* \"contracts/1_Storage.sol\":2943:2950  donator */\n      dup4\n        /* \"contracts/1_Storage.sol\":2929:2951  camp.donators[donator] */\n      0xffffffffffffffffffffffffffffffffffffffff\n      and\n      0xffffffffffffffffffffffffffffffffffffffff\n      and\n      dup2\n      mstore\n      0x20\n      add\n      swap1\n      dup2\n      mstore\n      0x20\n      add\n      0x00\n      keccak256\n      sload\n        /* \"contracts/1_Storage.sol\":2915:2951  uint amount = camp.donators[donator] */\n      swap1\n      pop\n        /* \"contracts/1_Storage.sol\":2966:2978  bool success */\n      0x00\n        /* \"contracts/1_Storage.sol\":2992:2999  donator */\n      dup3\n        /* \"contracts/1_Storage.sol\":2984:3005  payable(donator).call */\n      0xffffffffffffffffffffffffffffffffffffffff\n      and\n        /* \"contracts/1_Storage.sol\":3012:3018  amount */\n      dup3\n        /* \"contracts/1_Storage.sol\":2984:3023  payable(donator).call{value:amount}(\"\") */\n      mload(0x40)\n      tag_74\n      swap1\n      tag_55\n      jump\t// in\n    tag_74:\n      0x00\n      mload(0x40)\n      dup1\n      dup4\n      sub\n      dup2\n      dup6\n      dup8\n      gas\n      call\n      swap3\n      pop\n      pop\n      pop\n      returndatasize\n      dup1\n      0x00\n      dup2\n      eq\n      tag_77\n      jumpi\n      mload(0x40)\n      swap2\n      pop\n      and(add(returndatasize, 0x3f), not(0x1f))\n      dup3\n      add\n      0x40\n      mstore\n      returndatasize\n      dup3\n      mstore\n      returndatasize\n      0x00\n      0x20\n      dup5\n      add\n      returndatacopy\n      jump(tag_76)\n    tag_77:\n      0x60\n      swap2\n      pop\n    tag_76:\n      pop\n        /* \"contracts/1_Storage.sol\":2965:3023  (bool success, ) = payable(donator).call{value:amount}(\"\") */\n      pop\n      swap1\n      pop\n        /* \"contracts/1_Storage.sol\":3058:3065  success */\n      dup1\n        /* \"contracts/1_Storage.sol\":3050:3085  require(success, \"Transfer Failed\") */\n      tag_78\n      jumpi\n      mload(0x40)\n      0x08c379a000000000000000000000000000000000000000000000000000000000\n      dup2\n      mstore\n      0x04\n      add\n      tag_79\n      swap1\n      tag_61\n      jump\t// in\n    tag_79:\n      mload(0x40)\n      dup1\n      swap2\n      sub\n      swap1\n      revert\n    tag_78:\n        /* \"contracts/1_Storage.sol\":3104:3141  refunded(campaignId, donator, amount) */\n      0x1852ceb13126c22f394b77ad6298d993dfb7813f9b3139349e3c3f0852c1fe74\n        /* \"contracts/1_Storage.sol\":3113:3123  campaignId */\n      dup7\n        /* \"contracts/1_Storage.sol\":3125:3132  donator */\n      dup5\n        /* \"contracts/1_Storage.sol\":3134:3140  amount */\n      dup5\n        /* \"contracts/1_Storage.sol\":3104:3141  refunded(campaignId, donator, amount) */\n      mload(0x40)\n      tag_80\n      swap4\n      swap3\n      swap2\n      swap1\n      tag_81\n      jump\t// in\n    tag_80:\n      mload(0x40)\n      dup1\n      swap2\n      sub\n      swap1\n      log1\n        /* \"contracts/1_Storage.sol\":2849:3154  {... */\n      pop\n      pop\n      pop\n        /* \"contracts/1_Storage.sol\":2845:2848  i++ */\n      dup1\n      dup1\n      tag_82\n      swap1\n      tag_83\n      jump\t// in\n    tag_82:\n      swap2\n      pop\n      pop\n        /* \"contracts/1_Storage.sol\":2799:3154  for(uint i = 0; i < camp.donatorsList.length; i++){... */\n      jump(tag_67)\n    tag_68:\n      pop\n        /* \"contracts/1_Storage.sol\":2733:3160  {... */\n      pop\n        /* \"contracts/1_Storage.sol\":2683:3160  function refund(uint campaignId) external isOwner {... */\n      pop\n      jump\t// out\n        /* \"contracts/1_Storage.sol\":2315:2677  function requestWithDraw(uint campaignId) external {... */\n    tag_23:\n        /* \"contracts/1_Storage.sol\":2376:2397  campaign storage camp */\n      0x00\n        /* \"contracts/1_Storage.sol\":2400:2409  campaings */\n      0x01\n        /* \"contracts/1_Storage.sol\":2400:2421  campaings[campaignId] */\n      0x00\n        /* \"contracts/1_Storage.sol\":2410:2420  campaignId */\n      dup4\n        /* \"contracts/1_Storage.sol\":2400:2421  campaings[campaignId] */\n      dup2\n      mstore\n      0x20\n      add\n      swap1\n      dup2\n      mstore\n      0x20\n      add\n      0x00\n      keccak256\n        /* \"contracts/1_Storage.sol\":2376:2421  campaign storage camp = campaings[campaignId] */\n      swap1\n      pop\n        /* \"contracts/1_Storage.sol\":2440:2444  camp */\n      dup1\n        /* \"contracts/1_Storage.sol\":2440:2454  camp.withdrawn */\n      0x07\n      add\n      0x00\n      swap1\n      sload\n      swap1\n      0x0100\n      exp\n      swap1\n      div\n      0xff\n      and\n        /* \"contracts/1_Storage.sol\":2439:2454  !camp.withdrawn */\n      iszero\n        /* \"contracts/1_Storage.sol\":2431:2485  require(!camp.withdrawn, \"Already withDrawnCompleted\") */\n      tag_85\n      jumpi\n      mload(0x40)\n      0x08c379a000000000000000000000000000000000000000000000000000000000\n      dup2\n      mstore\n      0x04\n      add\n      tag_86\n      swap1\n      tag_87\n      jump\t// in\n    tag_86:\n      mload(0x40)\n      dup1\n      swap2\n      sub\n      swap1\n      revert\n    tag_85:\n        /* \"contracts/1_Storage.sol\":2517:2521  camp */\n      dup1\n        /* \"contracts/1_Storage.sol\":2517:2527  camp.owner */\n      0x00\n      add\n      0x00\n      swap1\n      sload\n      swap1\n      0x0100\n      exp\n      swap1\n      div\n      0xffffffffffffffffffffffffffffffffffffffff\n      and\n        /* \"contracts/1_Storage.sol\":2503:2527  msg.sender == camp.owner */\n      0xffffffffffffffffffffffffffffffffffffffff\n      and\n        /* \"contracts/1_Storage.sol\":2503:2513  msg.sender */\n      caller\n        /* \"contracts/1_Storage.sol\":2503:2527  msg.sender == camp.owner */\n      0xffffffffffffffffffffffffffffffffffffffff\n      and\n      eq\n        /* \"contracts/1_Storage.sol\":2495:2571  require(msg.sender == camp.owner, \"Only owner can make request to withdraw\") */\n      tag_88\n      jumpi\n      mload(0x40)\n      0x08c379a000000000000000000000000000000000000000000000000000000000\n      dup2\n      mstore\n      0x04\n      add\n      tag_89\n      swap1\n      tag_90\n      jump\t// in\n    tag_89:\n      mload(0x40)\n      dup1\n      swap2\n      sub\n      swap1\n      revert\n    tag_88:\n        /* \"contracts/1_Storage.sol\":2605:2609  true */\n      0x01\n        /* \"contracts/1_Storage.sol\":2581:2585  camp */\n      dup2\n        /* \"contracts/1_Storage.sol\":2581:2602  camp.requestWithDrawn */\n      0x07\n      add\n      0x01\n        /* \"contracts/1_Storage.sol\":2581:2609  camp.requestWithDrawn = true */\n      0x0100\n      exp\n      dup2\n      sload\n      dup2\n      0xff\n      mul\n      not\n      and\n      swap1\n      dup4\n      iszero\n      iszero\n      mul\n      or\n      swap1\n      sstore\n      pop\n        /* \"contracts/1_Storage.sol\":2624:2669  requestWithDrawCalled(campaignId, msg.sender) */\n      0xe49b81d4ce4622cc7cf524d4915e76564dc22d3fae6baaf01df5ee03649234a4\n        /* \"contracts/1_Storage.sol\":2646:2656  campaignId */\n      dup3\n        /* \"contracts/1_Storage.sol\":2658:2668  msg.sender */\n      caller\n        /* \"contracts/1_Storage.sol\":2624:2669  requestWithDrawCalled(campaignId, msg.sender) */\n      mload(0x40)\n      tag_91\n      swap3\n      swap2\n      swap1\n      tag_63\n      jump\t// in\n    tag_91:\n      mload(0x40)\n      dup1\n      swap2\n      sub\n      swap1\n      log1\n        /* \"contracts/1_Storage.sol\":2366:2677  {... */\n      pop\n        /* \"contracts/1_Storage.sol\":2315:2677  function requestWithDraw(uint campaignId) external {... */\n      pop\n      jump\t// out\n        /* \"contracts/1_Storage.sol\":904:1452  function createCampaign( string memory title_, uint  targetAmount_, uint  deadLine_ ) external {... */\n    tag_28:\n        /* \"contracts/1_Storage.sol\":1013:1026  capmaignCount */\n      0x02\n      0x00\n        /* \"contracts/1_Storage.sol\":1013:1028  capmaignCount++ */\n      dup2\n      sload\n      dup1\n      swap3\n      swap2\n      swap1\n      tag_93\n      swap1\n      tag_83\n      jump\t// in\n    tag_93:\n      swap2\n      swap1\n      pop\n      sstore\n      pop\n        /* \"contracts/1_Storage.sol\":1042:1063  campaign storage camp */\n      0x00\n        /* \"contracts/1_Storage.sol\":1067:1076  campaings */\n      0x01\n        /* \"contracts/1_Storage.sol\":1067:1091  campaings[capmaignCount] */\n      0x00\n        /* \"contracts/1_Storage.sol\":1077:1090  capmaignCount */\n      sload(0x02)\n        /* \"contracts/1_Storage.sol\":1067:1091  campaings[capmaignCount] */\n      dup2\n      mstore\n      0x20\n      add\n      swap1\n      dup2\n      mstore\n      0x20\n      add\n      0x00\n      keccak256\n        /* \"contracts/1_Storage.sol\":1042:1091  campaign storage camp  = campaings[capmaignCount] */\n      swap1\n      pop\n        /* \"contracts/1_Storage.sol\":1118:1128  msg.sender */\n      caller\n        /* \"contracts/1_Storage.sol\":1105:1109  camp */\n      dup2\n        /* \"contracts/1_Storage.sol\":1105:1115  camp.owner */\n      0x00\n      add\n      0x00\n        /* \"contracts/1_Storage.sol\":1105:1128  camp.owner = msg.sender */\n      0x0100\n      exp\n      dup2\n      sload\n      dup2\n      0xffffffffffffffffffffffffffffffffffffffff\n      mul\n      not\n      and\n      swap1\n      dup4\n      0xffffffffffffffffffffffffffffffffffffffff\n      and\n      mul\n      or\n      swap1\n      sstore\n      pop\n        /* \"contracts/1_Storage.sol\":1155:1161  title_ */\n      dup4\n        /* \"contracts/1_Storage.sol\":1142:1146  camp */\n      dup2\n        /* \"contracts/1_Storage.sol\":1142:1152  camp.title */\n      0x01\n      add\n        /* \"contracts/1_Storage.sol\":1142:1161  camp.title = title_ */\n      swap1\n      dup2\n      tag_94\n      swap2\n      swap1\n      tag_95\n      jump\t// in\n    tag_94:\n      pop\n        /* \"contracts/1_Storage.sol\":1195:1208  targetAmount_ */\n      dup3\n        /* \"contracts/1_Storage.sol\":1175:1179  camp */\n      dup2\n        /* \"contracts/1_Storage.sol\":1175:1192  camp.targetAmount */\n      0x02\n      add\n        /* \"contracts/1_Storage.sol\":1175:1208  camp.targetAmount = targetAmount_ */\n      dup2\n      swap1\n      sstore\n      pop\n        /* \"contracts/1_Storage.sol\":1257:1266  deadLine_ */\n      dup2\n        /* \"contracts/1_Storage.sol\":1238:1253  block.timestamp */\n      timestamp\n        /* \"contracts/1_Storage.sol\":1238:1266  block.timestamp +  deadLine_ */\n      tag_96\n      swap2\n      swap1\n      tag_97\n      jump\t// in\n    tag_96:\n        /* \"contracts/1_Storage.sol\":1222:1226  camp */\n      dup2\n        /* \"contracts/1_Storage.sol\":1222:1235  camp.deadLine */\n      0x04\n      add\n        /* \"contracts/1_Storage.sol\":1222:1266  camp.deadLine = block.timestamp +  deadLine_ */\n      dup2\n      swap1\n      sstore\n      pop\n        /* \"contracts/1_Storage.sol\":1303:1304  0 */\n      0x00\n        /* \"contracts/1_Storage.sol\":1280:1284  camp */\n      dup2\n        /* \"contracts/1_Storage.sol\":1280:1300  camp.collectedAmount */\n      0x03\n      add\n        /* \"contracts/1_Storage.sol\":1280:1304  camp.collectedAmount = 0 */\n      dup2\n      swap1\n      sstore\n      pop\n        /* \"contracts/1_Storage.sol\":1335:1340  false */\n      0x00\n        /* \"contracts/1_Storage.sol\":1318:1322  camp */\n      dup2\n        /* \"contracts/1_Storage.sol\":1318:1332  camp.withdrawn */\n      0x07\n      add\n      0x00\n        /* \"contracts/1_Storage.sol\":1318:1340  camp.withdrawn = false */\n      0x0100\n      exp\n      dup2\n      sload\n      dup2\n      0xff\n      mul\n      not\n      and\n      swap1\n      dup4\n      iszero\n      iszero\n      mul\n      or\n      swap1\n      sstore\n      pop\n        /* \"contracts/1_Storage.sol\":1378:1383  false */\n      0x00\n        /* \"contracts/1_Storage.sol\":1354:1358  camp */\n      dup2\n        /* \"contracts/1_Storage.sol\":1354:1375  camp.requestWithDrawn */\n      0x07\n      add\n      0x01\n        /* \"contracts/1_Storage.sol\":1354:1383  camp.requestWithDrawn = false */\n      0x0100\n      exp\n      dup2\n      sload\n      dup2\n      0xff\n      mul\n      not\n      and\n      swap1\n      dup4\n      iszero\n      iszero\n      mul\n      or\n      swap1\n      sstore\n      pop\n        /* \"contracts/1_Storage.sol\":1402:1444  campaignCreated(capmaignCount, msg.sender) */\n      0x5f2c3e3116022249eaf58b150f81a398074261ac591bc2c49784fbf9196671b7\n        /* \"contracts/1_Storage.sol\":1418:1431  capmaignCount */\n      sload(0x02)\n        /* \"contracts/1_Storage.sol\":1433:1443  msg.sender */\n      caller\n        /* \"contracts/1_Storage.sol\":1402:1444  campaignCreated(capmaignCount, msg.sender) */\n      mload(0x40)\n      tag_98\n      swap3\n      swap2\n      swap1\n      tag_63\n      jump\t// in\n    tag_98:\n      mload(0x40)\n      dup1\n      swap2\n      sub\n      swap1\n      log1\n        /* \"contracts/1_Storage.sol\":999:1452  {... */\n      pop\n        /* \"contracts/1_Storage.sol\":904:1452  function createCampaign( string memory title_, uint  targetAmount_, uint  deadLine_ ) external {... */\n      pop\n      pop\n      pop\n      jump\t// out\n        /* \"contracts/1_Storage.sol\":1458:1796  function donateToCampaign(uint campaignId) external payable {... */\n    tag_31:\n        /* \"contracts/1_Storage.sol\":1531:1552  campaign storage camp */\n      0x00\n        /* \"contracts/1_Storage.sol\":1555:1564  campaings */\n      0x01\n        /* \"contracts/1_Storage.sol\":1555:1576  campaings[campaignId] */\n      0x00\n        /* \"contracts/1_Storage.sol\":1565:1575  campaignId */\n      dup4\n        /* \"contracts/1_Storage.sol\":1555:1576  campaings[campaignId] */\n      dup2\n      mstore\n      0x20\n      add\n      swap1\n      dup2\n      mstore\n      0x20\n      add\n      0x00\n      keccak256\n        /* \"contracts/1_Storage.sol\":1531:1576  campaign storage camp = campaings[campaignId] */\n      swap1\n      pop\n        /* \"contracts/1_Storage.sol\":1613:1622  msg.value */\n      callvalue\n        /* \"contracts/1_Storage.sol\":1589:1593  camp */\n      dup2\n        /* \"contracts/1_Storage.sol\":1589:1609  camp.collectedAmount */\n      0x03\n      add\n      0x00\n        /* \"contracts/1_Storage.sol\":1589:1622  camp.collectedAmount += msg.value */\n      dup3\n      dup3\n      sload\n      tag_100\n      swap2\n      swap1\n      tag_97\n      jump\t// in\n    tag_100:\n      swap3\n      pop\n      pop\n      dup2\n      swap1\n      sstore\n      pop\n        /* \"contracts/1_Storage.sol\":1664:1673  msg.value */\n      callvalue\n        /* \"contracts/1_Storage.sol\":1635:1639  camp */\n      dup2\n        /* \"contracts/1_Storage.sol\":1635:1648  camp.donators */\n      0x05\n      add\n        /* \"contracts/1_Storage.sol\":1635:1660  camp.donators[msg.sender] */\n      0x00\n        /* \"contracts/1_Storage.sol\":1649:1659  msg.sender */\n      caller\n        /* \"contracts/1_Storage.sol\":1635:1660  camp.donators[msg.sender] */\n      0xffffffffffffffffffffffffffffffffffffffff\n      and\n      0xffffffffffffffffffffffffffffffffffffffff\n      and\n      dup2\n      mstore\n      0x20\n      add\n      swap1\n      dup2\n      mstore\n      0x20\n      add\n      0x00\n      keccak256\n      0x00\n        /* \"contracts/1_Storage.sol\":1635:1673  camp.donators[msg.sender] += msg.value */\n      dup3\n      dup3\n      sload\n      tag_101\n      swap2\n      swap1\n      tag_97\n      jump\t// in\n    tag_101:\n      swap3\n      pop\n      pop\n      dup2\n      swap1\n      sstore\n      pop\n        /* \"contracts/1_Storage.sol\":1686:1690  camp */\n      dup1\n        /* \"contracts/1_Storage.sol\":1686:1703  camp.donatorsList */\n      0x06\n      add\n        /* \"contracts/1_Storage.sol\":1709:1719  msg.sender */\n      caller\n        /* \"contracts/1_Storage.sol\":1686:1720  camp.donatorsList.push(msg.sender) */\n      swap1\n      dup1\n      0x01\n      dup2\n      sload\n      add\n      dup1\n      dup3\n      sstore\n      dup1\n      swap2\n      pop\n      pop\n      0x01\n      swap1\n      sub\n      swap1\n      0x00\n      mstore\n      keccak256(0x00, 0x20)\n      add\n      0x00\n      swap1\n      swap2\n      swap1\n      swap2\n      swap1\n      swap2\n      0x0100\n      exp\n      dup2\n      sload\n      dup2\n      0xffffffffffffffffffffffffffffffffffffffff\n      mul\n      not\n      and\n      swap1\n      dup4\n      0xffffffffffffffffffffffffffffffffffffffff\n      and\n      mul\n      or\n      swap1\n      sstore\n      pop\n        /* \"contracts/1_Storage.sol\":1738:1789  donationReceived(campaignId, msg.sender, msg.value) */\n      0x043b264db5e3815669abd6f2602ce2eff2392c8379a973e374fb403dd5dadf46\n        /* \"contracts/1_Storage.sol\":1755:1765  campaignId */\n      dup3\n        /* \"contracts/1_Storage.sol\":1767:1777  msg.sender */\n      caller\n        /* \"contracts/1_Storage.sol\":1779:1788  msg.value */\n      callvalue\n        /* \"contracts/1_Storage.sol\":1738:1789  donationReceived(campaignId, msg.sender, msg.value) */\n      mload(0x40)\n      tag_103\n      swap4\n      swap3\n      swap2\n      swap1\n      tag_81\n      jump\t// in\n    tag_103:\n      mload(0x40)\n      dup1\n      swap2\n      sub\n      swap1\n      log1\n        /* \"contracts/1_Storage.sol\":1518:1796  {... */\n      pop\n        /* \"contracts/1_Storage.sol\":1458:1796  function donateToCampaign(uint campaignId) external payable {... */\n      pop\n      jump\t// out\n        /* \"contracts/1_Storage.sol\":382:404  address public manager */\n    tag_34:\n      0x00\n      dup1\n      sload\n      swap1\n      0x0100\n      exp\n      swap1\n      div\n      0xffffffffffffffffffffffffffffffffffffffff\n      and\n      dup2\n      jump\t// out\n        /* \"contracts/1_Storage.sol\":415:457  mapping(uint => campaign) public campaings */\n    tag_40:\n      mstore(0x20, 0x01)\n      dup1\n      0x00\n      mstore\n      keccak256(0x00, 0x40)\n      0x00\n      swap2\n      pop\n      swap1\n      pop\n      dup1\n      0x00\n      add\n      0x00\n      swap1\n      sload\n      swap1\n      0x0100\n      exp\n      swap1\n      div\n      0xffffffffffffffffffffffffffffffffffffffff\n      and\n      swap1\n      dup1\n      0x01\n      add\n      dup1\n      sload\n      tag_104\n      swap1\n      tag_105\n      jump\t// in\n    tag_104:\n      dup1\n      0x1f\n      add\n      0x20\n      dup1\n      swap2\n      div\n      mul\n      0x20\n      add\n      mload(0x40)\n      swap1\n      dup2\n      add\n      0x40\n      mstore\n      dup1\n      swap3\n      swap2\n      swap1\n      dup2\n      dup2\n      mstore\n      0x20\n      add\n      dup3\n      dup1\n      sload\n      tag_106\n      swap1\n      tag_105\n      jump\t// in\n    tag_106:\n      dup1\n      iszero\n      tag_107\n      jumpi\n      dup1\n      0x1f\n      lt\n      tag_108\n      jumpi\n      0x0100\n      dup1\n      dup4\n      sload\n      div\n      mul\n      dup4\n      mstore\n      swap2\n      0x20\n      add\n      swap2\n      jump(tag_107)\n    tag_108:\n      dup3\n      add\n      swap2\n      swap1\n      0x00\n      mstore\n      keccak256(0x00, 0x20)\n      swap1\n    tag_109:\n      dup2\n      sload\n      dup2\n      mstore\n      swap1\n      0x01\n      add\n      swap1\n      0x20\n      add\n      dup1\n      dup4\n      gt\n      tag_109\n      jumpi\n      dup3\n      swap1\n      sub\n      0x1f\n      and\n      dup3\n      add\n      swap2\n    tag_107:\n      pop\n      pop\n      pop\n      pop\n      pop\n      swap1\n      dup1\n      0x02\n      add\n      sload\n      swap1\n      dup1\n      0x03\n      add\n      sload\n      swap1\n      dup1\n      0x04\n      add\n      sload\n      swap1\n      dup1\n      0x07\n      add\n      0x00\n      swap1\n      sload\n      swap1\n      0x0100\n      exp\n      swap1\n      div\n      0xff\n      and\n      swap1\n      dup1\n      0x07\n      add\n      0x01\n      swap1\n      sload\n      swap1\n      0x0100\n      exp\n      swap1\n      div\n      0xff\n      and\n      swap1\n      pop\n      dup8\n      jump\t// out\n        /* \"contracts/1_Storage.sol\":464:489  uint public capmaignCount */\n    tag_45:\n      sload(0x02)\n      dup2\n      jump\t// out\n        /* \"#utility.yul\":7:82   */\n    tag_110:\n        /* \"#utility.yul\":40:46   */\n      0x00\n        /* \"#utility.yul\":73:75   */\n      0x40\n        /* \"#utility.yul\":67:76   */\n      mload\n        /* \"#utility.yul\":57:76   */\n      swap1\n      pop\n        /* \"#utility.yul\":7:82   */\n      swap1\n      jump\t// out\n        /* \"#utility.yul\":88:205   */\n    tag_111:\n        /* \"#utility.yul\":197:198   */\n      0x00\n        /* \"#utility.yul\":194:195   */\n      dup1\n        /* \"#utility.yul\":187:199   */\n      revert\n        /* \"#utility.yul\":211:328   */\n    tag_112:\n        /* \"#utility.yul\":320:321   */\n      0x00\n        /* \"#utility.yul\":317:318   */\n      dup1\n        /* \"#utility.yul\":310:322   */\n      revert\n        /* \"#utility.yul\":334:411   */\n    tag_113:\n        /* \"#utility.yul\":371:378   */\n      0x00\n        /* \"#utility.yul\":400:405   */\n      dup2\n        /* \"#utility.yul\":389:405   */\n      swap1\n      pop\n        /* \"#utility.yul\":334:411   */\n      swap2\n      swap1\n      pop\n      jump\t// out\n        /* \"#utility.yul\":417:539   */\n    tag_114:\n        /* \"#utility.yul\":490:514   */\n      tag_170\n        /* \"#utility.yul\":508:513   */\n      dup2\n        /* \"#utility.yul\":490:514   */\n      tag_113\n      jump\t// in\n    tag_170:\n        /* \"#utility.yul\":483:488   */\n      dup2\n        /* \"#utility.yul\":480:515   */\n      eq\n        /* \"#utility.yul\":470:533   */\n      tag_171\n      jumpi\n        /* \"#utility.yul\":529:530   */\n      0x00\n        /* \"#utility.yul\":526:527   */\n      dup1\n        /* \"#utility.yul\":519:531   */\n      revert\n        /* \"#utility.yul\":470:533   */\n    tag_171:\n        /* \"#utility.yul\":417:539   */\n      pop\n      jump\t// out\n        /* \"#utility.yul\":545:684   */\n    tag_115:\n        /* \"#utility.yul\":591:596   */\n      0x00\n        /* \"#utility.yul\":629:635   */\n      dup2\n        /* \"#utility.yul\":616:636   */\n      calldataload\n        /* \"#utility.yul\":607:636   */\n      swap1\n      pop\n        /* \"#utility.yul\":645:678   */\n      tag_173\n        /* \"#utility.yul\":672:677   */\n      dup2\n        /* \"#utility.yul\":645:678   */\n      tag_114\n      jump\t// in\n    tag_173:\n        /* \"#utility.yul\":545:684   */\n      swap3\n      swap2\n      pop\n      pop\n      jump\t// out\n        /* \"#utility.yul\":690:1019   */\n    tag_14:\n        /* \"#utility.yul\":749:755   */\n      0x00\n        /* \"#utility.yul\":798:800   */\n      0x20\n        /* \"#utility.yul\":786:795   */\n      dup3\n        /* \"#utility.yul\":777:784   */\n      dup5\n        /* \"#utility.yul\":773:796   */\n      sub\n        /* \"#utility.yul\":769:801   */\n      slt\n        /* \"#utility.yul\":766:885   */\n      iszero\n      tag_175\n      jumpi\n        /* \"#utility.yul\":804:883   */\n      tag_176\n      tag_111\n      jump\t// in\n    tag_176:\n        /* \"#utility.yul\":766:885   */\n    tag_175:\n        /* \"#utility.yul\":924:925   */\n      0x00\n        /* \"#utility.yul\":949:1002   */\n      tag_177\n        /* \"#utility.yul\":994:1001   */\n      dup5\n        /* \"#utility.yul\":985:991   */\n      dup3\n        /* \"#utility.yul\":974:983   */\n      dup6\n        /* \"#utility.yul\":970:992   */\n      add\n        /* \"#utility.yul\":949:1002   */\n      tag_115\n      jump\t// in\n    tag_177:\n        /* \"#utility.yul\":939:1002   */\n      swap2\n      pop\n        /* \"#utility.yul\":895:1012   */\n      pop\n        /* \"#utility.yul\":690:1019   */\n      swap3\n      swap2\n      pop\n      pop\n      jump\t// out\n        /* \"#utility.yul\":1025:1142   */\n    tag_116:\n        /* \"#utility.yul\":1134:1135   */\n      0x00\n        /* \"#utility.yul\":1131:1132   */\n      dup1\n        /* \"#utility.yul\":1124:1136   */\n      revert\n        /* \"#utility.yul\":1148:1265   */\n    tag_117:\n        /* \"#utility.yul\":1257:1258   */\n      0x00\n        /* \"#utility.yul\":1254:1255   */\n      dup1\n        /* \"#utility.yul\":1247:1259   */\n      revert\n        /* \"#utility.yul\":1271:1373   */\n    tag_118:\n        /* \"#utility.yul\":1312:1318   */\n      0x00\n        /* \"#utility.yul\":1363:1365   */\n      0x1f\n        /* \"#utility.yul\":1359:1366   */\n      not\n        /* \"#utility.yul\":1354:1356   */\n      0x1f\n        /* \"#utility.yul\":1347:1352   */\n      dup4\n        /* \"#utility.yul\":1343:1357   */\n      add\n        /* \"#utility.yul\":1339:1367   */\n      and\n        /* \"#utility.yul\":1329:1367   */\n      swap1\n      pop\n        /* \"#utility.yul\":1271:1373   */\n      swap2\n      swap1\n      pop\n      jump\t// out\n        /* \"#utility.yul\":1379:1559   */\n    tag_119:\n        /* \"#utility.yul\":1427:1504   */\n      0x4e487b7100000000000000000000000000000000000000000000000000000000\n        /* \"#utility.yul\":1424:1425   */\n      0x00\n        /* \"#utility.yul\":1417:1505   */\n      mstore\n        /* \"#utility.yul\":1524:1528   */\n      0x41\n        /* \"#utility.yul\":1521:1522   */\n      0x04\n        /* \"#utility.yul\":1514:1529   */\n      mstore\n        /* \"#utility.yul\":1548:1552   */\n      0x24\n        /* \"#utility.yul\":1545:1546   */\n      0x00\n        /* \"#utility.yul\":1538:1553   */\n      revert\n        /* \"#utility.yul\":1565:1846   */\n    tag_120:\n        /* \"#utility.yul\":1648:1675   */\n      tag_183\n        /* \"#utility.yul\":1670:1674   */\n      dup3\n        /* \"#utility.yul\":1648:1675   */\n      tag_118\n      jump\t// in\n    tag_183:\n        /* \"#utility.yul\":1640:1646   */\n      dup2\n        /* \"#utility.yul\":1636:1676   */\n      add\n        /* \"#utility.yul\":1778:1784   */\n      dup2\n        /* \"#utility.yul\":1766:1776   */\n      dup2\n        /* \"#utility.yul\":1763:1785   */\n      lt\n        /* \"#utility.yul\":1742:1760   */\n      0xffffffffffffffff\n        /* \"#utility.yul\":1730:1740   */\n      dup3\n        /* \"#utility.yul\":1727:1761   */\n      gt\n        /* \"#utility.yul\":1724:1786   */\n      or\n        /* \"#utility.yul\":1721:1809   */\n      iszero\n      tag_184\n      jumpi\n        /* \"#utility.yul\":1789:1807   */\n      tag_185\n      tag_119\n      jump\t// in\n    tag_185:\n        /* \"#utility.yul\":1721:1809   */\n    tag_184:\n        /* \"#utility.yul\":1829:1839   */\n      dup1\n        /* \"#utility.yul\":1825:1827   */\n      0x40\n        /* \"#utility.yul\":1818:1840   */\n      mstore\n        /* \"#utility.yul\":1608:1846   */\n      pop\n        /* \"#utility.yul\":1565:1846   */\n      pop\n      pop\n      jump\t// out\n        /* \"#utility.yul\":1852:1981   */\n    tag_121:\n        /* \"#utility.yul\":1886:1892   */\n      0x00\n        /* \"#utility.yul\":1913:1933   */\n      tag_187\n      tag_110\n      jump\t// in\n    tag_187:\n        /* \"#utility.yul\":1903:1933   */\n      swap1\n      pop\n        /* \"#utility.yul\":1942:1975   */\n      tag_188\n        /* \"#utility.yul\":1970:1974   */\n      dup3\n        /* \"#utility.yul\":1962:1968   */\n      dup3\n        /* \"#utility.yul\":1942:1975   */\n      tag_120\n      jump\t// in\n    tag_188:\n        /* \"#utility.yul\":1852:1981   */\n      swap2\n      swap1\n      pop\n      jump\t// out\n        /* \"#utility.yul\":1987:2295   */\n    tag_122:\n        /* \"#utility.yul\":2049:2053   */\n      0x00\n        /* \"#utility.yul\":2139:2157   */\n      0xffffffffffffffff\n        /* \"#utility.yul\":2131:2137   */\n      dup3\n        /* \"#utility.yul\":2128:2158   */\n      gt\n        /* \"#utility.yul\":2125:2181   */\n      iszero\n      tag_190\n      jumpi\n        /* \"#utility.yul\":2161:2179   */\n      tag_191\n      tag_119\n      jump\t// in\n    tag_191:\n        /* \"#utility.yul\":2125:2181   */\n    tag_190:\n        /* \"#utility.yul\":2199:2228   */\n      tag_192\n        /* \"#utility.yul\":2221:2227   */\n      dup3\n        /* \"#utility.yul\":2199:2228   */\n      tag_118\n      jump\t// in\n    tag_192:\n        /* \"#utility.yul\":2191:2228   */\n      swap1\n      pop\n        /* \"#utility.yul\":2283:2287   */\n      0x20\n        /* \"#utility.yul\":2277:2281   */\n      dup2\n        /* \"#utility.yul\":2273:2288   */\n      add\n        /* \"#utility.yul\":2265:2288   */\n      swap1\n      pop\n        /* \"#utility.yul\":1987:2295   */\n      swap2\n      swap1\n      pop\n      jump\t// out\n        /* \"#utility.yul\":2301:2447   */\n    tag_123:\n        /* \"#utility.yul\":2398:2404   */\n      dup3\n        /* \"#utility.yul\":2393:2396   */\n      dup2\n        /* \"#utility.yul\":2388:2391   */\n      dup4\n        /* \"#utility.yul\":2375:2405   */\n      calldatacopy\n        /* \"#utility.yul\":2439:2440   */\n      0x00\n        /* \"#utility.yul\":2430:2436   */\n      dup4\n        /* \"#utility.yul\":2425:2428   */\n      dup4\n        /* \"#utility.yul\":2421:2437   */\n      add\n        /* \"#utility.yul\":2414:2441   */\n      mstore\n        /* \"#utility.yul\":2301:2447   */\n      pop\n      pop\n      pop\n      jump\t// out\n        /* \"#utility.yul\":2453:2878   */\n    tag_124:\n        /* \"#utility.yul\":2531:2536   */\n      0x00\n        /* \"#utility.yul\":2556:2622   */\n      tag_195\n        /* \"#utility.yul\":2572:2621   */\n      tag_196\n        /* \"#utility.yul\":2614:2620   */\n      dup5\n        /* \"#utility.yul\":2572:2621   */\n      tag_122\n      jump\t// in\n    tag_196:\n        /* \"#utility.yul\":2556:2622   */\n      tag_121\n      jump\t// in\n    tag_195:\n        /* \"#utility.yul\":2547:2622   */\n      swap1\n      pop\n        /* \"#utility.yul\":2645:2651   */\n      dup3\n        /* \"#utility.yul\":2638:2643   */\n      dup2\n        /* \"#utility.yul\":2631:2652   */\n      mstore\n        /* \"#utility.yul\":2683:2687   */\n      0x20\n        /* \"#utility.yul\":2676:2681   */\n      dup2\n        /* \"#utility.yul\":2672:2688   */\n      add\n        /* \"#utility.yul\":2721:2724   */\n      dup5\n        /* \"#utility.yul\":2712:2718   */\n      dup5\n        /* \"#utility.yul\":2707:2710   */\n      dup5\n        /* \"#utility.yul\":2703:2719   */\n      add\n        /* \"#utility.yul\":2700:2725   */\n      gt\n        /* \"#utility.yul\":2697:2809   */\n      iszero\n      tag_197\n      jumpi\n        /* \"#utility.yul\":2728:2807   */\n      tag_198\n      tag_117\n      jump\t// in\n    tag_198:\n        /* \"#utility.yul\":2697:2809   */\n    tag_197:\n        /* \"#utility.yul\":2818:2872   */\n      tag_199\n        /* \"#utility.yul\":2865:2871   */\n      dup5\n        /* \"#utility.yul\":2860:2863   */\n      dup3\n        /* \"#utility.yul\":2855:2858   */\n      dup6\n        /* \"#utility.yul\":2818:2872   */\n      tag_123\n      jump\t// in\n    tag_199:\n        /* \"#utility.yul\":2537:2878   */\n      pop\n        /* \"#utility.yul\":2453:2878   */\n      swap4\n      swap3\n      pop\n      pop\n      pop\n      jump\t// out\n        /* \"#utility.yul\":2898:3238   */\n    tag_125:\n        /* \"#utility.yul\":2954:2959   */\n      0x00\n        /* \"#utility.yul\":3003:3006   */\n      dup3\n        /* \"#utility.yul\":2996:3000   */\n      0x1f\n        /* \"#utility.yul\":2988:2994   */\n      dup4\n        /* \"#utility.yul\":2984:3001   */\n      add\n        /* \"#utility.yul\":2980:3007   */\n      slt\n        /* \"#utility.yul\":2970:3092   */\n      tag_201\n      jumpi\n        /* \"#utility.yul\":3011:3090   */\n      tag_202\n      tag_116\n      jump\t// in\n    tag_202:\n        /* \"#utility.yul\":2970:3092   */\n    tag_201:\n        /* \"#utility.yul\":3128:3134   */\n      dup2\n        /* \"#utility.yul\":3115:3135   */\n      calldataload\n        /* \"#utility.yul\":3153:3232   */\n      tag_203\n        /* \"#utility.yul\":3228:3231   */\n      dup5\n        /* \"#utility.yul\":3220:3226   */\n      dup3\n        /* \"#utility.yul\":3213:3217   */\n      0x20\n        /* \"#utility.yul\":3205:3211   */\n      dup7\n        /* \"#utility.yul\":3201:3218   */\n      add\n        /* \"#utility.yul\":3153:3232   */\n      tag_124\n      jump\t// in\n    tag_203:\n        /* \"#utility.yul\":3144:3232   */\n      swap2\n      pop\n        /* \"#utility.yul\":2960:3238   */\n      pop\n        /* \"#utility.yul\":2898:3238   */\n      swap3\n      swap2\n      pop\n      pop\n      jump\t// out\n        /* \"#utility.yul\":3244:4043   */\n    tag_27:\n        /* \"#utility.yul\":3331:3337   */\n      0x00\n        /* \"#utility.yul\":3339:3345   */\n      dup1\n        /* \"#utility.yul\":3347:3353   */\n      0x00\n        /* \"#utility.yul\":3396:3398   */\n      0x60\n        /* \"#utility.yul\":3384:3393   */\n      dup5\n        /* \"#utility.yul\":3375:3382   */\n      dup7\n        /* \"#utility.yul\":3371:3394   */\n      sub\n        /* \"#utility.yul\":3367:3399   */\n      slt\n        /* \"#utility.yul\":3364:3483   */\n      iszero\n      tag_205\n      jumpi\n        /* \"#utility.yul\":3402:3481   */\n      tag_206\n      tag_111\n      jump\t// in\n    tag_206:\n        /* \"#utility.yul\":3364:3483   */\n    tag_205:\n        /* \"#utility.yul\":3550:3551   */\n      0x00\n        /* \"#utility.yul\":3539:3548   */\n      dup5\n        /* \"#utility.yul\":3535:3552   */\n      add\n        /* \"#utility.yul\":3522:3553   */\n      calldataload\n        /* \"#utility.yul\":3580:3598   */\n      0xffffffffffffffff\n        /* \"#utility.yul\":3572:3578   */\n      dup2\n        /* \"#utility.yul\":3569:3599   */\n      gt\n        /* \"#utility.yul\":3566:3683   */\n      iszero\n      tag_207\n      jumpi\n        /* \"#utility.yul\":3602:3681   */\n      tag_208\n      tag_112\n      jump\t// in\n    tag_208:\n        /* \"#utility.yul\":3566:3683   */\n    tag_207:\n        /* \"#utility.yul\":3707:3770   */\n      tag_209\n        /* \"#utility.yul\":3762:3769   */\n      dup7\n        /* \"#utility.yul\":3753:3759   */\n      dup3\n        /* \"#utility.yul\":3742:3751   */\n      dup8\n        /* \"#utility.yul\":3738:3760   */\n      add\n        /* \"#utility.yul\":3707:3770   */\n      tag_125\n      jump\t// in\n    tag_209:\n        /* \"#utility.yul\":3697:3770   */\n      swap4\n      pop\n        /* \"#utility.yul\":3493:3780   */\n      pop\n        /* \"#utility.yul\":3819:3821   */\n      0x20\n        /* \"#utility.yul\":3845:3898   */\n      tag_210\n        /* \"#utility.yul\":3890:3897   */\n      dup7\n        /* \"#utility.yul\":3881:3887   */\n      dup3\n        /* \"#utility.yul\":3870:3879   */\n      dup8\n        /* \"#utility.yul\":3866:3888   */\n      add\n        /* \"#utility.yul\":3845:3898   */\n      tag_115\n      jump\t// in\n    tag_210:\n        /* \"#utility.yul\":3835:3898   */\n      swap3\n      pop\n        /* \"#utility.yul\":3790:3908   */\n      pop\n        /* \"#utility.yul\":3947:3949   */\n      0x40\n        /* \"#utility.yul\":3973:4026   */\n      tag_211\n        /* \"#utility.yul\":4018:4025   */\n      dup7\n        /* \"#utility.yul\":4009:4015   */\n      dup3\n        /* \"#utility.yul\":3998:4007   */\n      dup8\n        /* \"#utility.yul\":3994:4016   */\n      add\n        /* \"#utility.yul\":3973:4026   */\n      tag_115\n      jump\t// in\n    tag_211:\n        /* \"#utility.yul\":3963:4026   */\n      swap2\n      pop\n        /* \"#utility.yul\":3918:4036   */\n      pop\n        /* \"#utility.yul\":3244:4043   */\n      swap3\n      pop\n      swap3\n      pop\n      swap3\n      jump\t// out\n        /* \"#utility.yul\":4049:4175   */\n    tag_126:\n        /* \"#utility.yul\":4086:4093   */\n      0x00\n        /* \"#utility.yul\":4126:4168   */\n      0xffffffffffffffffffffffffffffffffffffffff\n        /* \"#utility.yul\":4119:4124   */\n      dup3\n        /* \"#utility.yul\":4115:4169   */\n      and\n        /* \"#utility.yul\":4104:4169   */\n      swap1\n      pop\n        /* \"#utility.yul\":4049:4175   */\n      swap2\n      swap1\n      pop\n      jump\t// out\n        /* \"#utility.yul\":4181:4277   */\n    tag_127:\n        /* \"#utility.yul\":4218:4225   */\n      0x00\n        /* \"#utility.yul\":4247:4271   */\n      tag_214\n        /* \"#utility.yul\":4265:4270   */\n      dup3\n        /* \"#utility.yul\":4247:4271   */\n      tag_126\n      jump\t// in\n    tag_214:\n        /* \"#utility.yul\":4236:4271   */\n      swap1\n      pop\n        /* \"#utility.yul\":4181:4277   */\n      swap2\n      swap1\n      pop\n      jump\t// out\n        /* \"#utility.yul\":4283:4401   */\n    tag_128:\n        /* \"#utility.yul\":4370:4394   */\n      tag_216\n        /* \"#utility.yul\":4388:4393   */\n      dup2\n        /* \"#utility.yul\":4370:4394   */\n      tag_127\n      jump\t// in\n    tag_216:\n        /* \"#utility.yul\":4365:4368   */\n      dup3\n        /* \"#utility.yul\":4358:4395   */\n      mstore\n        /* \"#utility.yul\":4283:4401   */\n      pop\n      pop\n      jump\t// out\n        /* \"#utility.yul\":4407:4629   */\n    tag_36:\n        /* \"#utility.yul\":4500:4504   */\n      0x00\n        /* \"#utility.yul\":4538:4540   */\n      0x20\n        /* \"#utility.yul\":4527:4536   */\n      dup3\n        /* \"#utility.yul\":4523:4541   */\n      add\n        /* \"#utility.yul\":4515:4541   */\n      swap1\n      pop\n        /* \"#utility.yul\":4551:4622   */\n      tag_218\n        /* \"#utility.yul\":4619:4620   */\n      0x00\n        /* \"#utility.yul\":4608:4617   */\n      dup4\n        /* \"#utility.yul\":4604:4621   */\n      add\n        /* \"#utility.yul\":4595:4601   */\n      dup5\n        /* \"#utility.yul\":4551:4622   */\n      tag_128\n      jump\t// in\n    tag_218:\n        /* \"#utility.yul\":4407:4629   */\n      swap3\n      swap2\n      pop\n      pop\n      jump\t// out\n        /* \"#utility.yul\":4635:4734   */\n    tag_129:\n        /* \"#utility.yul\":4687:4693   */\n      0x00\n        /* \"#utility.yul\":4721:4726   */\n      dup2\n        /* \"#utility.yul\":4715:4727   */\n      mload\n        /* \"#utility.yul\":4705:4727   */\n      swap1\n      pop\n        /* \"#utility.yul\":4635:4734   */\n      swap2\n      swap1\n      pop\n      jump\t// out\n        /* \"#utility.yul\":4740:4909   */\n    tag_130:\n        /* \"#utility.yul\":4824:4835   */\n      0x00\n        /* \"#utility.yul\":4858:4864   */\n      dup3\n        /* \"#utility.yul\":4853:4856   */\n      dup3\n        /* \"#utility.yul\":4846:4865   */\n      mstore\n        /* \"#utility.yul\":4898:4902   */\n      0x20\n        /* \"#utility.yul\":4893:4896   */\n      dup3\n        /* \"#utility.yul\":4889:4903   */\n      add\n        /* \"#utility.yul\":4874:4903   */\n      swap1\n      pop\n        /* \"#utility.yul\":4740:4909   */\n      swap3\n      swap2\n      pop\n      pop\n      jump\t// out\n        /* \"#utility.yul\":4915:5161   */\n    tag_131:\n        /* \"#utility.yul\":4996:4997   */\n      0x00\n        /* \"#utility.yul\":5006:5119   */\n    tag_222:\n        /* \"#utility.yul\":5020:5026   */\n      dup4\n        /* \"#utility.yul\":5017:5018   */\n      dup2\n        /* \"#utility.yul\":5014:5027   */\n      lt\n        /* \"#utility.yul\":5006:5119   */\n      iszero\n      tag_224\n      jumpi\n        /* \"#utility.yul\":5105:5106   */\n      dup1\n        /* \"#utility.yul\":5100:5103   */\n      dup3\n        /* \"#utility.yul\":5096:5107   */\n      add\n        /* \"#utility.yul\":5090:5108   */\n      mload\n        /* \"#utility.yul\":5086:5087   */\n      dup2\n        /* \"#utility.yul\":5081:5084   */\n      dup5\n        /* \"#utility.yul\":5077:5088   */\n      add\n        /* \"#utility.yul\":5070:5109   */\n      mstore\n        /* \"#utility.yul\":5042:5044   */\n      0x20\n        /* \"#utility.yul\":5039:5040   */\n      dup2\n        /* \"#utility.yul\":5035:5045   */\n      add\n        /* \"#utility.yul\":5030:5045   */\n      swap1\n      pop\n        /* \"#utility.yul\":5006:5119   */\n      jump(tag_222)\n    tag_224:\n        /* \"#utility.yul\":5153:5154   */\n      0x00\n        /* \"#utility.yul\":5144:5150   */\n      dup5\n        /* \"#utility.yul\":5139:5142   */\n      dup5\n        /* \"#utility.yul\":5135:5151   */\n      add\n        /* \"#utility.yul\":5128:5155   */\n      mstore\n        /* \"#utility.yul\":4977:5161   */\n      pop\n        /* \"#utility.yul\":4915:5161   */\n      pop\n      pop\n      pop\n      jump\t// out\n        /* \"#utility.yul\":5167:5544   */\n    tag_132:\n        /* \"#utility.yul\":5255:5258   */\n      0x00\n        /* \"#utility.yul\":5283:5322   */\n      tag_226\n        /* \"#utility.yul\":5316:5321   */\n      dup3\n        /* \"#utility.yul\":5283:5322   */\n      tag_129\n      jump\t// in\n    tag_226:\n        /* \"#utility.yul\":5338:5409   */\n      tag_227\n        /* \"#utility.yul\":5402:5408   */\n      dup2\n        /* \"#utility.yul\":5397:5400   */\n      dup6\n        /* \"#utility.yul\":5338:5409   */\n      tag_130\n      jump\t// in\n    tag_227:\n        /* \"#utility.yul\":5331:5409   */\n      swap4\n      pop\n        /* \"#utility.yul\":5418:5483   */\n      tag_228\n        /* \"#utility.yul\":5476:5482   */\n      dup2\n        /* \"#utility.yul\":5471:5474   */\n      dup6\n        /* \"#utility.yul\":5464:5468   */\n      0x20\n        /* \"#utility.yul\":5457:5462   */\n      dup7\n        /* \"#utility.yul\":5453:5469   */\n      add\n        /* \"#utility.yul\":5418:5483   */\n      tag_131\n      jump\t// in\n    tag_228:\n        /* \"#utility.yul\":5508:5537   */\n      tag_229\n        /* \"#utility.yul\":5530:5536   */\n      dup2\n        /* \"#utility.yul\":5508:5537   */\n      tag_118\n      jump\t// in\n    tag_229:\n        /* \"#utility.yul\":5503:5506   */\n      dup5\n        /* \"#utility.yul\":5499:5538   */\n      add\n        /* \"#utility.yul\":5492:5538   */\n      swap2\n      pop\n        /* \"#utility.yul\":5259:5544   */\n      pop\n        /* \"#utility.yul\":5167:5544   */\n      swap3\n      swap2\n      pop\n      pop\n      jump\t// out\n        /* \"#utility.yul\":5550:5668   */\n    tag_133:\n        /* \"#utility.yul\":5637:5661   */\n      tag_231\n        /* \"#utility.yul\":5655:5660   */\n      dup2\n        /* \"#utility.yul\":5637:5661   */\n      tag_113\n      jump\t// in\n    tag_231:\n        /* \"#utility.yul\":5632:5635   */\n      dup3\n        /* \"#utility.yul\":5625:5662   */\n      mstore\n        /* \"#utility.yul\":5550:5668   */\n      pop\n      pop\n      jump\t// out\n        /* \"#utility.yul\":5674:5764   */\n    tag_134:\n        /* \"#utility.yul\":5708:5715   */\n      0x00\n        /* \"#utility.yul\":5751:5756   */\n      dup2\n        /* \"#utility.yul\":5744:5757   */\n      iszero\n        /* \"#utility.yul\":5737:5758   */\n      iszero\n        /* \"#utility.yul\":5726:5758   */\n      swap1\n      pop\n        /* \"#utility.yul\":5674:5764   */\n      swap2\n      swap1\n      pop\n      jump\t// out\n        /* \"#utility.yul\":5770:5879   */\n    tag_135:\n        /* \"#utility.yul\":5851:5872   */\n      tag_234\n        /* \"#utility.yul\":5866:5871   */\n      dup2\n        /* \"#utility.yul\":5851:5872   */\n      tag_134\n      jump\t// in\n    tag_234:\n        /* \"#utility.yul\":5846:5849   */\n      dup3\n        /* \"#utility.yul\":5839:5873   */\n      mstore\n        /* \"#utility.yul\":5770:5879   */\n      pop\n      pop\n      jump\t// out\n        /* \"#utility.yul\":5885:6838   */\n    tag_42:\n        /* \"#utility.yul\":6154:6158   */\n      0x00\n        /* \"#utility.yul\":6192:6195   */\n      0xe0\n        /* \"#utility.yul\":6181:6190   */\n      dup3\n        /* \"#utility.yul\":6177:6196   */\n      add\n        /* \"#utility.yul\":6169:6196   */\n      swap1\n      pop\n        /* \"#utility.yul\":6206:6277   */\n      tag_236\n        /* \"#utility.yul\":6274:6275   */\n      0x00\n        /* \"#utility.yul\":6263:6272   */\n      dup4\n        /* \"#utility.yul\":6259:6276   */\n      add\n        /* \"#utility.yul\":6250:6256   */\n      dup11\n        /* \"#utility.yul\":6206:6277   */\n      tag_128\n      jump\t// in\n    tag_236:\n        /* \"#utility.yul\":6324:6333   */\n      dup2\n        /* \"#utility.yul\":6318:6322   */\n      dup2\n        /* \"#utility.yul\":6314:6334   */\n      sub\n        /* \"#utility.yul\":6309:6311   */\n      0x20\n        /* \"#utility.yul\":6298:6307   */\n      dup4\n        /* \"#utility.yul\":6294:6312   */\n      add\n        /* \"#utility.yul\":6287:6335   */\n      mstore\n        /* \"#utility.yul\":6352:6430   */\n      tag_237\n        /* \"#utility.yul\":6425:6429   */\n      dup2\n        /* \"#utility.yul\":6416:6422   */\n      dup10\n        /* \"#utility.yul\":6352:6430   */\n      tag_132\n      jump\t// in\n    tag_237:\n        /* \"#utility.yul\":6344:6430   */\n      swap1\n      pop\n        /* \"#utility.yul\":6440:6512   */\n      tag_238\n        /* \"#utility.yul\":6508:6510   */\n      0x40\n        /* \"#utility.yul\":6497:6506   */\n      dup4\n        /* \"#utility.yul\":6493:6511   */\n      add\n        /* \"#utility.yul\":6484:6490   */\n      dup9\n        /* \"#utility.yul\":6440:6512   */\n      tag_133\n      jump\t// in\n    tag_238:\n        /* \"#utility.yul\":6522:6594   */\n      tag_239\n        /* \"#utility.yul\":6590:6592   */\n      0x60\n        /* \"#utility.yul\":6579:6588   */\n      dup4\n        /* \"#utility.yul\":6575:6593   */\n      add\n        /* \"#utility.yul\":6566:6572   */\n      dup8\n        /* \"#utility.yul\":6522:6594   */\n      tag_133\n      jump\t// in\n    tag_239:\n        /* \"#utility.yul\":6604:6677   */\n      tag_240\n        /* \"#utility.yul\":6672:6675   */\n      0x80\n        /* \"#utility.yul\":6661:6670   */\n      dup4\n        /* \"#utility.yul\":6657:6676   */\n      add\n        /* \"#utility.yul\":6648:6654   */\n      dup7\n        /* \"#utility.yul\":6604:6677   */\n      tag_133\n      jump\t// in\n    tag_240:\n        /* \"#utility.yul\":6687:6754   */\n      tag_241\n        /* \"#utility.yul\":6749:6752   */\n      0xa0\n        /* \"#utility.yul\":6738:6747   */\n      dup4\n        /* \"#utility.yul\":6734:6753   */\n      add\n        /* \"#utility.yul\":6725:6731   */\n      dup6\n        /* \"#utility.yul\":6687:6754   */\n      tag_135\n      jump\t// in\n    tag_241:\n        /* \"#utility.yul\":6764:6831   */\n      tag_242\n        /* \"#utility.yul\":6826:6829   */\n      0xc0\n        /* \"#utility.yul\":6815:6824   */\n      dup4\n        /* \"#utility.yul\":6811:6830   */\n      add\n        /* \"#utility.yul\":6802:6808   */\n      dup5\n        /* \"#utility.yul\":6764:6831   */\n      tag_135\n      jump\t// in\n    tag_242:\n        /* \"#utility.yul\":5885:6838   */\n      swap9\n      swap8\n      pop\n      pop\n      pop\n      pop\n      pop\n      pop\n      pop\n      pop\n      jump\t// out\n        /* \"#utility.yul\":6844:7066   */\n    tag_47:\n        /* \"#utility.yul\":6937:6941   */\n      0x00\n        /* \"#utility.yul\":6975:6977   */\n      0x20\n        /* \"#utility.yul\":6964:6973   */\n      dup3\n        /* \"#utility.yul\":6960:6978   */\n      add\n        /* \"#utility.yul\":6952:6978   */\n      swap1\n      pop\n        /* \"#utility.yul\":6988:7059   */\n      tag_244\n        /* \"#utility.yul\":7056:7057   */\n      0x00\n        /* \"#utility.yul\":7045:7054   */\n      dup4\n        /* \"#utility.yul\":7041:7058   */\n      add\n        /* \"#utility.yul\":7032:7038   */\n      dup5\n        /* \"#utility.yul\":6988:7059   */\n      tag_133\n      jump\t// in\n    tag_244:\n        /* \"#utility.yul\":6844:7066   */\n      swap3\n      swap2\n      pop\n      pop\n      jump\t// out\n        /* \"#utility.yul\":7072:7245   */\n    tag_136:\n        /* \"#utility.yul\":7212:7237   */\n      0x4e6f207265717565737420746f2077697468647261776e000000000000000000\n        /* \"#utility.yul\":7208:7209   */\n      0x00\n        /* \"#utility.yul\":7200:7206   */\n      dup3\n        /* \"#utility.yul\":7196:7210   */\n      add\n        /* \"#utility.yul\":7189:7238   */\n      mstore\n        /* \"#utility.yul\":7072:7245   */\n      pop\n      jump\t// out\n        /* \"#utility.yul\":7251:7617   */\n    tag_137:\n        /* \"#utility.yul\":7393:7396   */\n      0x00\n        /* \"#utility.yul\":7414:7481   */\n      tag_247\n        /* \"#utility.yul\":7478:7480   */\n      0x17\n        /* \"#utility.yul\":7473:7476   */\n      dup4\n        /* \"#utility.yul\":7414:7481   */\n      tag_130\n      jump\t// in\n    tag_247:\n        /* \"#utility.yul\":7407:7481   */\n      swap2\n      pop\n        /* \"#utility.yul\":7490:7583   */\n      tag_248\n        /* \"#utility.yul\":7579:7582   */\n      dup3\n        /* \"#utility.yul\":7490:7583   */\n      tag_136\n      jump\t// in\n    tag_248:\n        /* \"#utility.yul\":7608:7610   */\n      0x20\n        /* \"#utility.yul\":7603:7606   */\n      dup3\n        /* \"#utility.yul\":7599:7611   */\n      add\n        /* \"#utility.yul\":7592:7611   */\n      swap1\n      pop\n        /* \"#utility.yul\":7251:7617   */\n      swap2\n      swap1\n      pop\n      jump\t// out\n        /* \"#utility.yul\":7623:8042   */\n    tag_53:\n        /* \"#utility.yul\":7789:7793   */\n      0x00\n        /* \"#utility.yul\":7827:7829   */\n      0x20\n        /* \"#utility.yul\":7816:7825   */\n      dup3\n        /* \"#utility.yul\":7812:7830   */\n      add\n        /* \"#utility.yul\":7804:7830   */\n      swap1\n      pop\n        /* \"#utility.yul\":7876:7885   */\n      dup2\n        /* \"#utility.yul\":7870:7874   */\n      dup2\n        /* \"#utility.yul\":7866:7886   */\n      sub\n        /* \"#utility.yul\":7862:7863   */\n      0x00\n        /* \"#utility.yul\":7851:7860   */\n      dup4\n        /* \"#utility.yul\":7847:7864   */\n      add\n        /* \"#utility.yul\":7840:7887   */\n      mstore\n        /* \"#utility.yul\":7904:8035   */\n      tag_250\n        /* \"#utility.yul\":8030:8034   */\n      dup2\n        /* \"#utility.yul\":7904:8035   */\n      tag_137\n      jump\t// in\n    tag_250:\n        /* \"#utility.yul\":7896:8035   */\n      swap1\n      pop\n        /* \"#utility.yul\":7623:8042   */\n      swap2\n      swap1\n      pop\n      jump\t// out\n        /* \"#utility.yul\":8048:8195   */\n    tag_138:\n        /* \"#utility.yul\":8149:8160   */\n      0x00\n        /* \"#utility.yul\":8186:8189   */\n      dup2\n        /* \"#utility.yul\":8171:8189   */\n      swap1\n      pop\n        /* \"#utility.yul\":8048:8195   */\n      swap3\n      swap2\n      pop\n      pop\n      jump\t// out\n        /* \"#utility.yul\":8201:8315   */\n    tag_139:\n      pop\n      jump\t// out\n        /* \"#utility.yul\":8321:8719   */\n    tag_140:\n        /* \"#utility.yul\":8480:8483   */\n      0x00\n        /* \"#utility.yul\":8501:8584   */\n      tag_254\n        /* \"#utility.yul\":8582:8583   */\n      0x00\n        /* \"#utility.yul\":8577:8580   */\n      dup4\n        /* \"#utility.yul\":8501:8584   */\n      tag_138\n      jump\t// in\n    tag_254:\n        /* \"#utility.yul\":8494:8584   */\n      swap2\n      pop\n        /* \"#utility.yul\":8593:8686   */\n      tag_255\n        /* \"#utility.yul\":8682:8685   */\n      dup3\n        /* \"#utility.yul\":8593:8686   */\n      tag_139\n      jump\t// in\n    tag_255:\n        /* \"#utility.yul\":8711:8712   */\n      0x00\n        /* \"#utility.yul\":8706:8709   */\n      dup3\n        /* \"#utility.yul\":8702:8713   */\n      add\n        /* \"#utility.yul\":8695:8713   */\n      swap1\n      pop\n        /* \"#utility.yul\":8321:8719   */\n      swap2\n      swap1\n      pop\n      jump\t// out\n        /* \"#utility.yul\":8725:9104   */\n    tag_55:\n        /* \"#utility.yul\":8909:8912   */\n      0x00\n        /* \"#utility.yul\":8931:9078   */\n      tag_257\n        /* \"#utility.yul\":9074:9077   */\n      dup3\n        /* \"#utility.yul\":8931:9078   */\n      tag_140\n      jump\t// in\n    tag_257:\n        /* \"#utility.yul\":8924:9078   */\n      swap2\n      pop\n        /* \"#utility.yul\":9095:9098   */\n      dup2\n        /* \"#utility.yul\":9088:9098   */\n      swap1\n      pop\n        /* \"#utility.yul\":8725:9104   */\n      swap2\n      swap1\n      pop\n      jump\t// out\n        /* \"#utility.yul\":9110:9275   */\n    tag_141:\n        /* \"#utility.yul\":9250:9267   */\n      0x5472616e73666572204661696c65640000000000000000000000000000000000\n        /* \"#utility.yul\":9246:9247   */\n      0x00\n        /* \"#utility.yul\":9238:9244   */\n      dup3\n        /* \"#utility.yul\":9234:9248   */\n      add\n        /* \"#utility.yul\":9227:9268   */\n      mstore\n        /* \"#utility.yul\":9110:9275   */\n      pop\n      jump\t// out\n        /* \"#utility.yul\":9281:9647   */\n    tag_142:\n        /* \"#utility.yul\":9423:9426   */\n      0x00\n        /* \"#utility.yul\":9444:9511   */\n      tag_260\n        /* \"#utility.yul\":9508:9510   */\n      0x0f\n        /* \"#utility.yul\":9503:9506   */\n      dup4\n        /* \"#utility.yul\":9444:9511   */\n      tag_130\n      jump\t// in\n    tag_260:\n        /* \"#utility.yul\":9437:9511   */\n      swap2\n      pop\n        /* \"#utility.yul\":9520:9613   */\n      tag_261\n        /* \"#utility.yul\":9609:9612   */\n      dup3\n        /* \"#utility.yul\":9520:9613   */\n      tag_141\n      jump\t// in\n    tag_261:\n        /* \"#utility.yul\":9638:9640   */\n      0x20\n        /* \"#utility.yul\":9633:9636   */\n      dup3\n        /* \"#utility.yul\":9629:9641   */\n      add\n        /* \"#utility.yul\":9622:9641   */\n      swap1\n      pop\n        /* \"#utility.yul\":9281:9647   */\n      swap2\n      swap1\n      pop\n      jump\t// out\n        /* \"#utility.yul\":9653:10072   */\n    tag_61:\n        /* \"#utility.yul\":9819:9823   */\n      0x00\n        /* \"#utility.yul\":9857:9859   */\n      0x20\n        /* \"#utility.yul\":9846:9855   */\n      dup3\n        /* \"#utility.yul\":9842:9860   */\n      add\n        /* \"#utility.yul\":9834:9860   */\n      swap1\n      pop\n        /* \"#utility.yul\":9906:9915   */\n      dup2\n        /* \"#utility.yul\":9900:9904   */\n      dup2\n        /* \"#utility.yul\":9896:9916   */\n      sub\n        /* \"#utility.yul\":9892:9893   */\n      0x00\n        /* \"#utility.yul\":9881:9890   */\n      dup4\n        /* \"#utility.yul\":9877:9894   */\n      add\n        /* \"#utility.yul\":9870:9917   */\n      mstore\n        /* \"#utility.yul\":9934:10065   */\n      tag_263\n        /* \"#utility.yul\":10060:10064   */\n      dup2\n        /* \"#utility.yul\":9934:10065   */\n      tag_142\n      jump\t// in\n    tag_263:\n        /* \"#utility.yul\":9926:10065   */\n      swap1\n      pop\n        /* \"#utility.yul\":9653:10072   */\n      swap2\n      swap1\n      pop\n      jump\t// out\n        /* \"#utility.yul\":10078:10410   */\n    tag_63:\n        /* \"#utility.yul\":10199:10203   */\n      0x00\n        /* \"#utility.yul\":10237:10239   */\n      0x40\n        /* \"#utility.yul\":10226:10235   */\n      dup3\n        /* \"#utility.yul\":10222:10240   */\n      add\n        /* \"#utility.yul\":10214:10240   */\n      swap1\n      pop\n        /* \"#utility.yul\":10250:10321   */\n      tag_265\n        /* \"#utility.yul\":10318:10319   */\n      0x00\n        /* \"#utility.yul\":10307:10316   */\n      dup4\n        /* \"#utility.yul\":10303:10320   */\n      add\n        /* \"#utility.yul\":10294:10300   */\n      dup6\n        /* \"#utility.yul\":10250:10321   */\n      tag_133\n      jump\t// in\n    tag_265:\n        /* \"#utility.yul\":10331:10403   */\n      tag_266\n        /* \"#utility.yul\":10399:10401   */\n      0x20\n        /* \"#utility.yul\":10388:10397   */\n      dup4\n        /* \"#utility.yul\":10384:10402   */\n      add\n        /* \"#utility.yul\":10375:10381   */\n      dup5\n        /* \"#utility.yul\":10331:10403   */\n      tag_128\n      jump\t// in\n    tag_266:\n        /* \"#utility.yul\":10078:10410   */\n      swap4\n      swap3\n      pop\n      pop\n      pop\n      jump\t// out\n        /* \"#utility.yul\":10416:10596   */\n    tag_72:\n        /* \"#utility.yul\":10464:10541   */\n      0x4e487b7100000000000000000000000000000000000000000000000000000000\n        /* \"#utility.yul\":10461:10462   */\n      0x00\n        /* \"#utility.yul\":10454:10542   */\n      mstore\n        /* \"#utility.yul\":10561:10565   */\n      0x32\n        /* \"#utility.yul\":10558:10559   */\n      0x04\n        /* \"#utility.yul\":10551:10566   */\n      mstore\n        /* \"#utility.yul\":10585:10589   */\n      0x24\n        /* \"#utility.yul\":10582:10583   */\n      0x00\n        /* \"#utility.yul\":10575:10590   */\n      revert\n        /* \"#utility.yul\":10602:11044   */\n    tag_81:\n        /* \"#utility.yul\":10751:10755   */\n      0x00\n        /* \"#utility.yul\":10789:10791   */\n      0x60\n        /* \"#utility.yul\":10778:10787   */\n      dup3\n        /* \"#utility.yul\":10774:10792   */\n      add\n        /* \"#utility.yul\":10766:10792   */\n      swap1\n      pop\n        /* \"#utility.yul\":10802:10873   */\n      tag_269\n        /* \"#utility.yul\":10870:10871   */\n      0x00\n        /* \"#utility.yul\":10859:10868   */\n      dup4\n        /* \"#utility.yul\":10855:10872   */\n      add\n        /* \"#utility.yul\":10846:10852   */\n      dup7\n        /* \"#utility.yul\":10802:10873   */\n      tag_133\n      jump\t// in\n    tag_269:\n        /* \"#utility.yul\":10883:10955   */\n      tag_270\n        /* \"#utility.yul\":10951:10953   */\n      0x20\n        /* \"#utility.yul\":10940:10949   */\n      dup4\n        /* \"#utility.yul\":10936:10954   */\n      add\n        /* \"#utility.yul\":10927:10933   */\n      dup6\n        /* \"#utility.yul\":10883:10955   */\n      tag_128\n      jump\t// in\n    tag_270:\n        /* \"#utility.yul\":10965:11037   */\n      tag_271\n        /* \"#utility.yul\":11033:11035   */\n      0x40\n        /* \"#utility.yul\":11022:11031   */\n      dup4\n        /* \"#utility.yul\":11018:11036   */\n      add\n        /* \"#utility.yul\":11009:11015   */\n      dup5\n        /* \"#utility.yul\":10965:11037   */\n      tag_133\n      jump\t// in\n    tag_271:\n        /* \"#utility.yul\":10602:11044   */\n      swap5\n      swap4\n      pop\n      pop\n      pop\n      pop\n      jump\t// out\n        /* \"#utility.yul\":11050:11230   */\n    tag_143:\n        /* \"#utility.yul\":11098:11175   */\n      0x4e487b7100000000000000000000000000000000000000000000000000000000\n        /* \"#utility.yul\":11095:11096   */\n      0x00\n        /* \"#utility.yul\":11088:11176   */\n      mstore\n        /* \"#utility.yul\":11195:11199   */\n      0x11\n        /* \"#utility.yul\":11192:11193   */\n      0x04\n        /* \"#utility.yul\":11185:11200   */\n      mstore\n        /* \"#utility.yul\":11219:11223   */\n      0x24\n        /* \"#utility.yul\":11216:11217   */\n      0x00\n        /* \"#utility.yul\":11209:11224   */\n      revert\n        /* \"#utility.yul\":11236:11469   */\n    tag_83:\n        /* \"#utility.yul\":11275:11278   */\n      0x00\n        /* \"#utility.yul\":11298:11322   */\n      tag_274\n        /* \"#utility.yul\":11316:11321   */\n      dup3\n        /* \"#utility.yul\":11298:11322   */\n      tag_113\n      jump\t// in\n    tag_274:\n        /* \"#utility.yul\":11289:11322   */\n      swap2\n      pop\n        /* \"#utility.yul\":11344:11410   */\n      0xffffffffffffffffffffffffffffffffffffffffffffffffffffffffffffffff\n        /* \"#utility.yul\":11337:11342   */\n      dup3\n        /* \"#utility.yul\":11334:11411   */\n      sub\n        /* \"#utility.yul\":11331:11434   */\n      tag_275\n      jumpi\n        /* \"#utility.yul\":11414:11432   */\n      tag_276\n      tag_143\n      jump\t// in\n    tag_276:\n        /* \"#utility.yul\":11331:11434   */\n    tag_275:\n        /* \"#utility.yul\":11461:11462   */\n      0x01\n        /* \"#utility.yul\":11454:11459   */\n      dup3\n        /* \"#utility.yul\":11450:11463   */\n      add\n        /* \"#utility.yul\":11443:11463   */\n      swap1\n      pop\n        /* \"#utility.yul\":11236:11469   */\n      swap2\n      swap1\n      pop\n      jump\t// out\n        /* \"#utility.yul\":11475:11651   */\n    tag_144:\n        /* \"#utility.yul\":11615:11643   */\n      0x416c72656164792077697468447261776e436f6d706c65746564000000000000\n        /* \"#utility.yul\":11611:11612   */\n      0x00\n        /* \"#utility.yul\":11603:11609   */\n      dup3\n        /* \"#utility.yul\":11599:11613   */\n      add\n        /* \"#utility.yul\":11592:11644   */\n      mstore\n        /* \"#utility.yul\":11475:11651   */\n      pop\n      jump\t// out\n        /* \"#utility.yul\":11657:12023   */\n    tag_145:\n        /* \"#utility.yul\":11799:11802   */\n      0x00\n        /* \"#utility.yul\":11820:11887   */\n      tag_279\n        /* \"#utility.yul\":11884:11886   */\n      0x1a\n        /* \"#utility.yul\":11879:11882   */\n      dup4\n        /* \"#utility.yul\":11820:11887   */\n      tag_130\n      jump\t// in\n    tag_279:\n        /* \"#utility.yul\":11813:11887   */\n      swap2\n      pop\n        /* \"#utility.yul\":11896:11989   */\n      tag_280\n        /* \"#utility.yul\":11985:11988   */\n      dup3\n        /* \"#utility.yul\":11896:11989   */\n      tag_144\n      jump\t// in\n    tag_280:\n        /* \"#utility.yul\":12014:12016   */\n      0x20\n        /* \"#utility.yul\":12009:12012   */\n      dup3\n        /* \"#utility.yul\":12005:12017   */\n      add\n        /* \"#utility.yul\":11998:12017   */\n      swap1\n      pop\n        /* \"#utility.yul\":11657:12023   */\n      swap2\n      swap1\n      pop\n      jump\t// out\n        /* \"#utility.yul\":12029:12448   */\n    tag_87:\n        /* \"#utility.yul\":12195:12199   */\n      0x00\n        /* \"#utility.yul\":12233:12235   */\n      0x20\n        /* \"#utility.yul\":12222:12231   */\n      dup3\n        /* \"#utility.yul\":12218:12236   */\n      add\n        /* \"#utility.yul\":12210:12236   */\n      swap1\n      pop\n        /* \"#utility.yul\":12282:12291   */\n      dup2\n        /* \"#utility.yul\":12276:12280   */\n      dup2\n        /* \"#utility.yul\":12272:12292   */\n      sub\n        /* \"#utility.yul\":12268:12269   */\n      0x00\n        /* \"#utility.yul\":12257:12266   */\n      dup4\n        /* \"#utility.yul\":12253:12270   */\n      add\n        /* \"#utility.yul\":12246:12293   */\n      mstore\n        /* \"#utility.yul\":12310:12441   */\n      tag_282\n        /* \"#utility.yul\":12436:12440   */\n      dup2\n        /* \"#utility.yul\":12310:12441   */\n      tag_145\n      jump\t// in\n    tag_282:\n        /* \"#utility.yul\":12302:12441   */\n      swap1\n      pop\n        /* \"#utility.yul\":12029:12448   */\n      swap2\n      swap1\n      pop\n      jump\t// out\n        /* \"#utility.yul\":12454:12680   */\n    tag_146:\n        /* \"#utility.yul\":12594:12628   */\n      0x4f6e6c79206f776e65722063616e206d616b65207265717565737420746f2077\n        /* \"#utility.yul\":12590:12591   */\n      0x00\n        /* \"#utility.yul\":12582:12588   */\n      dup3\n        /* \"#utility.yul\":12578:12592   */\n      add\n        /* \"#utility.yul\":12571:12629   */\n      mstore\n        /* \"#utility.yul\":12663:12672   */\n      0x6974686472617700000000000000000000000000000000000000000000000000\n        /* \"#utility.yul\":12658:12660   */\n      0x20\n        /* \"#utility.yul\":12650:12656   */\n      dup3\n        /* \"#utility.yul\":12646:12661   */\n      add\n        /* \"#utility.yul\":12639:12673   */\n      mstore\n        /* \"#utility.yul\":12454:12680   */\n      pop\n      jump\t// out\n        /* \"#utility.yul\":12686:13052   */\n    tag_147:\n        /* \"#utility.yul\":12828:12831   */\n      0x00\n        /* \"#utility.yul\":12849:12916   */\n      tag_285\n        /* \"#utility.yul\":12913:12915   */\n      0x27\n        /* \"#utility.yul\":12908:12911   */\n      dup4\n        /* \"#utility.yul\":12849:12916   */\n      tag_130\n      jump\t// in\n    tag_285:\n        /* \"#utility.yul\":12842:12916   */\n      swap2\n      pop\n        /* \"#utility.yul\":12925:13018   */\n      tag_286\n        /* \"#utility.yul\":13014:13017   */\n      dup3\n        /* \"#utility.yul\":12925:13018   */\n      tag_146\n      jump\t// in\n    tag_286:\n        /* \"#utility.yul\":13043:13045   */\n      0x40\n        /* \"#utility.yul\":13038:13041   */\n      dup3\n        /* \"#utility.yul\":13034:13046   */\n      add\n        /* \"#utility.yul\":13027:13046   */\n      swap1\n      pop\n        /* \"#utility.yul\":12686:13052   */\n      swap2\n      swap1\n      pop\n      jump\t// out\n        /* \"#utility.yul\":13058:13477   */\n    tag_90:\n        /* \"#utility.yul\":13224:13228   */\n      0x00\n        /* \"#utility.yul\":13262:13264   */\n      0x20\n        /* \"#utility.yul\":13251:13260   */\n      dup3\n        /* \"#utility.yul\":13247:13265   */\n      add\n        /* \"#utility.yul\":13239:13265   */\n      swap1\n      pop\n        /* \"#utility.yul\":13311:13320   */\n      dup2\n        /* \"#utility.yul\":13305:13309   */\n      dup2\n        /* \"#utility.yul\":13301:13321   */\n      sub\n        /* \"#utility.yul\":13297:13298   */\n      0x00\n        /* \"#utility.yul\":13286:13295   */\n      dup4\n        /* \"#utility.yul\":13282:13299   */\n      add\n        /* \"#utility.yul\":13275:13322   */\n      mstore\n        /* \"#utility.yul\":13339:13470   */\n      tag_288\n        /* \"#utility.yul\":13465:13469   */\n      dup2\n        /* \"#utility.yul\":13339:13470   */\n      tag_147\n      jump\t// in\n    tag_288:\n        /* \"#utility.yul\":13331:13470   */\n      swap1\n      pop\n        /* \"#utility.yul\":13058:13477   */\n      swap2\n      swap1\n      pop\n      jump\t// out\n        /* \"#utility.yul\":13483:13663   */\n    tag_148:\n        /* \"#utility.yul\":13531:13608   */\n      0x4e487b7100000000000000000000000000000000000000000000000000000000\n        /* \"#utility.yul\":13528:13529   */\n      0x00\n        /* \"#utility.yul\":13521:13609   */\n      mstore\n        /* \"#utility.yul\":13628:13632   */\n      0x22\n        /* \"#utility.yul\":13625:13626   */\n      0x04\n        /* \"#utility.yul\":13618:13633   */\n      mstore\n        /* \"#utility.yul\":13652:13656   */\n      0x24\n        /* \"#utility.yul\":13649:13650   */\n      0x00\n        /* \"#utility.yul\":13642:13657   */\n      revert\n        /* \"#utility.yul\":13669:13989   */\n    tag_105:\n        /* \"#utility.yul\":13713:13719   */\n      0x00\n        /* \"#utility.yul\":13750:13751   */\n      0x02\n        /* \"#utility.yul\":13744:13748   */\n      dup3\n        /* \"#utility.yul\":13740:13752   */\n      div\n        /* \"#utility.yul\":13730:13752   */\n      swap1\n      pop\n        /* \"#utility.yul\":13797:13798   */\n      0x01\n        /* \"#utility.yul\":13791:13795   */\n      dup3\n        /* \"#utility.yul\":13787:13799   */\n      and\n        /* \"#utility.yul\":13818:13836   */\n      dup1\n        /* \"#utility.yul\":13808:13889   */\n      tag_291\n      jumpi\n        /* \"#utility.yul\":13874:13878   */\n      0x7f\n        /* \"#utility.yul\":13866:13872   */\n      dup3\n        /* \"#utility.yul\":13862:13879   */\n      and\n        /* \"#utility.yul\":13852:13879   */\n      swap2\n      pop\n        /* \"#utility.yul\":13808:13889   */\n    tag_291:\n        /* \"#utility.yul\":13936:13938   */\n      0x20\n        /* \"#utility.yul\":13928:13934   */\n      dup3\n        /* \"#utility.yul\":13925:13939   */\n      lt\n        /* \"#utility.yul\":13905:13923   */\n      dup2\n        /* \"#utility.yul\":13902:13940   */\n      sub\n        /* \"#utility.yul\":13899:13983   */\n      tag_292\n      jumpi\n        /* \"#utility.yul\":13955:13973   */\n      tag_293\n      tag_148\n      jump\t// in\n    tag_293:\n        /* \"#utility.yul\":13899:13983   */\n    tag_292:\n        /* \"#utility.yul\":13720:13989   */\n      pop\n        /* \"#utility.yul\":13669:13989   */\n      swap2\n      swap1\n      pop\n      jump\t// out\n        /* \"#utility.yul\":13995:14136   */\n    tag_149:\n        /* \"#utility.yul\":14044:14048   */\n      0x00\n        /* \"#utility.yul\":14067:14070   */\n      dup2\n        /* \"#utility.yul\":14059:14070   */\n      swap1\n      pop\n        /* \"#utility.yul\":14090:14093   */\n      dup2\n        /* \"#utility.yul\":14087:14088   */\n      0x00\n        /* \"#utility.yul\":14080:14094   */\n      mstore\n        /* \"#utility.yul\":14124:14128   */\n      0x20\n        /* \"#utility.yul\":14121:14122   */\n      0x00\n        /* \"#utility.yul\":14111:14129   */\n      keccak256\n        /* \"#utility.yul\":14103:14129   */\n      swap1\n      pop\n        /* \"#utility.yul\":13995:14136   */\n      swap2\n      swap1\n      pop\n      jump\t// out\n        /* \"#utility.yul\":14142:14235   */\n    tag_150:\n        /* \"#utility.yul\":14179:14185   */\n      0x00\n        /* \"#utility.yul\":14226:14228   */\n      0x20\n        /* \"#utility.yul\":14221:14223   */\n      0x1f\n        /* \"#utility.yul\":14214:14219   */\n      dup4\n        /* \"#utility.yul\":14210:14224   */\n      add\n        /* \"#utility.yul\":14206:14229   */\n      div\n        /* \"#utility.yul\":14196:14229   */\n      swap1\n      pop\n        /* \"#utility.yul\":14142:14235   */\n      swap2\n      swap1\n      pop\n      jump\t// out\n        /* \"#utility.yul\":14241:14348   */\n    tag_151:\n        /* \"#utility.yul\":14285:14293   */\n      0x00\n        /* \"#utility.yul\":14335:14340   */\n      dup3\n        /* \"#utility.yul\":14329:14333   */\n      dup3\n        /* \"#utility.yul\":14325:14341   */\n      shl\n        /* \"#utility.yul\":14304:14341   */\n      swap1\n      pop\n        /* \"#utility.yul\":14241:14348   */\n      swap3\n      swap2\n      pop\n      pop\n      jump\t// out\n        /* \"#utility.yul\":14354:14747   */\n    tag_152:\n        /* \"#utility.yul\":14423:14429   */\n      0x00\n        /* \"#utility.yul\":14473:14474   */\n      0x08\n        /* \"#utility.yul\":14461:14471   */\n      dup4\n        /* \"#utility.yul\":14457:14475   */\n      mul\n        /* \"#utility.yul\":14496:14593   */\n      tag_298\n        /* \"#utility.yul\":14526:14592   */\n      0xffffffffffffffffffffffffffffffffffffffffffffffffffffffffffffffff\n        /* \"#utility.yul\":14515:14524   */\n      dup3\n        /* \"#utility.yul\":14496:14593   */\n      tag_151\n      jump\t// in\n    tag_298:\n        /* \"#utility.yul\":14614:14653   */\n      tag_299\n        /* \"#utility.yul\":14644:14652   */\n      dup7\n        /* \"#utility.yul\":14633:14642   */\n      dup4\n        /* \"#utility.yul\":14614:14653   */\n      tag_151\n      jump\t// in\n    tag_299:\n        /* \"#utility.yul\":14602:14653   */\n      swap6\n      pop\n        /* \"#utility.yul\":14686:14690   */\n      dup1\n        /* \"#utility.yul\":14682:14691   */\n      not\n        /* \"#utility.yul\":14675:14680   */\n      dup5\n        /* \"#utility.yul\":14671:14692   */\n      and\n        /* \"#utility.yul\":14662:14692   */\n      swap4\n      pop\n        /* \"#utility.yul\":14735:14739   */\n      dup1\n        /* \"#utility.yul\":14725:14733   */\n      dup7\n        /* \"#utility.yul\":14721:14740   */\n      and\n        /* \"#utility.yul\":14714:14719   */\n      dup5\n        /* \"#utility.yul\":14711:14741   */\n      or\n        /* \"#utility.yul\":14701:14741   */\n      swap3\n      pop\n        /* \"#utility.yul\":14430:14747   */\n      pop\n      pop\n        /* \"#utility.yul\":14354:14747   */\n      swap4\n      swap3\n      pop\n      pop\n      pop\n      jump\t// out\n        /* \"#utility.yul\":14753:14813   */\n    tag_153:\n        /* \"#utility.yul\":14781:14784   */\n      0x00\n        /* \"#utility.yul\":14802:14807   */\n      dup2\n        /* \"#utility.yul\":14795:14807   */\n      swap1\n      pop\n        /* \"#utility.yul\":14753:14813   */\n      swap2\n      swap1\n      pop\n      jump\t// out\n        /* \"#utility.yul\":14819:14961   */\n    tag_154:\n        /* \"#utility.yul\":14869:14878   */\n      0x00\n        /* \"#utility.yul\":14902:14955   */\n      tag_302\n        /* \"#utility.yul\":14920:14954   */\n      tag_303\n        /* \"#utility.yul\":14929:14953   */\n      tag_304\n        /* \"#utility.yul\":14947:14952   */\n      dup5\n        /* \"#utility.yul\":14929:14953   */\n      tag_113\n      jump\t// in\n    tag_304:\n        /* \"#utility.yul\":14920:14954   */\n      tag_153\n      jump\t// in\n    tag_303:\n        /* \"#utility.yul\":14902:14955   */\n      tag_113\n      jump\t// in\n    tag_302:\n        /* \"#utility.yul\":14889:14955   */\n      swap1\n      pop\n        /* \"#utility.yul\":14819:14961   */\n      swap2\n      swap1\n      pop\n      jump\t// out\n        /* \"#utility.yul\":14967:15042   */\n    tag_155:\n        /* \"#utility.yul\":15010:15013   */\n      0x00\n        /* \"#utility.yul\":15031:15036   */\n      dup2\n        /* \"#utility.yul\":15024:15036   */\n      swap1\n      pop\n        /* \"#utility.yul\":14967:15042   */\n      swap2\n      swap1\n      pop\n      jump\t// out\n        /* \"#utility.yul\":15048:15317   */\n    tag_156:\n        /* \"#utility.yul\":15158:15197   */\n      tag_307\n        /* \"#utility.yul\":15189:15196   */\n      dup4\n        /* \"#utility.yul\":15158:15197   */\n      tag_154\n      jump\t// in\n    tag_307:\n        /* \"#utility.yul\":15219:15310   */\n      tag_308\n        /* \"#utility.yul\":15268:15309   */\n      tag_309\n        /* \"#utility.yul\":15292:15308   */\n      dup3\n        /* \"#utility.yul\":15268:15309   */\n      tag_155\n      jump\t// in\n    tag_309:\n        /* \"#utility.yul\":15260:15266   */\n      dup5\n        /* \"#utility.yul\":15253:15257   */\n      dup5\n        /* \"#utility.yul\":15247:15258   */\n      sload\n        /* \"#utility.yul\":15219:15310   */\n      tag_152\n      jump\t// in\n    tag_308:\n        /* \"#utility.yul\":15213:15217   */\n      dup3\n        /* \"#utility.yul\":15206:15311   */\n      sstore\n        /* \"#utility.yul\":15124:15317   */\n      pop\n        /* \"#utility.yul\":15048:15317   */\n      pop\n      pop\n      pop\n      jump\t// out\n        /* \"#utility.yul\":15323:15396   */\n    tag_157:\n        /* \"#utility.yul\":15368:15371   */\n      0x00\n        /* \"#utility.yul\":15323:15396   */\n      swap1\n      jump\t// out\n        /* \"#utility.yul\":15402:15591   */\n    tag_158:\n        /* \"#utility.yul\":15479:15511   */\n      tag_312\n      tag_157\n      jump\t// in\n    tag_312:\n        /* \"#utility.yul\":15520:15585   */\n      tag_313\n        /* \"#utility.yul\":15578:15584   */\n      dup2\n        /* \"#utility.yul\":15570:15576   */\n      dup5\n        /* \"#utility.yul\":15564:15568   */\n      dup5\n        /* \"#utility.yul\":15520:15585   */\n      tag_156\n      jump\t// in\n    tag_313:\n        /* \"#utility.yul\":15455:15591   */\n      pop\n        /* \"#utility.yul\":15402:15591   */\n      pop\n      pop\n      jump\t// out\n        /* \"#utility.yul\":15597:15783   */\n    tag_159:\n        /* \"#utility.yul\":15657:15777   */\n    tag_315:\n        /* \"#utility.yul\":15674:15677   */\n      dup2\n        /* \"#utility.yul\":15667:15672   */\n      dup2\n        /* \"#utility.yul\":15664:15678   */\n      lt\n        /* \"#utility.yul\":15657:15777   */\n      iszero\n      tag_317\n      jumpi\n        /* \"#utility.yul\":15728:15767   */\n      tag_318\n        /* \"#utility.yul\":15765:15766   */\n      0x00\n        /* \"#utility.yul\":15758:15763   */\n      dup3\n        /* \"#utility.yul\":15728:15767   */\n      tag_158\n      jump\t// in\n    tag_318:\n        /* \"#utility.yul\":15701:15702   */\n      0x01\n        /* \"#utility.yul\":15694:15699   */\n      dup2\n        /* \"#utility.yul\":15690:15703   */\n      add\n        /* \"#utility.yul\":15681:15703   */\n      swap1\n      pop\n        /* \"#utility.yul\":15657:15777   */\n      jump(tag_315)\n    tag_317:\n        /* \"#utility.yul\":15597:15783   */\n      pop\n      pop\n      jump\t// out\n        /* \"#utility.yul\":15789:16332   */\n    tag_160:\n        /* \"#utility.yul\":15890:15892   */\n      0x1f\n        /* \"#utility.yul\":15885:15888   */\n      dup3\n        /* \"#utility.yul\":15882:15893   */\n      gt\n        /* \"#utility.yul\":15879:16325   */\n      iszero\n      tag_320\n      jumpi\n        /* \"#utility.yul\":15924:15962   */\n      tag_321\n        /* \"#utility.yul\":15956:15961   */\n      dup2\n        /* \"#utility.yul\":15924:15962   */\n      tag_149\n      jump\t// in\n    tag_321:\n        /* \"#utility.yul\":16008:16037   */\n      tag_322\n        /* \"#utility.yul\":16026:16036   */\n      dup5\n        /* \"#utility.yul\":16008:16037   */\n      tag_150\n      jump\t// in\n    tag_322:\n        /* \"#utility.yul\":15998:16006   */\n      dup2\n        /* \"#utility.yul\":15994:16038   */\n      add\n        /* \"#utility.yul\":16191:16193   */\n      0x20\n        /* \"#utility.yul\":16179:16189   */\n      dup6\n        /* \"#utility.yul\":16176:16194   */\n      lt\n        /* \"#utility.yul\":16173:16222   */\n      iszero\n      tag_323\n      jumpi\n        /* \"#utility.yul\":16212:16220   */\n      dup2\n        /* \"#utility.yul\":16197:16220   */\n      swap1\n      pop\n        /* \"#utility.yul\":16173:16222   */\n    tag_323:\n        /* \"#utility.yul\":16235:16315   */\n      tag_324\n        /* \"#utility.yul\":16291:16313   */\n      tag_325\n        /* \"#utility.yul\":16309:16312   */\n      dup6\n        /* \"#utility.yul\":16291:16313   */\n      tag_150\n      jump\t// in\n    tag_325:\n        /* \"#utility.yul\":16281:16289   */\n      dup4\n        /* \"#utility.yul\":16277:16314   */\n      add\n        /* \"#utility.yul\":16264:16275   */\n      dup3\n        /* \"#utility.yul\":16235:16315   */\n      tag_159\n      jump\t// in\n    tag_324:\n        /* \"#utility.yul\":15894:16325   */\n      pop\n      pop\n        /* \"#utility.yul\":15879:16325   */\n    tag_320:\n        /* \"#utility.yul\":15789:16332   */\n      pop\n      pop\n      pop\n      jump\t// out\n        /* \"#utility.yul\":16338:16455   */\n    tag_161:\n        /* \"#utility.yul\":16392:16400   */\n      0x00\n        /* \"#utility.yul\":16442:16447   */\n      dup3\n        /* \"#utility.yul\":16436:16440   */\n      dup3\n        /* \"#utility.yul\":16432:16448   */\n      shr\n        /* \"#utility.yul\":16411:16448   */\n      swap1\n      pop\n        /* \"#utility.yul\":16338:16455   */\n      swap3\n      swap2\n      pop\n      pop\n      jump\t// out\n        /* \"#utility.yul\":16461:16630   */\n    tag_162:\n        /* \"#utility.yul\":16505:16511   */\n      0x00\n        /* \"#utility.yul\":16538:16589   */\n      tag_328\n        /* \"#utility.yul\":16586:16587   */\n      0x00\n        /* \"#utility.yul\":16582:16588   */\n      not\n        /* \"#utility.yul\":16574:16579   */\n      dup5\n        /* \"#utility.yul\":16571:16572   */\n      0x08\n        /* \"#utility.yul\":16567:16580   */\n      mul\n        /* \"#utility.yul\":16538:16589   */\n      tag_161\n      jump\t// in\n    tag_328:\n        /* \"#utility.yul\":16534:16590   */\n      not\n        /* \"#utility.yul\":16619:16623   */\n      dup1\n        /* \"#utility.yul\":16613:16617   */\n      dup4\n        /* \"#utility.yul\":16609:16624   */\n      and\n        /* \"#utility.yul\":16599:16624   */\n      swap2\n      pop\n        /* \"#utility.yul\":16512:16630   */\n      pop\n        /* \"#utility.yul\":16461:16630   */\n      swap3\n      swap2\n      pop\n      pop\n      jump\t// out\n        /* \"#utility.yul\":16635:16930   */\n    tag_163:\n        /* \"#utility.yul\":16711:16715   */\n      0x00\n        /* \"#utility.yul\":16857:16886   */\n      tag_330\n        /* \"#utility.yul\":16882:16885   */\n      dup4\n        /* \"#utility.yul\":16876:16880   */\n      dup4\n        /* \"#utility.yul\":16857:16886   */\n      tag_162\n      jump\t// in\n    tag_330:\n        /* \"#utility.yul\":16849:16886   */\n      swap2\n      pop\n        /* \"#utility.yul\":16919:16922   */\n      dup3\n        /* \"#utility.yul\":16916:16917   */\n      0x02\n        /* \"#utility.yul\":16912:16923   */\n      mul\n        /* \"#utility.yul\":16906:16910   */\n      dup3\n        /* \"#utility.yul\":16903:16924   */\n      or\n        /* \"#utility.yul\":16895:16924   */\n      swap1\n      pop\n        /* \"#utility.yul\":16635:16930   */\n      swap3\n      swap2\n      pop\n      pop\n      jump\t// out\n        /* \"#utility.yul\":16935:18330   */\n    tag_95:\n        /* \"#utility.yul\":17052:17089   */\n      tag_332\n        /* \"#utility.yul\":17085:17088   */\n      dup3\n        /* \"#utility.yul\":17052:17089   */\n      tag_129\n      jump\t// in\n    tag_332:\n        /* \"#utility.yul\":17154:17172   */\n      0xffffffffffffffff\n        /* \"#utility.yul\":17146:17152   */\n      dup2\n        /* \"#utility.yul\":17143:17173   */\n      gt\n        /* \"#utility.yul\":17140:17196   */\n      iszero\n      tag_333\n      jumpi\n        /* \"#utility.yul\":17176:17194   */\n      tag_334\n      tag_119\n      jump\t// in\n    tag_334:\n        /* \"#utility.yul\":17140:17196   */\n    tag_333:\n        /* \"#utility.yul\":17220:17258   */\n      tag_335\n        /* \"#utility.yul\":17252:17256   */\n      dup3\n        /* \"#utility.yul\":17246:17257   */\n      sload\n        /* \"#utility.yul\":17220:17258   */\n      tag_105\n      jump\t// in\n    tag_335:\n        /* \"#utility.yul\":17305:17372   */\n      tag_336\n        /* \"#utility.yul\":17365:17371   */\n      dup3\n        /* \"#utility.yul\":17357:17363   */\n      dup3\n        /* \"#utility.yul\":17351:17355   */\n      dup6\n        /* \"#utility.yul\":17305:17372   */\n      tag_160\n      jump\t// in\n    tag_336:\n        /* \"#utility.yul\":17399:17400   */\n      0x00\n        /* \"#utility.yul\":17423:17427   */\n      0x20\n        /* \"#utility.yul\":17410:17427   */\n      swap1\n      pop\n        /* \"#utility.yul\":17455:17457   */\n      0x1f\n        /* \"#utility.yul\":17447:17453   */\n      dup4\n        /* \"#utility.yul\":17444:17458   */\n      gt\n        /* \"#utility.yul\":17472:17473   */\n      0x01\n        /* \"#utility.yul\":17467:18085   */\n      dup2\n      eq\n      tag_338\n      jumpi\n        /* \"#utility.yul\":18129:18130   */\n      0x00\n        /* \"#utility.yul\":18146:18152   */\n      dup5\n        /* \"#utility.yul\":18143:18220   */\n      iszero\n      tag_339\n      jumpi\n        /* \"#utility.yul\":18195:18204   */\n      dup3\n        /* \"#utility.yul\":18190:18193   */\n      dup8\n        /* \"#utility.yul\":18186:18205   */\n      add\n        /* \"#utility.yul\":18180:18206   */\n      mload\n        /* \"#utility.yul\":18171:18206   */\n      swap1\n      pop\n        /* \"#utility.yul\":18143:18220   */\n    tag_339:\n        /* \"#utility.yul\":18246:18313   */\n      tag_340\n        /* \"#utility.yul\":18306:18312   */\n      dup6\n        /* \"#utility.yul\":18299:18304   */\n      dup3\n        /* \"#utility.yul\":18246:18313   */\n      tag_163\n      jump\t// in\n    tag_340:\n        /* \"#utility.yul\":18240:18244   */\n      dup7\n        /* \"#utility.yul\":18233:18314   */\n      sstore\n        /* \"#utility.yul\":18102:18324   */\n      pop\n        /* \"#utility.yul\":17437:18324   */\n      jump(tag_337)\n        /* \"#utility.yul\":17467:18085   */\n    tag_338:\n        /* \"#utility.yul\":17519:17523   */\n      0x1f\n        /* \"#utility.yul\":17515:17524   */\n      not\n        /* \"#utility.yul\":17507:17513   */\n      dup5\n        /* \"#utility.yul\":17503:17525   */\n      and\n        /* \"#utility.yul\":17553:17590   */\n      tag_341\n        /* \"#utility.yul\":17585:17589   */\n      dup7\n        /* \"#utility.yul\":17553:17590   */\n      tag_149\n      jump\t// in\n    tag_341:\n        /* \"#utility.yul\":17612:17613   */\n      0x00\n        /* \"#utility.yul\":17626:17834   */\n    tag_342:\n        /* \"#utility.yul\":17640:17647   */\n      dup3\n        /* \"#utility.yul\":17637:17638   */\n      dup2\n        /* \"#utility.yul\":17634:17648   */\n      lt\n        /* \"#utility.yul\":17626:17834   */\n      iszero\n      tag_344\n      jumpi\n        /* \"#utility.yul\":17719:17728   */\n      dup5\n        /* \"#utility.yul\":17714:17717   */\n      dup10\n        /* \"#utility.yul\":17710:17729   */\n      add\n        /* \"#utility.yul\":17704:17730   */\n      mload\n        /* \"#utility.yul\":17696:17702   */\n      dup3\n        /* \"#utility.yul\":17689:17731   */\n      sstore\n        /* \"#utility.yul\":17770:17771   */\n      0x01\n        /* \"#utility.yul\":17762:17768   */\n      dup3\n        /* \"#utility.yul\":17758:17772   */\n      add\n        /* \"#utility.yul\":17748:17772   */\n      swap2\n      pop\n        /* \"#utility.yul\":17817:17819   */\n      0x20\n        /* \"#utility.yul\":17806:17815   */\n      dup6\n        /* \"#utility.yul\":17802:17820   */\n      add\n        /* \"#utility.yul\":17789:17820   */\n      swap5\n      pop\n        /* \"#utility.yul\":17663:17667   */\n      0x20\n        /* \"#utility.yul\":17660:17661   */\n      dup2\n        /* \"#utility.yul\":17656:17668   */\n      add\n        /* \"#utility.yul\":17651:17668   */\n      swap1\n      pop\n        /* \"#utility.yul\":17626:17834   */\n      jump(tag_342)\n    tag_344:\n        /* \"#utility.yul\":17862:17868   */\n      dup7\n        /* \"#utility.yul\":17853:17860   */\n      dup4\n        /* \"#utility.yul\":17850:17869   */\n      lt\n        /* \"#utility.yul\":17847:18026   */\n      iszero\n      tag_345\n      jumpi\n        /* \"#utility.yul\":17920:17929   */\n      dup5\n        /* \"#utility.yul\":17915:17918   */\n      dup10\n        /* \"#utility.yul\":17911:17930   */\n      add\n        /* \"#utility.yul\":17905:17931   */\n      mload\n        /* \"#utility.yul\":17963:18011   */\n      tag_346\n        /* \"#utility.yul\":18005:18009   */\n      0x1f\n        /* \"#utility.yul\":17997:18003   */\n      dup10\n        /* \"#utility.yul\":17993:18010   */\n      and\n        /* \"#utility.yul\":17982:17991   */\n      dup3\n        /* \"#utility.yul\":17963:18011   */\n      tag_162\n      jump\t// in\n    tag_346:\n        /* \"#utility.yul\":17955:17961   */\n      dup4\n        /* \"#utility.yul\":17948:18012   */\n      sstore\n        /* \"#utility.yul\":17870:18026   */\n      pop\n        /* \"#utility.yul\":17847:18026   */\n    tag_345:\n        /* \"#utility.yul\":18072:18073   */\n      0x01\n        /* \"#utility.yul\":18068:18069   */\n      0x02\n        /* \"#utility.yul\":18060:18066   */\n      dup9\n        /* \"#utility.yul\":18056:18070   */\n      mul\n        /* \"#utility.yul\":18052:18074   */\n      add\n        /* \"#utility.yul\":18046:18050   */\n      dup9\n        /* \"#utility.yul\":18039:18075   */\n      sstore\n        /* \"#utility.yul\":17474:18085   */\n      pop\n      pop\n      pop\n        /* \"#utility.yul\":17437:18324   */\n    tag_337:\n      pop\n        /* \"#utility.yul\":17027:18330   */\n      pop\n      pop\n      pop\n        /* \"#utility.yul\":16935:18330   */\n      pop\n      pop\n      jump\t// out\n        /* \"#utility.yul\":18336:18527   */\n    tag_97:\n        /* \"#utility.yul\":18376:18379   */\n      0x00\n        /* \"#utility.yul\":18395:18415   */\n      tag_348\n        /* \"#utility.yul\":18413:18414   */\n      dup3\n        /* \"#utility.yul\":18395:18415   */\n      tag_113\n      jump\t// in\n    tag_348:\n        /* \"#utility.yul\":18390:18415   */\n      swap2\n      pop\n        /* \"#utility.yul\":18429:18449   */\n      tag_349\n        /* \"#utility.yul\":18447:18448   */\n      dup4\n        /* \"#utility.yul\":18429:18449   */\n      tag_113\n      jump\t// in\n    tag_349:\n        /* \"#utility.yul\":18424:18449   */\n      swap3\n      pop\n        /* \"#utility.yul\":18472:18473   */\n      dup3\n        /* \"#utility.yul\":18469:18470   */\n      dup3\n        /* \"#utility.yul\":18465:18474   */\n      add\n        /* \"#utility.yul\":18458:18474   */\n      swap1\n      pop\n        /* \"#utility.yul\":18493:18496   */\n      dup1\n        /* \"#utility.yul\":18490:18491   */\n      dup3\n        /* \"#utility.yul\":18487:18497   */\n      gt\n        /* \"#utility.yul\":18484:18520   */\n      iszero\n      tag_350\n      jumpi\n        /* \"#utility.yul\":18500:18518   */\n      tag_351\n      tag_143\n      jump\t// in\n    tag_351:\n        /* \"#utility.yul\":18484:18520   */\n    tag_350:\n        /* \"#utility.yul\":18336:18527   */\n      swap3\n      swap2\n      pop\n      pop\n      jump\t// out\n\n    auxdata: 0xa2646970667358221220f8943e6c1f5dd57239c2941b4e32348ccb5352396f6105b063159fda355b51ba64736f6c63430008140033\n}\n",
				"bytecode": {
					"linkReferences": {},
					"object": "608060405234801561000f575f80fd5b50335f806101000a81548173ffffffffffffffffffffffffffffffffffffffff021916908373ffffffffffffffffffffffffffffffffffffffff1602179055506114448061005c5f395ff3fe60806040526004361061007a575f3560e01c806342a4fda81161004d57806342a4fda81461011e578063481c6a751461013a578063b2395a1414610164578063f31e42cc146101a65761007a565b806309f611751461007e578063278ecde1146100a65780632d0b862d146100ce5780633020580b146100f6575b5f80fd5b348015610089575f80fd5b506100a4600480360381019061009f9190610ab3565b6101d0565b005b3480156100b1575f80fd5b506100cc60048036038101906100c79190610ab3565b6103bc565b005b3480156100d9575f80fd5b506100f460048036038101906100ef9190610ab3565b6105b9565b005b348015610101575f80fd5b5061011c60048036038101906101179190610c1a565b610708565b005b61013860048036038101906101339190610ab3565b610826565b005b348015610145575f80fd5b5061014e61094a565b60405161015b9190610cc5565b60405180910390f35b34801561016f575f80fd5b5061018a60048036038101906101859190610ab3565b61096d565b60405161019d9796959493929190610d81565b60405180910390f35b3480156101b1575f80fd5b506101ba610a69565b6040516101c79190610df5565b60405180910390f35b5f8054906101000a900473ffffffffffffffffffffffffffffffffffffffff1673ffffffffffffffffffffffffffffffffffffffff163373ffffffffffffffffffffffffffffffffffffffff1614610226575f80fd5b5f60015f8381526020019081526020015f2090508060070160019054906101000a900460ff1661028b576040517f08c379a000000000000000000000000000000000000000000000000000000000815260040161028290610e58565b60405180910390fd5b5f815f015f9054906101000a900473ffffffffffffffffffffffffffffffffffffffff1673ffffffffffffffffffffffffffffffffffffffff1682600301546040516102d690610ea3565b5f6040518083038185875af1925050503d805f8114610310576040519150601f19603f3d011682016040523d82523d5f602084013e610315565b606091505b5050905080610359576040517f08c379a000000000000000000000000000000000000000000000000000000000815260040161035090610f01565b60405180910390fd5b5f82600301819055506001826007015f6101000a81548160ff0219169083151502179055507f9e9a0c3e94415e1517985ecb15bcc13cdc4e907a7b6760a95bee46ba1ba596d383336040516103af929190610f1f565b60405180910390a1505050565b5f8054906101000a900473ffffffffffffffffffffffffffffffffffffffff1673ffffffffffffffffffffffffffffffffffffffff163373ffffffffffffffffffffffffffffffffffffffff1614610412575f80fd5b5f60015f8381526020019081526020015f2090505f5b81600601805490508110156105b4575f82600601828154811061044e5761044d610f46565b5b905f5260205f20015f9054906101000a900473ffffffffffffffffffffffffffffffffffffffff1690505f836005015f8373ffffffffffffffffffffffffffffffffffffffff1673ffffffffffffffffffffffffffffffffffffffff1681526020019081526020015f205490505f8273ffffffffffffffffffffffffffffffffffffffff16826040516104e090610ea3565b5f6040518083038185875af1925050503d805f811461051a576040519150601f19603f3d011682016040523d82523d5f602084013e61051f565b606091505b5050905080610563576040517f08c379a000000000000000000000000000000000000000000000000000000000815260040161055a90610f01565b60405180910390fd5b7f1852ceb13126c22f394b77ad6298d993dfb7813f9b3139349e3c3f0852c1fe7486848460405161059693929190610f73565b60405180910390a150505080806105ac90610fd5565b915050610428565b505050565b5f60015f8381526020019081526020015f209050806007015f9054906101000a900460ff161561061e576040517f08c379a000000000000000000000000000000000000000000000000000000000815260040161061590611066565b60405180910390fd5b805f015f9054906101000a900473ffffffffffffffffffffffffffffffffffffffff1673ffffffffffffffffffffffffffffffffffffffff163373ffffffffffffffffffffffffffffffffffffffff16146106ae576040517f08c379a00000000000000000000000000000000000000000000000000000000081526004016106a5906110f4565b60405180910390fd5b60018160070160016101000a81548160ff0219169083151502179055507fe49b81d4ce4622cc7cf524d4915e76564dc22d3fae6baaf01df5ee03649234a482336040516106fc929190610f1f565b60405180910390a15050565b60025f81548092919061071a90610fd5565b91905055505f60015f60025481526020019081526020015f20905033815f015f6101000a81548173ffffffffffffffffffffffffffffffffffffffff021916908373ffffffffffffffffffffffffffffffffffffffff16021790555083816001019081610787919061130c565b50828160020181905550814261079d91906113db565b81600401819055505f81600301819055505f816007015f6101000a81548160ff0219169083151502179055505f8160070160016101000a81548160ff0219169083151502179055507f5f2c3e3116022249eaf58b150f81a398074261ac591bc2c49784fbf9196671b760025433604051610818929190610f1f565b60405180910390a150505050565b5f60015f8381526020019081526020015f20905034816003015f82825461084d91906113db565b9250508190555034816005015f3373ffffffffffffffffffffffffffffffffffffffff1673ffffffffffffffffffffffffffffffffffffffff1681526020019081526020015f205f8282546108a291906113db565b925050819055508060060133908060018154018082558091505060019003905f5260205f20015f9091909190916101000a81548173ffffffffffffffffffffffffffffffffffffffff021916908373ffffffffffffffffffffffffffffffffffffffff1602179055507f043b264db5e3815669abd6f2602ce2eff2392c8379a973e374fb403dd5dadf4682333460405161093e93929190610f73565b60405180910390a15050565b5f8054906101000a900473ffffffffffffffffffffffffffffffffffffffff1681565b6001602052805f5260405f205f91509050805f015f9054906101000a900473ffffffffffffffffffffffffffffffffffffffff16908060010180546109b19061113f565b80601f01602080910402602001604051908101604052809291908181526020018280546109dd9061113f565b8015610a285780601f106109ff57610100808354040283529160200191610a28565b820191905f5260205f20905b815481529060010190602001808311610a0b57829003601f168201915b505050505090806002015490806003015490806004015490806007015f9054906101000a900460ff16908060070160019054906101000a900460ff16905087565b60025481565b5f604051905090565b5f80fd5b5f80fd5b5f819050919050565b610a9281610a80565b8114610a9c575f80fd5b50565b5f81359050610aad81610a89565b92915050565b5f60208284031215610ac857610ac7610a78565b5b5f610ad584828501610a9f565b91505092915050565b5f80fd5b5f80fd5b5f601f19601f8301169050919050565b7f4e487b71000000000000000000000000000000000000000000000000000000005f52604160045260245ffd5b610b2c82610ae6565b810181811067ffffffffffffffff82111715610b4b57610b4a610af6565b5b80604052505050565b5f610b5d610a6f565b9050610b698282610b23565b919050565b5f67ffffffffffffffff821115610b8857610b87610af6565b5b610b9182610ae6565b9050602081019050919050565b828183375f83830152505050565b5f610bbe610bb984610b6e565b610b54565b905082815260208101848484011115610bda57610bd9610ae2565b5b610be5848285610b9e565b509392505050565b5f82601f830112610c0157610c00610ade565b5b8135610c11848260208601610bac565b91505092915050565b5f805f60608486031215610c3157610c30610a78565b5b5f84013567ffffffffffffffff811115610c4e57610c4d610a7c565b5b610c5a86828701610bed565b9350506020610c6b86828701610a9f565b9250506040610c7c86828701610a9f565b9150509250925092565b5f73ffffffffffffffffffffffffffffffffffffffff82169050919050565b5f610caf82610c86565b9050919050565b610cbf81610ca5565b82525050565b5f602082019050610cd85f830184610cb6565b92915050565b5f81519050919050565b5f82825260208201905092915050565b5f5b83811015610d15578082015181840152602081019050610cfa565b5f8484015250505050565b5f610d2a82610cde565b610d348185610ce8565b9350610d44818560208601610cf8565b610d4d81610ae6565b840191505092915050565b610d6181610a80565b82525050565b5f8115159050919050565b610d7b81610d67565b82525050565b5f60e082019050610d945f83018a610cb6565b8181036020830152610da68189610d20565b9050610db56040830188610d58565b610dc26060830187610d58565b610dcf6080830186610d58565b610ddc60a0830185610d72565b610de960c0830184610d72565b98975050505050505050565b5f602082019050610e085f830184610d58565b92915050565b7f4e6f207265717565737420746f2077697468647261776e0000000000000000005f82015250565b5f610e42601783610ce8565b9150610e4d82610e0e565b602082019050919050565b5f6020820190508181035f830152610e6f81610e36565b9050919050565b5f81905092915050565b50565b5f610e8e5f83610e76565b9150610e9982610e80565b5f82019050919050565b5f610ead82610e83565b9150819050919050565b7f5472616e73666572204661696c656400000000000000000000000000000000005f82015250565b5f610eeb600f83610ce8565b9150610ef682610eb7565b602082019050919050565b5f6020820190508181035f830152610f1881610edf565b9050919050565b5f604082019050610f325f830185610d58565b610f3f6020830184610cb6565b9392505050565b7f4e487b71000000000000000000000000000000000000000000000000000000005f52603260045260245ffd5b5f606082019050610f865f830186610d58565b610f936020830185610cb6565b610fa06040830184610d58565b949350505050565b7f4e487b71000000000000000000000000000000000000000000000000000000005f52601160045260245ffd5b5f610fdf82610a80565b91507fffffffffffffffffffffffffffffffffffffffffffffffffffffffffffffffff820361101157611010610fa8565b5b600182019050919050565b7f416c72656164792077697468447261776e436f6d706c657465640000000000005f82015250565b5f611050601a83610ce8565b915061105b8261101c565b602082019050919050565b5f6020820190508181035f83015261107d81611044565b9050919050565b7f4f6e6c79206f776e65722063616e206d616b65207265717565737420746f20775f8201527f6974686472617700000000000000000000000000000000000000000000000000602082015250565b5f6110de602783610ce8565b91506110e982611084565b604082019050919050565b5f6020820190508181035f83015261110b816110d2565b9050919050565b7f4e487b71000000000000000000000000000000000000000000000000000000005f52602260045260245ffd5b5f600282049050600182168061115657607f821691505b60208210810361116957611168611112565b5b50919050565b5f819050815f5260205f209050919050565b5f6020601f8301049050919050565b5f82821b905092915050565b5f600883026111cb7fffffffffffffffffffffffffffffffffffffffffffffffffffffffffffffffff82611190565b6111d58683611190565b95508019841693508086168417925050509392505050565b5f819050919050565b5f61121061120b61120684610a80565b6111ed565b610a80565b9050919050565b5f819050919050565b611229836111f6565b61123d61123582611217565b84845461119c565b825550505050565b5f90565b611251611245565b61125c818484611220565b505050565b5b8181101561127f576112745f82611249565b600181019050611262565b5050565b601f8211156112c4576112958161116f565b61129e84611181565b810160208510156112ad578190505b6112c16112b985611181565b830182611261565b50505b505050565b5f82821c905092915050565b5f6112e45f19846008026112c9565b1980831691505092915050565b5f6112fc83836112d5565b9150826002028217905092915050565b61131582610cde565b67ffffffffffffffff81111561132e5761132d610af6565b5b611338825461113f565b611343828285611283565b5f60209050601f831160018114611374575f8415611362578287015190505b61136c85826112f1565b8655506113d3565b601f1984166113828661116f565b5f5b828110156113a957848901518255600182019150602085019450602081019050611384565b868310156113c657848901516113c2601f8916826112d5565b8355505b6001600288020188555050505b505050505050565b5f6113e582610a80565b91506113f083610a80565b925082820190508082111561140857611407610fa8565b5b9291505056fea2646970667358221220f8943e6c1f5dd57239c2941b4e32348ccb5352396f6105b063159fda355b51ba64736f6c63430008140033",
					"opcodes": "PUSH1 0x80 PUSH1 0x40 MSTORE CALLVALUE DUP1 ISZERO PUSH2 0xF JUMPI PUSH0 DUP1 REVERT JUMPDEST POP CALLER PUSH0 DUP1 PUSH2 0x100 EXP DUP2 SLOAD DUP2 PUSH20 0xFFFFFFFFFFFFFFFFFFFFFFFFFFFFFFFFFFFFFFFF MUL NOT AND SWAP1 DUP4 PUSH20 0xFFFFFFFFFFFFFFFFFFFFFFFFFFFFFFFFFFFFFFFF AND MUL OR SWAP1 SSTORE POP PUSH2 0x1444 DUP1 PUSH2 0x5C PUSH0 CODECOPY PUSH0 RETURN INVALID PUSH1 0x80 PUSH1 0x40 MSTORE PUSH1 0x4 CALLDATASIZE LT PUSH2 0x7A JUMPI PUSH0 CALLDATALOAD PUSH1 0xE0 SHR DUP1 PUSH4 0x42A4FDA8 GT PUSH2 0x4D JUMPI DUP1 PUSH4 0x42A4FDA8 EQ PUSH2 0x11E JUMPI DUP1 PUSH4 0x481C6A75 EQ PUSH2 0x13A JUMPI DUP1 PUSH4 0xB2395A14 EQ PUSH2 0x164 JUMPI DUP1 PUSH4 0xF31E42CC EQ PUSH2 0x1A6 JUMPI PUSH2 0x7A JUMP JUMPDEST DUP1 PUSH4 0x9F61175 EQ PUSH2 0x7E JUMPI DUP1 PUSH4 0x278ECDE1 EQ PUSH2 0xA6 JUMPI DUP1 PUSH4 0x2D0B862D EQ PUSH2 0xCE JUMPI DUP1 PUSH4 0x3020580B EQ PUSH2 0xF6 JUMPI JUMPDEST PUSH0 DUP1 REVERT JUMPDEST CALLVALUE DUP1 ISZERO PUSH2 0x89 JUMPI PUSH0 DUP1 REVERT JUMPDEST POP PUSH2 0xA4 PUSH1 0x4 DUP1 CALLDATASIZE SUB DUP2 ADD SWAP1 PUSH2 0x9F SWAP2 SWAP1 PUSH2 0xAB3 JUMP JUMPDEST PUSH2 0x1D0 JUMP JUMPDEST STOP JUMPDEST CALLVALUE DUP1 ISZERO PUSH2 0xB1 JUMPI PUSH0 DUP1 REVERT JUMPDEST POP PUSH2 0xCC PUSH1 0x4 DUP1 CALLDATASIZE SUB DUP2 ADD SWAP1 PUSH2 0xC7 SWAP2 SWAP1 PUSH2 0xAB3 JUMP JUMPDEST PUSH2 0x3BC JUMP JUMPDEST STOP JUMPDEST CALLVALUE DUP1 ISZERO PUSH2 0xD9 JUMPI PUSH0 DUP1 REVERT JUMPDEST POP PUSH2 0xF4 PUSH1 0x4 DUP1 CALLDATASIZE SUB DUP2 ADD SWAP1 PUSH2 0xEF SWAP2 SWAP1 PUSH2 0xAB3 JUMP JUMPDEST PUSH2 0x5B9 JUMP JUMPDEST STOP JUMPDEST CALLVALUE DUP1 ISZERO PUSH2 0x101 JUMPI PUSH0 DUP1 REVERT JUMPDEST POP PUSH2 0x11C PUSH1 0x4 DUP1 CALLDATASIZE SUB DUP2 ADD SWAP1 PUSH2 0x117 SWAP2 SWAP1 PUSH2 0xC1A JUMP JUMPDEST PUSH2 0x708 JUMP JUMPDEST STOP JUMPDEST PUSH2 0x138 PUSH1 0x4 DUP1 CALLDATASIZE SUB DUP2 ADD SWAP1 PUSH2 0x133 SWAP2 SWAP1 PUSH2 0xAB3 JUMP JUMPDEST PUSH2 0x826 JUMP JUMPDEST STOP JUMPDEST CALLVALUE DUP1 ISZERO PUSH2 0x145 JUMPI PUSH0 DUP1 REVERT JUMPDEST POP PUSH2 0x14E PUSH2 0x94A JUMP JUMPDEST PUSH1 0x40 MLOAD PUSH2 0x15B SWAP2 SWAP1 PUSH2 0xCC5 JUMP JUMPDEST PUSH1 0x40 MLOAD DUP1 SWAP2 SUB SWAP1 RETURN JUMPDEST CALLVALUE DUP1 ISZERO PUSH2 0x16F JUMPI PUSH0 DUP1 REVERT JUMPDEST POP PUSH2 0x18A PUSH1 0x4 DUP1 CALLDATASIZE SUB DUP2 ADD SWAP1 PUSH2 0x185 SWAP2 SWAP1 PUSH2 0xAB3 JUMP JUMPDEST PUSH2 0x96D JUMP JUMPDEST PUSH1 0x40 MLOAD PUSH2 0x19D SWAP8 SWAP7 SWAP6 SWAP5 SWAP4 SWAP3 SWAP2 SWAP1 PUSH2 0xD81 JUMP JUMPDEST PUSH1 0x40 MLOAD DUP1 SWAP2 SUB SWAP1 RETURN JUMPDEST CALLVALUE DUP1 ISZERO PUSH2 0x1B1 JUMPI PUSH0 DUP1 REVERT JUMPDEST POP PUSH2 0x1BA PUSH2 0xA69 JUMP JUMPDEST PUSH1 0x40 MLOAD PUSH2 0x1C7 SWAP2 SWAP1 PUSH2 0xDF5 JUMP JUMPDEST PUSH1 0x40 MLOAD DUP1 SWAP2 SUB SWAP1 RETURN JUMPDEST PUSH0 DUP1 SLOAD SWAP1 PUSH2 0x100 EXP SWAP1 DIV PUSH20 0xFFFFFFFFFFFFFFFFFFFFFFFFFFFFFFFFFFFFFFFF AND PUSH20 0xFFFFFFFFFFFFFFFFFFFFFFFFFFFFFFFFFFFFFFFF AND CALLER PUSH20 0xFFFFFFFFFFFFFFFFFFFFFFFFFFFFFFFFFFFFFFFF AND EQ PUSH2 0x226 JUMPI PUSH0 DUP1 REVERT JUMPDEST PUSH0 PUSH1 0x1 PUSH0 DUP4 DUP2 MSTORE PUSH1 0x20 ADD SWAP1 DUP2 MSTORE PUSH1 0x20 ADD PUSH0 KECCAK256 SWAP1 POP DUP1 PUSH1 0x7 ADD PUSH1 0x1 SWAP1 SLOAD SWAP1 PUSH2 0x100 EXP SWAP1 DIV PUSH1 0xFF AND PUSH2 0x28B JUMPI PUSH1 0x40 MLOAD PUSH32 0x8C379A000000000000000000000000000000000000000000000000000000000 DUP2 MSTORE PUSH1 0x4 ADD PUSH2 0x282 SWAP1 PUSH2 0xE58 JUMP JUMPDEST PUSH1 0x40 MLOAD DUP1 SWAP2 SUB SWAP1 REVERT JUMPDEST PUSH0 DUP2 PUSH0 ADD PUSH0 SWAP1 SLOAD SWAP1 PUSH2 0x100 EXP SWAP1 DIV PUSH20 0xFFFFFFFFFFFFFFFFFFFFFFFFFFFFFFFFFFFFFFFF AND PUSH20 0xFFFFFFFFFFFFFFFFFFFFFFFFFFFFFFFFFFFFFFFF AND DUP3 PUSH1 0x3 ADD SLOAD PUSH1 0x40 MLOAD PUSH2 0x2D6 SWAP1 PUSH2 0xEA3 JUMP JUMPDEST PUSH0 PUSH1 0x40 MLOAD DUP1 DUP4 SUB DUP2 DUP6 DUP8 GAS CALL SWAP3 POP POP POP RETURNDATASIZE DUP1 PUSH0 DUP2 EQ PUSH2 0x310 JUMPI PUSH1 0x40 MLOAD SWAP2 POP PUSH1 0x1F NOT PUSH1 0x3F RETURNDATASIZE ADD AND DUP3 ADD PUSH1 0x40 MSTORE RETURNDATASIZE DUP3 MSTORE RETURNDATASIZE PUSH0 PUSH1 0x20 DUP5 ADD RETURNDATACOPY PUSH2 0x315 JUMP JUMPDEST PUSH1 0x60 SWAP2 POP JUMPDEST POP POP SWAP1 POP DUP1 PUSH2 0x359 JUMPI PUSH1 0x40 MLOAD PUSH32 0x8C379A000000000000000000000000000000000000000000000000000000000 DUP2 MSTORE PUSH1 0x4 ADD PUSH2 0x350 SWAP1 PUSH2 0xF01 JUMP JUMPDEST PUSH1 0x40 MLOAD DUP1 SWAP2 SUB SWAP1 REVERT JUMPDEST PUSH0 DUP3 PUSH1 0x3 ADD DUP2 SWAP1 SSTORE POP PUSH1 0x1 DUP3 PUSH1 0x7 ADD PUSH0 PUSH2 0x100 EXP DUP2 SLOAD DUP2 PUSH1 0xFF MUL NOT AND SWAP1 DUP4 ISZERO ISZERO MUL OR SWAP1 SSTORE POP PUSH32 0x9E9A0C3E94415E1517985ECB15BCC13CDC4E907A7B6760A95BEE46BA1BA596D3 DUP4 CALLER PUSH1 0x40 MLOAD PUSH2 0x3AF SWAP3 SWAP2 SWAP1 PUSH2 0xF1F JUMP JUMPDEST PUSH1 0x40 MLOAD DUP1 SWAP2 SUB SWAP1 LOG1 POP POP POP JUMP JUMPDEST PUSH0 DUP1 SLOAD SWAP1 PUSH2 0x100 EXP SWAP1 DIV PUSH20 0xFFFFFFFFFFFFFFFFFFFFFFFFFFFFFFFFFFFFFFFF AND PUSH20 0xFFFFFFFFFFFFFFFFFFFFFFFFFFFFFFFFFFFFFFFF AND CALLER PUSH20 0xFFFFFFFFFFFFFFFFFFFFFFFFFFFFFFFFFFFFFFFF AND EQ PUSH2 0x412 JUMPI PUSH0 DUP1 REVERT JUMPDEST PUSH0 PUSH1 0x1 PUSH0 DUP4 DUP2 MSTORE PUSH1 0x20 ADD SWAP1 DUP2 MSTORE PUSH1 0x20 ADD PUSH0 KECCAK256 SWAP1 POP PUSH0 JUMPDEST DUP2 PUSH1 0x6 ADD DUP1 SLOAD SWAP1 POP DUP2 LT ISZERO PUSH2 0x5B4 JUMPI PUSH0 DUP3 PUSH1 0x6 ADD DUP3 DUP2 SLOAD DUP2 LT PUSH2 0x44E JUMPI PUSH2 0x44D PUSH2 0xF46 JUMP JUMPDEST JUMPDEST SWAP1 PUSH0 MSTORE PUSH1 0x20 PUSH0 KECCAK256 ADD PUSH0 SWAP1 SLOAD SWAP1 PUSH2 0x100 EXP SWAP1 DIV PUSH20 0xFFFFFFFFFFFFFFFFFFFFFFFFFFFFFFFFFFFFFFFF AND SWAP1 POP PUSH0 DUP4 PUSH1 0x5 ADD PUSH0 DUP4 PUSH20 0xFFFFFFFFFFFFFFFFFFFFFFFFFFFFFFFFFFFFFFFF AND PUSH20 0xFFFFFFFFFFFFFFFFFFFFFFFFFFFFFFFFFFFFFFFF AND DUP2 MSTORE PUSH1 0x20 ADD SWAP1 DUP2 MSTORE PUSH1 0x20 ADD PUSH0 KECCAK256 SLOAD SWAP1 POP PUSH0 DUP3 PUSH20 0xFFFFFFFFFFFFFFFFFFFFFFFFFFFFFFFFFFFFFFFF AND DUP3 PUSH1 0x40 MLOAD PUSH2 0x4E0 SWAP1 PUSH2 0xEA3 JUMP JUMPDEST PUSH0 PUSH1 0x40 MLOAD DUP1 DUP4 SUB DUP2 DUP6 DUP8 GAS CALL SWAP3 POP POP POP RETURNDATASIZE DUP1 PUSH0 DUP2 EQ PUSH2 0x51A JUMPI PUSH1 0x40 MLOAD SWAP2 POP PUSH1 0x1F NOT PUSH1 0x3F RETURNDATASIZE ADD AND DUP3 ADD PUSH1 0x40 MSTORE RETURNDATASIZE DUP3 MSTORE RETURNDATASIZE PUSH0 PUSH1 0x20 DUP5 ADD RETURNDATACOPY PUSH2 0x51F JUMP JUMPDEST PUSH1 0x60 SWAP2 POP JUMPDEST POP POP SWAP1 POP DUP1 PUSH2 0x563 JUMPI PUSH1 0x40 MLOAD PUSH32 0x8C379A000000000000000000000000000000000000000000000000000000000 DUP2 MSTORE PUSH1 0x4 ADD PUSH2 0x55A SWAP1 PUSH2 0xF01 JUMP JUMPDEST PUSH1 0x40 MLOAD DUP1 SWAP2 SUB SWAP1 REVERT JUMPDEST PUSH32 0x1852CEB13126C22F394B77AD6298D993DFB7813F9B3139349E3C3F0852C1FE74 DUP7 DUP5 DUP5 PUSH1 0x40 MLOAD PUSH2 0x596 SWAP4 SWAP3 SWAP2 SWAP1 PUSH2 0xF73 JUMP JUMPDEST PUSH1 0x40 MLOAD DUP1 SWAP2 SUB SWAP1 LOG1 POP POP POP DUP1 DUP1 PUSH2 0x5AC SWAP1 PUSH2 0xFD5 JUMP JUMPDEST SWAP2 POP POP PUSH2 0x428 JUMP JUMPDEST POP POP POP JUMP JUMPDEST PUSH0 PUSH1 0x1 PUSH0 DUP4 DUP2 MSTORE PUSH1 0x20 ADD SWAP1 DUP2 MSTORE PUSH1 0x20 ADD PUSH0 KECCAK256 SWAP1 POP DUP1 PUSH1 0x7 ADD PUSH0 SWAP1 SLOAD SWAP1 PUSH2 0x100 EXP SWAP1 DIV PUSH1 0xFF AND ISZERO PUSH2 0x61E JUMPI PUSH1 0x40 MLOAD PUSH32 0x8C379A000000000000000000000000000000000000000000000000000000000 DUP2 MSTORE PUSH1 0x4 ADD PUSH2 0x615 SWAP1 PUSH2 0x1066 JUMP JUMPDEST PUSH1 0x40 MLOAD DUP1 SWAP2 SUB SWAP1 REVERT JUMPDEST DUP1 PUSH0 ADD PUSH0 SWAP1 SLOAD SWAP1 PUSH2 0x100 EXP SWAP1 DIV PUSH20 0xFFFFFFFFFFFFFFFFFFFFFFFFFFFFFFFFFFFFFFFF AND PUSH20 0xFFFFFFFFFFFFFFFFFFFFFFFFFFFFFFFFFFFFFFFF AND CALLER PUSH20 0xFFFFFFFFFFFFFFFFFFFFFFFFFFFFFFFFFFFFFFFF AND EQ PUSH2 0x6AE JUMPI PUSH1 0x40 MLOAD PUSH32 0x8C379A000000000000000000000000000000000000000000000000000000000 DUP2 MSTORE PUSH1 0x4 ADD PUSH2 0x6A5 SWAP1 PUSH2 0x10F4 JUMP JUMPDEST PUSH1 0x40 MLOAD DUP1 SWAP2 SUB SWAP1 REVERT JUMPDEST PUSH1 0x1 DUP2 PUSH1 0x7 ADD PUSH1 0x1 PUSH2 0x100 EXP DUP2 SLOAD DUP2 PUSH1 0xFF MUL NOT AND SWAP1 DUP4 ISZERO ISZERO MUL OR SWAP1 SSTORE POP PUSH32 0xE49B81D4CE4622CC7CF524D4915E76564DC22D3FAE6BAAF01DF5EE03649234A4 DUP3 CALLER PUSH1 0x40 MLOAD PUSH2 0x6FC SWAP3 SWAP2 SWAP1 PUSH2 0xF1F JUMP JUMPDEST PUSH1 0x40 MLOAD DUP1 SWAP2 SUB SWAP1 LOG1 POP POP JUMP JUMPDEST PUSH1 0x2 PUSH0 DUP2 SLOAD DUP1 SWAP3 SWAP2 SWAP1 PUSH2 0x71A SWAP1 PUSH2 0xFD5 JUMP JUMPDEST SWAP2 SWAP1 POP SSTORE POP PUSH0 PUSH1 0x1 PUSH0 PUSH1 0x2 SLOAD DUP2 MSTORE PUSH1 0x20 ADD SWAP1 DUP2 MSTORE PUSH1 0x20 ADD PUSH0 KECCAK256 SWAP1 POP CALLER DUP2 PUSH0 ADD PUSH0 PUSH2 0x100 EXP DUP2 SLOAD DUP2 PUSH20 0xFFFFFFFFFFFFFFFFFFFFFFFFFFFFFFFFFFFFFFFF MUL NOT AND SWAP1 DUP4 PUSH20 0xFFFFFFFFFFFFFFFFFFFFFFFFFFFFFFFFFFFFFFFF AND MUL OR SWAP1 SSTORE POP DUP4 DUP2 PUSH1 0x1 ADD SWAP1 DUP2 PUSH2 0x787 SWAP2 SWAP1 PUSH2 0x130C JUMP JUMPDEST POP DUP3 DUP2 PUSH1 0x2 ADD DUP2 SWAP1 SSTORE POP DUP2 TIMESTAMP PUSH2 0x79D SWAP2 SWAP1 PUSH2 0x13DB JUMP JUMPDEST DUP2 PUSH1 0x4 ADD DUP2 SWAP1 SSTORE POP PUSH0 DUP2 PUSH1 0x3 ADD DUP2 SWAP1 SSTORE POP PUSH0 DUP2 PUSH1 0x7 ADD PUSH0 PUSH2 0x100 EXP DUP2 SLOAD DUP2 PUSH1 0xFF MUL NOT AND SWAP1 DUP4 ISZERO ISZERO MUL OR SWAP1 SSTORE POP PUSH0 DUP2 PUSH1 0x7 ADD PUSH1 0x1 PUSH2 0x100 EXP DUP2 SLOAD DUP2 PUSH1 0xFF MUL NOT AND SWAP1 DUP4 ISZERO ISZERO MUL OR SWAP1 SSTORE POP PUSH32 0x5F2C3E3116022249EAF58B150F81A398074261AC591BC2C49784FBF9196671B7 PUSH1 0x2 SLOAD CALLER PUSH1 0x40 MLOAD PUSH2 0x818 SWAP3 SWAP2 SWAP1 PUSH2 0xF1F JUMP JUMPDEST PUSH1 0x40 MLOAD DUP1 SWAP2 SUB SWAP1 LOG1 POP POP POP POP JUMP JUMPDEST PUSH0 PUSH1 0x1 PUSH0 DUP4 DUP2 MSTORE PUSH1 0x20 ADD SWAP1 DUP2 MSTORE PUSH1 0x20 ADD PUSH0 KECCAK256 SWAP1 POP CALLVALUE DUP2 PUSH1 0x3 ADD PUSH0 DUP3 DUP3 SLOAD PUSH2 0x84D SWAP2 SWAP1 PUSH2 0x13DB JUMP JUMPDEST SWAP3 POP POP DUP2 SWAP1 SSTORE POP CALLVALUE DUP2 PUSH1 0x5 ADD PUSH0 CALLER PUSH20 0xFFFFFFFFFFFFFFFFFFFFFFFFFFFFFFFFFFFFFFFF AND PUSH20 0xFFFFFFFFFFFFFFFFFFFFFFFFFFFFFFFFFFFFFFFF AND DUP2 MSTORE PUSH1 0x20 ADD SWAP1 DUP2 MSTORE PUSH1 0x20 ADD PUSH0 KECCAK256 PUSH0 DUP3 DUP3 SLOAD PUSH2 0x8A2 SWAP2 SWAP1 PUSH2 0x13DB JUMP JUMPDEST SWAP3 POP POP DUP2 SWAP1 SSTORE POP DUP1 PUSH1 0x6 ADD CALLER SWAP1 DUP1 PUSH1 0x1 DUP2 SLOAD ADD DUP1 DUP3 SSTORE DUP1 SWAP2 POP POP PUSH1 0x1 SWAP1 SUB SWAP1 PUSH0 MSTORE PUSH1 0x20 PUSH0 KECCAK256 ADD PUSH0 SWAP1 SWAP2 SWAP1 SWAP2 SWAP1 SWAP2 PUSH2 0x100 EXP DUP2 SLOAD DUP2 PUSH20 0xFFFFFFFFFFFFFFFFFFFFFFFFFFFFFFFFFFFFFFFF MUL NOT AND SWAP1 DUP4 PUSH20 0xFFFFFFFFFFFFFFFFFFFFFFFFFFFFFFFFFFFFFFFF AND MUL OR SWAP1 SSTORE POP PUSH32 0x43B264DB5E3815669ABD6F2602CE2EFF2392C8379A973E374FB403DD5DADF46 DUP3 CALLER CALLVALUE PUSH1 0x40 MLOAD PUSH2 0x93E SWAP4 SWAP3 SWAP2 SWAP1 PUSH2 0xF73 JUMP JUMPDEST PUSH1 0x40 MLOAD DUP1 SWAP2 SUB SWAP1 LOG1 POP POP JUMP JUMPDEST PUSH0 DUP1 SLOAD SWAP1 PUSH2 0x100 EXP SWAP1 DIV PUSH20 0xFFFFFFFFFFFFFFFFFFFFFFFFFFFFFFFFFFFFFFFF AND DUP2 JUMP JUMPDEST PUSH1 0x1 PUSH1 0x20 MSTORE DUP1 PUSH0 MSTORE PUSH1 0x40 PUSH0 KECCAK256 PUSH0 SWAP2 POP SWAP1 POP DUP1 PUSH0 ADD PUSH0 SWAP1 SLOAD SWAP1 PUSH2 0x100 EXP SWAP1 DIV PUSH20 0xFFFFFFFFFFFFFFFFFFFFFFFFFFFFFFFFFFFFFFFF AND SWAP1 DUP1 PUSH1 0x1 ADD DUP1 SLOAD PUSH2 0x9B1 SWAP1 PUSH2 0x113F JUMP JUMPDEST DUP1 PUSH1 0x1F ADD PUSH1 0x20 DUP1 SWAP2 DIV MUL PUSH1 0x20 ADD PUSH1 0x40 MLOAD SWAP1 DUP2 ADD PUSH1 0x40 MSTORE DUP1 SWAP3 SWAP2 SWAP1 DUP2 DUP2 MSTORE PUSH1 0x20 ADD DUP3 DUP1 SLOAD PUSH2 0x9DD SWAP1 PUSH2 0x113F JUMP JUMPDEST DUP1 ISZERO PUSH2 0xA28 JUMPI DUP1 PUSH1 0x1F LT PUSH2 0x9FF JUMPI PUSH2 0x100 DUP1 DUP4 SLOAD DIV MUL DUP4 MSTORE SWAP2 PUSH1 0x20 ADD SWAP2 PUSH2 0xA28 JUMP JUMPDEST DUP3 ADD SWAP2 SWAP1 PUSH0 MSTORE PUSH1 0x20 PUSH0 KECCAK256 SWAP1 JUMPDEST DUP2 SLOAD DUP2 MSTORE SWAP1 PUSH1 0x1 ADD SWAP1 PUSH1 0x20 ADD DUP1 DUP4 GT PUSH2 0xA0B JUMPI DUP3 SWAP1 SUB PUSH1 0x1F AND DUP3 ADD SWAP2 JUMPDEST POP POP POP POP POP SWAP1 DUP1 PUSH1 0x2 ADD SLOAD SWAP1 DUP1 PUSH1 0x3 ADD SLOAD SWAP1 DUP1 PUSH1 0x4 ADD SLOAD SWAP1 DUP1 PUSH1 0x7 ADD PUSH0 SWAP1 SLOAD SWAP1 PUSH2 0x100 EXP SWAP1 DIV PUSH1 0xFF AND SWAP1 DUP1 PUSH1 0x7 ADD PUSH1 0x1 SWAP1 SLOAD SWAP1 PUSH2 0x100 EXP SWAP1 DIV PUSH1 0xFF AND SWAP1 POP DUP8 JUMP JUMPDEST PUSH1 0x2 SLOAD DUP2 JUMP JUMPDEST PUSH0 PUSH1 0x40 MLOAD SWAP1 POP SWAP1 JUMP JUMPDEST PUSH0 DUP1 REVERT JUMPDEST PUSH0 DUP1 REVERT JUMPDEST PUSH0 DUP2 SWAP1 POP SWAP2 SWAP1 POP JUMP JUMPDEST PUSH2 0xA92 DUP2 PUSH2 0xA80 JUMP JUMPDEST DUP2 EQ PUSH2 0xA9C JUMPI PUSH0 DUP1 REVERT JUMPDEST POP JUMP JUMPDEST PUSH0 DUP2 CALLDATALOAD SWAP1 POP PUSH2 0xAAD DUP2 PUSH2 0xA89 JUMP JUMPDEST SWAP3 SWAP2 POP POP JUMP JUMPDEST PUSH0 PUSH1 0x20 DUP3 DUP5 SUB SLT ISZERO PUSH2 0xAC8 JUMPI PUSH2 0xAC7 PUSH2 0xA78 JUMP JUMPDEST JUMPDEST PUSH0 PUSH2 0xAD5 DUP5 DUP3 DUP6 ADD PUSH2 0xA9F JUMP JUMPDEST SWAP2 POP POP SWAP3 SWAP2 POP POP JUMP JUMPDEST PUSH0 DUP1 REVERT JUMPDEST PUSH0 DUP1 REVERT JUMPDEST PUSH0 PUSH1 0x1F NOT PUSH1 0x1F DUP4 ADD AND SWAP1 POP SWAP2 SWAP1 POP JUMP JUMPDEST PUSH32 0x4E487B7100000000000000000000000000000000000000000000000000000000 PUSH0 MSTORE PUSH1 0x41 PUSH1 0x4 MSTORE PUSH1 0x24 PUSH0 REVERT JUMPDEST PUSH2 0xB2C DUP3 PUSH2 0xAE6 JUMP JUMPDEST DUP2 ADD DUP2 DUP2 LT PUSH8 0xFFFFFFFFFFFFFFFF DUP3 GT OR ISZERO PUSH2 0xB4B JUMPI PUSH2 0xB4A PUSH2 0xAF6 JUMP JUMPDEST JUMPDEST DUP1 PUSH1 0x40 MSTORE POP POP POP JUMP JUMPDEST PUSH0 PUSH2 0xB5D PUSH2 0xA6F JUMP JUMPDEST SWAP1 POP PUSH2 0xB69 DUP3 DUP3 PUSH2 0xB23 JUMP JUMPDEST SWAP2 SWAP1 POP JUMP JUMPDEST PUSH0 PUSH8 0xFFFFFFFFFFFFFFFF DUP3 GT ISZERO PUSH2 0xB88 JUMPI PUSH2 0xB87 PUSH2 0xAF6 JUMP JUMPDEST JUMPDEST PUSH2 0xB91 DUP3 PUSH2 0xAE6 JUMP JUMPDEST SWAP1 POP PUSH1 0x20 DUP2 ADD SWAP1 POP SWAP2 SWAP1 POP JUMP JUMPDEST DUP3 DUP2 DUP4 CALLDATACOPY PUSH0 DUP4 DUP4 ADD MSTORE POP POP POP JUMP JUMPDEST PUSH0 PUSH2 0xBBE PUSH2 0xBB9 DUP5 PUSH2 0xB6E JUMP JUMPDEST PUSH2 0xB54 JUMP JUMPDEST SWAP1 POP DUP3 DUP2 MSTORE PUSH1 0x20 DUP2 ADD DUP5 DUP5 DUP5 ADD GT ISZERO PUSH2 0xBDA JUMPI PUSH2 0xBD9 PUSH2 0xAE2 JUMP JUMPDEST JUMPDEST PUSH2 0xBE5 DUP5 DUP3 DUP6 PUSH2 0xB9E JUMP JUMPDEST POP SWAP4 SWAP3 POP POP POP JUMP JUMPDEST PUSH0 DUP3 PUSH1 0x1F DUP4 ADD SLT PUSH2 0xC01 JUMPI PUSH2 0xC00 PUSH2 0xADE JUMP JUMPDEST JUMPDEST DUP2 CALLDATALOAD PUSH2 0xC11 DUP5 DUP3 PUSH1 0x20 DUP7 ADD PUSH2 0xBAC JUMP JUMPDEST SWAP2 POP POP SWAP3 SWAP2 POP POP JUMP JUMPDEST PUSH0 DUP1 PUSH0 PUSH1 0x60 DUP5 DUP7 SUB SLT ISZERO PUSH2 0xC31 JUMPI PUSH2 0xC30 PUSH2 0xA78 JUMP JUMPDEST JUMPDEST PUSH0 DUP5 ADD CALLDATALOAD PUSH8 0xFFFFFFFFFFFFFFFF DUP2 GT ISZERO PUSH2 0xC4E JUMPI PUSH2 0xC4D PUSH2 0xA7C JUMP JUMPDEST JUMPDEST PUSH2 0xC5A DUP7 DUP3 DUP8 ADD PUSH2 0xBED JUMP JUMPDEST SWAP4 POP POP PUSH1 0x20 PUSH2 0xC6B DUP7 DUP3 DUP8 ADD PUSH2 0xA9F JUMP JUMPDEST SWAP3 POP POP PUSH1 0x40 PUSH2 0xC7C DUP7 DUP3 DUP8 ADD PUSH2 0xA9F JUMP JUMPDEST SWAP2 POP POP SWAP3 POP SWAP3 POP SWAP3 JUMP JUMPDEST PUSH0 PUSH20 0xFFFFFFFFFFFFFFFFFFFFFFFFFFFFFFFFFFFFFFFF DUP3 AND SWAP1 POP SWAP2 SWAP1 POP JUMP JUMPDEST PUSH0 PUSH2 0xCAF DUP3 PUSH2 0xC86 JUMP JUMPDEST SWAP1 POP SWAP2 SWAP1 POP JUMP JUMPDEST PUSH2 0xCBF DUP2 PUSH2 0xCA5 JUMP JUMPDEST DUP3 MSTORE POP POP JUMP JUMPDEST PUSH0 PUSH1 0x20 DUP3 ADD SWAP1 POP PUSH2 0xCD8 PUSH0 DUP4 ADD DUP5 PUSH2 0xCB6 JUMP JUMPDEST SWAP3 SWAP2 POP POP JUMP JUMPDEST PUSH0 DUP2 MLOAD SWAP1 POP SWAP2 SWAP1 POP JUMP JUMPDEST PUSH0 DUP3 DUP3 MSTORE PUSH1 0x20 DUP3 ADD SWAP1 POP SWAP3 SWAP2 POP POP JUMP JUMPDEST PUSH0 JUMPDEST DUP4 DUP2 LT ISZERO PUSH2 0xD15 JUMPI DUP1 DUP3 ADD MLOAD DUP2 DUP5 ADD MSTORE PUSH1 0x20 DUP2 ADD SWAP1 POP PUSH2 0xCFA JUMP JUMPDEST PUSH0 DUP5 DUP5 ADD MSTORE POP POP POP POP JUMP JUMPDEST PUSH0 PUSH2 0xD2A DUP3 PUSH2 0xCDE JUMP JUMPDEST PUSH2 0xD34 DUP2 DUP6 PUSH2 0xCE8 JUMP JUMPDEST SWAP4 POP PUSH2 0xD44 DUP2 DUP6 PUSH1 0x20 DUP7 ADD PUSH2 0xCF8 JUMP JUMPDEST PUSH2 0xD4D DUP2 PUSH2 0xAE6 JUMP JUMPDEST DUP5 ADD SWAP2 POP POP SWAP3 SWAP2 POP POP JUMP JUMPDEST PUSH2 0xD61 DUP2 PUSH2 0xA80 JUMP JUMPDEST DUP3 MSTORE POP POP JUMP JUMPDEST PUSH0 DUP2 ISZERO ISZERO SWAP1 POP SWAP2 SWAP1 POP JUMP JUMPDEST PUSH2 0xD7B DUP2 PUSH2 0xD67 JUMP JUMPDEST DUP3 MSTORE POP POP JUMP JUMPDEST PUSH0 PUSH1 0xE0 DUP3 ADD SWAP1 POP PUSH2 0xD94 PUSH0 DUP4 ADD DUP11 PUSH2 0xCB6 JUMP JUMPDEST DUP2 DUP2 SUB PUSH1 0x20 DUP4 ADD MSTORE PUSH2 0xDA6 DUP2 DUP10 PUSH2 0xD20 JUMP JUMPDEST SWAP1 POP PUSH2 0xDB5 PUSH1 0x40 DUP4 ADD DUP9 PUSH2 0xD58 JUMP JUMPDEST PUSH2 0xDC2 PUSH1 0x60 DUP4 ADD DUP8 PUSH2 0xD58 JUMP JUMPDEST PUSH2 0xDCF PUSH1 0x80 DUP4 ADD DUP7 PUSH2 0xD58 JUMP JUMPDEST PUSH2 0xDDC PUSH1 0xA0 DUP4 ADD DUP6 PUSH2 0xD72 JUMP JUMPDEST PUSH2 0xDE9 PUSH1 0xC0 DUP4 ADD DUP5 PUSH2 0xD72 JUMP JUMPDEST SWAP9 SWAP8 POP POP POP POP POP POP POP POP JUMP JUMPDEST PUSH0 PUSH1 0x20 DUP3 ADD SWAP1 POP PUSH2 0xE08 PUSH0 DUP4 ADD DUP5 PUSH2 0xD58 JUMP JUMPDEST SWAP3 SWAP2 POP POP JUMP JUMPDEST PUSH32 0x4E6F207265717565737420746F2077697468647261776E000000000000000000 PUSH0 DUP3 ADD MSTORE POP JUMP JUMPDEST PUSH0 PUSH2 0xE42 PUSH1 0x17 DUP4 PUSH2 0xCE8 JUMP JUMPDEST SWAP2 POP PUSH2 0xE4D DUP3 PUSH2 0xE0E JUMP JUMPDEST PUSH1 0x20 DUP3 ADD SWAP1 POP SWAP2 SWAP1 POP JUMP JUMPDEST PUSH0 PUSH1 0x20 DUP3 ADD SWAP1 POP DUP2 DUP2 SUB PUSH0 DUP4 ADD MSTORE PUSH2 0xE6F DUP2 PUSH2 0xE36 JUMP JUMPDEST SWAP1 POP SWAP2 SWAP1 POP JUMP JUMPDEST PUSH0 DUP2 SWAP1 POP SWAP3 SWAP2 POP POP JUMP JUMPDEST POP JUMP JUMPDEST PUSH0 PUSH2 0xE8E PUSH0 DUP4 PUSH2 0xE76 JUMP JUMPDEST SWAP2 POP PUSH2 0xE99 DUP3 PUSH2 0xE80 JUMP JUMPDEST PUSH0 DUP3 ADD SWAP1 POP SWAP2 SWAP1 POP JUMP JUMPDEST PUSH0 PUSH2 0xEAD DUP3 PUSH2 0xE83 JUMP JUMPDEST SWAP2 POP DUP2 SWAP1 POP SWAP2 SWAP1 POP JUMP JUMPDEST PUSH32 0x5472616E73666572204661696C65640000000000000000000000000000000000 PUSH0 DUP3 ADD MSTORE POP JUMP JUMPDEST PUSH0 PUSH2 0xEEB PUSH1 0xF DUP4 PUSH2 0xCE8 JUMP JUMPDEST SWAP2 POP PUSH2 0xEF6 DUP3 PUSH2 0xEB7 JUMP JUMPDEST PUSH1 0x20 DUP3 ADD SWAP1 POP SWAP2 SWAP1 POP JUMP JUMPDEST PUSH0 PUSH1 0x20 DUP3 ADD SWAP1 POP DUP2 DUP2 SUB PUSH0 DUP4 ADD MSTORE PUSH2 0xF18 DUP2 PUSH2 0xEDF JUMP JUMPDEST SWAP1 POP SWAP2 SWAP1 POP JUMP JUMPDEST PUSH0 PUSH1 0x40 DUP3 ADD SWAP1 POP PUSH2 0xF32 PUSH0 DUP4 ADD DUP6 PUSH2 0xD58 JUMP JUMPDEST PUSH2 0xF3F PUSH1 0x20 DUP4 ADD DUP5 PUSH2 0xCB6 JUMP JUMPDEST SWAP4 SWAP3 POP POP POP JUMP JUMPDEST PUSH32 0x4E487B7100000000000000000000000000000000000000000000000000000000 PUSH0 MSTORE PUSH1 0x32 PUSH1 0x4 MSTORE PUSH1 0x24 PUSH0 REVERT JUMPDEST PUSH0 PUSH1 0x60 DUP3 ADD SWAP1 POP PUSH2 0xF86 PUSH0 DUP4 ADD DUP7 PUSH2 0xD58 JUMP JUMPDEST PUSH2 0xF93 PUSH1 0x20 DUP4 ADD DUP6 PUSH2 0xCB6 JUMP JUMPDEST PUSH2 0xFA0 PUSH1 0x40 DUP4 ADD DUP5 PUSH2 0xD58 JUMP JUMPDEST SWAP5 SWAP4 POP POP POP POP JUMP JUMPDEST PUSH32 0x4E487B7100000000000000000000000000000000000000000000000000000000 PUSH0 MSTORE PUSH1 0x11 PUSH1 0x4 MSTORE PUSH1 0x24 PUSH0 REVERT JUMPDEST PUSH0 PUSH2 0xFDF DUP3 PUSH2 0xA80 JUMP JUMPDEST SWAP2 POP PUSH32 0xFFFFFFFFFFFFFFFFFFFFFFFFFFFFFFFFFFFFFFFFFFFFFFFFFFFFFFFFFFFFFFFF DUP3 SUB PUSH2 0x1011 JUMPI PUSH2 0x1010 PUSH2 0xFA8 JUMP JUMPDEST JUMPDEST PUSH1 0x1 DUP3 ADD SWAP1 POP SWAP2 SWAP1 POP JUMP JUMPDEST PUSH32 0x416C72656164792077697468447261776E436F6D706C65746564000000000000 PUSH0 DUP3 ADD MSTORE POP JUMP JUMPDEST PUSH0 PUSH2 0x1050 PUSH1 0x1A DUP4 PUSH2 0xCE8 JUMP JUMPDEST SWAP2 POP PUSH2 0x105B DUP3 PUSH2 0x101C JUMP JUMPDEST PUSH1 0x20 DUP3 ADD SWAP1 POP SWAP2 SWAP1 POP JUMP JUMPDEST PUSH0 PUSH1 0x20 DUP3 ADD SWAP1 POP DUP2 DUP2 SUB PUSH0 DUP4 ADD MSTORE PUSH2 0x107D DUP2 PUSH2 0x1044 JUMP JUMPDEST SWAP1 POP SWAP2 SWAP1 POP JUMP JUMPDEST PUSH32 0x4F6E6C79206F776E65722063616E206D616B65207265717565737420746F2077 PUSH0 DUP3 ADD MSTORE PUSH32 0x6974686472617700000000000000000000000000000000000000000000000000 PUSH1 0x20 DUP3 ADD MSTORE POP JUMP JUMPDEST PUSH0 PUSH2 0x10DE PUSH1 0x27 DUP4 PUSH2 0xCE8 JUMP JUMPDEST SWAP2 POP PUSH2 0x10E9 DUP3 PUSH2 0x1084 JUMP JUMPDEST PUSH1 0x40 DUP3 ADD SWAP1 POP SWAP2 SWAP1 POP JUMP JUMPDEST PUSH0 PUSH1 0x20 DUP3 ADD SWAP1 POP DUP2 DUP2 SUB PUSH0 DUP4 ADD MSTORE PUSH2 0x110B DUP2 PUSH2 0x10D2 JUMP JUMPDEST SWAP1 POP SWAP2 SWAP1 POP JUMP JUMPDEST PUSH32 0x4E487B7100000000000000000000000000000000000000000000000000000000 PUSH0 MSTORE PUSH1 0x22 PUSH1 0x4 MSTORE PUSH1 0x24 PUSH0 REVERT JUMPDEST PUSH0 PUSH1 0x2 DUP3 DIV SWAP1 POP PUSH1 0x1 DUP3 AND DUP1 PUSH2 0x1156 JUMPI PUSH1 0x7F DUP3 AND SWAP2 POP JUMPDEST PUSH1 0x20 DUP3 LT DUP2 SUB PUSH2 0x1169 JUMPI PUSH2 0x1168 PUSH2 0x1112 JUMP JUMPDEST JUMPDEST POP SWAP2 SWAP1 POP JUMP JUMPDEST PUSH0 DUP2 SWAP1 POP DUP2 PUSH0 MSTORE PUSH1 0x20 PUSH0 KECCAK256 SWAP1 POP SWAP2 SWAP1 POP JUMP JUMPDEST PUSH0 PUSH1 0x20 PUSH1 0x1F DUP4 ADD DIV SWAP1 POP SWAP2 SWAP1 POP JUMP JUMPDEST PUSH0 DUP3 DUP3 SHL SWAP1 POP SWAP3 SWAP2 POP POP JUMP JUMPDEST PUSH0 PUSH1 0x8 DUP4 MUL PUSH2 0x11CB PUSH32 0xFFFFFFFFFFFFFFFFFFFFFFFFFFFFFFFFFFFFFFFFFFFFFFFFFFFFFFFFFFFFFFFF DUP3 PUSH2 0x1190 JUMP JUMPDEST PUSH2 0x11D5 DUP7 DUP4 PUSH2 0x1190 JUMP JUMPDEST SWAP6 POP DUP1 NOT DUP5 AND SWAP4 POP DUP1 DUP7 AND DUP5 OR SWAP3 POP POP POP SWAP4 SWAP3 POP POP POP JUMP JUMPDEST PUSH0 DUP2 SWAP1 POP SWAP2 SWAP1 POP JUMP JUMPDEST PUSH0 PUSH2 0x1210 PUSH2 0x120B PUSH2 0x1206 DUP5 PUSH2 0xA80 JUMP JUMPDEST PUSH2 0x11ED JUMP JUMPDEST PUSH2 0xA80 JUMP JUMPDEST SWAP1 POP SWAP2 SWAP1 POP JUMP JUMPDEST PUSH0 DUP2 SWAP1 POP SWAP2 SWAP1 POP JUMP JUMPDEST PUSH2 0x1229 DUP4 PUSH2 0x11F6 JUMP JUMPDEST PUSH2 0x123D PUSH2 0x1235 DUP3 PUSH2 0x1217 JUMP JUMPDEST DUP5 DUP5 SLOAD PUSH2 0x119C JUMP JUMPDEST DUP3 SSTORE POP POP POP POP JUMP JUMPDEST PUSH0 SWAP1 JUMP JUMPDEST PUSH2 0x1251 PUSH2 0x1245 JUMP JUMPDEST PUSH2 0x125C DUP2 DUP5 DUP5 PUSH2 0x1220 JUMP JUMPDEST POP POP POP JUMP JUMPDEST JUMPDEST DUP2 DUP2 LT ISZERO PUSH2 0x127F JUMPI PUSH2 0x1274 PUSH0 DUP3 PUSH2 0x1249 JUMP JUMPDEST PUSH1 0x1 DUP2 ADD SWAP1 POP PUSH2 0x1262 JUMP JUMPDEST POP POP JUMP JUMPDEST PUSH1 0x1F DUP3 GT ISZERO PUSH2 0x12C4 JUMPI PUSH2 0x1295 DUP2 PUSH2 0x116F JUMP JUMPDEST PUSH2 0x129E DUP5 PUSH2 0x1181 JUMP JUMPDEST DUP2 ADD PUSH1 0x20 DUP6 LT ISZERO PUSH2 0x12AD JUMPI DUP2 SWAP1 POP JUMPDEST PUSH2 0x12C1 PUSH2 0x12B9 DUP6 PUSH2 0x1181 JUMP JUMPDEST DUP4 ADD DUP3 PUSH2 0x1261 JUMP JUMPDEST POP POP JUMPDEST POP POP POP JUMP JUMPDEST PUSH0 DUP3 DUP3 SHR SWAP1 POP SWAP3 SWAP2 POP POP JUMP JUMPDEST PUSH0 PUSH2 0x12E4 PUSH0 NOT DUP5 PUSH1 0x8 MUL PUSH2 0x12C9 JUMP JUMPDEST NOT DUP1 DUP4 AND SWAP2 POP POP SWAP3 SWAP2 POP POP JUMP JUMPDEST PUSH0 PUSH2 0x12FC DUP4 DUP4 PUSH2 0x12D5 JUMP JUMPDEST SWAP2 POP DUP3 PUSH1 0x2 MUL DUP3 OR SWAP1 POP SWAP3 SWAP2 POP POP JUMP JUMPDEST PUSH2 0x1315 DUP3 PUSH2 0xCDE JUMP JUMPDEST PUSH8 0xFFFFFFFFFFFFFFFF DUP2 GT ISZERO PUSH2 0x132E JUMPI PUSH2 0x132D PUSH2 0xAF6 JUMP JUMPDEST JUMPDEST PUSH2 0x1338 DUP3 SLOAD PUSH2 0x113F JUMP JUMPDEST PUSH2 0x1343 DUP3 DUP3 DUP6 PUSH2 0x1283 JUMP JUMPDEST PUSH0 PUSH1 0x20 SWAP1 POP PUSH1 0x1F DUP4 GT PUSH1 0x1 DUP2 EQ PUSH2 0x1374 JUMPI PUSH0 DUP5 ISZERO PUSH2 0x1362 JUMPI DUP3 DUP8 ADD MLOAD SWAP1 POP JUMPDEST PUSH2 0x136C DUP6 DUP3 PUSH2 0x12F1 JUMP JUMPDEST DUP7 SSTORE POP PUSH2 0x13D3 JUMP JUMPDEST PUSH1 0x1F NOT DUP5 AND PUSH2 0x1382 DUP7 PUSH2 0x116F JUMP JUMPDEST PUSH0 JUMPDEST DUP3 DUP2 LT ISZERO PUSH2 0x13A9 JUMPI DUP5 DUP10 ADD MLOAD DUP3 SSTORE PUSH1 0x1 DUP3 ADD SWAP2 POP PUSH1 0x20 DUP6 ADD SWAP5 POP PUSH1 0x20 DUP2 ADD SWAP1 POP PUSH2 0x1384 JUMP JUMPDEST DUP7 DUP4 LT ISZERO PUSH2 0x13C6 JUMPI DUP5 DUP10 ADD MLOAD PUSH2 0x13C2 PUSH1 0x1F DUP10 AND DUP3 PUSH2 0x12D5 JUMP JUMPDEST DUP4 SSTORE POP JUMPDEST PUSH1 0x1 PUSH1 0x2 DUP9 MUL ADD DUP9 SSTORE POP POP POP JUMPDEST POP POP POP POP POP POP JUMP JUMPDEST PUSH0 PUSH2 0x13E5 DUP3 PUSH2 0xA80 JUMP JUMPDEST SWAP2 POP PUSH2 0x13F0 DUP4 PUSH2 0xA80 JUMP JUMPDEST SWAP3 POP DUP3 DUP3 ADD SWAP1 POP DUP1 DUP3 GT ISZERO PUSH2 0x1408 JUMPI PUSH2 0x1407 PUSH2 0xFA8 JUMP JUMPDEST JUMPDEST SWAP3 SWAP2 POP POP JUMP INVALID LOG2 PUSH5 0x6970667358 0x22 SLT KECCAK256 0xF8 SWAP5 RETURNDATACOPY PUSH13 0x1F5DD57239C2941B4E32348CCB MSTORE8 MSTORE CODECOPY PUSH16 0x6105B063159FDA355B51BA64736F6C63 NUMBER STOP ADDMOD EQ STOP CALLER "
				},
				"gasEstimates": {
					"creation": {
						"codeDepositCost": "1037600",
						"executionCost": "25343",
						"totalCost": "1062943"
					},
					"external": {
						"campaings(uint256)": "infinite",
						"capmaignCount()": "2491",
						"createCampaign(string,uint256,uint256)": "infinite",
						"donateToCampaign(uint256)": "infinite",
						"manager()": "2527",
						"refund(uint256)": "infinite",
						"requestWithDraw(uint256)": "infinite",
						"withDrawn(uint256)": "infinite"
					}
				},
				"methodIdentifiers": {
					"campaings(uint256)": "b2395a14",
					"capmaignCount()": "f31e42cc",
					"createCampaign(string,uint256,uint256)": "3020580b",
					"donateToCampaign(uint256)": "42a4fda8",
					"manager()": "481c6a75",
					"refund(uint256)": "278ecde1",
					"requestWithDraw(uint256)": "2d0b862d",
					"withDrawn(uint256)": "09f61175"
				}
			},
			"storageLayout": {
				"storage": [
					{
						"astId": 25,
						"contract": "contracts/1_Storage.sol:Campaign",
						"label": "manager",
						"offset": 0,
						"slot": "0",
						"type": "t_address"
					},
					{
						"astId": 30,
						"contract": "contracts/1_Storage.sol:Campaign",
						"label": "campaings",
						"offset": 0,
						"slot": "1",
						"type": "t_mapping(t_uint256,t_struct(campaign)23_storage)"
					},
					{
						"astId": 32,
						"contract": "contracts/1_Storage.sol:Campaign",
						"label": "capmaignCount",
						"offset": 0,
						"slot": "2",
						"type": "t_uint256"
					}
				],
				"types": {
					"t_address": {
						"encoding": "inplace",
						"label": "address",
						"numberOfBytes": "20"
					},
					"t_array(t_address)dyn_storage": {
						"base": "t_address",
						"encoding": "dynamic_array",
						"label": "address[]",
						"numberOfBytes": "32"
					},
					"t_bool": {
						"encoding": "inplace",
						"label": "bool",
						"numberOfBytes": "1"
					},
					"t_mapping(t_address,t_uint256)": {
						"encoding": "mapping",
						"key": "t_address",
						"label": "mapping(address => uint256)",
						"numberOfBytes": "32",
						"value": "t_uint256"
					},
					"t_mapping(t_uint256,t_struct(campaign)23_storage)": {
						"encoding": "mapping",
						"key": "t_uint256",
						"label": "mapping(uint256 => struct Campaign.campaign)",
						"numberOfBytes": "32",
						"value": "t_struct(campaign)23_storage"
					},
					"t_string_storage": {
						"encoding": "bytes",
						"label": "string",
						"numberOfBytes": "32"
					},
					"t_struct(campaign)23_storage": {
						"encoding": "inplace",
						"label": "struct Campaign.campaign",
						"members": [
							{
								"astId": 3,
								"contract": "contracts/1_Storage.sol:Campaign",
								"label": "owner",
								"offset": 0,
								"slot": "0",
								"type": "t_address"
							},
							{
								"astId": 5,
								"contract": "contracts/1_Storage.sol:Campaign",
								"label": "title",
								"offset": 0,
								"slot": "1",
								"type": "t_string_storage"
							},
							{
								"astId": 7,
								"contract": "contracts/1_Storage.sol:Campaign",
								"label": "targetAmount",
								"offset": 0,
								"slot": "2",
								"type": "t_uint256"
							},
							{
								"astId": 9,
								"contract": "contracts/1_Storage.sol:Campaign",
								"label": "collectedAmount",
								"offset": 0,
								"slot": "3",
								"type": "t_uint256"
							},
							{
								"astId": 11,
								"contract": "contracts/1_Storage.sol:Campaign",
								"label": "deadLine",
								"offset": 0,
								"slot": "4",
								"type": "t_uint256"
							},
							{
								"astId": 15,
								"contract": "contracts/1_Storage.sol:Campaign",
								"label": "donators",
								"offset": 0,
								"slot": "5",
								"type": "t_mapping(t_address,t_uint256)"
							},
							{
								"astId": 18,
								"contract": "contracts/1_Storage.sol:Campaign",
								"label": "donatorsList",
								"offset": 0,
								"slot": "6",
								"type": "t_array(t_address)dyn_storage"
							},
							{
								"astId": 20,
								"contract": "contracts/1_Storage.sol:Campaign",
								"label": "withdrawn",
								"offset": 0,
								"slot": "7",
								"type": "t_bool"
							},
							{
								"astId": 22,
								"contract": "contracts/1_Storage.sol:Campaign",
								"label": "requestWithDrawn",
								"offset": 1,
								"slot": "7",
								"type": "t_bool"
							}
						],
						"numberOfBytes": "256"
					},
					"t_uint256": {
						"encoding": "inplace",
						"label": "uint256",
						"numberOfBytes": "32"
					}
				}
			},
			"userdoc": {
				"kind": "user",
				"methods": {},
				"version": 1
			}
		}
	}
}