{
	"contracts/2_Owner.sol": {
		"Inbox": {
			"abi": [
				{
					"inputs": [],
					"stateMutability": "nonpayable",
					"type": "constructor"
				},
				{
					"inputs": [],
					"name": "enter",
					"outputs": [],
					"stateMutability": "payable",
					"type": "function"
				},
				{
					"inputs": [],
					"name": "getPlayers",
					"outputs": [
						{
							"internalType": "address[]",
							"name": "",
							"type": "address[]"
						}
					],
					"stateMutability": "view",
					"type": "function"
				},
				{
					"inputs": [],
					"name": "manager",
					"outputs": [
						{
							"internalType": "address",
							"name": "",
							"type": "address"
						}
					],
					"stateMutability": "view",
					"type": "function"
				},
				{
					"inputs": [],
					"name": "pickWinnder",
					"outputs": [],
					"stateMutability": "nonpayable",
					"type": "function"
				},
				{
					"inputs": [
						{
							"internalType": "uint256",
							"name": "",
							"type": "uint256"
						}
					],
					"name": "players",
					"outputs": [
						{
							"internalType": "address",
							"name": "",
							"type": "address"
						}
					],
					"stateMutability": "view",
					"type": "function"
				}
			],
			"devdoc": {
				"kind": "dev",
				"methods": {},
				"version": 1
			},
			"evm": {
				"assembly": "    /* \"contracts/2_Owner.sol\":234:1622  contract Inbox {... */\n  mstore(0x40, 0x80)\n    /* \"contracts/2_Owner.sol\":314:365  constructor() {... */\n  callvalue\n  dup1\n  iszero\n  tag_1\n  jumpi\n  0x00\n  dup1\n  revert\ntag_1:\n  pop\n    /* \"contracts/2_Owner.sol\":348:358  msg.sender */\n  caller\n    /* \"contracts/2_Owner.sol\":338:345  manager */\n  0x00\n  dup1\n    /* \"contracts/2_Owner.sol\":338:358  manager = msg.sender */\n  0x0100\n  exp\n  dup2\n  sload\n  dup2\n  0xffffffffffffffffffffffffffffffffffffffff\n  mul\n  not\n  and\n  swap1\n  dup4\n  0xffffffffffffffffffffffffffffffffffffffff\n  and\n  mul\n  or\n  swap1\n  sstore\n  pop\n    /* \"contracts/2_Owner.sol\":234:1622  contract Inbox {... */\n  dataSize(sub_0)\n  dup1\n  dataOffset(sub_0)\n  0x00\n  codecopy\n  0x00\n  return\nstop\n\nsub_0: assembly {\n        /* \"contracts/2_Owner.sol\":234:1622  contract Inbox {... */\n      mstore(0x40, 0x80)\n      jumpi(tag_1, lt(calldatasize, 0x04))\n      shr(0xe0, calldataload(0x00))\n      dup1\n      0x32bd2f68\n      eq\n      tag_2\n      jumpi\n      dup1\n      0x481c6a75\n      eq\n      tag_3\n      jumpi\n      dup1\n      0x8b5b9ccc\n      eq\n      tag_4\n      jumpi\n      dup1\n      0xe97dcb62\n      eq\n      tag_5\n      jumpi\n      dup1\n      0xf71d96cb\n      eq\n      tag_6\n      jumpi\n    tag_1:\n      0x00\n      dup1\n      revert\n        /* \"contracts/2_Owner.sol\":972:1437  function pickWinnder() public restricted{... */\n    tag_2:\n      callvalue\n      dup1\n      iszero\n      tag_7\n      jumpi\n      0x00\n      dup1\n      revert\n    tag_7:\n      pop\n      tag_8\n      tag_9\n      jump\t// in\n    tag_8:\n      stop\n        /* \"contracts/2_Owner.sol\":255:277  address public manager */\n    tag_3:\n      callvalue\n      dup1\n      iszero\n      tag_10\n      jumpi\n      0x00\n      dup1\n      revert\n    tag_10:\n      pop\n      tag_11\n      tag_12\n      jump\t// in\n    tag_11:\n      mload(0x40)\n      tag_13\n      swap2\n      swap1\n      tag_14\n      jump\t// in\n    tag_13:\n      mload(0x40)\n      dup1\n      swap2\n      sub\n      swap1\n      return\n        /* \"contracts/2_Owner.sol\":1528:1620  function getPlayers() public view returns ( address[] memory){... */\n    tag_4:\n      callvalue\n      dup1\n      iszero\n      tag_15\n      jumpi\n      0x00\n      dup1\n      revert\n    tag_15:\n      pop\n      tag_16\n      tag_17\n      jump\t// in\n    tag_16:\n      mload(0x40)\n      tag_18\n      swap2\n      swap1\n      tag_19\n      jump\t// in\n    tag_18:\n      mload(0x40)\n      dup1\n      swap2\n      sub\n      swap1\n      return\n        /* \"contracts/2_Owner.sol\":449:719  function enter() public payable { // Add money to the contract address... */\n    tag_5:\n      tag_20\n      tag_21\n      jump\t// in\n    tag_20:\n      stop\n        /* \"contracts/2_Owner.sol\":283:307  address[] public players */\n    tag_6:\n      callvalue\n      dup1\n      iszero\n      tag_22\n      jumpi\n      0x00\n      dup1\n      revert\n    tag_22:\n      pop\n      tag_23\n      0x04\n      dup1\n      calldatasize\n      sub\n      dup2\n      add\n      swap1\n      tag_24\n      swap2\n      swap1\n      tag_25\n      jump\t// in\n    tag_24:\n      tag_26\n      jump\t// in\n    tag_23:\n      mload(0x40)\n      tag_27\n      swap2\n      swap1\n      tag_14\n      jump\t// in\n    tag_27:\n      mload(0x40)\n      dup1\n      swap2\n      sub\n      swap1\n      return\n        /* \"contracts/2_Owner.sol\":972:1437  function pickWinnder() public restricted{... */\n    tag_9:\n        /* \"contracts/2_Owner.sol\":1496:1503  manager */\n      0x00\n      dup1\n      sload\n      swap1\n      0x0100\n      exp\n      swap1\n      div\n      0xffffffffffffffffffffffffffffffffffffffff\n      and\n        /* \"contracts/2_Owner.sol\":1482:1503  msg.sender == manager */\n      0xffffffffffffffffffffffffffffffffffffffff\n      and\n        /* \"contracts/2_Owner.sol\":1482:1492  msg.sender */\n      caller\n        /* \"contracts/2_Owner.sol\":1482:1503  msg.sender == manager */\n      0xffffffffffffffffffffffffffffffffffffffff\n      and\n      eq\n        /* \"contracts/2_Owner.sol\":1474:1504  require(msg.sender == manager) */\n      tag_29\n      jumpi\n      0x00\n      dup1\n      revert\n    tag_29:\n        /* \"contracts/2_Owner.sol\":1044:1051  manager */\n      0x00\n      dup1\n      sload\n      swap1\n      0x0100\n      exp\n      swap1\n      div\n      0xffffffffffffffffffffffffffffffffffffffff\n      and\n        /* \"contracts/2_Owner.sol\":1030:1051  msg.sender == manager */\n      0xffffffffffffffffffffffffffffffffffffffff\n      and\n        /* \"contracts/2_Owner.sol\":1030:1040  msg.sender */\n      caller\n        /* \"contracts/2_Owner.sol\":1030:1051  msg.sender == manager */\n      0xffffffffffffffffffffffffffffffffffffffff\n      and\n      eq\n        /* \"contracts/2_Owner.sol\":1022:1090  require(msg.sender == manager, \"Only the manager can pick a winner\") */\n      tag_31\n      jumpi\n      mload(0x40)\n      0x08c379a000000000000000000000000000000000000000000000000000000000\n      dup2\n      mstore\n      0x04\n      add\n      tag_32\n      swap1\n      tag_33\n      jump\t// in\n    tag_32:\n      mload(0x40)\n      dup1\n      swap2\n      sub\n      swap1\n      revert\n    tag_31:\n        /* \"contracts/2_Owner.sol\":1100:1110  uint index */\n      0x00\n        /* \"contracts/2_Owner.sol\":1124:1131  players */\n      0x01\n        /* \"contracts/2_Owner.sol\":1124:1138  players.length */\n      dup1\n      sload\n      swap1\n      pop\n        /* \"contracts/2_Owner.sol\":1113:1121  random() */\n      tag_34\n        /* \"contracts/2_Owner.sol\":1113:1119  random */\n      tag_35\n        /* \"contracts/2_Owner.sol\":1113:1121  random() */\n      jump\t// in\n    tag_34:\n        /* \"contracts/2_Owner.sol\":1113:1138  random() % players.length */\n      tag_36\n      swap2\n      swap1\n      tag_37\n      jump\t// in\n    tag_36:\n        /* \"contracts/2_Owner.sol\":1100:1138  uint index = random() % players.length */\n      swap1\n      pop\n        /* \"contracts/2_Owner.sol\":1264:1271  players */\n      0x01\n        /* \"contracts/2_Owner.sol\":1272:1277  index */\n      dup2\n        /* \"contracts/2_Owner.sol\":1264:1278  players[index] */\n      dup2\n      sload\n      dup2\n      lt\n      tag_38\n      jumpi\n      tag_39\n      tag_40\n      jump\t// in\n    tag_39:\n    tag_38:\n      swap1\n      0x00\n      mstore\n      keccak256(0x00, 0x20)\n      add\n      0x00\n      swap1\n      sload\n      swap1\n      0x0100\n      exp\n      swap1\n      pop\n      pop\n        /* \"contracts/2_Owner.sol\":1402:1403  0 */\n      0x00\n        /* \"contracts/2_Owner.sol\":1388:1404  new address[](0) */\n      0xffffffffffffffff\n      dup2\n      gt\n      iszero\n      tag_42\n      jumpi\n      tag_43\n      tag_44\n      jump\t// in\n    tag_43:\n    tag_42:\n      mload(0x40)\n      swap1\n      dup1\n      dup3\n      mstore\n      dup1\n      0x20\n      mul\n      0x20\n      add\n      dup3\n      add\n      0x40\n      mstore\n      dup1\n      iszero\n      tag_45\n      jumpi\n      dup2\n      0x20\n      add\n      0x20\n      dup3\n      mul\n      dup1\n      calldatasize\n      dup4\n      calldatacopy\n      dup1\n      dup3\n      add\n      swap2\n      pop\n      pop\n      swap1\n      pop\n    tag_45:\n      pop\n        /* \"contracts/2_Owner.sol\":1378:1385  players */\n      0x01\n        /* \"contracts/2_Owner.sol\":1378:1404  players = new address[](0) */\n      swap1\n      dup1\n      mload\n      swap1\n      0x20\n      add\n      swap1\n      tag_46\n      swap3\n      swap2\n      swap1\n      tag_47\n      jump\t// in\n    tag_46:\n      pop\n        /* \"contracts/2_Owner.sol\":1012:1437  {... */\n      pop\n        /* \"contracts/2_Owner.sol\":972:1437  function pickWinnder() public restricted{... */\n      jump\t// out\n        /* \"contracts/2_Owner.sol\":255:277  address public manager */\n    tag_12:\n      0x00\n      dup1\n      sload\n      swap1\n      0x0100\n      exp\n      swap1\n      div\n      0xffffffffffffffffffffffffffffffffffffffff\n      and\n      dup2\n      jump\t// out\n        /* \"contracts/2_Owner.sol\":1528:1620  function getPlayers() public view returns ( address[] memory){... */\n    tag_17:\n        /* \"contracts/2_Owner.sol\":1572:1588  address[] memory */\n      0x60\n        /* \"contracts/2_Owner.sol\":1606:1613  players */\n      0x01\n        /* \"contracts/2_Owner.sol\":1599:1613  return players */\n      dup1\n      sload\n      dup1\n      0x20\n      mul\n      0x20\n      add\n      mload(0x40)\n      swap1\n      dup2\n      add\n      0x40\n      mstore\n      dup1\n      swap3\n      swap2\n      swap1\n      dup2\n      dup2\n      mstore\n      0x20\n      add\n      dup3\n      dup1\n      sload\n      dup1\n      iszero\n      tag_49\n      jumpi\n      0x20\n      mul\n      dup3\n      add\n      swap2\n      swap1\n      0x00\n      mstore\n      keccak256(0x00, 0x20)\n      swap1\n    tag_50:\n      dup2\n      0x00\n      swap1\n      sload\n      swap1\n      0x0100\n      exp\n      swap1\n      div\n      0xffffffffffffffffffffffffffffffffffffffff\n      and\n      0xffffffffffffffffffffffffffffffffffffffff\n      and\n      dup2\n      mstore\n      0x20\n      add\n      swap1\n      0x01\n      add\n      swap1\n      dup1\n      dup4\n      gt\n      tag_50\n      jumpi\n    tag_49:\n      pop\n      pop\n      pop\n      pop\n      pop\n      swap1\n      pop\n        /* \"contracts/2_Owner.sol\":1528:1620  function getPlayers() public view returns ( address[] memory){... */\n      swap1\n      jump\t// out\n        /* \"contracts/2_Owner.sol\":449:719  function enter() public payable { // Add money to the contract address... */\n    tag_21:\n        /* \"contracts/2_Owner.sol\":548:558  0.01 ether */\n      0x2386f26fc10000\n        /* \"contracts/2_Owner.sol\":536:545  msg.value */\n      callvalue\n        /* \"contracts/2_Owner.sol\":536:558  msg.value > 0.01 ether */\n      gt\n        /* \"contracts/2_Owner.sol\":528:593  require(msg.value > 0.01 ether, \"Minimum Ether required is 0.01\") */\n      tag_52\n      jumpi\n      mload(0x40)\n      0x08c379a000000000000000000000000000000000000000000000000000000000\n      dup2\n      mstore\n      0x04\n      add\n      tag_53\n      swap1\n      tag_54\n      jump\t// in\n    tag_53:\n      mload(0x40)\n      dup1\n      swap2\n      sub\n      swap1\n      revert\n    tag_52:\n        /* \"contracts/2_Owner.sol\":639:646  players */\n      0x01\n        /* \"contracts/2_Owner.sol\":652:662  msg.sender */\n      caller\n        /* \"contracts/2_Owner.sol\":639:663  players.push(msg.sender) */\n      swap1\n      dup1\n      0x01\n      dup2\n      sload\n      add\n      dup1\n      dup3\n      sstore\n      dup1\n      swap2\n      pop\n      pop\n      0x01\n      swap1\n      sub\n      swap1\n      0x00\n      mstore\n      keccak256(0x00, 0x20)\n      add\n      0x00\n      swap1\n      swap2\n      swap1\n      swap2\n      swap1\n      swap2\n      0x0100\n      exp\n      dup2\n      sload\n      dup2\n      0xffffffffffffffffffffffffffffffffffffffff\n      mul\n      not\n      and\n      swap1\n      dup4\n      0xffffffffffffffffffffffffffffffffffffffff\n      and\n      mul\n      or\n      swap1\n      sstore\n      pop\n        /* \"contracts/2_Owner.sol\":449:719  function enter() public payable { // Add money to the contract address... */\n      jump\t// out\n        /* \"contracts/2_Owner.sol\":283:307  address[] public players */\n    tag_26:\n      0x01\n      dup2\n      dup2\n      sload\n      dup2\n      lt\n      tag_56\n      jumpi\n      0x00\n      dup1\n      revert\n    tag_56:\n      swap1\n      0x00\n      mstore\n      keccak256(0x00, 0x20)\n      add\n      0x00\n      swap2\n      pop\n      sload\n      swap1\n      0x0100\n      exp\n      swap1\n      div\n      0xffffffffffffffffffffffffffffffffffffffff\n      and\n      dup2\n      jump\t// out\n        /* \"contracts/2_Owner.sol\":819:966  function random() private view returns (uint) {... */\n    tag_35:\n        /* \"contracts/2_Owner.sol\":859:863  uint */\n      0x00\n        /* \"contracts/2_Owner.sol\":914:930  block.difficulty */\n      prevrandao\n        /* \"contracts/2_Owner.sol\":932:947  block.timestamp */\n      timestamp\n        /* \"contracts/2_Owner.sol\":949:956  players */\n      0x01\n        /* \"contracts/2_Owner.sol\":897:957  abi.encodePacked(block.difficulty, block.timestamp, players) */\n      add(0x20, mload(0x40))\n      tag_59\n      swap4\n      swap3\n      swap2\n      swap1\n      tag_60\n      jump\t// in\n    tag_59:\n      mload(0x40)\n      0x20\n      dup2\n      dup4\n      sub\n      sub\n      dup2\n      mstore\n      swap1\n      0x40\n      mstore\n        /* \"contracts/2_Owner.sol\":887:958  keccak256(abi.encodePacked(block.difficulty, block.timestamp, players)) */\n      dup1\n      mload\n      swap1\n      0x20\n      add\n      keccak256\n        /* \"contracts/2_Owner.sol\":882:959  uint(keccak256(abi.encodePacked(block.difficulty, block.timestamp, players))) */\n      0x00\n      shr\n        /* \"contracts/2_Owner.sol\":875:959  return uint(keccak256(abi.encodePacked(block.difficulty, block.timestamp, players))) */\n      swap1\n      pop\n        /* \"contracts/2_Owner.sol\":819:966  function random() private view returns (uint) {... */\n      swap1\n      jump\t// out\n    tag_47:\n      dup3\n      dup1\n      sload\n      dup3\n      dup3\n      sstore\n      swap1\n      0x00\n      mstore\n      keccak256(0x00, 0x20)\n      swap1\n      dup2\n      add\n      swap3\n      dup3\n      iszero\n      tag_61\n      jumpi\n      swap2\n      0x20\n      mul\n      dup3\n      add\n    tag_62:\n      dup3\n      dup2\n      gt\n      iszero\n      tag_63\n      jumpi\n      dup3\n      mload\n      dup3\n      exp(0x0100, 0x00)\n      dup2\n      sload\n      dup2\n      0xffffffffffffffffffffffffffffffffffffffff\n      mul\n      not\n      and\n      swap1\n      dup4\n      0xffffffffffffffffffffffffffffffffffffffff\n      and\n      mul\n      or\n      swap1\n      sstore\n      pop\n      swap2\n      0x20\n      add\n      swap2\n      swap1\n      0x01\n      add\n      swap1\n      jump(tag_62)\n    tag_63:\n    tag_61:\n      pop\n      swap1\n      pop\n      tag_64\n      swap2\n      swap1\n      tag_65\n      jump\t// in\n    tag_64:\n      pop\n      swap1\n      jump\t// out\n    tag_65:\n    tag_66:\n      dup1\n      dup3\n      gt\n      iszero\n      tag_67\n      jumpi\n      0x00\n      dup2\n      0x00\n      swap1\n      sstore\n      pop\n      0x01\n      add\n      jump(tag_66)\n    tag_67:\n      pop\n      swap1\n      jump\t// out\n        /* \"#utility.yul\":7:133   */\n    tag_68:\n        /* \"#utility.yul\":44:51   */\n      0x00\n        /* \"#utility.yul\":84:126   */\n      0xffffffffffffffffffffffffffffffffffffffff\n        /* \"#utility.yul\":77:82   */\n      dup3\n        /* \"#utility.yul\":73:127   */\n      and\n        /* \"#utility.yul\":62:127   */\n      swap1\n      pop\n        /* \"#utility.yul\":7:133   */\n      swap2\n      swap1\n      pop\n      jump\t// out\n        /* \"#utility.yul\":139:235   */\n    tag_69:\n        /* \"#utility.yul\":176:183   */\n      0x00\n        /* \"#utility.yul\":205:229   */\n      tag_106\n        /* \"#utility.yul\":223:228   */\n      dup3\n        /* \"#utility.yul\":205:229   */\n      tag_68\n      jump\t// in\n    tag_106:\n        /* \"#utility.yul\":194:229   */\n      swap1\n      pop\n        /* \"#utility.yul\":139:235   */\n      swap2\n      swap1\n      pop\n      jump\t// out\n        /* \"#utility.yul\":241:359   */\n    tag_70:\n        /* \"#utility.yul\":328:352   */\n      tag_108\n        /* \"#utility.yul\":346:351   */\n      dup2\n        /* \"#utility.yul\":328:352   */\n      tag_69\n      jump\t// in\n    tag_108:\n        /* \"#utility.yul\":323:326   */\n      dup3\n        /* \"#utility.yul\":316:353   */\n      mstore\n        /* \"#utility.yul\":241:359   */\n      pop\n      pop\n      jump\t// out\n        /* \"#utility.yul\":365:587   */\n    tag_14:\n        /* \"#utility.yul\":458:462   */\n      0x00\n        /* \"#utility.yul\":496:498   */\n      0x20\n        /* \"#utility.yul\":485:494   */\n      dup3\n        /* \"#utility.yul\":481:499   */\n      add\n        /* \"#utility.yul\":473:499   */\n      swap1\n      pop\n        /* \"#utility.yul\":509:580   */\n      tag_110\n        /* \"#utility.yul\":577:578   */\n      0x00\n        /* \"#utility.yul\":566:575   */\n      dup4\n        /* \"#utility.yul\":562:579   */\n      add\n        /* \"#utility.yul\":553:559   */\n      dup5\n        /* \"#utility.yul\":509:580   */\n      tag_70\n      jump\t// in\n    tag_110:\n        /* \"#utility.yul\":365:587   */\n      swap3\n      swap2\n      pop\n      pop\n      jump\t// out\n        /* \"#utility.yul\":593:707   */\n    tag_71:\n        /* \"#utility.yul\":660:666   */\n      0x00\n        /* \"#utility.yul\":694:699   */\n      dup2\n        /* \"#utility.yul\":688:700   */\n      mload\n        /* \"#utility.yul\":678:700   */\n      swap1\n      pop\n        /* \"#utility.yul\":593:707   */\n      swap2\n      swap1\n      pop\n      jump\t// out\n        /* \"#utility.yul\":713:897   */\n    tag_72:\n        /* \"#utility.yul\":812:823   */\n      0x00\n        /* \"#utility.yul\":846:852   */\n      dup3\n        /* \"#utility.yul\":841:844   */\n      dup3\n        /* \"#utility.yul\":834:853   */\n      mstore\n        /* \"#utility.yul\":886:890   */\n      0x20\n        /* \"#utility.yul\":881:884   */\n      dup3\n        /* \"#utility.yul\":877:891   */\n      add\n        /* \"#utility.yul\":862:891   */\n      swap1\n      pop\n        /* \"#utility.yul\":713:897   */\n      swap3\n      swap2\n      pop\n      pop\n      jump\t// out\n        /* \"#utility.yul\":903:1035   */\n    tag_73:\n        /* \"#utility.yul\":970:974   */\n      0x00\n        /* \"#utility.yul\":993:996   */\n      dup2\n        /* \"#utility.yul\":985:996   */\n      swap1\n      pop\n        /* \"#utility.yul\":1023:1027   */\n      0x20\n        /* \"#utility.yul\":1018:1021   */\n      dup3\n        /* \"#utility.yul\":1014:1028   */\n      add\n        /* \"#utility.yul\":1006:1028   */\n      swap1\n      pop\n        /* \"#utility.yul\":903:1035   */\n      swap2\n      swap1\n      pop\n      jump\t// out\n        /* \"#utility.yul\":1041:1149   */\n    tag_74:\n        /* \"#utility.yul\":1118:1142   */\n      tag_115\n        /* \"#utility.yul\":1136:1141   */\n      dup2\n        /* \"#utility.yul\":1118:1142   */\n      tag_69\n      jump\t// in\n    tag_115:\n        /* \"#utility.yul\":1113:1116   */\n      dup3\n        /* \"#utility.yul\":1106:1143   */\n      mstore\n        /* \"#utility.yul\":1041:1149   */\n      pop\n      pop\n      jump\t// out\n        /* \"#utility.yul\":1155:1334   */\n    tag_75:\n        /* \"#utility.yul\":1224:1234   */\n      0x00\n        /* \"#utility.yul\":1245:1291   */\n      tag_117\n        /* \"#utility.yul\":1287:1290   */\n      dup4\n        /* \"#utility.yul\":1279:1285   */\n      dup4\n        /* \"#utility.yul\":1245:1291   */\n      tag_74\n      jump\t// in\n    tag_117:\n        /* \"#utility.yul\":1323:1327   */\n      0x20\n        /* \"#utility.yul\":1318:1321   */\n      dup4\n        /* \"#utility.yul\":1314:1328   */\n      add\n        /* \"#utility.yul\":1300:1328   */\n      swap1\n      pop\n        /* \"#utility.yul\":1155:1334   */\n      swap3\n      swap2\n      pop\n      pop\n      jump\t// out\n        /* \"#utility.yul\":1340:1453   */\n    tag_76:\n        /* \"#utility.yul\":1410:1414   */\n      0x00\n        /* \"#utility.yul\":1442:1446   */\n      0x20\n        /* \"#utility.yul\":1437:1440   */\n      dup3\n        /* \"#utility.yul\":1433:1447   */\n      add\n        /* \"#utility.yul\":1425:1447   */\n      swap1\n      pop\n        /* \"#utility.yul\":1340:1453   */\n      swap2\n      swap1\n      pop\n      jump\t// out\n        /* \"#utility.yul\":1489:2221   */\n    tag_77:\n        /* \"#utility.yul\":1608:1611   */\n      0x00\n        /* \"#utility.yul\":1637:1691   */\n      tag_120\n        /* \"#utility.yul\":1685:1690   */\n      dup3\n        /* \"#utility.yul\":1637:1691   */\n      tag_71\n      jump\t// in\n    tag_120:\n        /* \"#utility.yul\":1707:1793   */\n      tag_121\n        /* \"#utility.yul\":1786:1792   */\n      dup2\n        /* \"#utility.yul\":1781:1784   */\n      dup6\n        /* \"#utility.yul\":1707:1793   */\n      tag_72\n      jump\t// in\n    tag_121:\n        /* \"#utility.yul\":1700:1793   */\n      swap4\n      pop\n        /* \"#utility.yul\":1817:1873   */\n      tag_122\n        /* \"#utility.yul\":1867:1872   */\n      dup4\n        /* \"#utility.yul\":1817:1873   */\n      tag_73\n      jump\t// in\n    tag_122:\n        /* \"#utility.yul\":1896:1903   */\n      dup1\n        /* \"#utility.yul\":1927:1928   */\n      0x00\n        /* \"#utility.yul\":1912:2196   */\n    tag_123:\n        /* \"#utility.yul\":1937:1943   */\n      dup4\n        /* \"#utility.yul\":1934:1935   */\n      dup2\n        /* \"#utility.yul\":1931:1944   */\n      lt\n        /* \"#utility.yul\":1912:2196   */\n      iszero\n      tag_125\n      jumpi\n        /* \"#utility.yul\":2013:2019   */\n      dup2\n        /* \"#utility.yul\":2007:2020   */\n      mload\n        /* \"#utility.yul\":2040:2103   */\n      tag_126\n        /* \"#utility.yul\":2099:2102   */\n      dup9\n        /* \"#utility.yul\":2084:2097   */\n      dup3\n        /* \"#utility.yul\":2040:2103   */\n      tag_75\n      jump\t// in\n    tag_126:\n        /* \"#utility.yul\":2033:2103   */\n      swap8\n      pop\n        /* \"#utility.yul\":2126:2186   */\n      tag_127\n        /* \"#utility.yul\":2179:2185   */\n      dup4\n        /* \"#utility.yul\":2126:2186   */\n      tag_76\n      jump\t// in\n    tag_127:\n        /* \"#utility.yul\":2116:2186   */\n      swap3\n      pop\n        /* \"#utility.yul\":1972:2196   */\n      pop\n        /* \"#utility.yul\":1959:1960   */\n      0x01\n        /* \"#utility.yul\":1956:1957   */\n      dup2\n        /* \"#utility.yul\":1952:1961   */\n      add\n        /* \"#utility.yul\":1947:1961   */\n      swap1\n      pop\n        /* \"#utility.yul\":1912:2196   */\n      jump(tag_123)\n    tag_125:\n        /* \"#utility.yul\":1916:1930   */\n      pop\n        /* \"#utility.yul\":2212:2215   */\n      dup6\n        /* \"#utility.yul\":2205:2215   */\n      swap4\n      pop\n        /* \"#utility.yul\":1613:2221   */\n      pop\n      pop\n      pop\n        /* \"#utility.yul\":1489:2221   */\n      swap3\n      swap2\n      pop\n      pop\n      jump\t// out\n        /* \"#utility.yul\":2227:2600   */\n    tag_19:\n        /* \"#utility.yul\":2370:2374   */\n      0x00\n        /* \"#utility.yul\":2408:2410   */\n      0x20\n        /* \"#utility.yul\":2397:2406   */\n      dup3\n        /* \"#utility.yul\":2393:2411   */\n      add\n        /* \"#utility.yul\":2385:2411   */\n      swap1\n      pop\n        /* \"#utility.yul\":2457:2466   */\n      dup2\n        /* \"#utility.yul\":2451:2455   */\n      dup2\n        /* \"#utility.yul\":2447:2467   */\n      sub\n        /* \"#utility.yul\":2443:2444   */\n      0x00\n        /* \"#utility.yul\":2432:2441   */\n      dup4\n        /* \"#utility.yul\":2428:2445   */\n      add\n        /* \"#utility.yul\":2421:2468   */\n      mstore\n        /* \"#utility.yul\":2485:2593   */\n      tag_129\n        /* \"#utility.yul\":2588:2592   */\n      dup2\n        /* \"#utility.yul\":2579:2585   */\n      dup5\n        /* \"#utility.yul\":2485:2593   */\n      tag_77\n      jump\t// in\n    tag_129:\n        /* \"#utility.yul\":2477:2593   */\n      swap1\n      pop\n        /* \"#utility.yul\":2227:2600   */\n      swap3\n      swap2\n      pop\n      pop\n      jump\t// out\n        /* \"#utility.yul\":2687:2804   */\n    tag_79:\n        /* \"#utility.yul\":2796:2797   */\n      0x00\n        /* \"#utility.yul\":2793:2794   */\n      dup1\n        /* \"#utility.yul\":2786:2798   */\n      revert\n        /* \"#utility.yul\":2933:3010   */\n    tag_81:\n        /* \"#utility.yul\":2970:2977   */\n      0x00\n        /* \"#utility.yul\":2999:3004   */\n      dup2\n        /* \"#utility.yul\":2988:3004   */\n      swap1\n      pop\n        /* \"#utility.yul\":2933:3010   */\n      swap2\n      swap1\n      pop\n      jump\t// out\n        /* \"#utility.yul\":3016:3138   */\n    tag_82:\n        /* \"#utility.yul\":3089:3113   */\n      tag_135\n        /* \"#utility.yul\":3107:3112   */\n      dup2\n        /* \"#utility.yul\":3089:3113   */\n      tag_81\n      jump\t// in\n    tag_135:\n        /* \"#utility.yul\":3082:3087   */\n      dup2\n        /* \"#utility.yul\":3079:3114   */\n      eq\n        /* \"#utility.yul\":3069:3132   */\n      tag_136\n      jumpi\n        /* \"#utility.yul\":3128:3129   */\n      0x00\n        /* \"#utility.yul\":3125:3126   */\n      dup1\n        /* \"#utility.yul\":3118:3130   */\n      revert\n        /* \"#utility.yul\":3069:3132   */\n    tag_136:\n        /* \"#utility.yul\":3016:3138   */\n      pop\n      jump\t// out\n        /* \"#utility.yul\":3144:3283   */\n    tag_83:\n        /* \"#utility.yul\":3190:3195   */\n      0x00\n        /* \"#utility.yul\":3228:3234   */\n      dup2\n        /* \"#utility.yul\":3215:3235   */\n      calldataload\n        /* \"#utility.yul\":3206:3235   */\n      swap1\n      pop\n        /* \"#utility.yul\":3244:3277   */\n      tag_138\n        /* \"#utility.yul\":3271:3276   */\n      dup2\n        /* \"#utility.yul\":3244:3277   */\n      tag_82\n      jump\t// in\n    tag_138:\n        /* \"#utility.yul\":3144:3283   */\n      swap3\n      swap2\n      pop\n      pop\n      jump\t// out\n        /* \"#utility.yul\":3289:3618   */\n    tag_25:\n        /* \"#utility.yul\":3348:3354   */\n      0x00\n        /* \"#utility.yul\":3397:3399   */\n      0x20\n        /* \"#utility.yul\":3385:3394   */\n      dup3\n        /* \"#utility.yul\":3376:3383   */\n      dup5\n        /* \"#utility.yul\":3372:3395   */\n      sub\n        /* \"#utility.yul\":3368:3400   */\n      slt\n        /* \"#utility.yul\":3365:3484   */\n      iszero\n      tag_140\n      jumpi\n        /* \"#utility.yul\":3403:3482   */\n      tag_141\n      tag_79\n      jump\t// in\n    tag_141:\n        /* \"#utility.yul\":3365:3484   */\n    tag_140:\n        /* \"#utility.yul\":3523:3524   */\n      0x00\n        /* \"#utility.yul\":3548:3601   */\n      tag_142\n        /* \"#utility.yul\":3593:3600   */\n      dup5\n        /* \"#utility.yul\":3584:3590   */\n      dup3\n        /* \"#utility.yul\":3573:3582   */\n      dup6\n        /* \"#utility.yul\":3569:3591   */\n      add\n        /* \"#utility.yul\":3548:3601   */\n      tag_83\n      jump\t// in\n    tag_142:\n        /* \"#utility.yul\":3538:3601   */\n      swap2\n      pop\n        /* \"#utility.yul\":3494:3611   */\n      pop\n        /* \"#utility.yul\":3289:3618   */\n      swap3\n      swap2\n      pop\n      pop\n      jump\t// out\n        /* \"#utility.yul\":3624:3793   */\n    tag_84:\n        /* \"#utility.yul\":3708:3719   */\n      0x00\n        /* \"#utility.yul\":3742:3748   */\n      dup3\n        /* \"#utility.yul\":3737:3740   */\n      dup3\n        /* \"#utility.yul\":3730:3749   */\n      mstore\n        /* \"#utility.yul\":3782:3786   */\n      0x20\n        /* \"#utility.yul\":3777:3780   */\n      dup3\n        /* \"#utility.yul\":3773:3787   */\n      add\n        /* \"#utility.yul\":3758:3787   */\n      swap1\n      pop\n        /* \"#utility.yul\":3624:3793   */\n      swap3\n      swap2\n      pop\n      pop\n      jump\t// out\n        /* \"#utility.yul\":3799:4020   */\n    tag_85:\n        /* \"#utility.yul\":3939:3973   */\n      0x4f6e6c7920746865206d616e616765722063616e207069636b20612077696e6e\n        /* \"#utility.yul\":3935:3936   */\n      0x00\n        /* \"#utility.yul\":3927:3933   */\n      dup3\n        /* \"#utility.yul\":3923:3937   */\n      add\n        /* \"#utility.yul\":3916:3974   */\n      mstore\n        /* \"#utility.yul\":4008:4012   */\n      0x6572000000000000000000000000000000000000000000000000000000000000\n        /* \"#utility.yul\":4003:4005   */\n      0x20\n        /* \"#utility.yul\":3995:4001   */\n      dup3\n        /* \"#utility.yul\":3991:4006   */\n      add\n        /* \"#utility.yul\":3984:4013   */\n      mstore\n        /* \"#utility.yul\":3799:4020   */\n      pop\n      jump\t// out\n        /* \"#utility.yul\":4026:4392   */\n    tag_86:\n        /* \"#utility.yul\":4168:4171   */\n      0x00\n        /* \"#utility.yul\":4189:4256   */\n      tag_146\n        /* \"#utility.yul\":4253:4255   */\n      0x22\n        /* \"#utility.yul\":4248:4251   */\n      dup4\n        /* \"#utility.yul\":4189:4256   */\n      tag_84\n      jump\t// in\n    tag_146:\n        /* \"#utility.yul\":4182:4256   */\n      swap2\n      pop\n        /* \"#utility.yul\":4265:4358   */\n      tag_147\n        /* \"#utility.yul\":4354:4357   */\n      dup3\n        /* \"#utility.yul\":4265:4358   */\n      tag_85\n      jump\t// in\n    tag_147:\n        /* \"#utility.yul\":4383:4385   */\n      0x40\n        /* \"#utility.yul\":4378:4381   */\n      dup3\n        /* \"#utility.yul\":4374:4386   */\n      add\n        /* \"#utility.yul\":4367:4386   */\n      swap1\n      pop\n        /* \"#utility.yul\":4026:4392   */\n      swap2\n      swap1\n      pop\n      jump\t// out\n        /* \"#utility.yul\":4398:4817   */\n    tag_33:\n        /* \"#utility.yul\":4564:4568   */\n      0x00\n        /* \"#utility.yul\":4602:4604   */\n      0x20\n        /* \"#utility.yul\":4591:4600   */\n      dup3\n        /* \"#utility.yul\":4587:4605   */\n      add\n        /* \"#utility.yul\":4579:4605   */\n      swap1\n      pop\n        /* \"#utility.yul\":4651:4660   */\n      dup2\n        /* \"#utility.yul\":4645:4649   */\n      dup2\n        /* \"#utility.yul\":4641:4661   */\n      sub\n        /* \"#utility.yul\":4637:4638   */\n      0x00\n        /* \"#utility.yul\":4626:4635   */\n      dup4\n        /* \"#utility.yul\":4622:4639   */\n      add\n        /* \"#utility.yul\":4615:4662   */\n      mstore\n        /* \"#utility.yul\":4679:4810   */\n      tag_149\n        /* \"#utility.yul\":4805:4809   */\n      dup2\n        /* \"#utility.yul\":4679:4810   */\n      tag_86\n      jump\t// in\n    tag_149:\n        /* \"#utility.yul\":4671:4810   */\n      swap1\n      pop\n        /* \"#utility.yul\":4398:4817   */\n      swap2\n      swap1\n      pop\n      jump\t// out\n        /* \"#utility.yul\":4823:5003   */\n    tag_87:\n        /* \"#utility.yul\":4871:4948   */\n      0x4e487b7100000000000000000000000000000000000000000000000000000000\n        /* \"#utility.yul\":4868:4869   */\n      0x00\n        /* \"#utility.yul\":4861:4949   */\n      mstore\n        /* \"#utility.yul\":4968:4972   */\n      0x12\n        /* \"#utility.yul\":4965:4966   */\n      0x04\n        /* \"#utility.yul\":4958:4973   */\n      mstore\n        /* \"#utility.yul\":4992:4996   */\n      0x24\n        /* \"#utility.yul\":4989:4990   */\n      0x00\n        /* \"#utility.yul\":4982:4997   */\n      revert\n        /* \"#utility.yul\":5009:5185   */\n    tag_37:\n        /* \"#utility.yul\":5041:5042   */\n      0x00\n        /* \"#utility.yul\":5058:5078   */\n      tag_152\n        /* \"#utility.yul\":5076:5077   */\n      dup3\n        /* \"#utility.yul\":5058:5078   */\n      tag_81\n      jump\t// in\n    tag_152:\n        /* \"#utility.yul\":5053:5078   */\n      swap2\n      pop\n        /* \"#utility.yul\":5092:5112   */\n      tag_153\n        /* \"#utility.yul\":5110:5111   */\n      dup4\n        /* \"#utility.yul\":5092:5112   */\n      tag_81\n      jump\t// in\n    tag_153:\n        /* \"#utility.yul\":5087:5112   */\n      swap3\n      pop\n        /* \"#utility.yul\":5131:5132   */\n      dup3\n        /* \"#utility.yul\":5121:5156   */\n      tag_154\n      jumpi\n        /* \"#utility.yul\":5136:5154   */\n      tag_155\n      tag_87\n      jump\t// in\n    tag_155:\n        /* \"#utility.yul\":5121:5156   */\n    tag_154:\n        /* \"#utility.yul\":5177:5178   */\n      dup3\n        /* \"#utility.yul\":5174:5175   */\n      dup3\n        /* \"#utility.yul\":5170:5179   */\n      mod\n        /* \"#utility.yul\":5165:5179   */\n      swap1\n      pop\n        /* \"#utility.yul\":5009:5185   */\n      swap3\n      swap2\n      pop\n      pop\n      jump\t// out\n        /* \"#utility.yul\":5191:5371   */\n    tag_40:\n        /* \"#utility.yul\":5239:5316   */\n      0x4e487b7100000000000000000000000000000000000000000000000000000000\n        /* \"#utility.yul\":5236:5237   */\n      0x00\n        /* \"#utility.yul\":5229:5317   */\n      mstore\n        /* \"#utility.yul\":5336:5340   */\n      0x32\n        /* \"#utility.yul\":5333:5334   */\n      0x04\n        /* \"#utility.yul\":5326:5341   */\n      mstore\n        /* \"#utility.yul\":5360:5364   */\n      0x24\n        /* \"#utility.yul\":5357:5358   */\n      0x00\n        /* \"#utility.yul\":5350:5365   */\n      revert\n        /* \"#utility.yul\":5377:5557   */\n    tag_44:\n        /* \"#utility.yul\":5425:5502   */\n      0x4e487b7100000000000000000000000000000000000000000000000000000000\n        /* \"#utility.yul\":5422:5423   */\n      0x00\n        /* \"#utility.yul\":5415:5503   */\n      mstore\n        /* \"#utility.yul\":5522:5526   */\n      0x41\n        /* \"#utility.yul\":5519:5520   */\n      0x04\n        /* \"#utility.yul\":5512:5527   */\n      mstore\n        /* \"#utility.yul\":5546:5550   */\n      0x24\n        /* \"#utility.yul\":5543:5544   */\n      0x00\n        /* \"#utility.yul\":5536:5551   */\n      revert\n        /* \"#utility.yul\":5563:5743   */\n    tag_88:\n        /* \"#utility.yul\":5703:5735   */\n      0x4d696e696d756d20457468657220726571756972656420697320302e30310000\n        /* \"#utility.yul\":5699:5700   */\n      0x00\n        /* \"#utility.yul\":5691:5697   */\n      dup3\n        /* \"#utility.yul\":5687:5701   */\n      add\n        /* \"#utility.yul\":5680:5736   */\n      mstore\n        /* \"#utility.yul\":5563:5743   */\n      pop\n      jump\t// out\n        /* \"#utility.yul\":5749:6115   */\n    tag_89:\n        /* \"#utility.yul\":5891:5894   */\n      0x00\n        /* \"#utility.yul\":5912:5979   */\n      tag_160\n        /* \"#utility.yul\":5976:5978   */\n      0x1e\n        /* \"#utility.yul\":5971:5974   */\n      dup4\n        /* \"#utility.yul\":5912:5979   */\n      tag_84\n      jump\t// in\n    tag_160:\n        /* \"#utility.yul\":5905:5979   */\n      swap2\n      pop\n        /* \"#utility.yul\":5988:6081   */\n      tag_161\n        /* \"#utility.yul\":6077:6080   */\n      dup3\n        /* \"#utility.yul\":5988:6081   */\n      tag_88\n      jump\t// in\n    tag_161:\n        /* \"#utility.yul\":6106:6108   */\n      0x20\n        /* \"#utility.yul\":6101:6104   */\n      dup3\n        /* \"#utility.yul\":6097:6109   */\n      add\n        /* \"#utility.yul\":6090:6109   */\n      swap1\n      pop\n        /* \"#utility.yul\":5749:6115   */\n      swap2\n      swap1\n      pop\n      jump\t// out\n        /* \"#utility.yul\":6121:6540   */\n    tag_54:\n        /* \"#utility.yul\":6287:6291   */\n      0x00\n        /* \"#utility.yul\":6325:6327   */\n      0x20\n        /* \"#utility.yul\":6314:6323   */\n      dup3\n        /* \"#utility.yul\":6310:6328   */\n      add\n        /* \"#utility.yul\":6302:6328   */\n      swap1\n      pop\n        /* \"#utility.yul\":6374:6383   */\n      dup2\n        /* \"#utility.yul\":6368:6372   */\n      dup2\n        /* \"#utility.yul\":6364:6384   */\n      sub\n        /* \"#utility.yul\":6360:6361   */\n      0x00\n        /* \"#utility.yul\":6349:6358   */\n      dup4\n        /* \"#utility.yul\":6345:6362   */\n      add\n        /* \"#utility.yul\":6338:6385   */\n      mstore\n        /* \"#utility.yul\":6402:6533   */\n      tag_163\n        /* \"#utility.yul\":6528:6532   */\n      dup2\n        /* \"#utility.yul\":6402:6533   */\n      tag_89\n      jump\t// in\n    tag_163:\n        /* \"#utility.yul\":6394:6533   */\n      swap1\n      pop\n        /* \"#utility.yul\":6121:6540   */\n      swap2\n      swap1\n      pop\n      jump\t// out\n        /* \"#utility.yul\":6546:6625   */\n    tag_90:\n        /* \"#utility.yul\":6585:6592   */\n      0x00\n        /* \"#utility.yul\":6614:6619   */\n      dup2\n        /* \"#utility.yul\":6603:6619   */\n      swap1\n      pop\n        /* \"#utility.yul\":6546:6625   */\n      swap2\n      swap1\n      pop\n      jump\t// out\n        /* \"#utility.yul\":6631:6788   */\n    tag_91:\n        /* \"#utility.yul\":6736:6781   */\n      tag_166\n        /* \"#utility.yul\":6756:6780   */\n      tag_167\n        /* \"#utility.yul\":6774:6779   */\n      dup3\n        /* \"#utility.yul\":6756:6780   */\n      tag_81\n      jump\t// in\n    tag_167:\n        /* \"#utility.yul\":6736:6781   */\n      tag_90\n      jump\t// in\n    tag_166:\n        /* \"#utility.yul\":6731:6734   */\n      dup3\n        /* \"#utility.yul\":6724:6782   */\n      mstore\n        /* \"#utility.yul\":6631:6788   */\n      pop\n      pop\n      jump\t// out\n        /* \"#utility.yul\":6794:6905   */\n    tag_92:\n        /* \"#utility.yul\":6858:6864   */\n      0x00\n        /* \"#utility.yul\":6892:6897   */\n      dup2\n        /* \"#utility.yul\":6886:6898   */\n      sload\n        /* \"#utility.yul\":6876:6898   */\n      swap1\n      pop\n        /* \"#utility.yul\":6794:6905   */\n      swap2\n      swap1\n      pop\n      jump\t// out\n        /* \"#utility.yul\":6911:7074   */\n    tag_93:\n        /* \"#utility.yul\":7028:7039   */\n      0x00\n        /* \"#utility.yul\":7065:7068   */\n      dup2\n        /* \"#utility.yul\":7050:7068   */\n      swap1\n      pop\n        /* \"#utility.yul\":6911:7074   */\n      swap3\n      swap2\n      pop\n      pop\n      jump\t// out\n        /* \"#utility.yul\":7080:7236   */\n    tag_94:\n        /* \"#utility.yul\":7144:7148   */\n      0x00\n        /* \"#utility.yul\":7167:7170   */\n      dup2\n        /* \"#utility.yul\":7159:7170   */\n      swap1\n      pop\n        /* \"#utility.yul\":7190:7193   */\n      dup2\n        /* \"#utility.yul\":7187:7188   */\n      0x00\n        /* \"#utility.yul\":7180:7194   */\n      mstore\n        /* \"#utility.yul\":7224:7228   */\n      0x20\n        /* \"#utility.yul\":7221:7222   */\n      0x00\n        /* \"#utility.yul\":7211:7229   */\n      keccak256\n        /* \"#utility.yul\":7203:7229   */\n      swap1\n      pop\n        /* \"#utility.yul\":7080:7236   */\n      swap2\n      swap1\n      pop\n      jump\t// out\n        /* \"#utility.yul\":7242:7358   */\n    tag_95:\n        /* \"#utility.yul\":7327:7351   */\n      tag_172\n        /* \"#utility.yul\":7345:7350   */\n      dup2\n        /* \"#utility.yul\":7327:7351   */\n      tag_69\n      jump\t// in\n    tag_172:\n        /* \"#utility.yul\":7322:7325   */\n      dup3\n        /* \"#utility.yul\":7315:7352   */\n      mstore\n        /* \"#utility.yul\":7242:7358   */\n      pop\n      pop\n      jump\t// out\n        /* \"#utility.yul\":7364:7559   */\n    tag_96:\n        /* \"#utility.yul\":7441:7451   */\n      0x00\n        /* \"#utility.yul\":7462:7516   */\n      tag_174\n        /* \"#utility.yul\":7512:7515   */\n      dup4\n        /* \"#utility.yul\":7504:7510   */\n      dup4\n        /* \"#utility.yul\":7462:7516   */\n      tag_95\n      jump\t// in\n    tag_174:\n        /* \"#utility.yul\":7548:7552   */\n      0x20\n        /* \"#utility.yul\":7543:7546   */\n      dup4\n        /* \"#utility.yul\":7539:7553   */\n      add\n        /* \"#utility.yul\":7525:7553   */\n      swap1\n      pop\n        /* \"#utility.yul\":7364:7559   */\n      swap3\n      swap2\n      pop\n      pop\n      jump\t// out\n        /* \"#utility.yul\":7565:7667   */\n    tag_97:\n        /* \"#utility.yul\":7607:7615   */\n      0x00\n        /* \"#utility.yul\":7654:7659   */\n      dup2\n        /* \"#utility.yul\":7651:7652   */\n      0x00\n        /* \"#utility.yul\":7647:7660   */\n      shr\n        /* \"#utility.yul\":7626:7660   */\n      swap1\n      pop\n        /* \"#utility.yul\":7565:7667   */\n      swap2\n      swap1\n      pop\n      jump\t// out\n        /* \"#utility.yul\":7673:7812   */\n    tag_98:\n        /* \"#utility.yul\":7723:7730   */\n      0x00\n        /* \"#utility.yul\":7763:7805   */\n      0xffffffffffffffffffffffffffffffffffffffff\n        /* \"#utility.yul\":7756:7761   */\n      dup3\n        /* \"#utility.yul\":7752:7806   */\n      and\n        /* \"#utility.yul\":7741:7806   */\n      swap1\n      pop\n        /* \"#utility.yul\":7673:7812   */\n      swap2\n      swap1\n      pop\n      jump\t// out\n        /* \"#utility.yul\":7818:7984   */\n    tag_99:\n        /* \"#utility.yul\":7887:7892   */\n      0x00\n        /* \"#utility.yul\":7912:7978   */\n      tag_178\n        /* \"#utility.yul\":7943:7977   */\n      tag_179\n        /* \"#utility.yul\":7966:7976   */\n      dup4\n        /* \"#utility.yul\":7943:7977   */\n      tag_97\n      jump\t// in\n    tag_179:\n        /* \"#utility.yul\":7912:7978   */\n      tag_98\n      jump\t// in\n    tag_178:\n        /* \"#utility.yul\":7903:7978   */\n      swap1\n      pop\n        /* \"#utility.yul\":7818:7984   */\n      swap2\n      swap1\n      pop\n      jump\t// out\n        /* \"#utility.yul\":7990:8134   */\n    tag_100:\n        /* \"#utility.yul\":8045:8050   */\n      0x00\n        /* \"#utility.yul\":8070:8127   */\n      tag_181\n        /* \"#utility.yul\":8121:8125   */\n      dup3\n        /* \"#utility.yul\":8115:8126   */\n      sload\n        /* \"#utility.yul\":8070:8127   */\n      tag_99\n      jump\t// in\n    tag_181:\n        /* \"#utility.yul\":8061:8127   */\n      swap1\n      pop\n        /* \"#utility.yul\":7990:8134   */\n      swap2\n      swap1\n      pop\n      jump\t// out\n        /* \"#utility.yul\":8140:8250   */\n    tag_101:\n        /* \"#utility.yul\":8207:8211   */\n      0x00\n        /* \"#utility.yul\":8239:8243   */\n      0x01\n        /* \"#utility.yul\":8234:8237   */\n      dup3\n        /* \"#utility.yul\":8230:8244   */\n      add\n        /* \"#utility.yul\":8222:8244   */\n      swap1\n      pop\n        /* \"#utility.yul\":8140:8250   */\n      swap2\n      swap1\n      pop\n      jump\t// out\n        /* \"#utility.yul\":8286:9081   */\n    tag_102:\n        /* \"#utility.yul\":8420:8423   */\n      0x00\n        /* \"#utility.yul\":8449:8500   */\n      tag_184\n        /* \"#utility.yul\":8494:8499   */\n      dup3\n        /* \"#utility.yul\":8449:8500   */\n      tag_92\n      jump\t// in\n    tag_184:\n        /* \"#utility.yul\":8516:8620   */\n      tag_185\n        /* \"#utility.yul\":8613:8619   */\n      dup2\n        /* \"#utility.yul\":8608:8611   */\n      dup6\n        /* \"#utility.yul\":8516:8620   */\n      tag_93\n      jump\t// in\n    tag_185:\n        /* \"#utility.yul\":8509:8620   */\n      swap4\n      pop\n        /* \"#utility.yul\":8644:8697   */\n      tag_186\n        /* \"#utility.yul\":8691:8696   */\n      dup4\n        /* \"#utility.yul\":8644:8697   */\n      tag_94\n      jump\t// in\n    tag_186:\n        /* \"#utility.yul\":8720:8727   */\n      dup1\n        /* \"#utility.yul\":8751:8752   */\n      0x00\n        /* \"#utility.yul\":8736:9056   */\n    tag_187:\n        /* \"#utility.yul\":8761:8767   */\n      dup4\n        /* \"#utility.yul\":8758:8759   */\n      dup2\n        /* \"#utility.yul\":8755:8768   */\n      lt\n        /* \"#utility.yul\":8736:9056   */\n      iszero\n      tag_189\n      jumpi\n        /* \"#utility.yul\":8831:8875   */\n      tag_190\n        /* \"#utility.yul\":8868:8874   */\n      dup3\n        /* \"#utility.yul\":8831:8875   */\n      tag_100\n      jump\t// in\n    tag_190:\n        /* \"#utility.yul\":8895:8966   */\n      tag_191\n        /* \"#utility.yul\":8962:8965   */\n      dup9\n        /* \"#utility.yul\":8947:8960   */\n      dup3\n        /* \"#utility.yul\":8895:8966   */\n      tag_96\n      jump\t// in\n    tag_191:\n        /* \"#utility.yul\":8888:8966   */\n      swap8\n      pop\n        /* \"#utility.yul\":8989:9046   */\n      tag_192\n        /* \"#utility.yul\":9039:9045   */\n      dup4\n        /* \"#utility.yul\":8989:9046   */\n      tag_101\n      jump\t// in\n    tag_192:\n        /* \"#utility.yul\":8979:9046   */\n      swap3\n      pop\n        /* \"#utility.yul\":8796:9056   */\n      pop\n        /* \"#utility.yul\":8783:8784   */\n      0x01\n        /* \"#utility.yul\":8780:8781   */\n      dup2\n        /* \"#utility.yul\":8776:8785   */\n      add\n        /* \"#utility.yul\":8771:8785   */\n      swap1\n      pop\n        /* \"#utility.yul\":8736:9056   */\n      jump(tag_187)\n    tag_189:\n        /* \"#utility.yul\":8740:8754   */\n      pop\n        /* \"#utility.yul\":9072:9075   */\n      dup6\n        /* \"#utility.yul\":9065:9075   */\n      swap4\n      pop\n        /* \"#utility.yul\":8425:9081   */\n      pop\n      pop\n      pop\n        /* \"#utility.yul\":8286:9081   */\n      swap3\n      swap2\n      pop\n      pop\n      jump\t// out\n        /* \"#utility.yul\":9087:9698   */\n    tag_60:\n        /* \"#utility.yul\":9302:9305   */\n      0x00\n        /* \"#utility.yul\":9317:9392   */\n      tag_194\n        /* \"#utility.yul\":9388:9391   */\n      dup3\n        /* \"#utility.yul\":9379:9385   */\n      dup7\n        /* \"#utility.yul\":9317:9392   */\n      tag_91\n      jump\t// in\n    tag_194:\n        /* \"#utility.yul\":9417:9419   */\n      0x20\n        /* \"#utility.yul\":9412:9415   */\n      dup3\n        /* \"#utility.yul\":9408:9420   */\n      add\n        /* \"#utility.yul\":9401:9420   */\n      swap2\n      pop\n        /* \"#utility.yul\":9430:9505   */\n      tag_195\n        /* \"#utility.yul\":9501:9504   */\n      dup3\n        /* \"#utility.yul\":9492:9498   */\n      dup6\n        /* \"#utility.yul\":9430:9505   */\n      tag_91\n      jump\t// in\n    tag_195:\n        /* \"#utility.yul\":9530:9532   */\n      0x20\n        /* \"#utility.yul\":9525:9528   */\n      dup3\n        /* \"#utility.yul\":9521:9533   */\n      add\n        /* \"#utility.yul\":9514:9533   */\n      swap2\n      pop\n        /* \"#utility.yul\":9550:9672   */\n      tag_196\n        /* \"#utility.yul\":9668:9671   */\n      dup3\n        /* \"#utility.yul\":9659:9665   */\n      dup5\n        /* \"#utility.yul\":9550:9672   */\n      tag_102\n      jump\t// in\n    tag_196:\n        /* \"#utility.yul\":9543:9672   */\n      swap2\n      pop\n        /* \"#utility.yul\":9689:9692   */\n      dup2\n        /* \"#utility.yul\":9682:9692   */\n      swap1\n      pop\n        /* \"#utility.yul\":9087:9698   */\n      swap5\n      swap4\n      pop\n      pop\n      pop\n      pop\n      jump\t// out\n\n    auxdata: 0xa2646970667358221220ebd155741fc6d6692fe3c765c02b446d4b7f442ca8a3bcdce5a35eeab244225f64736f6c634300081a0033\n}\n",
				"bytecode": {
					"linkReferences": {},
					"object": "6080604052348015600e575f80fd5b50335f806101000a81548173ffffffffffffffffffffffffffffffffffffffff021916908373ffffffffffffffffffffffffffffffffffffffff1602179055506109da8061005b5f395ff3fe608060405260043610610049575f3560e01c806332bd2f681461004d578063481c6a75146100635780638b5b9ccc1461008d578063e97dcb62146100b7578063f71d96cb146100c1575b5f80fd5b348015610058575f80fd5b506100616100fd565b005b34801561006e575f80fd5b50610077610284565b604051610084919061052d565b60405180910390f35b348015610098575f80fd5b506100a16102a7565b6040516100ae91906105fd565b60405180910390f35b6100bf610332565b005b3480156100cc575f80fd5b506100e760048036038101906100e29190610654565b6103dd565b6040516100f4919061052d565b60405180910390f35b5f8054906101000a900473ffffffffffffffffffffffffffffffffffffffff1673ffffffffffffffffffffffffffffffffffffffff163373ffffffffffffffffffffffffffffffffffffffff1614610153575f80fd5b5f8054906101000a900473ffffffffffffffffffffffffffffffffffffffff1673ffffffffffffffffffffffffffffffffffffffff163373ffffffffffffffffffffffffffffffffffffffff16146101e0576040517f08c379a00000000000000000000000000000000000000000000000000000000081526004016101d7906106ff565b60405180910390fd5b5f6001805490506101ef610418565b6101f9919061074a565b90506001818154811061020f5761020e61077a565b5b905f5260205f20015f9054906101000a9050505f67ffffffffffffffff81111561023c5761023b6107a7565b5b60405190808252806020026020018201604052801561026a5781602001602082028036833780820191505090505b506001908051906020019061028092919061044c565b5050565b5f8054906101000a900473ffffffffffffffffffffffffffffffffffffffff1681565b6060600180548060200260200160405190810160405280929190818152602001828054801561032857602002820191905f5260205f20905b815f9054906101000a900473ffffffffffffffffffffffffffffffffffffffff1673ffffffffffffffffffffffffffffffffffffffff16815260200190600101908083116102df575b5050505050905090565b662386f26fc10000341161037b576040517f08c379a00000000000000000000000000000000000000000000000000000000081526004016103729061081e565b60405180910390fd5b600133908060018154018082558091505060019003905f5260205f20015f9091909190916101000a81548173ffffffffffffffffffffffffffffffffffffffff021916908373ffffffffffffffffffffffffffffffffffffffff160217905550565b600181815481106103ec575f80fd5b905f5260205f20015f915054906101000a900473ffffffffffffffffffffffffffffffffffffffff1681565b5f4442600160405160200161042f9392919061096c565b604051602081830303815290604052805190602001205f1c905090565b828054828255905f5260205f209081019282156104c2579160200282015b828111156104c1578251825f6101000a81548173ffffffffffffffffffffffffffffffffffffffff021916908373ffffffffffffffffffffffffffffffffffffffff1602179055509160200191906001019061046a565b5b5090506104cf91906104d3565b5090565b5b808211156104ea575f815f9055506001016104d4565b5090565b5f73ffffffffffffffffffffffffffffffffffffffff82169050919050565b5f610517826104ee565b9050919050565b6105278161050d565b82525050565b5f6020820190506105405f83018461051e565b92915050565b5f81519050919050565b5f82825260208201905092915050565b5f819050602082019050919050565b6105788161050d565b82525050565b5f610589838361056f565b60208301905092915050565b5f602082019050919050565b5f6105ab82610546565b6105b58185610550565b93506105c083610560565b805f5b838110156105f05781516105d7888261057e565b97506105e283610595565b9250506001810190506105c3565b5085935050505092915050565b5f6020820190508181035f83015261061581846105a1565b905092915050565b5f80fd5b5f819050919050565b61063381610621565b811461063d575f80fd5b50565b5f8135905061064e8161062a565b92915050565b5f602082840312156106695761066861061d565b5b5f61067684828501610640565b91505092915050565b5f82825260208201905092915050565b7f4f6e6c7920746865206d616e616765722063616e207069636b20612077696e6e5f8201527f6572000000000000000000000000000000000000000000000000000000000000602082015250565b5f6106e960228361067f565b91506106f48261068f565b604082019050919050565b5f6020820190508181035f830152610716816106dd565b9050919050565b7f4e487b71000000000000000000000000000000000000000000000000000000005f52601260045260245ffd5b5f61075482610621565b915061075f83610621565b92508261076f5761076e61071d565b5b828206905092915050565b7f4e487b71000000000000000000000000000000000000000000000000000000005f52603260045260245ffd5b7f4e487b71000000000000000000000000000000000000000000000000000000005f52604160045260245ffd5b7f4d696e696d756d20457468657220726571756972656420697320302e303100005f82015250565b5f610808601e8361067f565b9150610813826107d4565b602082019050919050565b5f6020820190508181035f830152610835816107fc565b9050919050565b5f819050919050565b61085661085182610621565b61083c565b82525050565b5f81549050919050565b5f81905092915050565b5f819050815f5260205f209050919050565b61088b8161050d565b82525050565b5f61089c8383610882565b60208301905092915050565b5f815f1c9050919050565b5f73ffffffffffffffffffffffffffffffffffffffff82169050919050565b5f6108e46108df836108a8565b6108b3565b9050919050565b5f6108f682546108d2565b9050919050565b5f600182019050919050565b5f6109138261085c565b61091d8185610866565b935061092883610870565b805f5b8381101561095f5761093c826108eb565b6109468882610891565b9750610951836108fd565b92505060018101905061092b565b5085935050505092915050565b5f6109778286610845565b6020820191506109878285610845565b6020820191506109978284610909565b915081905094935050505056fea2646970667358221220ebd155741fc6d6692fe3c765c02b446d4b7f442ca8a3bcdce5a35eeab244225f64736f6c634300081a0033",
					"opcodes": "PUSH1 0x80 PUSH1 0x40 MSTORE CALLVALUE DUP1 ISZERO PUSH1 0xE JUMPI PUSH0 DUP1 REVERT JUMPDEST POP CALLER PUSH0 DUP1 PUSH2 0x100 EXP DUP2 SLOAD DUP2 PUSH20 0xFFFFFFFFFFFFFFFFFFFFFFFFFFFFFFFFFFFFFFFF MUL NOT AND SWAP1 DUP4 PUSH20 0xFFFFFFFFFFFFFFFFFFFFFFFFFFFFFFFFFFFFFFFF AND MUL OR SWAP1 SSTORE POP PUSH2 0x9DA DUP1 PUSH2 0x5B PUSH0 CODECOPY PUSH0 RETURN INVALID PUSH1 0x80 PUSH1 0x40 MSTORE PUSH1 0x4 CALLDATASIZE LT PUSH2 0x49 JUMPI PUSH0 CALLDATALOAD PUSH1 0xE0 SHR DUP1 PUSH4 0x32BD2F68 EQ PUSH2 0x4D JUMPI DUP1 PUSH4 0x481C6A75 EQ PUSH2 0x63 JUMPI DUP1 PUSH4 0x8B5B9CCC EQ PUSH2 0x8D JUMPI DUP1 PUSH4 0xE97DCB62 EQ PUSH2 0xB7 JUMPI DUP1 PUSH4 0xF71D96CB EQ PUSH2 0xC1 JUMPI JUMPDEST PUSH0 DUP1 REVERT JUMPDEST CALLVALUE DUP1 ISZERO PUSH2 0x58 JUMPI PUSH0 DUP1 REVERT JUMPDEST POP PUSH2 0x61 PUSH2 0xFD JUMP JUMPDEST STOP JUMPDEST CALLVALUE DUP1 ISZERO PUSH2 0x6E JUMPI PUSH0 DUP1 REVERT JUMPDEST POP PUSH2 0x77 PUSH2 0x284 JUMP JUMPDEST PUSH1 0x40 MLOAD PUSH2 0x84 SWAP2 SWAP1 PUSH2 0x52D JUMP JUMPDEST PUSH1 0x40 MLOAD DUP1 SWAP2 SUB SWAP1 RETURN JUMPDEST CALLVALUE DUP1 ISZERO PUSH2 0x98 JUMPI PUSH0 DUP1 REVERT JUMPDEST POP PUSH2 0xA1 PUSH2 0x2A7 JUMP JUMPDEST PUSH1 0x40 MLOAD PUSH2 0xAE SWAP2 SWAP1 PUSH2 0x5FD JUMP JUMPDEST PUSH1 0x40 MLOAD DUP1 SWAP2 SUB SWAP1 RETURN JUMPDEST PUSH2 0xBF PUSH2 0x332 JUMP JUMPDEST STOP JUMPDEST CALLVALUE DUP1 ISZERO PUSH2 0xCC JUMPI PUSH0 DUP1 REVERT JUMPDEST POP PUSH2 0xE7 PUSH1 0x4 DUP1 CALLDATASIZE SUB DUP2 ADD SWAP1 PUSH2 0xE2 SWAP2 SWAP1 PUSH2 0x654 JUMP JUMPDEST PUSH2 0x3DD JUMP JUMPDEST PUSH1 0x40 MLOAD PUSH2 0xF4 SWAP2 SWAP1 PUSH2 0x52D JUMP JUMPDEST PUSH1 0x40 MLOAD DUP1 SWAP2 SUB SWAP1 RETURN JUMPDEST PUSH0 DUP1 SLOAD SWAP1 PUSH2 0x100 EXP SWAP1 DIV PUSH20 0xFFFFFFFFFFFFFFFFFFFFFFFFFFFFFFFFFFFFFFFF AND PUSH20 0xFFFFFFFFFFFFFFFFFFFFFFFFFFFFFFFFFFFFFFFF AND CALLER PUSH20 0xFFFFFFFFFFFFFFFFFFFFFFFFFFFFFFFFFFFFFFFF AND EQ PUSH2 0x153 JUMPI PUSH0 DUP1 REVERT JUMPDEST PUSH0 DUP1 SLOAD SWAP1 PUSH2 0x100 EXP SWAP1 DIV PUSH20 0xFFFFFFFFFFFFFFFFFFFFFFFFFFFFFFFFFFFFFFFF AND PUSH20 0xFFFFFFFFFFFFFFFFFFFFFFFFFFFFFFFFFFFFFFFF AND CALLER PUSH20 0xFFFFFFFFFFFFFFFFFFFFFFFFFFFFFFFFFFFFFFFF AND EQ PUSH2 0x1E0 JUMPI PUSH1 0x40 MLOAD PUSH32 0x8C379A000000000000000000000000000000000000000000000000000000000 DUP2 MSTORE PUSH1 0x4 ADD PUSH2 0x1D7 SWAP1 PUSH2 0x6FF JUMP JUMPDEST PUSH1 0x40 MLOAD DUP1 SWAP2 SUB SWAP1 REVERT JUMPDEST PUSH0 PUSH1 0x1 DUP1 SLOAD SWAP1 POP PUSH2 0x1EF PUSH2 0x418 JUMP JUMPDEST PUSH2 0x1F9 SWAP2 SWAP1 PUSH2 0x74A JUMP JUMPDEST SWAP1 POP PUSH1 0x1 DUP2 DUP2 SLOAD DUP2 LT PUSH2 0x20F JUMPI PUSH2 0x20E PUSH2 0x77A JUMP JUMPDEST JUMPDEST SWAP1 PUSH0 MSTORE PUSH1 0x20 PUSH0 KECCAK256 ADD PUSH0 SWAP1 SLOAD SWAP1 PUSH2 0x100 EXP SWAP1 POP POP PUSH0 PUSH8 0xFFFFFFFFFFFFFFFF DUP2 GT ISZERO PUSH2 0x23C JUMPI PUSH2 0x23B PUSH2 0x7A7 JUMP JUMPDEST JUMPDEST PUSH1 0x40 MLOAD SWAP1 DUP1 DUP3 MSTORE DUP1 PUSH1 0x20 MUL PUSH1 0x20 ADD DUP3 ADD PUSH1 0x40 MSTORE DUP1 ISZERO PUSH2 0x26A JUMPI DUP2 PUSH1 0x20 ADD PUSH1 0x20 DUP3 MUL DUP1 CALLDATASIZE DUP4 CALLDATACOPY DUP1 DUP3 ADD SWAP2 POP POP SWAP1 POP JUMPDEST POP PUSH1 0x1 SWAP1 DUP1 MLOAD SWAP1 PUSH1 0x20 ADD SWAP1 PUSH2 0x280 SWAP3 SWAP2 SWAP1 PUSH2 0x44C JUMP JUMPDEST POP POP JUMP JUMPDEST PUSH0 DUP1 SLOAD SWAP1 PUSH2 0x100 EXP SWAP1 DIV PUSH20 0xFFFFFFFFFFFFFFFFFFFFFFFFFFFFFFFFFFFFFFFF AND DUP2 JUMP JUMPDEST PUSH1 0x60 PUSH1 0x1 DUP1 SLOAD DUP1 PUSH1 0x20 MUL PUSH1 0x20 ADD PUSH1 0x40 MLOAD SWAP1 DUP2 ADD PUSH1 0x40 MSTORE DUP1 SWAP3 SWAP2 SWAP1 DUP2 DUP2 MSTORE PUSH1 0x20 ADD DUP3 DUP1 SLOAD DUP1 ISZERO PUSH2 0x328 JUMPI PUSH1 0x20 MUL DUP3 ADD SWAP2 SWAP1 PUSH0 MSTORE PUSH1 0x20 PUSH0 KECCAK256 SWAP1 JUMPDEST DUP2 PUSH0 SWAP1 SLOAD SWAP1 PUSH2 0x100 EXP SWAP1 DIV PUSH20 0xFFFFFFFFFFFFFFFFFFFFFFFFFFFFFFFFFFFFFFFF AND PUSH20 0xFFFFFFFFFFFFFFFFFFFFFFFFFFFFFFFFFFFFFFFF AND DUP2 MSTORE PUSH1 0x20 ADD SWAP1 PUSH1 0x1 ADD SWAP1 DUP1 DUP4 GT PUSH2 0x2DF JUMPI JUMPDEST POP POP POP POP POP SWAP1 POP SWAP1 JUMP JUMPDEST PUSH7 0x2386F26FC10000 CALLVALUE GT PUSH2 0x37B JUMPI PUSH1 0x40 MLOAD PUSH32 0x8C379A000000000000000000000000000000000000000000000000000000000 DUP2 MSTORE PUSH1 0x4 ADD PUSH2 0x372 SWAP1 PUSH2 0x81E JUMP JUMPDEST PUSH1 0x40 MLOAD DUP1 SWAP2 SUB SWAP1 REVERT JUMPDEST PUSH1 0x1 CALLER SWAP1 DUP1 PUSH1 0x1 DUP2 SLOAD ADD DUP1 DUP3 SSTORE DUP1 SWAP2 POP POP PUSH1 0x1 SWAP1 SUB SWAP1 PUSH0 MSTORE PUSH1 0x20 PUSH0 KECCAK256 ADD PUSH0 SWAP1 SWAP2 SWAP1 SWAP2 SWAP1 SWAP2 PUSH2 0x100 EXP DUP2 SLOAD DUP2 PUSH20 0xFFFFFFFFFFFFFFFFFFFFFFFFFFFFFFFFFFFFFFFF MUL NOT AND SWAP1 DUP4 PUSH20 0xFFFFFFFFFFFFFFFFFFFFFFFFFFFFFFFFFFFFFFFF AND MUL OR SWAP1 SSTORE POP JUMP JUMPDEST PUSH1 0x1 DUP2 DUP2 SLOAD DUP2 LT PUSH2 0x3EC JUMPI PUSH0 DUP1 REVERT JUMPDEST SWAP1 PUSH0 MSTORE PUSH1 0x20 PUSH0 KECCAK256 ADD PUSH0 SWAP2 POP SLOAD SWAP1 PUSH2 0x100 EXP SWAP1 DIV PUSH20 0xFFFFFFFFFFFFFFFFFFFFFFFFFFFFFFFFFFFFFFFF AND DUP2 JUMP JUMPDEST PUSH0 PREVRANDAO TIMESTAMP PUSH1 0x1 PUSH1 0x40 MLOAD PUSH1 0x20 ADD PUSH2 0x42F SWAP4 SWAP3 SWAP2 SWAP1 PUSH2 0x96C JUMP JUMPDEST PUSH1 0x40 MLOAD PUSH1 0x20 DUP2 DUP4 SUB SUB DUP2 MSTORE SWAP1 PUSH1 0x40 MSTORE DUP1 MLOAD SWAP1 PUSH1 0x20 ADD KECCAK256 PUSH0 SHR SWAP1 POP SWAP1 JUMP JUMPDEST DUP3 DUP1 SLOAD DUP3 DUP3 SSTORE SWAP1 PUSH0 MSTORE PUSH1 0x20 PUSH0 KECCAK256 SWAP1 DUP2 ADD SWAP3 DUP3 ISZERO PUSH2 0x4C2 JUMPI SWAP2 PUSH1 0x20 MUL DUP3 ADD JUMPDEST DUP3 DUP2 GT ISZERO PUSH2 0x4C1 JUMPI DUP3 MLOAD DUP3 PUSH0 PUSH2 0x100 EXP DUP2 SLOAD DUP2 PUSH20 0xFFFFFFFFFFFFFFFFFFFFFFFFFFFFFFFFFFFFFFFF MUL NOT AND SWAP1 DUP4 PUSH20 0xFFFFFFFFFFFFFFFFFFFFFFFFFFFFFFFFFFFFFFFF AND MUL OR SWAP1 SSTORE POP SWAP2 PUSH1 0x20 ADD SWAP2 SWAP1 PUSH1 0x1 ADD SWAP1 PUSH2 0x46A JUMP JUMPDEST JUMPDEST POP SWAP1 POP PUSH2 0x4CF SWAP2 SWAP1 PUSH2 0x4D3 JUMP JUMPDEST POP SWAP1 JUMP JUMPDEST JUMPDEST DUP1 DUP3 GT ISZERO PUSH2 0x4EA JUMPI PUSH0 DUP2 PUSH0 SWAP1 SSTORE POP PUSH1 0x1 ADD PUSH2 0x4D4 JUMP JUMPDEST POP SWAP1 JUMP JUMPDEST PUSH0 PUSH20 0xFFFFFFFFFFFFFFFFFFFFFFFFFFFFFFFFFFFFFFFF DUP3 AND SWAP1 POP SWAP2 SWAP1 POP JUMP JUMPDEST PUSH0 PUSH2 0x517 DUP3 PUSH2 0x4EE JUMP JUMPDEST SWAP1 POP SWAP2 SWAP1 POP JUMP JUMPDEST PUSH2 0x527 DUP2 PUSH2 0x50D JUMP JUMPDEST DUP3 MSTORE POP POP JUMP JUMPDEST PUSH0 PUSH1 0x20 DUP3 ADD SWAP1 POP PUSH2 0x540 PUSH0 DUP4 ADD DUP5 PUSH2 0x51E JUMP JUMPDEST SWAP3 SWAP2 POP POP JUMP JUMPDEST PUSH0 DUP2 MLOAD SWAP1 POP SWAP2 SWAP1 POP JUMP JUMPDEST PUSH0 DUP3 DUP3 MSTORE PUSH1 0x20 DUP3 ADD SWAP1 POP SWAP3 SWAP2 POP POP JUMP JUMPDEST PUSH0 DUP2 SWAP1 POP PUSH1 0x20 DUP3 ADD SWAP1 POP SWAP2 SWAP1 POP JUMP JUMPDEST PUSH2 0x578 DUP2 PUSH2 0x50D JUMP JUMPDEST DUP3 MSTORE POP POP JUMP JUMPDEST PUSH0 PUSH2 0x589 DUP4 DUP4 PUSH2 0x56F JUMP JUMPDEST PUSH1 0x20 DUP4 ADD SWAP1 POP SWAP3 SWAP2 POP POP JUMP JUMPDEST PUSH0 PUSH1 0x20 DUP3 ADD SWAP1 POP SWAP2 SWAP1 POP JUMP JUMPDEST PUSH0 PUSH2 0x5AB DUP3 PUSH2 0x546 JUMP JUMPDEST PUSH2 0x5B5 DUP2 DUP6 PUSH2 0x550 JUMP JUMPDEST SWAP4 POP PUSH2 0x5C0 DUP4 PUSH2 0x560 JUMP JUMPDEST DUP1 PUSH0 JUMPDEST DUP4 DUP2 LT ISZERO PUSH2 0x5F0 JUMPI DUP2 MLOAD PUSH2 0x5D7 DUP9 DUP3 PUSH2 0x57E JUMP JUMPDEST SWAP8 POP PUSH2 0x5E2 DUP4 PUSH2 0x595 JUMP JUMPDEST SWAP3 POP POP PUSH1 0x1 DUP2 ADD SWAP1 POP PUSH2 0x5C3 JUMP JUMPDEST POP DUP6 SWAP4 POP POP POP POP SWAP3 SWAP2 POP POP JUMP JUMPDEST PUSH0 PUSH1 0x20 DUP3 ADD SWAP1 POP DUP2 DUP2 SUB PUSH0 DUP4 ADD MSTORE PUSH2 0x615 DUP2 DUP5 PUSH2 0x5A1 JUMP JUMPDEST SWAP1 POP SWAP3 SWAP2 POP POP JUMP JUMPDEST PUSH0 DUP1 REVERT JUMPDEST PUSH0 DUP2 SWAP1 POP SWAP2 SWAP1 POP JUMP JUMPDEST PUSH2 0x633 DUP2 PUSH2 0x621 JUMP JUMPDEST DUP2 EQ PUSH2 0x63D JUMPI PUSH0 DUP1 REVERT JUMPDEST POP JUMP JUMPDEST PUSH0 DUP2 CALLDATALOAD SWAP1 POP PUSH2 0x64E DUP2 PUSH2 0x62A JUMP JUMPDEST SWAP3 SWAP2 POP POP JUMP JUMPDEST PUSH0 PUSH1 0x20 DUP3 DUP5 SUB SLT ISZERO PUSH2 0x669 JUMPI PUSH2 0x668 PUSH2 0x61D JUMP JUMPDEST JUMPDEST PUSH0 PUSH2 0x676 DUP5 DUP3 DUP6 ADD PUSH2 0x640 JUMP JUMPDEST SWAP2 POP POP SWAP3 SWAP2 POP POP JUMP JUMPDEST PUSH0 DUP3 DUP3 MSTORE PUSH1 0x20 DUP3 ADD SWAP1 POP SWAP3 SWAP2 POP POP JUMP JUMPDEST PUSH32 0x4F6E6C7920746865206D616E616765722063616E207069636B20612077696E6E PUSH0 DUP3 ADD MSTORE PUSH32 0x6572000000000000000000000000000000000000000000000000000000000000 PUSH1 0x20 DUP3 ADD MSTORE POP JUMP JUMPDEST PUSH0 PUSH2 0x6E9 PUSH1 0x22 DUP4 PUSH2 0x67F JUMP JUMPDEST SWAP2 POP PUSH2 0x6F4 DUP3 PUSH2 0x68F JUMP JUMPDEST PUSH1 0x40 DUP3 ADD SWAP1 POP SWAP2 SWAP1 POP JUMP JUMPDEST PUSH0 PUSH1 0x20 DUP3 ADD SWAP1 POP DUP2 DUP2 SUB PUSH0 DUP4 ADD MSTORE PUSH2 0x716 DUP2 PUSH2 0x6DD JUMP JUMPDEST SWAP1 POP SWAP2 SWAP1 POP JUMP JUMPDEST PUSH32 0x4E487B7100000000000000000000000000000000000000000000000000000000 PUSH0 MSTORE PUSH1 0x12 PUSH1 0x4 MSTORE PUSH1 0x24 PUSH0 REVERT JUMPDEST PUSH0 PUSH2 0x754 DUP3 PUSH2 0x621 JUMP JUMPDEST SWAP2 POP PUSH2 0x75F DUP4 PUSH2 0x621 JUMP JUMPDEST SWAP3 POP DUP3 PUSH2 0x76F JUMPI PUSH2 0x76E PUSH2 0x71D JUMP JUMPDEST JUMPDEST DUP3 DUP3 MOD SWAP1 POP SWAP3 SWAP2 POP POP JUMP JUMPDEST PUSH32 0x4E487B7100000000000000000000000000000000000000000000000000000000 PUSH0 MSTORE PUSH1 0x32 PUSH1 0x4 MSTORE PUSH1 0x24 PUSH0 REVERT JUMPDEST PUSH32 0x4E487B7100000000000000000000000000000000000000000000000000000000 PUSH0 MSTORE PUSH1 0x41 PUSH1 0x4 MSTORE PUSH1 0x24 PUSH0 REVERT JUMPDEST PUSH32 0x4D696E696D756D20457468657220726571756972656420697320302E30310000 PUSH0 DUP3 ADD MSTORE POP JUMP JUMPDEST PUSH0 PUSH2 0x808 PUSH1 0x1E DUP4 PUSH2 0x67F JUMP JUMPDEST SWAP2 POP PUSH2 0x813 DUP3 PUSH2 0x7D4 JUMP JUMPDEST PUSH1 0x20 DUP3 ADD SWAP1 POP SWAP2 SWAP1 POP JUMP JUMPDEST PUSH0 PUSH1 0x20 DUP3 ADD SWAP1 POP DUP2 DUP2 SUB PUSH0 DUP4 ADD MSTORE PUSH2 0x835 DUP2 PUSH2 0x7FC JUMP JUMPDEST SWAP1 POP SWAP2 SWAP1 POP JUMP JUMPDEST PUSH0 DUP2 SWAP1 POP SWAP2 SWAP1 POP JUMP JUMPDEST PUSH2 0x856 PUSH2 0x851 DUP3 PUSH2 0x621 JUMP JUMPDEST PUSH2 0x83C JUMP JUMPDEST DUP3 MSTORE POP POP JUMP JUMPDEST PUSH0 DUP2 SLOAD SWAP1 POP SWAP2 SWAP1 POP JUMP JUMPDEST PUSH0 DUP2 SWAP1 POP SWAP3 SWAP2 POP POP JUMP JUMPDEST PUSH0 DUP2 SWAP1 POP DUP2 PUSH0 MSTORE PUSH1 0x20 PUSH0 KECCAK256 SWAP1 POP SWAP2 SWAP1 POP JUMP JUMPDEST PUSH2 0x88B DUP2 PUSH2 0x50D JUMP JUMPDEST DUP3 MSTORE POP POP JUMP JUMPDEST PUSH0 PUSH2 0x89C DUP4 DUP4 PUSH2 0x882 JUMP JUMPDEST PUSH1 0x20 DUP4 ADD SWAP1 POP SWAP3 SWAP2 POP POP JUMP JUMPDEST PUSH0 DUP2 PUSH0 SHR SWAP1 POP SWAP2 SWAP1 POP JUMP JUMPDEST PUSH0 PUSH20 0xFFFFFFFFFFFFFFFFFFFFFFFFFFFFFFFFFFFFFFFF DUP3 AND SWAP1 POP SWAP2 SWAP1 POP JUMP JUMPDEST PUSH0 PUSH2 0x8E4 PUSH2 0x8DF DUP4 PUSH2 0x8A8 JUMP JUMPDEST PUSH2 0x8B3 JUMP JUMPDEST SWAP1 POP SWAP2 SWAP1 POP JUMP JUMPDEST PUSH0 PUSH2 0x8F6 DUP3 SLOAD PUSH2 0x8D2 JUMP JUMPDEST SWAP1 POP SWAP2 SWAP1 POP JUMP JUMPDEST PUSH0 PUSH1 0x1 DUP3 ADD SWAP1 POP SWAP2 SWAP1 POP JUMP JUMPDEST PUSH0 PUSH2 0x913 DUP3 PUSH2 0x85C JUMP JUMPDEST PUSH2 0x91D DUP2 DUP6 PUSH2 0x866 JUMP JUMPDEST SWAP4 POP PUSH2 0x928 DUP4 PUSH2 0x870 JUMP JUMPDEST DUP1 PUSH0 JUMPDEST DUP4 DUP2 LT ISZERO PUSH2 0x95F JUMPI PUSH2 0x93C DUP3 PUSH2 0x8EB JUMP JUMPDEST PUSH2 0x946 DUP9 DUP3 PUSH2 0x891 JUMP JUMPDEST SWAP8 POP PUSH2 0x951 DUP4 PUSH2 0x8FD JUMP JUMPDEST SWAP3 POP POP PUSH1 0x1 DUP2 ADD SWAP1 POP PUSH2 0x92B JUMP JUMPDEST POP DUP6 SWAP4 POP POP POP POP SWAP3 SWAP2 POP POP JUMP JUMPDEST PUSH0 PUSH2 0x977 DUP3 DUP7 PUSH2 0x845 JUMP JUMPDEST PUSH1 0x20 DUP3 ADD SWAP2 POP PUSH2 0x987 DUP3 DUP6 PUSH2 0x845 JUMP JUMPDEST PUSH1 0x20 DUP3 ADD SWAP2 POP PUSH2 0x997 DUP3 DUP5 PUSH2 0x909 JUMP JUMPDEST SWAP2 POP DUP2 SWAP1 POP SWAP5 SWAP4 POP POP POP POP JUMP INVALID LOG2 PUSH5 0x6970667358 0x22 SLT KECCAK256 0xEB 0xD1 SSTORE PUSH21 0x1FC6D6692FE3C765C02B446D4B7F442CA8A3BCDCE5 LOG3 MCOPY 0xEA 0xB2 PREVRANDAO 0x22 PUSH0 PUSH5 0x736F6C6343 STOP ADDMOD BYTE STOP CALLER "
				},
				"gasEstimates": {
					"creation": {
						"codeDepositCost": "504400",
						"executionCost": "24800",
						"totalCost": "529200"
					},
					"external": {
						"enter()": "48760",
						"getPlayers()": "infinite",
						"manager()": "2505",
						"pickWinnder()": "infinite",
						"players(uint256)": "5010"
					},
					"internal": {
						"random()": "infinite"
					}
				},
				"methodIdentifiers": {
					"enter()": "e97dcb62",
					"getPlayers()": "8b5b9ccc",
					"manager()": "481c6a75",
					"pickWinnder()": "32bd2f68",
					"players(uint256)": "f71d96cb"
				}
			},
			"storageLayout": {
				"storage": [
					{
						"astId": 3,
						"contract": "contracts/2_Owner.sol:Inbox",
						"label": "manager",
						"offset": 0,
						"slot": "0",
						"type": "t_address"
					},
					{
						"astId": 6,
						"contract": "contracts/2_Owner.sol:Inbox",
						"label": "players",
						"offset": 0,
						"slot": "1",
						"type": "t_array(t_address)dyn_storage"
					}
				],
				"types": {
					"t_address": {
						"encoding": "inplace",
						"label": "address",
						"numberOfBytes": "20"
					},
					"t_array(t_address)dyn_storage": {
						"base": "t_address",
						"encoding": "dynamic_array",
						"label": "address[]",
						"numberOfBytes": "32"
					}
				}
			},
			"userdoc": {
				"kind": "user",
				"methods": {},
				"version": 1
			}
		}
	}
}