{
  "_format": "hh3-artifact-1",
  "contractName": "DividendDistributor",
  "sourceName": "contracts/DividendDistributor.sol",
  "abi": [
    {
      "inputs": [],
      "stateMutability": "nonpayable",
      "type": "constructor"
    },
    {
      "inputs": [],
      "name": "AccessControlBadConfirmation",
      "type": "error"
    },
    {
      "inputs": [
        {
          "internalType": "address",
          "name": "account",
          "type": "address"
        },
        {
          "internalType": "bytes32",
          "name": "neededRole",
          "type": "bytes32"
        }
      ],
      "name": "AccessControlUnauthorizedAccount",
      "type": "error"
    },
    {
      "inputs": [],
      "name": "InvalidInitialization",
      "type": "error"
    },
    {
      "inputs": [],
      "name": "NotInitializing",
      "type": "error"
    },
    {
      "anonymous": false,
      "inputs": [
        {
          "indexed": true,
          "internalType": "address",
          "name": "investor",
          "type": "address"
        },
        {
          "indexed": false,
          "internalType": "uint256",
          "name": "amount",
          "type": "uint256"
        }
      ],
      "name": "Claimed",
      "type": "event"
    },
    {
      "anonymous": false,
      "inputs": [
        {
          "indexed": false,
          "internalType": "uint64",
          "name": "version",
          "type": "uint64"
        }
      ],
      "name": "Initialized",
      "type": "event"
    },
    {
      "anonymous": false,
      "inputs": [
        {
          "indexed": false,
          "internalType": "uint256",
          "name": "totalAmount",
          "type": "uint256"
        }
      ],
      "name": "RewardDeposited",
      "type": "event"
    },
    {
      "anonymous": false,
      "inputs": [
        {
          "indexed": true,
          "internalType": "bytes32",
          "name": "role",
          "type": "bytes32"
        },
        {
          "indexed": true,
          "internalType": "bytes32",
          "name": "previousAdminRole",
          "type": "bytes32"
        },
        {
          "indexed": true,
          "internalType": "bytes32",
          "name": "newAdminRole",
          "type": "bytes32"
        }
      ],
      "name": "RoleAdminChanged",
      "type": "event"
    },
    {
      "anonymous": false,
      "inputs": [
        {
          "indexed": true,
          "internalType": "bytes32",
          "name": "role",
          "type": "bytes32"
        },
        {
          "indexed": true,
          "internalType": "address",
          "name": "account",
          "type": "address"
        },
        {
          "indexed": true,
          "internalType": "address",
          "name": "sender",
          "type": "address"
        }
      ],
      "name": "RoleGranted",
      "type": "event"
    },
    {
      "anonymous": false,
      "inputs": [
        {
          "indexed": true,
          "internalType": "bytes32",
          "name": "role",
          "type": "bytes32"
        },
        {
          "indexed": true,
          "internalType": "address",
          "name": "account",
          "type": "address"
        },
        {
          "indexed": true,
          "internalType": "address",
          "name": "sender",
          "type": "address"
        }
      ],
      "name": "RoleRevoked",
      "type": "event"
    },
    {
      "inputs": [],
      "name": "DEFAULT_ADMIN_ROLE",
      "outputs": [
        {
          "internalType": "bytes32",
          "name": "",
          "type": "bytes32"
        }
      ],
      "stateMutability": "view",
      "type": "function"
    },
    {
      "inputs": [],
      "name": "DISTRIBUTOR_ROLE",
      "outputs": [
        {
          "internalType": "bytes32",
          "name": "",
          "type": "bytes32"
        }
      ],
      "stateMutability": "view",
      "type": "function"
    },
    {
      "inputs": [],
      "name": "assetToken",
      "outputs": [
        {
          "internalType": "contract ERC20Upgradeable",
          "name": "",
          "type": "address"
        }
      ],
      "stateMutability": "view",
      "type": "function"
    },
    {
      "inputs": [],
      "name": "claimReward",
      "outputs": [],
      "stateMutability": "nonpayable",
      "type": "function"
    },
    {
      "inputs": [
        {
          "internalType": "address",
          "name": "",
          "type": "address"
        }
      ],
      "name": "claimedRewards",
      "outputs": [
        {
          "internalType": "uint256",
          "name": "",
          "type": "uint256"
        }
      ],
      "stateMutability": "view",
      "type": "function"
    },
    {
      "inputs": [
        {
          "internalType": "uint256",
          "name": "amount",
          "type": "uint256"
        }
      ],
      "name": "depositRewards",
      "outputs": [],
      "stateMutability": "nonpayable",
      "type": "function"
    },
    {
      "inputs": [
        {
          "internalType": "address",
          "name": "account",
          "type": "address"
        }
      ],
      "name": "getClaimable",
      "outputs": [
        {
          "internalType": "uint256",
          "name": "",
          "type": "uint256"
        }
      ],
      "stateMutability": "view",
      "type": "function"
    },
    {
      "inputs": [
        {
          "internalType": "bytes32",
          "name": "role",
          "type": "bytes32"
        }
      ],
      "name": "getRoleAdmin",
      "outputs": [
        {
          "internalType": "bytes32",
          "name": "",
          "type": "bytes32"
        }
      ],
      "stateMutability": "view",
      "type": "function"
    },
    {
      "inputs": [
        {
          "internalType": "bytes32",
          "name": "role",
          "type": "bytes32"
        },
        {
          "internalType": "address",
          "name": "account",
          "type": "address"
        }
      ],
      "name": "grantRole",
      "outputs": [],
      "stateMutability": "nonpayable",
      "type": "function"
    },
    {
      "inputs": [
        {
          "internalType": "bytes32",
          "name": "role",
          "type": "bytes32"
        },
        {
          "internalType": "address",
          "name": "account",
          "type": "address"
        }
      ],
      "name": "hasRole",
      "outputs": [
        {
          "internalType": "bool",
          "name": "",
          "type": "bool"
        }
      ],
      "stateMutability": "view",
      "type": "function"
    },
    {
      "inputs": [
        {
          "internalType": "address",
          "name": "_assetToken",
          "type": "address"
        },
        {
          "internalType": "address",
          "name": "_rewardToken",
          "type": "address"
        },
        {
          "internalType": "address",
          "name": "admin",
          "type": "address"
        }
      ],
      "name": "initialize",
      "outputs": [],
      "stateMutability": "nonpayable",
      "type": "function"
    },
    {
      "inputs": [
        {
          "internalType": "bytes32",
          "name": "role",
          "type": "bytes32"
        },
        {
          "internalType": "address",
          "name": "callerConfirmation",
          "type": "address"
        }
      ],
      "name": "renounceRole",
      "outputs": [],
      "stateMutability": "nonpayable",
      "type": "function"
    },
    {
      "inputs": [
        {
          "internalType": "bytes32",
          "name": "role",
          "type": "bytes32"
        },
        {
          "internalType": "address",
          "name": "account",
          "type": "address"
        }
      ],
      "name": "revokeRole",
      "outputs": [],
      "stateMutability": "nonpayable",
      "type": "function"
    },
    {
      "inputs": [],
      "name": "rewardToken",
      "outputs": [
        {
          "internalType": "contract ERC20Upgradeable",
          "name": "",
          "type": "address"
        }
      ],
      "stateMutability": "view",
      "type": "function"
    },
    {
      "inputs": [
        {
          "internalType": "bytes4",
          "name": "interfaceId",
          "type": "bytes4"
        }
      ],
      "name": "supportsInterface",
      "outputs": [
        {
          "internalType": "bool",
          "name": "",
          "type": "bool"
        }
      ],
      "stateMutability": "view",
      "type": "function"
    },
    {
      "inputs": [],
      "name": "totalDistributed",
      "outputs": [
        {
          "internalType": "uint256",
          "name": "",
          "type": "uint256"
        }
      ],
      "stateMutability": "view",
      "type": "function"
    }
  ],
  "bytecode": "0x608060405234801562000010575f80fd5b505f620000226200019c60201b60201c565b90505f815f0160089054906101000a900460ff161590505f825f015f9054906101000a900467ffffffffffffffff1690505f808267ffffffffffffffff161480156200006b5750825b90505f60018367ffffffffffffffff161480156200009f57505f3073ffffffffffffffffffffffffffffffffffffffff163b145b905081158015620000ae575080155b15620000e6576040517ff92ee8a900000000000000000000000000000000000000000000000000000000815260040160405180910390fd5b6001855f015f6101000a81548167ffffffffffffffff021916908367ffffffffffffffff160217905550831562000134576001855f0160086101000a81548160ff0219169083151502179055505b831562000191575f855f0160086101000a81548160ff0219169083151502179055507fc7f505b2f371ae2175ee4913f4499e1f2633a7b5936321eed1cdaeb6115181d260016040516200018891906200023d565b60405180910390a15b505050505062000258565b5f80620001ae620001b760201b60201c565b90508091505090565b5f7ff0c57e16840df040f15088dc2f81fe391c3923bec73e23a9662efc9c229c6a005f1b905090565b5f819050919050565b5f67ffffffffffffffff82169050919050565b5f819050919050565b5f620002256200021f6200021984620001e0565b620001fc565b620001e9565b9050919050565b620002378162000205565b82525050565b5f602082019050620002525f8301846200022c565b92915050565b6119e280620002665f395ff3fe608060405234801561000f575f80fd5b50600436106100fe575f3560e01c8063a583024b11610095578063d547741f11610064578063d547741f146102a8578063efca2eed146102c4578063f0bd87cc146102e2578063f7c618c114610300576100fe565b8063a583024b14610222578063b88a802f14610252578063bd8343451461025c578063c0c53b8b1461028c576100fe565b806336568abe116100d157806336568abe1461019c5780638bdf67f2146101b857806391d14854146101d4578063a217fddf14610204576100fe565b806301ffc9a7146101025780631083f76114610132578063248a9ca3146101505780632f2ff15d14610180575b5f80fd5b61011c60048036038101906101179190611236565b61031e565b604051610129919061127b565b60405180910390f35b61013a610397565b604051610147919061130e565b60405180910390f35b61016a6004803603810190610165919061135a565b6103ba565b6040516101779190611394565b60405180910390f35b61019a600480360381019061019591906113e8565b6103e4565b005b6101b660048036038101906101b191906113e8565b610406565b005b6101d260048036038101906101cd9190611459565b610481565b005b6101ee60048036038101906101e991906113e8565b6105df565b6040516101fb919061127b565b60405180910390f35b61020c610650565b6040516102199190611394565b60405180910390f35b61023c60048036038101906102379190611484565b610656565b60405161024991906114be565b60405180910390f35b61025a610802565b005b61027660048036038101906102719190611484565b610b8e565b60405161028391906114be565b60405180910390f35b6102a660048036038101906102a191906114d7565b610ba3565b005b6102c260048036038101906102bd91906113e8565b610ddc565b005b6102cc610dfe565b6040516102d991906114be565b60405180910390f35b6102ea610e04565b6040516102f79190611394565b60405180910390f35b610308610e28565b604051610315919061130e565b60405180910390f35b5f7f7965db0b000000000000000000000000000000000000000000000000000000007bffffffffffffffffffffffffffffffffffffffffffffffffffffffff1916827bffffffffffffffffffffffffffffffffffffffffffffffffffffffff19161480610390575061038f82610e4d565b5b9050919050565b5f8054906101000a900473ffffffffffffffffffffffffffffffffffffffff1681565b5f806103c4610eb6565b9050805f015f8481526020019081526020015f2060010154915050919050565b6103ed826103ba565b6103f681610edd565b6104008383610ef1565b50505050565b61040e610fe9565b73ffffffffffffffffffffffffffffffffffffffff168173ffffffffffffffffffffffffffffffffffffffff1614610472576040517f6697b23200000000000000000000000000000000000000000000000000000000815260040160405180910390fd5b61047c8282610ff0565b505050565b7ffbd454f36a7e1a388bd6fc3ab10d434aa4578f811acbbcf33afb1c697486313c6104ab81610edd565b5f82116104ed576040517f08c379a00000000000000000000000000000000000000000000000000000000081526004016104e490611581565b60405180910390fd5b60015f9054906101000a900473ffffffffffffffffffffffffffffffffffffffff1673ffffffffffffffffffffffffffffffffffffffff166323b872dd3330856040518463ffffffff1660e01b815260040161054b939291906115ae565b6020604051808303815f875af1158015610567573d5f803e3d5ffd5b505050506040513d601f19601f8201168201806040525081019061058b919061160d565b508160025f82825461059d9190611665565b925050819055507f4b19cb5d8df041d8b4d367efa19af33a21d398f599fb445a29acd9d5e56318c6826040516105d391906114be565b60405180910390a15050565b5f806105e9610eb6565b9050805f015f8581526020019081526020015f205f015f8473ffffffffffffffffffffffffffffffffffffffff1673ffffffffffffffffffffffffffffffffffffffff1681526020019081526020015f205f9054906101000a900460ff1691505092915050565b5f801b81565b5f805f8054906101000a900473ffffffffffffffffffffffffffffffffffffffff1673ffffffffffffffffffffffffffffffffffffffff166370a08231846040518263ffffffff1660e01b81526004016106b09190611698565b602060405180830381865afa1580156106cb573d5f803e3d5ffd5b505050506040513d601f19601f820116820180604052508101906106ef91906116c5565b90505f805f9054906101000a900473ffffffffffffffffffffffffffffffffffffffff1673ffffffffffffffffffffffffffffffffffffffff166318160ddd6040518163ffffffff1660e01b8152600401602060405180830381865afa15801561075b573d5f803e3d5ffd5b505050506040513d601f19601f8201168201806040525081019061077f91906116c5565b90505f8103610792575f925050506107fd565b5f81836002546107a291906116f0565b6107ac919061175e565b905060035f8673ffffffffffffffffffffffffffffffffffffffff1673ffffffffffffffffffffffffffffffffffffffff1681526020019081526020015f2054816107f7919061178e565b93505050505b919050565b5f805f9054906101000a900473ffffffffffffffffffffffffffffffffffffffff1673ffffffffffffffffffffffffffffffffffffffff166370a08231336040518263ffffffff1660e01b815260040161085c9190611698565b602060405180830381865afa158015610877573d5f803e3d5ffd5b505050506040513d601f19601f8201168201806040525081019061089b91906116c5565b90505f81116108df576040517f08c379a00000000000000000000000000000000000000000000000000000000081526004016108d69061180b565b60405180910390fd5b5f805f9054906101000a900473ffffffffffffffffffffffffffffffffffffffff1673ffffffffffffffffffffffffffffffffffffffff166318160ddd6040518163ffffffff1660e01b8152600401602060405180830381865afa158015610949573d5f803e3d5ffd5b505050506040513d601f19601f8201168201806040525081019061096d91906116c5565b90505f81116109b1576040517f08c379a00000000000000000000000000000000000000000000000000000000081526004016109a890611873565b60405180910390fd5b5f81836002546109c191906116f0565b6109cb919061175e565b90505f60035f3373ffffffffffffffffffffffffffffffffffffffff1673ffffffffffffffffffffffffffffffffffffffff1681526020019081526020015f205482610a17919061178e565b90505f8111610a5b576040517f08c379a0000000000000000000000000000000000000000000000000000000008152600401610a52906118db565b60405180910390fd5b8160035f3373ffffffffffffffffffffffffffffffffffffffff1673ffffffffffffffffffffffffffffffffffffffff1681526020019081526020015f208190555060015f9054906101000a900473ffffffffffffffffffffffffffffffffffffffff1673ffffffffffffffffffffffffffffffffffffffff1663a9059cbb33836040518363ffffffff1660e01b8152600401610af99291906118f9565b6020604051808303815f875af1158015610b15573d5f803e3d5ffd5b505050506040513d601f19601f82011682018060405250810190610b39919061160d565b503373ffffffffffffffffffffffffffffffffffffffff167fd8138f8a3f377c5259ca548e70e4c2de94f129f5a11036a15b69513cba2b426a82604051610b8091906114be565b60405180910390a250505050565b6003602052805f5260405f205f915090505481565b5f610bac6110e8565b90505f815f0160089054906101000a900460ff161590505f825f015f9054906101000a900467ffffffffffffffff1690505f808267ffffffffffffffff16148015610bf45750825b90505f60018367ffffffffffffffff16148015610c2757505f3073ffffffffffffffffffffffffffffffffffffffff163b145b905081158015610c35575080155b15610c6c576040517ff92ee8a900000000000000000000000000000000000000000000000000000000815260040160405180910390fd5b6001855f015f6101000a81548167ffffffffffffffff021916908367ffffffffffffffff1602179055508315610cb9576001855f0160086101000a81548160ff0219169083151502179055505b610cc16110fb565b875f806101000a81548173ffffffffffffffffffffffffffffffffffffffff021916908373ffffffffffffffffffffffffffffffffffffffff1602179055508660015f6101000a81548173ffffffffffffffffffffffffffffffffffffffff021916908373ffffffffffffffffffffffffffffffffffffffff160217905550610d4c5f801b87610ef1565b50610d777ffbd454f36a7e1a388bd6fc3ab10d434aa4578f811acbbcf33afb1c697486313c87610ef1565b508315610dd2575f855f0160086101000a81548160ff0219169083151502179055507fc7f505b2f371ae2175ee4913f4499e1f2633a7b5936321eed1cdaeb6115181d26001604051610dc9919061196c565b60405180910390a15b5050505050505050565b610de5826103ba565b610dee81610edd565b610df88383610ff0565b50505050565b60025481565b7ffbd454f36a7e1a388bd6fc3ab10d434aa4578f811acbbcf33afb1c697486313c81565b60015f9054906101000a900473ffffffffffffffffffffffffffffffffffffffff1681565b5f7f01ffc9a7000000000000000000000000000000000000000000000000000000007bffffffffffffffffffffffffffffffffffffffffffffffffffffffff1916827bffffffffffffffffffffffffffffffffffffffffffffffffffffffff1916149050919050565b5f7f02dd7bc7dec4dceedda775e58dd541e08a116c6c53815c0bd028192f7b626800905090565b610eee81610ee9610fe9565b611105565b50565b5f80610efb610eb6565b9050610f0784846105df565b610fde576001815f015f8681526020019081526020015f205f015f8573ffffffffffffffffffffffffffffffffffffffff1673ffffffffffffffffffffffffffffffffffffffff1681526020019081526020015f205f6101000a81548160ff021916908315150217905550610f7a610fe9565b73ffffffffffffffffffffffffffffffffffffffff168373ffffffffffffffffffffffffffffffffffffffff16857f2f8788117e7eff1d82e926ec794901d17c78024a50270940304540a733656f0d60405160405180910390a46001915050610fe3565b5f9150505b92915050565b5f33905090565b5f80610ffa610eb6565b905061100684846105df565b156110dd575f815f015f8681526020019081526020015f205f015f8573ffffffffffffffffffffffffffffffffffffffff1673ffffffffffffffffffffffffffffffffffffffff1681526020019081526020015f205f6101000a81548160ff021916908315150217905550611079610fe9565b73ffffffffffffffffffffffffffffffffffffffff168373ffffffffffffffffffffffffffffffffffffffff16857ff6391f5c32d9c69d2a47ea670b442974b53935d1edc7fd64eb21e047a839171b60405160405180910390a460019150506110e2565b5f9150505b92915050565b5f806110f2611156565b90508091505090565b61110361117f565b565b61110f82826105df565b6111525780826040517fe2517d3f000000000000000000000000000000000000000000000000000000008152600401611149929190611985565b60405180910390fd5b5050565b5f7ff0c57e16840df040f15088dc2f81fe391c3923bec73e23a9662efc9c229c6a005f1b905090565b6111876111bf565b6111bd576040517fd7e6bcf800000000000000000000000000000000000000000000000000000000815260040160405180910390fd5b565b5f6111c86110e8565b5f0160089054906101000a900460ff16905090565b5f80fd5b5f7fffffffff0000000000000000000000000000000000000000000000000000000082169050919050565b611215816111e1565b811461121f575f80fd5b50565b5f813590506112308161120c565b92915050565b5f6020828403121561124b5761124a6111dd565b5b5f61125884828501611222565b91505092915050565b5f8115159050919050565b61127581611261565b82525050565b5f60208201905061128e5f83018461126c565b92915050565b5f73ffffffffffffffffffffffffffffffffffffffff82169050919050565b5f819050919050565b5f6112d66112d16112cc84611294565b6112b3565b611294565b9050919050565b5f6112e7826112bc565b9050919050565b5f6112f8826112dd565b9050919050565b611308816112ee565b82525050565b5f6020820190506113215f8301846112ff565b92915050565b5f819050919050565b61133981611327565b8114611343575f80fd5b50565b5f8135905061135481611330565b92915050565b5f6020828403121561136f5761136e6111dd565b5b5f61137c84828501611346565b91505092915050565b61138e81611327565b82525050565b5f6020820190506113a75f830184611385565b92915050565b5f6113b782611294565b9050919050565b6113c7816113ad565b81146113d1575f80fd5b50565b5f813590506113e2816113be565b92915050565b5f80604083850312156113fe576113fd6111dd565b5b5f61140b85828601611346565b925050602061141c858286016113d4565b9150509250929050565b5f819050919050565b61143881611426565b8114611442575f80fd5b50565b5f813590506114538161142f565b92915050565b5f6020828403121561146e5761146d6111dd565b5b5f61147b84828501611445565b91505092915050565b5f60208284031215611499576114986111dd565b5b5f6114a6848285016113d4565b91505092915050565b6114b881611426565b82525050565b5f6020820190506114d15f8301846114af565b92915050565b5f805f606084860312156114ee576114ed6111dd565b5b5f6114fb868287016113d4565b935050602061150c868287016113d4565b925050604061151d868287016113d4565b9150509250925092565b5f82825260208201905092915050565b7f416d6f756e74206d757374206265203e203000000000000000000000000000005f82015250565b5f61156b601283611527565b915061157682611537565b602082019050919050565b5f6020820190508181035f8301526115988161155f565b9050919050565b6115a8816113ad565b82525050565b5f6060820190506115c15f83018661159f565b6115ce602083018561159f565b6115db60408301846114af565b949350505050565b6115ec81611261565b81146115f6575f80fd5b50565b5f81519050611607816115e3565b92915050565b5f60208284031215611622576116216111dd565b5b5f61162f848285016115f9565b91505092915050565b7f4e487b71000000000000000000000000000000000000000000000000000000005f52601160045260245ffd5b5f61166f82611426565b915061167a83611426565b925082820190508082111561169257611691611638565b5b92915050565b5f6020820190506116ab5f83018461159f565b92915050565b5f815190506116bf8161142f565b92915050565b5f602082840312156116da576116d96111dd565b5b5f6116e7848285016116b1565b91505092915050565b5f6116fa82611426565b915061170583611426565b925082820261171381611426565b9150828204841483151761172a57611729611638565b5b5092915050565b7f4e487b71000000000000000000000000000000000000000000000000000000005f52601260045260245ffd5b5f61176882611426565b915061177383611426565b92508261178357611782611731565b5b828204905092915050565b5f61179882611426565b91506117a383611426565b92508282039050818111156117bb576117ba611638565b5b92915050565b7f4e6f20617373657420746f6b656e732068656c640000000000000000000000005f82015250565b5f6117f5601483611527565b9150611800826117c1565b602082019050919050565b5f6020820190508181035f830152611822816117e9565b9050919050565b7f4e6f20746f6b656e73206d696e746564000000000000000000000000000000005f82015250565b5f61185d601083611527565b915061186882611829565b602082019050919050565b5f6020820190508181035f83015261188a81611851565b9050919050565b7f4e6f207265776172647320746f20636c61696d000000000000000000000000005f82015250565b5f6118c5601383611527565b91506118d082611891565b602082019050919050565b5f6020820190508181035f8301526118f2816118b9565b9050919050565b5f60408201905061190c5f83018561159f565b61191960208301846114af565b9392505050565b5f819050919050565b5f67ffffffffffffffff82169050919050565b5f61195661195161194c84611920565b6112b3565b611929565b9050919050565b6119668161193c565b82525050565b5f60208201905061197f5f83018461195d565b92915050565b5f6040820190506119985f83018561159f565b6119a56020830184611385565b939250505056fea26469706673582212208c5a0c60495b18fe78f4d63e0dde571a427dfc103bdd6d926b167be97707c46764736f6c63430008160033",
  "linkReferences": {},
  "deployedLinkReferences": {},
  "immutableReferences": {},
  "inputSourceName": "project/contracts/DividendDistributor.sol",
  "buildInfoId": "solc-0_8_22-cfbb35b6832425282c0b148f562a5baf69fb4149"
}