{
  "_format": "hh3-artifact-1",
  "contractName": "TokenizedAsset",
  "sourceName": "contracts/TokenizedAsset.sol",
  "abi": [
    {
      "inputs": [],
      "stateMutability": "nonpayable",
      "type": "constructor"
    },
    {
      "inputs": [],
      "name": "AccessControlBadConfirmation",
      "type": "error"
    },
    {
      "inputs": [
        {
          "internalType": "address",
          "name": "account",
          "type": "address"
        },
        {
          "internalType": "bytes32",
          "name": "neededRole",
          "type": "bytes32"
        }
      ],
      "name": "AccessControlUnauthorizedAccount",
      "type": "error"
    },
    {
      "inputs": [
        {
          "internalType": "address",
          "name": "target",
          "type": "address"
        }
      ],
      "name": "AddressEmptyCode",
      "type": "error"
    },
    {
      "inputs": [
        {
          "internalType": "address",
          "name": "implementation",
          "type": "address"
        }
      ],
      "name": "ERC1967InvalidImplementation",
      "type": "error"
    },
    {
      "inputs": [],
      "name": "ERC1967NonPayable",
      "type": "error"
    },
    {
      "inputs": [
        {
          "internalType": "address",
          "name": "spender",
          "type": "address"
        },
        {
          "internalType": "uint256",
          "name": "allowance",
          "type": "uint256"
        },
        {
          "internalType": "uint256",
          "name": "needed",
          "type": "uint256"
        }
      ],
      "name": "ERC20InsufficientAllowance",
      "type": "error"
    },
    {
      "inputs": [
        {
          "internalType": "address",
          "name": "sender",
          "type": "address"
        },
        {
          "internalType": "uint256",
          "name": "balance",
          "type": "uint256"
        },
        {
          "internalType": "uint256",
          "name": "needed",
          "type": "uint256"
        }
      ],
      "name": "ERC20InsufficientBalance",
      "type": "error"
    },
    {
      "inputs": [
        {
          "internalType": "address",
          "name": "approver",
          "type": "address"
        }
      ],
      "name": "ERC20InvalidApprover",
      "type": "error"
    },
    {
      "inputs": [
        {
          "internalType": "address",
          "name": "receiver",
          "type": "address"
        }
      ],
      "name": "ERC20InvalidReceiver",
      "type": "error"
    },
    {
      "inputs": [
        {
          "internalType": "address",
          "name": "sender",
          "type": "address"
        }
      ],
      "name": "ERC20InvalidSender",
      "type": "error"
    },
    {
      "inputs": [
        {
          "internalType": "address",
          "name": "spender",
          "type": "address"
        }
      ],
      "name": "ERC20InvalidSpender",
      "type": "error"
    },
    {
      "inputs": [],
      "name": "FailedCall",
      "type": "error"
    },
    {
      "inputs": [],
      "name": "InvalidInitialization",
      "type": "error"
    },
    {
      "inputs": [],
      "name": "NotInitializing",
      "type": "error"
    },
    {
      "inputs": [],
      "name": "UUPSUnauthorizedCallContext",
      "type": "error"
    },
    {
      "inputs": [
        {
          "internalType": "bytes32",
          "name": "slot",
          "type": "bytes32"
        }
      ],
      "name": "UUPSUnsupportedProxiableUUID",
      "type": "error"
    },
    {
      "anonymous": false,
      "inputs": [
        {
          "indexed": true,
          "internalType": "address",
          "name": "owner",
          "type": "address"
        },
        {
          "indexed": true,
          "internalType": "address",
          "name": "spender",
          "type": "address"
        },
        {
          "indexed": false,
          "internalType": "uint256",
          "name": "value",
          "type": "uint256"
        }
      ],
      "name": "Approval",
      "type": "event"
    },
    {
      "anonymous": false,
      "inputs": [
        {
          "indexed": true,
          "internalType": "address",
          "name": "who",
          "type": "address"
        }
      ],
      "name": "Dewhitelisted",
      "type": "event"
    },
    {
      "anonymous": false,
      "inputs": [
        {
          "indexed": false,
          "internalType": "uint64",
          "name": "version",
          "type": "uint64"
        }
      ],
      "name": "Initialized",
      "type": "event"
    },
    {
      "anonymous": false,
      "inputs": [
        {
          "indexed": true,
          "internalType": "bytes32",
          "name": "role",
          "type": "bytes32"
        },
        {
          "indexed": true,
          "internalType": "bytes32",
          "name": "previousAdminRole",
          "type": "bytes32"
        },
        {
          "indexed": true,
          "internalType": "bytes32",
          "name": "newAdminRole",
          "type": "bytes32"
        }
      ],
      "name": "RoleAdminChanged",
      "type": "event"
    },
    {
      "anonymous": false,
      "inputs": [
        {
          "indexed": true,
          "internalType": "bytes32",
          "name": "role",
          "type": "bytes32"
        },
        {
          "indexed": true,
          "internalType": "address",
          "name": "account",
          "type": "address"
        },
        {
          "indexed": true,
          "internalType": "address",
          "name": "sender",
          "type": "address"
        }
      ],
      "name": "RoleGranted",
      "type": "event"
    },
    {
      "anonymous": false,
      "inputs": [
        {
          "indexed": true,
          "internalType": "bytes32",
          "name": "role",
          "type": "bytes32"
        },
        {
          "indexed": true,
          "internalType": "address",
          "name": "account",
          "type": "address"
        },
        {
          "indexed": true,
          "internalType": "address",
          "name": "sender",
          "type": "address"
        }
      ],
      "name": "RoleRevoked",
      "type": "event"
    },
    {
      "anonymous": false,
      "inputs": [
        {
          "indexed": true,
          "internalType": "address",
          "name": "from",
          "type": "address"
        },
        {
          "indexed": true,
          "internalType": "address",
          "name": "to",
          "type": "address"
        },
        {
          "indexed": false,
          "internalType": "uint256",
          "name": "value",
          "type": "uint256"
        }
      ],
      "name": "Transfer",
      "type": "event"
    },
    {
      "anonymous": false,
      "inputs": [
        {
          "indexed": true,
          "internalType": "address",
          "name": "implementation",
          "type": "address"
        }
      ],
      "name": "Upgraded",
      "type": "event"
    },
    {
      "anonymous": false,
      "inputs": [
        {
          "indexed": false,
          "internalType": "bool",
          "name": "enabled",
          "type": "bool"
        }
      ],
      "name": "WhitelistEnabled",
      "type": "event"
    },
    {
      "anonymous": false,
      "inputs": [
        {
          "indexed": true,
          "internalType": "address",
          "name": "who",
          "type": "address"
        }
      ],
      "name": "Whitelisted",
      "type": "event"
    },
    {
      "inputs": [],
      "name": "DEFAULT_ADMIN_ROLE",
      "outputs": [
        {
          "internalType": "bytes32",
          "name": "",
          "type": "bytes32"
        }
      ],
      "stateMutability": "view",
      "type": "function"
    },
    {
      "inputs": [],
      "name": "MINTER_ROLE",
      "outputs": [
        {
          "internalType": "bytes32",
          "name": "",
          "type": "bytes32"
        }
      ],
      "stateMutability": "view",
      "type": "function"
    },
    {
      "inputs": [],
      "name": "PAUSER_ROLE",
      "outputs": [
        {
          "internalType": "bytes32",
          "name": "",
          "type": "bytes32"
        }
      ],
      "stateMutability": "view",
      "type": "function"
    },
    {
      "inputs": [],
      "name": "UPGRADER_ROLE",
      "outputs": [
        {
          "internalType": "bytes32",
          "name": "",
          "type": "bytes32"
        }
      ],
      "stateMutability": "view",
      "type": "function"
    },
    {
      "inputs": [],
      "name": "UPGRADE_INTERFACE_VERSION",
      "outputs": [
        {
          "internalType": "string",
          "name": "",
          "type": "string"
        }
      ],
      "stateMutability": "view",
      "type": "function"
    },
    {
      "inputs": [],
      "name": "WHITELISTER_ROLE",
      "outputs": [
        {
          "internalType": "bytes32",
          "name": "",
          "type": "bytes32"
        }
      ],
      "stateMutability": "view",
      "type": "function"
    },
    {
      "inputs": [
        {
          "internalType": "address",
          "name": "owner",
          "type": "address"
        },
        {
          "internalType": "address",
          "name": "spender",
          "type": "address"
        }
      ],
      "name": "allowance",
      "outputs": [
        {
          "internalType": "uint256",
          "name": "",
          "type": "uint256"
        }
      ],
      "stateMutability": "view",
      "type": "function"
    },
    {
      "inputs": [
        {
          "internalType": "address",
          "name": "spender",
          "type": "address"
        },
        {
          "internalType": "uint256",
          "name": "value",
          "type": "uint256"
        }
      ],
      "name": "approve",
      "outputs": [
        {
          "internalType": "bool",
          "name": "",
          "type": "bool"
        }
      ],
      "stateMutability": "nonpayable",
      "type": "function"
    },
    {
      "inputs": [
        {
          "internalType": "address",
          "name": "account",
          "type": "address"
        }
      ],
      "name": "balanceOf",
      "outputs": [
        {
          "internalType": "uint256",
          "name": "",
          "type": "uint256"
        }
      ],
      "stateMutability": "view",
      "type": "function"
    },
    {
      "inputs": [
        {
          "internalType": "address",
          "name": "from",
          "type": "address"
        },
        {
          "internalType": "uint256",
          "name": "amount",
          "type": "uint256"
        }
      ],
      "name": "burn",
      "outputs": [],
      "stateMutability": "nonpayable",
      "type": "function"
    },
    {
      "inputs": [
        {
          "internalType": "uint256",
          "name": "amount",
          "type": "uint256"
        }
      ],
      "name": "burnSelf",
      "outputs": [],
      "stateMutability": "nonpayable",
      "type": "function"
    },
    {
      "inputs": [
        {
          "internalType": "bytes32",
          "name": "role",
          "type": "bytes32"
        },
        {
          "internalType": "address",
          "name": "account",
          "type": "address"
        }
      ],
      "name": "checkRole",
      "outputs": [
        {
          "internalType": "bool",
          "name": "",
          "type": "bool"
        }
      ],
      "stateMutability": "view",
      "type": "function"
    },
    {
      "inputs": [],
      "name": "decimals",
      "outputs": [
        {
          "internalType": "uint8",
          "name": "",
          "type": "uint8"
        }
      ],
      "stateMutability": "view",
      "type": "function"
    },
    {
      "inputs": [
        {
          "internalType": "address",
          "name": "who",
          "type": "address"
        }
      ],
      "name": "dewhitelist",
      "outputs": [],
      "stateMutability": "nonpayable",
      "type": "function"
    },
    {
      "inputs": [
        {
          "internalType": "bytes32",
          "name": "role",
          "type": "bytes32"
        }
      ],
      "name": "getRoleAdmin",
      "outputs": [
        {
          "internalType": "bytes32",
          "name": "",
          "type": "bytes32"
        }
      ],
      "stateMutability": "view",
      "type": "function"
    },
    {
      "inputs": [
        {
          "internalType": "bytes32",
          "name": "role",
          "type": "bytes32"
        },
        {
          "internalType": "address",
          "name": "account",
          "type": "address"
        }
      ],
      "name": "grantRole",
      "outputs": [],
      "stateMutability": "nonpayable",
      "type": "function"
    },
    {
      "inputs": [
        {
          "internalType": "bytes32",
          "name": "role",
          "type": "bytes32"
        },
        {
          "internalType": "address",
          "name": "account",
          "type": "address"
        }
      ],
      "name": "hasRole",
      "outputs": [
        {
          "internalType": "bool",
          "name": "",
          "type": "bool"
        }
      ],
      "stateMutability": "view",
      "type": "function"
    },
    {
      "inputs": [
        {
          "internalType": "string",
          "name": "name_",
          "type": "string"
        },
        {
          "internalType": "string",
          "name": "symbol_",
          "type": "string"
        },
        {
          "internalType": "address",
          "name": "admin",
          "type": "address"
        }
      ],
      "name": "initialize",
      "outputs": [],
      "stateMutability": "nonpayable",
      "type": "function"
    },
    {
      "inputs": [
        {
          "internalType": "address",
          "name": "who",
          "type": "address"
        }
      ],
      "name": "isWhitelisted",
      "outputs": [
        {
          "internalType": "bool",
          "name": "",
          "type": "bool"
        }
      ],
      "stateMutability": "view",
      "type": "function"
    },
    {
      "inputs": [
        {
          "internalType": "address",
          "name": "to",
          "type": "address"
        },
        {
          "internalType": "uint256",
          "name": "amount",
          "type": "uint256"
        }
      ],
      "name": "mint",
      "outputs": [],
      "stateMutability": "nonpayable",
      "type": "function"
    },
    {
      "inputs": [],
      "name": "name",
      "outputs": [
        {
          "internalType": "string",
          "name": "",
          "type": "string"
        }
      ],
      "stateMutability": "view",
      "type": "function"
    },
    {
      "inputs": [],
      "name": "proxiableUUID",
      "outputs": [
        {
          "internalType": "bytes32",
          "name": "",
          "type": "bytes32"
        }
      ],
      "stateMutability": "view",
      "type": "function"
    },
    {
      "inputs": [
        {
          "internalType": "bytes32",
          "name": "role",
          "type": "bytes32"
        },
        {
          "internalType": "address",
          "name": "callerConfirmation",
          "type": "address"
        }
      ],
      "name": "renounceRole",
      "outputs": [],
      "stateMutability": "nonpayable",
      "type": "function"
    },
    {
      "inputs": [
        {
          "internalType": "bytes32",
          "name": "role",
          "type": "bytes32"
        },
        {
          "internalType": "address",
          "name": "account",
          "type": "address"
        }
      ],
      "name": "revokeRole",
      "outputs": [],
      "stateMutability": "nonpayable",
      "type": "function"
    },
    {
      "inputs": [
        {
          "internalType": "bool",
          "name": "enabled",
          "type": "bool"
        }
      ],
      "name": "setWhitelistEnabled",
      "outputs": [],
      "stateMutability": "nonpayable",
      "type": "function"
    },
    {
      "inputs": [
        {
          "internalType": "bytes4",
          "name": "interfaceId",
          "type": "bytes4"
        }
      ],
      "name": "supportsInterface",
      "outputs": [
        {
          "internalType": "bool",
          "name": "",
          "type": "bool"
        }
      ],
      "stateMutability": "view",
      "type": "function"
    },
    {
      "inputs": [],
      "name": "symbol",
      "outputs": [
        {
          "internalType": "string",
          "name": "",
          "type": "string"
        }
      ],
      "stateMutability": "view",
      "type": "function"
    },
    {
      "inputs": [],
      "name": "totalSupply",
      "outputs": [
        {
          "internalType": "uint256",
          "name": "",
          "type": "uint256"
        }
      ],
      "stateMutability": "view",
      "type": "function"
    },
    {
      "inputs": [
        {
          "internalType": "address",
          "name": "to",
          "type": "address"
        },
        {
          "internalType": "uint256",
          "name": "value",
          "type": "uint256"
        }
      ],
      "name": "transfer",
      "outputs": [
        {
          "internalType": "bool",
          "name": "",
          "type": "bool"
        }
      ],
      "stateMutability": "nonpayable",
      "type": "function"
    },
    {
      "inputs": [
        {
          "internalType": "address",
          "name": "from",
          "type": "address"
        },
        {
          "internalType": "address",
          "name": "to",
          "type": "address"
        },
        {
          "internalType": "uint256",
          "name": "value",
          "type": "uint256"
        }
      ],
      "name": "transferFrom",
      "outputs": [
        {
          "internalType": "bool",
          "name": "",
          "type": "bool"
        }
      ],
      "stateMutability": "nonpayable",
      "type": "function"
    },
    {
      "inputs": [
        {
          "internalType": "address",
          "name": "newImplementation",
          "type": "address"
        },
        {
          "internalType": "bytes",
          "name": "data",
          "type": "bytes"
        }
      ],
      "name": "upgradeToAndCall",
      "outputs": [],
      "stateMutability": "payable",
      "type": "function"
    },
    {
      "inputs": [
        {
          "internalType": "address",
          "name": "who",
          "type": "address"
        }
      ],
      "name": "whitelist",
      "outputs": [],
      "stateMutability": "nonpayable",
      "type": "function"
    },
    {
      "inputs": [],
      "name": "whitelistEnabled",
      "outputs": [
        {
          "internalType": "bool",
          "name": "",
          "type": "bool"
        }
      ],
      "stateMutability": "view",
      "type": "function"
    }
  ],
  "bytecode": "0x60a06040523073ffffffffffffffffffffffffffffffffffffffff1660809073ffffffffffffffffffffffffffffffffffffffff1681525034801562000043575f80fd5b505f62000055620001cf60201b60201c565b90505f815f0160089054906101000a900460ff161590505f825f015f9054906101000a900467ffffffffffffffff1690505f808267ffffffffffffffff161480156200009e5750825b90505f60018367ffffffffffffffff16148015620000d257505f3073ffffffffffffffffffffffffffffffffffffffff163b145b905081158015620000e1575080155b1562000119576040517ff92ee8a900000000000000000000000000000000000000000000000000000000815260040160405180910390fd5b6001855f015f6101000a81548167ffffffffffffffff021916908367ffffffffffffffff160217905550831562000167576001855f0160086101000a81548160ff0219169083151502179055505b8315620001c4575f855f0160086101000a81548160ff0219169083151502179055507fc7f505b2f371ae2175ee4913f4499e1f2633a7b5936321eed1cdaeb6115181d26001604051620001bb919062000270565b60405180910390a15b50505050506200028b565b5f80620001e1620001ea60201b60201c565b90508091505090565b5f7ff0c57e16840df040f15088dc2f81fe391c3923bec73e23a9662efc9c229c6a005f1b905090565b5f819050919050565b5f67ffffffffffffffff82169050919050565b5f819050919050565b5f62000258620002526200024c8462000213565b6200022f565b6200021c565b9050919050565b6200026a8162000238565b82525050565b5f602082019050620002855f8301846200025f565b92915050565b60805161304d620002b25f395f818161184d015281816118a20152611a7f015261304d5ff3fe6080604052600436106101ed575f3560e01c806352d1902d1161010c578063a217fddf1161009f578063d53913931161006e578063d53913931461070b578063d547741f14610735578063dd62ed3e1461075d578063e63ab1e914610799578063f72c0d8b146107c3576101ed565b8063a217fddf14610653578063a9059cbb1461067d578063ad3cb1cc146106b9578063b8b12a1e146106e3576101ed565b806391d14854116100db57806391d148541461059d57806395d89b41146105d95780639b19251a146106035780639dc29fac1461062b576101ed565b806352d1902d146104e5578063570618e11461050f5780636e9322701461053957806370a0823114610561576101ed565b8063248a9ca3116101845780633af32abf116101535780633af32abf1461043b57806340c10f19146104775780634f1ef2861461049f57806351fb012d146104bb576101ed565b8063248a9ca3146103855780632f2ff15d146103c1578063313ce567146103e957806336568abe14610413576101ed565b8063095ea7b3116101c0578063095ea7b3146102a757806312d9a6ad146102e357806318160ddd1461031f57806323b872dd14610349576101ed565b806301ffc9a7146101f1578063052d9e7e1461022d57806306fdde0314610255578063077f224a1461027f575b5f80fd5b3480156101fc575f80fd5b506102176004803603810190610212919061242c565b6107ed565b6040516102249190612471565b60405180910390f35b348015610238575f80fd5b50610253600480360381019061024e91906124b4565b610866565b005b348015610260575f80fd5b506102696108c6565b6040516102769190612569565b60405180910390f35b34801561028a575f80fd5b506102a560048036038101906102a0919061270f565b610964565b005b3480156102b2575f80fd5b506102cd60048036038101906102c891906127ca565b610bca565b6040516102da9190612471565b60405180910390f35b3480156102ee575f80fd5b506103096004803603810190610304919061283b565b610bec565b6040516103169190612471565b60405180910390f35b34801561032a575f80fd5b50610333610bff565b6040516103409190612888565b60405180910390f35b348015610354575f80fd5b5061036f600480360381019061036a91906128a1565b610c16565b60405161037c9190612471565b60405180910390f35b348015610390575f80fd5b506103ab60048036038101906103a691906128f1565b610c44565b6040516103b8919061292b565b60405180910390f35b3480156103cc575f80fd5b506103e760048036038101906103e2919061283b565b610c6e565b005b3480156103f4575f80fd5b506103fd610c90565b60405161040a919061295f565b60405180910390f35b34801561041e575f80fd5b506104396004803603810190610434919061283b565b610c98565b005b348015610446575f80fd5b50610461600480360381019061045c9190612978565b610d13565b60405161046e9190612471565b60405180910390f35b348015610482575f80fd5b5061049d600480360381019061049891906127ca565b610d81565b005b6104b960048036038101906104b49190612a41565b610e02565b005b3480156104c6575f80fd5b506104cf610e21565b6040516104dc9190612471565b60405180910390f35b3480156104f0575f80fd5b506104f9610e33565b604051610506919061292b565b60405180910390f35b34801561051a575f80fd5b50610523610e64565b604051610530919061292b565b60405180910390f35b348015610544575f80fd5b5061055f600480360381019061055a9190612978565b610e88565b005b34801561056c575f80fd5b5061058760048036038101906105829190612978565b610f4c565b6040516105949190612888565b60405180910390f35b3480156105a8575f80fd5b506105c360048036038101906105be919061283b565b610f9f565b6040516105d09190612471565b60405180910390f35b3480156105e4575f80fd5b506105ed611010565b6040516105fa9190612569565b60405180910390f35b34801561060e575f80fd5b5061062960048036038101906106249190612978565b6110ae565b005b348015610636575f80fd5b50610651600480360381019061064c91906127ca565b611173565b005b34801561065e575f80fd5b506106676111ac565b604051610674919061292b565b60405180910390f35b348015610688575f80fd5b506106a3600480360381019061069e91906127ca565b6111b2565b6040516106b09190612471565b60405180910390f35b3480156106c4575f80fd5b506106cd6111d4565b6040516106da9190612569565b60405180910390f35b3480156106ee575f80fd5b5061070960048036038101906107049190612a9b565b61120d565b005b348015610716575f80fd5b5061071f61121a565b60405161072c919061292b565b60405180910390f35b348015610740575f80fd5b5061075b6004803603810190610756919061283b565b61123e565b005b348015610768575f80fd5b50610783600480360381019061077e9190612ac6565b611260565b6040516107909190612888565b60405180910390f35b3480156107a4575f80fd5b506107ad6112f0565b6040516107ba919061292b565b60405180910390f35b3480156107ce575f80fd5b506107d7611314565b6040516107e4919061292b565b60405180910390f35b5f7f7965db0b000000000000000000000000000000000000000000000000000000007bffffffffffffffffffffffffffffffffffffffffffffffffffffffff1916827bffffffffffffffffffffffffffffffffffffffffffffffffffffffff1916148061085f575061085e82611338565b5b9050919050565b5f801b610872816113a1565b8160015f6101000a81548160ff0219169083151502179055507f9bea0dd3cae4438dc4c54c3110002aedc380f4075b6edae73ae0536105a2008a826040516108ba9190612471565b60405180910390a15050565b60605f6108d16113b5565b90508060030180546108e290612b31565b80601f016020809104026020016040519081016040528092919081815260200182805461090e90612b31565b80156109595780601f1061093057610100808354040283529160200191610959565b820191905f5260205f20905b81548152906001019060200180831161093c57829003601f168201915b505050505091505090565b5f61096d6113dc565b90505f815f0160089054906101000a900460ff161590505f825f015f9054906101000a900467ffffffffffffffff1690505f808267ffffffffffffffff161480156109b55750825b90505f60018367ffffffffffffffff161480156109e857505f3073ffffffffffffffffffffffffffffffffffffffff163b145b9050811580156109f6575080155b15610a2d576040517ff92ee8a900000000000000000000000000000000000000000000000000000000815260040160405180910390fd5b6001855f015f6101000a81548167ffffffffffffffff021916908367ffffffffffffffff1602179055508315610a7a576001855f0160086101000a81548160ff0219169083151502179055505b610a8488886113ef565b610a8c611405565b610a9461140f565b610aa05f801b87611419565b50610acb7f9f2df0fed2c77648de5860a4cc508cd0818c85b8b8a1ab4ceeef8d981c8956a687611419565b50610af67f65d7a28e3265b37a6474929f336521b332c1681b933f6cb9f3376673440d862a87611419565b50610b217f8619cecd8b9e095ab43867f5b69d492180450fe862e6b50bfbfb24b75dd84c8a87611419565b50610b4c7f189ab7a9244df0848122154315af71fe140f3db0fe014031783b0946b8c9d2e387611419565b506001805f6101000a81548160ff0219169083151502179055508315610bc0575f855f0160086101000a81548160ff0219169083151502179055507fc7f505b2f371ae2175ee4913f4499e1f2633a7b5936321eed1cdaeb6115181d26001604051610bb79190612bb6565b60405180910390a15b5050505050505050565b5f80610bd4611511565b9050610be1818585611518565b600191505092915050565b5f610bf78383610f9f565b905092915050565b5f80610c096113b5565b9050806002015491505090565b5f80610c20611511565b9050610c2d85828561152a565b610c388585856115bd565b60019150509392505050565b5f80610c4e6116ad565b9050805f015f8481526020019081526020015f2060010154915050919050565b610c7782610c44565b610c80816113a1565b610c8a8383611419565b50505050565b5f6012905090565b610ca0611511565b73ffffffffffffffffffffffffffffffffffffffff168173ffffffffffffffffffffffffffffffffffffffff1614610d04576040517f6697b23200000000000000000000000000000000000000000000000000000000815260040160405180910390fd5b610d0e82826116d4565b505050565b5f60015f9054906101000a900460ff16610d305760019050610d7c565b5f808373ffffffffffffffffffffffffffffffffffffffff1673ffffffffffffffffffffffffffffffffffffffff1681526020019081526020015f205f9054906101000a900460ff1690505b919050565b7f9f2df0fed2c77648de5860a4cc508cd0818c85b8b8a1ab4ceeef8d981c8956a6610dab816113a1565b610db483610d13565b610df3576040517f08c379a0000000000000000000000000000000000000000000000000000000008152600401610dea90612c19565b60405180910390fd5b610dfd83836117cc565b505050565b610e0a61184b565b610e1382611931565b610e1d828261195f565b5050565b60015f9054906101000a900460ff1681565b5f610e3c611a7d565b7f360894a13ba1a3210667c828492db98dca3e2076cc3735a920a3ca505d382bbc5f1b905090565b7f8619cecd8b9e095ab43867f5b69d492180450fe862e6b50bfbfb24b75dd84c8a81565b7f8619cecd8b9e095ab43867f5b69d492180450fe862e6b50bfbfb24b75dd84c8a610eb2816113a1565b5f805f8473ffffffffffffffffffffffffffffffffffffffff1673ffffffffffffffffffffffffffffffffffffffff1681526020019081526020015f205f6101000a81548160ff0219169083151502179055508173ffffffffffffffffffffffffffffffffffffffff167f78c8e01ebc9b1b82f14af9f3a9b6fa7bdba5e36f9e96d15ca3aebc36cf72ce8560405160405180910390a25050565b5f80610f566113b5565b9050805f015f8473ffffffffffffffffffffffffffffffffffffffff1673ffffffffffffffffffffffffffffffffffffffff1681526020019081526020015f2054915050919050565b5f80610fa96116ad565b9050805f015f8581526020019081526020015f205f015f8473ffffffffffffffffffffffffffffffffffffffff1673ffffffffffffffffffffffffffffffffffffffff1681526020019081526020015f205f9054906101000a900460ff1691505092915050565b60605f61101b6113b5565b905080600401805461102c90612b31565b80601f016020809104026020016040519081016040528092919081815260200182805461105890612b31565b80156110a35780601f1061107a576101008083540402835291602001916110a3565b820191905f5260205f20905b81548152906001019060200180831161108657829003601f168201915b505050505091505090565b7f8619cecd8b9e095ab43867f5b69d492180450fe862e6b50bfbfb24b75dd84c8a6110d8816113a1565b60015f808473ffffffffffffffffffffffffffffffffffffffff1673ffffffffffffffffffffffffffffffffffffffff1681526020019081526020015f205f6101000a81548160ff0219169083151502179055508173ffffffffffffffffffffffffffffffffffffffff167faab7954e9d246b167ef88aeddad35209ca2489d95a8aeb59e288d9b19fae5a5460405160405180910390a25050565b7f9f2df0fed2c77648de5860a4cc508cd0818c85b8b8a1ab4ceeef8d981c8956a661119d816113a1565b6111a78383611b04565b505050565b5f801b81565b5f806111bc611511565b90506111c98185856115bd565b600191505092915050565b6040518060400160405280600581526020017f352e302e3000000000000000000000000000000000000000000000000000000081525081565b6112173382611b04565b50565b7f9f2df0fed2c77648de5860a4cc508cd0818c85b8b8a1ab4ceeef8d981c8956a681565b61124782610c44565b611250816113a1565b61125a83836116d4565b50505050565b5f8061126a6113b5565b9050806001015f8573ffffffffffffffffffffffffffffffffffffffff1673ffffffffffffffffffffffffffffffffffffffff1681526020019081526020015f205f8473ffffffffffffffffffffffffffffffffffffffff1673ffffffffffffffffffffffffffffffffffffffff1681526020019081526020015f205491505092915050565b7f65d7a28e3265b37a6474929f336521b332c1681b933f6cb9f3376673440d862a81565b7f189ab7a9244df0848122154315af71fe140f3db0fe014031783b0946b8c9d2e381565b5f7f01ffc9a7000000000000000000000000000000000000000000000000000000007bffffffffffffffffffffffffffffffffffffffffffffffffffffffff1916827bffffffffffffffffffffffffffffffffffffffffffffffffffffffff1916149050919050565b6113b2816113ad611511565b611b83565b50565b5f7f52c63247e1f47db19d5ce0460030c497f067ca4cebf71ba98eeadabe20bace00905090565b5f806113e6611bd4565b90508091505090565b6113f7611bfd565b6114018282611c3d565b5050565b61140d611bfd565b565b611417611bfd565b565b5f806114236116ad565b905061142f8484610f9f565b611506576001815f015f8681526020019081526020015f205f015f8573ffffffffffffffffffffffffffffffffffffffff1673ffffffffffffffffffffffffffffffffffffffff1681526020019081526020015f205f6101000a81548160ff0219169083151502179055506114a2611511565b73ffffffffffffffffffffffffffffffffffffffff168373ffffffffffffffffffffffffffffffffffffffff16857f2f8788117e7eff1d82e926ec794901d17c78024a50270940304540a733656f0d60405160405180910390a4600191505061150b565b5f9150505b92915050565b5f33905090565b6115258383836001611c79565b505050565b5f6115358484611260565b90507fffffffffffffffffffffffffffffffffffffffffffffffffffffffffffffffff8110156115b757818110156115a8578281836040517ffb8f41b200000000000000000000000000000000000000000000000000000000815260040161159f93929190612c46565b60405180910390fd5b6115b684848484035f611c79565b5b50505050565b5f73ffffffffffffffffffffffffffffffffffffffff168373ffffffffffffffffffffffffffffffffffffffff160361162d575f6040517f96c6fd1e0000000000000000000000000000000000000000000000000000000081526004016116249190612c7b565b60405180910390fd5b5f73ffffffffffffffffffffffffffffffffffffffff168273ffffffffffffffffffffffffffffffffffffffff160361169d575f6040517fec442f050000000000000000000000000000000000000000000000000000000081526004016116949190612c7b565b60405180910390fd5b6116a8838383611e56565b505050565b5f7f02dd7bc7dec4dceedda775e58dd541e08a116c6c53815c0bd028192f7b626800905090565b5f806116de6116ad565b90506116ea8484610f9f565b156117c1575f815f015f8681526020019081526020015f205f015f8573ffffffffffffffffffffffffffffffffffffffff1673ffffffffffffffffffffffffffffffffffffffff1681526020019081526020015f205f6101000a81548160ff02191690831515021790555061175d611511565b73ffffffffffffffffffffffffffffffffffffffff168373ffffffffffffffffffffffffffffffffffffffff16857ff6391f5c32d9c69d2a47ea670b442974b53935d1edc7fd64eb21e047a839171b60405160405180910390a460019150506117c6565b5f9150505b92915050565b5f73ffffffffffffffffffffffffffffffffffffffff168273ffffffffffffffffffffffffffffffffffffffff160361183c575f6040517fec442f050000000000000000000000000000000000000000000000000000000081526004016118339190612c7b565b60405180910390fd5b6118475f8383611e56565b5050565b7f000000000000000000000000000000000000000000000000000000000000000073ffffffffffffffffffffffffffffffffffffffff163073ffffffffffffffffffffffffffffffffffffffff1614806118f857507f000000000000000000000000000000000000000000000000000000000000000073ffffffffffffffffffffffffffffffffffffffff166118df612085565b73ffffffffffffffffffffffffffffffffffffffff1614155b1561192f576040517fe07c8dba00000000000000000000000000000000000000000000000000000000815260040160405180910390fd5b565b7f189ab7a9244df0848122154315af71fe140f3db0fe014031783b0946b8c9d2e361195b816113a1565b5050565b8173ffffffffffffffffffffffffffffffffffffffff166352d1902d6040518163ffffffff1660e01b8152600401602060405180830381865afa9250505080156119c757506040513d601f19601f820116820180604052508101906119c49190612ca8565b60015b611a0857816040517f4c9c8ce30000000000000000000000000000000000000000000000000000000081526004016119ff9190612c7b565b60405180910390fd5b7f360894a13ba1a3210667c828492db98dca3e2076cc3735a920a3ca505d382bbc5f1b8114611a6e57806040517faa1d49a4000000000000000000000000000000000000000000000000000000008152600401611a65919061292b565b60405180910390fd5b611a7883836120d8565b505050565b7f000000000000000000000000000000000000000000000000000000000000000073ffffffffffffffffffffffffffffffffffffffff163073ffffffffffffffffffffffffffffffffffffffff1614611b02576040517fe07c8dba00000000000000000000000000000000000000000000000000000000815260040160405180910390fd5b565b5f73ffffffffffffffffffffffffffffffffffffffff168273ffffffffffffffffffffffffffffffffffffffff1603611b74575f6040517f96c6fd1e000000000000000000000000000000000000000000000000000000008152600401611b6b9190612c7b565b60405180910390fd5b611b7f825f83611e56565b5050565b611b8d8282610f9f565b611bd05780826040517fe2517d3f000000000000000000000000000000000000000000000000000000008152600401611bc7929190612cd3565b60405180910390fd5b5050565b5f7ff0c57e16840df040f15088dc2f81fe391c3923bec73e23a9662efc9c229c6a005f1b905090565b611c0561214a565b611c3b576040517fd7e6bcf800000000000000000000000000000000000000000000000000000000815260040160405180910390fd5b565b611c45611bfd565b5f611c4e6113b5565b905082816003019081611c619190612e8e565b5081816004019081611c739190612e8e565b50505050565b5f611c826113b5565b90505f73ffffffffffffffffffffffffffffffffffffffff168573ffffffffffffffffffffffffffffffffffffffff1603611cf4575f6040517fe602df05000000000000000000000000000000000000000000000000000000008152600401611ceb9190612c7b565b60405180910390fd5b5f73ffffffffffffffffffffffffffffffffffffffff168473ffffffffffffffffffffffffffffffffffffffff1603611d64575f6040517f94280d62000000000000000000000000000000000000000000000000000000008152600401611d5b9190612c7b565b60405180910390fd5b82816001015f8773ffffffffffffffffffffffffffffffffffffffff1673ffffffffffffffffffffffffffffffffffffffff1681526020019081526020015f205f8673ffffffffffffffffffffffffffffffffffffffff1673ffffffffffffffffffffffffffffffffffffffff1681526020019081526020015f20819055508115611e4f578373ffffffffffffffffffffffffffffffffffffffff168573ffffffffffffffffffffffffffffffffffffffff167f8c5be1e5ebec7d5bd14f71427d1e84f3dd0314c0f7b2291e5b200ac8c7c3b92585604051611e469190612888565b60405180910390a35b5050505050565b5f611e5f6113b5565b90505f73ffffffffffffffffffffffffffffffffffffffff168473ffffffffffffffffffffffffffffffffffffffff1603611eb35781816002015f828254611ea79190612f8a565b92505081905550611f85565b5f815f015f8673ffffffffffffffffffffffffffffffffffffffff1673ffffffffffffffffffffffffffffffffffffffff1681526020019081526020015f2054905082811015611f3e578481846040517fe450d38c000000000000000000000000000000000000000000000000000000008152600401611f3593929190612c46565b60405180910390fd5b828103825f015f8773ffffffffffffffffffffffffffffffffffffffff1673ffffffffffffffffffffffffffffffffffffffff1681526020019081526020015f2081905550505b5f73ffffffffffffffffffffffffffffffffffffffff168373ffffffffffffffffffffffffffffffffffffffff1603611fce5781816002015f828254039250508190555061201a565b81815f015f8573ffffffffffffffffffffffffffffffffffffffff1673ffffffffffffffffffffffffffffffffffffffff1681526020019081526020015f205f82825401925050819055505b8273ffffffffffffffffffffffffffffffffffffffff168473ffffffffffffffffffffffffffffffffffffffff167fddf252ad1be2c89b69c2b068fc378daa952ba7f163c4a11628f55a4df523b3ef846040516120779190612888565b60405180910390a350505050565b5f6120b17f360894a13ba1a3210667c828492db98dca3e2076cc3735a920a3ca505d382bbc5f1b612168565b5f015f9054906101000a900473ffffffffffffffffffffffffffffffffffffffff16905090565b6120e182612171565b8173ffffffffffffffffffffffffffffffffffffffff167fbc7cd75a20ee27fd9adebab32041f755214dbc6bffa90cc0225b39da2e5c2d3b60405160405180910390a25f8151111561213d57612137828261223a565b50612146565b6121456122ba565b5b5050565b5f6121536113dc565b5f0160089054906101000a900460ff16905090565b5f819050919050565b5f8173ffffffffffffffffffffffffffffffffffffffff163b036121cc57806040517f4c9c8ce30000000000000000000000000000000000000000000000000000000081526004016121c39190612c7b565b60405180910390fd5b806121f87f360894a13ba1a3210667c828492db98dca3e2076cc3735a920a3ca505d382bbc5f1b612168565b5f015f6101000a81548173ffffffffffffffffffffffffffffffffffffffff021916908373ffffffffffffffffffffffffffffffffffffffff16021790555050565b60605f808473ffffffffffffffffffffffffffffffffffffffff16846040516122639190613001565b5f60405180830381855af49150503d805f811461229b576040519150601f19603f3d011682016040523d82523d5f602084013e6122a0565b606091505b50915091506122b08583836122f6565b9250505092915050565b5f3411156122f4576040517fb398979f00000000000000000000000000000000000000000000000000000000815260040160405180910390fd5b565b60608261230b5761230682612383565b61237b565b5f825114801561233157505f8473ffffffffffffffffffffffffffffffffffffffff163b145b1561237357836040517f9996b31500000000000000000000000000000000000000000000000000000000815260040161236a9190612c7b565b60405180910390fd5b81905061237c565b5b9392505050565b5f8151111561239457805160208201fd5b6040517fd6bda27500000000000000000000000000000000000000000000000000000000815260040160405180910390fd5b5f604051905090565b5f80fd5b5f80fd5b5f7fffffffff0000000000000000000000000000000000000000000000000000000082169050919050565b61240b816123d7565b8114612415575f80fd5b50565b5f8135905061242681612402565b92915050565b5f60208284031215612441576124406123cf565b5b5f61244e84828501612418565b91505092915050565b5f8115159050919050565b61246b81612457565b82525050565b5f6020820190506124845f830184612462565b92915050565b61249381612457565b811461249d575f80fd5b50565b5f813590506124ae8161248a565b92915050565b5f602082840312156124c9576124c86123cf565b5b5f6124d6848285016124a0565b91505092915050565b5f81519050919050565b5f82825260208201905092915050565b5f5b838110156125165780820151818401526020810190506124fb565b5f8484015250505050565b5f601f19601f8301169050919050565b5f61253b826124df565b61254581856124e9565b93506125558185602086016124f9565b61255e81612521565b840191505092915050565b5f6020820190508181035f8301526125818184612531565b905092915050565b5f80fd5b5f80fd5b7f4e487b71000000000000000000000000000000000000000000000000000000005f52604160045260245ffd5b6125c782612521565b810181811067ffffffffffffffff821117156125e6576125e5612591565b5b80604052505050565b5f6125f86123c6565b905061260482826125be565b919050565b5f67ffffffffffffffff82111561262357612622612591565b5b61262c82612521565b9050602081019050919050565b828183375f83830152505050565b5f61265961265484612609565b6125ef565b9050828152602081018484840111156126755761267461258d565b5b612680848285612639565b509392505050565b5f82601f83011261269c5761269b612589565b5b81356126ac848260208601612647565b91505092915050565b5f73ffffffffffffffffffffffffffffffffffffffff82169050919050565b5f6126de826126b5565b9050919050565b6126ee816126d4565b81146126f8575f80fd5b50565b5f81359050612709816126e5565b92915050565b5f805f60608486031215612726576127256123cf565b5b5f84013567ffffffffffffffff811115612743576127426123d3565b5b61274f86828701612688565b935050602084013567ffffffffffffffff8111156127705761276f6123d3565b5b61277c86828701612688565b925050604061278d868287016126fb565b9150509250925092565b5f819050919050565b6127a981612797565b81146127b3575f80fd5b50565b5f813590506127c4816127a0565b92915050565b5f80604083850312156127e0576127df6123cf565b5b5f6127ed858286016126fb565b92505060206127fe858286016127b6565b9150509250929050565b5f819050919050565b61281a81612808565b8114612824575f80fd5b50565b5f8135905061283581612811565b92915050565b5f8060408385031215612851576128506123cf565b5b5f61285e85828601612827565b925050602061286f858286016126fb565b9150509250929050565b61288281612797565b82525050565b5f60208201905061289b5f830184612879565b92915050565b5f805f606084860312156128b8576128b76123cf565b5b5f6128c5868287016126fb565b93505060206128d6868287016126fb565b92505060406128e7868287016127b6565b9150509250925092565b5f60208284031215612906576129056123cf565b5b5f61291384828501612827565b91505092915050565b61292581612808565b82525050565b5f60208201905061293e5f83018461291c565b92915050565b5f60ff82169050919050565b61295981612944565b82525050565b5f6020820190506129725f830184612950565b92915050565b5f6020828403121561298d5761298c6123cf565b5b5f61299a848285016126fb565b91505092915050565b5f67ffffffffffffffff8211156129bd576129bc612591565b5b6129c682612521565b9050602081019050919050565b5f6129e56129e0846129a3565b6125ef565b905082815260208101848484011115612a0157612a0061258d565b5b612a0c848285612639565b509392505050565b5f82601f830112612a2857612a27612589565b5b8135612a388482602086016129d3565b91505092915050565b5f8060408385031215612a5757612a566123cf565b5b5f612a64858286016126fb565b925050602083013567ffffffffffffffff811115612a8557612a846123d3565b5b612a9185828601612a14565b9150509250929050565b5f60208284031215612ab057612aaf6123cf565b5b5f612abd848285016127b6565b91505092915050565b5f8060408385031215612adc57612adb6123cf565b5b5f612ae9858286016126fb565b9250506020612afa858286016126fb565b9150509250929050565b7f4e487b71000000000000000000000000000000000000000000000000000000005f52602260045260245ffd5b5f6002820490506001821680612b4857607f821691505b602082108103612b5b57612b5a612b04565b5b50919050565b5f819050919050565b5f67ffffffffffffffff82169050919050565b5f819050919050565b5f612ba0612b9b612b9684612b61565b612b7d565b612b6a565b9050919050565b612bb081612b86565b82525050565b5f602082019050612bc95f830184612ba7565b92915050565b7f526563697069656e74206e6f742077686974656c6973746564000000000000005f82015250565b5f612c036019836124e9565b9150612c0e82612bcf565b602082019050919050565b5f6020820190508181035f830152612c3081612bf7565b9050919050565b612c40816126d4565b82525050565b5f606082019050612c595f830186612c37565b612c666020830185612879565b612c736040830184612879565b949350505050565b5f602082019050612c8e5f830184612c37565b92915050565b5f81519050612ca281612811565b92915050565b5f60208284031215612cbd57612cbc6123cf565b5b5f612cca84828501612c94565b91505092915050565b5f604082019050612ce65f830185612c37565b612cf3602083018461291c565b9392505050565b5f819050815f5260205f209050919050565b5f6020601f8301049050919050565b5f82821b905092915050565b5f60088302612d567fffffffffffffffffffffffffffffffffffffffffffffffffffffffffffffffff82612d1b565b612d608683612d1b565b95508019841693508086168417925050509392505050565b5f612d92612d8d612d8884612797565b612b7d565b612797565b9050919050565b5f819050919050565b612dab83612d78565b612dbf612db782612d99565b848454612d27565b825550505050565b5f90565b612dd3612dc7565b612dde818484612da2565b505050565b5b81811015612e0157612df65f82612dcb565b600181019050612de4565b5050565b601f821115612e4657612e1781612cfa565b612e2084612d0c565b81016020851015612e2f578190505b612e43612e3b85612d0c565b830182612de3565b50505b505050565b5f82821c905092915050565b5f612e665f1984600802612e4b565b1980831691505092915050565b5f612e7e8383612e57565b9150826002028217905092915050565b612e97826124df565b67ffffffffffffffff811115612eb057612eaf612591565b5b612eba8254612b31565b612ec5828285612e05565b5f60209050601f831160018114612ef6575f8415612ee4578287015190505b612eee8582612e73565b865550612f55565b601f198416612f0486612cfa565b5f5b82811015612f2b57848901518255600182019150602085019450602081019050612f06565b86831015612f485784890151612f44601f891682612e57565b8355505b6001600288020188555050505b505050505050565b7f4e487b71000000000000000000000000000000000000000000000000000000005f52601160045260245ffd5b5f612f9482612797565b9150612f9f83612797565b9250828201905080821115612fb757612fb6612f5d565b5b92915050565b5f81519050919050565b5f81905092915050565b5f612fdb82612fbd565b612fe58185612fc7565b9350612ff58185602086016124f9565b80840191505092915050565b5f61300c8284612fd1565b91508190509291505056fea2646970667358221220b5e1201561151c5171ff6817a6b2cb58976a3736cf2663ef581f23db8f97b84764736f6c63430008160033",
  "linkReferences": {},
  "deployedLinkReferences": {},
  "immutableReferences": {
    "652": [
      {
        "length": 32,
        "start": 6221
      },
      {
        "length": 32,
        "start": 6306
      },
      {
        "length": 32,
        "start": 6783
      }
    ]
  },
  "inputSourceName": "project/contracts/TokenizedAsset.sol",
  "buildInfoId": "solc-0_8_22-daa2e5efc2a3d0e1cba03208befbe4eb617c2bbc"
}