{
	"data": {
		"bytecode": {
			"linkReferences": {},
			"object": "608060405234801562000010575f80fd5b5060405162000e8c38038062000e8c833981810160405281019062000036919062000213565b335f806101000a81548173ffffffffffffffffffffffffffffffffffffffff021916908373ffffffffffffffffffffffffffffffffffffffff160217905550806001908162000086919062000499565b50506200057d565b5f604051905090565b5f80fd5b5f80fd5b5f80fd5b5f80fd5b5f601f19601f8301169050919050565b7f4e487b71000000000000000000000000000000000000000000000000000000005f52604160045260245ffd5b620000ef82620000a7565b810181811067ffffffffffffffff82111715620001115762000110620000b7565b5b80604052505050565b5f620001256200008e565b9050620001338282620000e4565b919050565b5f67ffffffffffffffff821115620001555762000154620000b7565b5b6200016082620000a7565b9050602081019050919050565b5f5b838110156200018c5780820151818401526020810190506200016f565b5f8484015250505050565b5f620001ad620001a78462000138565b6200011a565b905082815260208101848484011115620001cc57620001cb620000a3565b5b620001d98482856200016d565b509392505050565b5f82601f830112620001f857620001f76200009f565b5b81516200020a84826020860162000197565b91505092915050565b5f602082840312156200022b576200022a62000097565b5b5f82015167ffffffffffffffff8111156200024b576200024a6200009b565b5b6200025984828501620001e1565b91505092915050565b5f81519050919050565b7f4e487b71000000000000000000000000000000000000000000000000000000005f52602260045260245ffd5b5f6002820490506001821680620002b157607f821691505b602082108103620002c757620002c66200026c565b5b50919050565b5f819050815f5260205f209050919050565b5f6020601f8301049050919050565b5f82821b905092915050565b5f600883026200032b7fffffffffffffffffffffffffffffffffffffffffffffffffffffffffffffffff82620002ee565b620003378683620002ee565b95508019841693508086168417925050509392505050565b5f819050919050565b5f819050919050565b5f620003816200037b62000375846200034f565b62000358565b6200034f565b9050919050565b5f819050919050565b6200039c8362000361565b620003b4620003ab8262000388565b848454620002fa565b825550505050565b5f90565b620003ca620003bc565b620003d781848462000391565b505050565b5b81811015620003fe57620003f25f82620003c0565b600181019050620003dd565b5050565b601f8211156200044d576200041781620002cd565b6200042284620002df565b8101602085101562000432578190505b6200044a6200044185620002df565b830182620003dc565b50505b505050565b5f82821c905092915050565b5f6200046f5f198460080262000452565b1980831691505092915050565b5f6200048983836200045e565b9150826002028217905092915050565b620004a48262000262565b67ffffffffffffffff811115620004c057620004bf620000b7565b5b620004cc825462000299565b620004d982828562000402565b5f60209050601f8311600181146200050f575f8415620004fa578287015190505b6200050685826200047c565b86555062000575565b601f1984166200051f86620002cd565b5f5b82811015620005485784890151825560018201915060208501945060208101905062000521565b8683101562000568578489015162000564601f8916826200045e565b8355505b6001600288020188555050505b505050505050565b610901806200058b5f395ff3fe608060405234801561000f575f80fd5b506004361061003f575f3560e01c8063368b8772146100435780638da5cb5b1461005f578063e21f37ce1461007d575b5f80fd5b61005d600480360381019061005891906103b3565b61009b565b005b6100676101b7565b6040516100749190610439565b60405180910390f35b6100856101da565b60405161009291906104cc565b60405180910390f35b5f8054906101000a900473ffffffffffffffffffffffffffffffffffffffff1673ffffffffffffffffffffffffffffffffffffffff163373ffffffffffffffffffffffffffffffffffffffff1614610128576040517f08c379a000000000000000000000000000000000000000000000000000000000815260040161011f90610536565b60405180910390fd5b5f81511161016b576040517f08c379a00000000000000000000000000000000000000000000000000000000081526004016101629061059e565b60405180910390fd5b806001908161017a91906107bf565b507f2eef4d7dc93b2cf1a6c84be8fb8cd11a6c37391d8e1e3477cf338caf0b73deb581426040516101ac92919061089d565b60405180910390a150565b5f8054906101000a900473ffffffffffffffffffffffffffffffffffffffff1681565b600180546101e7906105e9565b80601f0160208091040260200160405190810160405280929190818152602001828054610213906105e9565b801561025e5780601f106102355761010080835404028352916020019161025e565b820191905f5260205f20905b81548152906001019060200180831161024157829003601f168201915b505050505081565b5f604051905090565b5f80fd5b5f80fd5b5f80fd5b5f80fd5b5f601f19601f8301169050919050565b7f4e487b71000000000000000000000000000000000000000000000000000000005f52604160045260245ffd5b6102c58261027f565b810181811067ffffffffffffffff821117156102e4576102e361028f565b5b80604052505050565b5f6102f6610266565b905061030282826102bc565b919050565b5f67ffffffffffffffff8211156103215761032061028f565b5b61032a8261027f565b9050602081019050919050565b828183375f83830152505050565b5f61035761035284610307565b6102ed565b9050828152602081018484840111156103735761037261027b565b5b61037e848285610337565b509392505050565b5f82601f83011261039a57610399610277565b5b81356103aa848260208601610345565b91505092915050565b5f602082840312156103c8576103c761026f565b5b5f82013567ffffffffffffffff8111156103e5576103e4610273565b5b6103f184828501610386565b91505092915050565b5f73ffffffffffffffffffffffffffffffffffffffff82169050919050565b5f610423826103fa565b9050919050565b61043381610419565b82525050565b5f60208201905061044c5f83018461042a565b92915050565b5f81519050919050565b5f82825260208201905092915050565b5f5b8381101561048957808201518184015260208101905061046e565b5f8484015250505050565b5f61049e82610452565b6104a8818561045c565b93506104b881856020860161046c565b6104c18161027f565b840191505092915050565b5f6020820190508181035f8301526104e48184610494565b905092915050565b7f4e6f74206f776e657200000000000000000000000000000000000000000000005f82015250565b5f61052060098361045c565b915061052b826104ec565b602082019050919050565b5f6020820190508181035f83015261054d81610514565b9050919050565b7f4d6573736167652063616e6e6f7420626520656d7074790000000000000000005f82015250565b5f61058860178361045c565b915061059382610554565b602082019050919050565b5f6020820190508181035f8301526105b58161057c565b9050919050565b7f4e487b71000000000000000000000000000000000000000000000000000000005f52602260045260245ffd5b5f600282049050600182168061060057607f821691505b602082108103610613576106126105bc565b5b50919050565b5f819050815f5260205f209050919050565b5f6020601f8301049050919050565b5f82821b905092915050565b5f600883026106757fffffffffffffffffffffffffffffffffffffffffffffffffffffffffffffffff8261063a565b61067f868361063a565b95508019841693508086168417925050509392505050565b5f819050919050565b5f819050919050565b5f6106c36106be6106b984610697565b6106a0565b610697565b9050919050565b5f819050919050565b6106dc836106a9565b6106f06106e8826106ca565b848454610646565b825550505050565b5f90565b6107046106f8565b61070f8184846106d3565b505050565b5b81811015610732576107275f826106fc565b600181019050610715565b5050565b601f8211156107775761074881610619565b6107518461062b565b81016020851015610760578190505b61077461076c8561062b565b830182610714565b50505b505050565b5f82821c905092915050565b5f6107975f198460080261077c565b1980831691505092915050565b5f6107af8383610788565b9150826002028217905092915050565b6107c882610452565b67ffffffffffffffff8111156107e1576107e061028f565b5b6107eb82546105e9565b6107f6828285610736565b5f60209050601f831160018114610827575f8415610815578287015190505b61081f85826107a4565b865550610886565b601f19841661083586610619565b5f5b8281101561085c57848901518255600182019150602085019450602081019050610837565b868310156108795784890151610875601f891682610788565b8355505b6001600288020188555050505b505050505050565b61089781610697565b82525050565b5f6040820190508181035f8301526108b58185610494565b90506108c4602083018461088e565b939250505056fea26469706673582212206ba7051b646b4af64f2b9b325dc6dd69a0a51a9b25c7e9791420a8eb46c74cec64736f6c63430008140033",
			"opcodes": "PUSH1 0x80 PUSH1 0x40 MSTORE CALLVALUE DUP1 ISZERO PUSH3 0x10 JUMPI PUSH0 DUP1 REVERT JUMPDEST POP PUSH1 0x40 MLOAD PUSH3 0xE8C CODESIZE SUB DUP1 PUSH3 0xE8C DUP4 CODECOPY DUP2 DUP2 ADD PUSH1 0x40 MSTORE DUP2 ADD SWAP1 PUSH3 0x36 SWAP2 SWAP1 PUSH3 0x213 JUMP JUMPDEST CALLER PUSH0 DUP1 PUSH2 0x100 EXP DUP2 SLOAD DUP2 PUSH20 0xFFFFFFFFFFFFFFFFFFFFFFFFFFFFFFFFFFFFFFFF MUL NOT AND SWAP1 DUP4 PUSH20 0xFFFFFFFFFFFFFFFFFFFFFFFFFFFFFFFFFFFFFFFF AND MUL OR SWAP1 SSTORE POP DUP1 PUSH1 0x1 SWAP1 DUP2 PUSH3 0x86 SWAP2 SWAP1 PUSH3 0x499 JUMP JUMPDEST POP POP PUSH3 0x57D JUMP JUMPDEST PUSH0 PUSH1 0x40 MLOAD SWAP1 POP SWAP1 JUMP JUMPDEST PUSH0 DUP1 REVERT JUMPDEST PUSH0 DUP1 REVERT JUMPDEST PUSH0 DUP1 REVERT JUMPDEST PUSH0 DUP1 REVERT JUMPDEST PUSH0 PUSH1 0x1F NOT PUSH1 0x1F DUP4 ADD AND SWAP1 POP SWAP2 SWAP1 POP JUMP JUMPDEST PUSH32 0x4E487B7100000000000000000000000000000000000000000000000000000000 PUSH0 MSTORE PUSH1 0x41 PUSH1 0x4 MSTORE PUSH1 0x24 PUSH0 REVERT JUMPDEST PUSH3 0xEF DUP3 PUSH3 0xA7 JUMP JUMPDEST DUP2 ADD DUP2 DUP2 LT PUSH8 0xFFFFFFFFFFFFFFFF DUP3 GT OR ISZERO PUSH3 0x111 JUMPI PUSH3 0x110 PUSH3 0xB7 JUMP JUMPDEST JUMPDEST DUP1 PUSH1 0x40 MSTORE POP POP POP JUMP JUMPDEST PUSH0 PUSH3 0x125 PUSH3 0x8E JUMP JUMPDEST SWAP1 POP PUSH3 0x133 DUP3 DUP3 PUSH3 0xE4 JUMP JUMPDEST SWAP2 SWAP1 POP JUMP JUMPDEST PUSH0 PUSH8 0xFFFFFFFFFFFFFFFF DUP3 GT ISZERO PUSH3 0x155 JUMPI PUSH3 0x154 PUSH3 0xB7 JUMP JUMPDEST JUMPDEST PUSH3 0x160 DUP3 PUSH3 0xA7 JUMP JUMPDEST SWAP1 POP PUSH1 0x20 DUP2 ADD SWAP1 POP SWAP2 SWAP1 POP JUMP JUMPDEST PUSH0 JUMPDEST DUP4 DUP2 LT ISZERO PUSH3 0x18C JUMPI DUP1 DUP3 ADD MLOAD DUP2 DUP5 ADD MSTORE PUSH1 0x20 DUP2 ADD SWAP1 POP PUSH3 0x16F JUMP JUMPDEST PUSH0 DUP5 DUP5 ADD MSTORE POP POP POP POP JUMP JUMPDEST PUSH0 PUSH3 0x1AD PUSH3 0x1A7 DUP5 PUSH3 0x138 JUMP JUMPDEST PUSH3 0x11A JUMP JUMPDEST SWAP1 POP DUP3 DUP2 MSTORE PUSH1 0x20 DUP2 ADD DUP5 DUP5 DUP5 ADD GT ISZERO PUSH3 0x1CC JUMPI PUSH3 0x1CB PUSH3 0xA3 JUMP JUMPDEST JUMPDEST PUSH3 0x1D9 DUP5 DUP3 DUP6 PUSH3 0x16D JUMP JUMPDEST POP SWAP4 SWAP3 POP POP POP JUMP JUMPDEST PUSH0 DUP3 PUSH1 0x1F DUP4 ADD SLT PUSH3 0x1F8 JUMPI PUSH3 0x1F7 PUSH3 0x9F JUMP JUMPDEST JUMPDEST DUP2 MLOAD PUSH3 0x20A DUP5 DUP3 PUSH1 0x20 DUP7 ADD PUSH3 0x197 JUMP JUMPDEST SWAP2 POP POP SWAP3 SWAP2 POP POP JUMP JUMPDEST PUSH0 PUSH1 0x20 DUP3 DUP5 SUB SLT ISZERO PUSH3 0x22B JUMPI PUSH3 0x22A PUSH3 0x97 JUMP JUMPDEST JUMPDEST PUSH0 DUP3 ADD MLOAD PUSH8 0xFFFFFFFFFFFFFFFF DUP2 GT ISZERO PUSH3 0x24B JUMPI PUSH3 0x24A PUSH3 0x9B JUMP JUMPDEST JUMPDEST PUSH3 0x259 DUP5 DUP3 DUP6 ADD PUSH3 0x1E1 JUMP JUMPDEST SWAP2 POP POP SWAP3 SWAP2 POP POP JUMP JUMPDEST PUSH0 DUP2 MLOAD SWAP1 POP SWAP2 SWAP1 POP JUMP JUMPDEST PUSH32 0x4E487B7100000000000000000000000000000000000000000000000000000000 PUSH0 MSTORE PUSH1 0x22 PUSH1 0x4 MSTORE PUSH1 0x24 PUSH0 REVERT JUMPDEST PUSH0 PUSH1 0x2 DUP3 DIV SWAP1 POP PUSH1 0x1 DUP3 AND DUP1 PUSH3 0x2B1 JUMPI PUSH1 0x7F DUP3 AND SWAP2 POP JUMPDEST PUSH1 0x20 DUP3 LT DUP2 SUB PUSH3 0x2C7 JUMPI PUSH3 0x2C6 PUSH3 0x26C JUMP JUMPDEST JUMPDEST POP SWAP2 SWAP1 POP JUMP JUMPDEST PUSH0 DUP2 SWAP1 POP DUP2 PUSH0 MSTORE PUSH1 0x20 PUSH0 KECCAK256 SWAP1 POP SWAP2 SWAP1 POP JUMP JUMPDEST PUSH0 PUSH1 0x20 PUSH1 0x1F DUP4 ADD DIV SWAP1 POP SWAP2 SWAP1 POP JUMP JUMPDEST PUSH0 DUP3 DUP3 SHL SWAP1 POP SWAP3 SWAP2 POP POP JUMP JUMPDEST PUSH0 PUSH1 0x8 DUP4 MUL PUSH3 0x32B PUSH32 0xFFFFFFFFFFFFFFFFFFFFFFFFFFFFFFFFFFFFFFFFFFFFFFFFFFFFFFFFFFFFFFFF DUP3 PUSH3 0x2EE JUMP JUMPDEST PUSH3 0x337 DUP7 DUP4 PUSH3 0x2EE JUMP JUMPDEST SWAP6 POP DUP1 NOT DUP5 AND SWAP4 POP DUP1 DUP7 AND DUP5 OR SWAP3 POP POP POP SWAP4 SWAP3 POP POP POP JUMP JUMPDEST PUSH0 DUP2 SWAP1 POP SWAP2 SWAP1 POP JUMP JUMPDEST PUSH0 DUP2 SWAP1 POP SWAP2 SWAP1 POP JUMP JUMPDEST PUSH0 PUSH3 0x381 PUSH3 0x37B PUSH3 0x375 DUP5 PUSH3 0x34F JUMP JUMPDEST PUSH3 0x358 JUMP JUMPDEST PUSH3 0x34F JUMP JUMPDEST SWAP1 POP SWAP2 SWAP1 POP JUMP JUMPDEST PUSH0 DUP2 SWAP1 POP SWAP2 SWAP1 POP JUMP JUMPDEST PUSH3 0x39C DUP4 PUSH3 0x361 JUMP JUMPDEST PUSH3 0x3B4 PUSH3 0x3AB DUP3 PUSH3 0x388 JUMP JUMPDEST DUP5 DUP5 SLOAD PUSH3 0x2FA JUMP JUMPDEST DUP3 SSTORE POP POP POP POP JUMP JUMPDEST PUSH0 SWAP1 JUMP JUMPDEST PUSH3 0x3CA PUSH3 0x3BC JUMP JUMPDEST PUSH3 0x3D7 DUP2 DUP5 DUP5 PUSH3 0x391 JUMP JUMPDEST POP POP POP JUMP JUMPDEST JUMPDEST DUP2 DUP2 LT ISZERO PUSH3 0x3FE JUMPI PUSH3 0x3F2 PUSH0 DUP3 PUSH3 0x3C0 JUMP JUMPDEST PUSH1 0x1 DUP2 ADD SWAP1 POP PUSH3 0x3DD JUMP JUMPDEST POP POP JUMP JUMPDEST PUSH1 0x1F DUP3 GT ISZERO PUSH3 0x44D JUMPI PUSH3 0x417 DUP2 PUSH3 0x2CD JUMP JUMPDEST PUSH3 0x422 DUP5 PUSH3 0x2DF JUMP JUMPDEST DUP2 ADD PUSH1 0x20 DUP6 LT ISZERO PUSH3 0x432 JUMPI DUP2 SWAP1 POP JUMPDEST PUSH3 0x44A PUSH3 0x441 DUP6 PUSH3 0x2DF JUMP JUMPDEST DUP4 ADD DUP3 PUSH3 0x3DC JUMP JUMPDEST POP POP JUMPDEST POP POP POP JUMP JUMPDEST PUSH0 DUP3 DUP3 SHR SWAP1 POP SWAP3 SWAP2 POP POP JUMP JUMPDEST PUSH0 PUSH3 0x46F PUSH0 NOT DUP5 PUSH1 0x8 MUL PUSH3 0x452 JUMP JUMPDEST NOT DUP1 DUP4 AND SWAP2 POP POP SWAP3 SWAP2 POP POP JUMP JUMPDEST PUSH0 PUSH3 0x489 DUP4 DUP4 PUSH3 0x45E JUMP JUMPDEST SWAP2 POP DUP3 PUSH1 0x2 MUL DUP3 OR SWAP1 POP SWAP3 SWAP2 POP POP JUMP JUMPDEST PUSH3 0x4A4 DUP3 PUSH3 0x262 JUMP JUMPDEST PUSH8 0xFFFFFFFFFFFFFFFF DUP2 GT ISZERO PUSH3 0x4C0 JUMPI PUSH3 0x4BF PUSH3 0xB7 JUMP JUMPDEST JUMPDEST PUSH3 0x4CC DUP3 SLOAD PUSH3 0x299 JUMP JUMPDEST PUSH3 0x4D9 DUP3 DUP3 DUP6 PUSH3 0x402 JUMP JUMPDEST PUSH0 PUSH1 0x20 SWAP1 POP PUSH1 0x1F DUP4 GT PUSH1 0x1 DUP2 EQ PUSH3 0x50F JUMPI PUSH0 DUP5 ISZERO PUSH3 0x4FA JUMPI DUP3 DUP8 ADD MLOAD SWAP1 POP JUMPDEST PUSH3 0x506 DUP6 DUP3 PUSH3 0x47C JUMP JUMPDEST DUP7 SSTORE POP PUSH3 0x575 JUMP JUMPDEST PUSH1 0x1F NOT DUP5 AND PUSH3 0x51F DUP7 PUSH3 0x2CD JUMP JUMPDEST PUSH0 JUMPDEST DUP3 DUP2 LT ISZERO PUSH3 0x548 JUMPI DUP5 DUP10 ADD MLOAD DUP3 SSTORE PUSH1 0x1 DUP3 ADD SWAP2 POP PUSH1 0x20 DUP6 ADD SWAP5 POP PUSH1 0x20 DUP2 ADD SWAP1 POP PUSH3 0x521 JUMP JUMPDEST DUP7 DUP4 LT ISZERO PUSH3 0x568 JUMPI DUP5 DUP10 ADD MLOAD PUSH3 0x564 PUSH1 0x1F DUP10 AND DUP3 PUSH3 0x45E JUMP JUMPDEST DUP4 SSTORE POP JUMPDEST PUSH1 0x1 PUSH1 0x2 DUP9 MUL ADD DUP9 SSTORE POP POP POP JUMPDEST POP POP POP POP POP POP JUMP JUMPDEST PUSH2 0x901 DUP1 PUSH3 0x58B PUSH0 CODECOPY PUSH0 RETURN INVALID PUSH1 0x80 PUSH1 0x40 MSTORE CALLVALUE DUP1 ISZERO PUSH2 0xF JUMPI PUSH0 DUP1 REVERT JUMPDEST POP PUSH1 0x4 CALLDATASIZE LT PUSH2 0x3F JUMPI PUSH0 CALLDATALOAD PUSH1 0xE0 SHR DUP1 PUSH4 0x368B8772 EQ PUSH2 0x43 JUMPI DUP1 PUSH4 0x8DA5CB5B EQ PUSH2 0x5F JUMPI DUP1 PUSH4 0xE21F37CE EQ PUSH2 0x7D JUMPI JUMPDEST PUSH0 DUP1 REVERT JUMPDEST PUSH2 0x5D PUSH1 0x4 DUP1 CALLDATASIZE SUB DUP2 ADD SWAP1 PUSH2 0x58 SWAP2 SWAP1 PUSH2 0x3B3 JUMP JUMPDEST PUSH2 0x9B JUMP JUMPDEST STOP JUMPDEST PUSH2 0x67 PUSH2 0x1B7 JUMP JUMPDEST PUSH1 0x40 MLOAD PUSH2 0x74 SWAP2 SWAP1 PUSH2 0x439 JUMP JUMPDEST PUSH1 0x40 MLOAD DUP1 SWAP2 SUB SWAP1 RETURN JUMPDEST PUSH2 0x85 PUSH2 0x1DA JUMP JUMPDEST PUSH1 0x40 MLOAD PUSH2 0x92 SWAP2 SWAP1 PUSH2 0x4CC JUMP JUMPDEST PUSH1 0x40 MLOAD DUP1 SWAP2 SUB SWAP1 RETURN JUMPDEST PUSH0 DUP1 SLOAD SWAP1 PUSH2 0x100 EXP SWAP1 DIV PUSH20 0xFFFFFFFFFFFFFFFFFFFFFFFFFFFFFFFFFFFFFFFF AND PUSH20 0xFFFFFFFFFFFFFFFFFFFFFFFFFFFFFFFFFFFFFFFF AND CALLER PUSH20 0xFFFFFFFFFFFFFFFFFFFFFFFFFFFFFFFFFFFFFFFF AND EQ PUSH2 0x128 JUMPI PUSH1 0x40 MLOAD PUSH32 0x8C379A000000000000000000000000000000000000000000000000000000000 DUP2 MSTORE PUSH1 0x4 ADD PUSH2 0x11F SWAP1 PUSH2 0x536 JUMP JUMPDEST PUSH1 0x40 MLOAD DUP1 SWAP2 SUB SWAP1 REVERT JUMPDEST PUSH0 DUP2 MLOAD GT PUSH2 0x16B JUMPI PUSH1 0x40 MLOAD PUSH32 0x8C379A000000000000000000000000000000000000000000000000000000000 DUP2 MSTORE PUSH1 0x4 ADD PUSH2 0x162 SWAP1 PUSH2 0x59E JUMP JUMPDEST PUSH1 0x40 MLOAD DUP1 SWAP2 SUB SWAP1 REVERT JUMPDEST DUP1 PUSH1 0x1 SWAP1 DUP2 PUSH2 0x17A SWAP2 SWAP1 PUSH2 0x7BF JUMP JUMPDEST POP PUSH32 0x2EEF4D7DC93B2CF1A6C84BE8FB8CD11A6C37391D8E1E3477CF338CAF0B73DEB5 DUP2 TIMESTAMP PUSH1 0x40 MLOAD PUSH2 0x1AC SWAP3 SWAP2 SWAP1 PUSH2 0x89D JUMP JUMPDEST PUSH1 0x40 MLOAD DUP1 SWAP2 SUB SWAP1 LOG1 POP JUMP JUMPDEST PUSH0 DUP1 SLOAD SWAP1 PUSH2 0x100 EXP SWAP1 DIV PUSH20 0xFFFFFFFFFFFFFFFFFFFFFFFFFFFFFFFFFFFFFFFF AND DUP2 JUMP JUMPDEST PUSH1 0x1 DUP1 SLOAD PUSH2 0x1E7 SWAP1 PUSH2 0x5E9 JUMP JUMPDEST DUP1 PUSH1 0x1F ADD PUSH1 0x20 DUP1 SWAP2 DIV MUL PUSH1 0x20 ADD PUSH1 0x40 MLOAD SWAP1 DUP2 ADD PUSH1 0x40 MSTORE DUP1 SWAP3 SWAP2 SWAP1 DUP2 DUP2 MSTORE PUSH1 0x20 ADD DUP3 DUP1 SLOAD PUSH2 0x213 SWAP1 PUSH2 0x5E9 JUMP JUMPDEST DUP1 ISZERO PUSH2 0x25E JUMPI DUP1 PUSH1 0x1F LT PUSH2 0x235 JUMPI PUSH2 0x100 DUP1 DUP4 SLOAD DIV MUL DUP4 MSTORE SWAP2 PUSH1 0x20 ADD SWAP2 PUSH2 0x25E JUMP JUMPDEST DUP3 ADD SWAP2 SWAP1 PUSH0 MSTORE PUSH1 0x20 PUSH0 KECCAK256 SWAP1 JUMPDEST DUP2 SLOAD DUP2 MSTORE SWAP1 PUSH1 0x1 ADD SWAP1 PUSH1 0x20 ADD DUP1 DUP4 GT PUSH2 0x241 JUMPI DUP3 SWAP1 SUB PUSH1 0x1F AND DUP3 ADD SWAP2 JUMPDEST POP POP POP POP POP DUP2 JUMP JUMPDEST PUSH0 PUSH1 0x40 MLOAD SWAP1 POP SWAP1 JUMP JUMPDEST PUSH0 DUP1 REVERT JUMPDEST PUSH0 DUP1 REVERT JUMPDEST PUSH0 DUP1 REVERT JUMPDEST PUSH0 DUP1 REVERT JUMPDEST PUSH0 PUSH1 0x1F NOT PUSH1 0x1F DUP4 ADD AND SWAP1 POP SWAP2 SWAP1 POP JUMP JUMPDEST PUSH32 0x4E487B7100000000000000000000000000000000000000000000000000000000 PUSH0 MSTORE PUSH1 0x41 PUSH1 0x4 MSTORE PUSH1 0x24 PUSH0 REVERT JUMPDEST PUSH2 0x2C5 DUP3 PUSH2 0x27F JUMP JUMPDEST DUP2 ADD DUP2 DUP2 LT PUSH8 0xFFFFFFFFFFFFFFFF DUP3 GT OR ISZERO PUSH2 0x2E4 JUMPI PUSH2 0x2E3 PUSH2 0x28F JUMP JUMPDEST JUMPDEST DUP1 PUSH1 0x40 MSTORE POP POP POP JUMP JUMPDEST PUSH0 PUSH2 0x2F6 PUSH2 0x266 JUMP JUMPDEST SWAP1 POP PUSH2 0x302 DUP3 DUP3 PUSH2 0x2BC JUMP JUMPDEST SWAP2 SWAP1 POP JUMP JUMPDEST PUSH0 PUSH8 0xFFFFFFFFFFFFFFFF DUP3 GT ISZERO PUSH2 0x321 JUMPI PUSH2 0x320 PUSH2 0x28F JUMP JUMPDEST JUMPDEST PUSH2 0x32A DUP3 PUSH2 0x27F JUMP JUMPDEST SWAP1 POP PUSH1 0x20 DUP2 ADD SWAP1 POP SWAP2 SWAP1 POP JUMP JUMPDEST DUP3 DUP2 DUP4 CALLDATACOPY PUSH0 DUP4 DUP4 ADD MSTORE POP POP POP JUMP JUMPDEST PUSH0 PUSH2 0x357 PUSH2 0x352 DUP5 PUSH2 0x307 JUMP JUMPDEST PUSH2 0x2ED JUMP JUMPDEST SWAP1 POP DUP3 DUP2 MSTORE PUSH1 0x20 DUP2 ADD DUP5 DUP5 DUP5 ADD GT ISZERO PUSH2 0x373 JUMPI PUSH2 0x372 PUSH2 0x27B JUMP JUMPDEST JUMPDEST PUSH2 0x37E DUP5 DUP3 DUP6 PUSH2 0x337 JUMP JUMPDEST POP SWAP4 SWAP3 POP POP POP JUMP JUMPDEST PUSH0 DUP3 PUSH1 0x1F DUP4 ADD SLT PUSH2 0x39A JUMPI PUSH2 0x399 PUSH2 0x277 JUMP JUMPDEST JUMPDEST DUP2 CALLDATALOAD PUSH2 0x3AA DUP5 DUP3 PUSH1 0x20 DUP7 ADD PUSH2 0x345 JUMP JUMPDEST SWAP2 POP POP SWAP3 SWAP2 POP POP JUMP JUMPDEST PUSH0 PUSH1 0x20 DUP3 DUP5 SUB SLT ISZERO PUSH2 0x3C8 JUMPI PUSH2 0x3C7 PUSH2 0x26F JUMP JUMPDEST JUMPDEST PUSH0 DUP3 ADD CALLDATALOAD PUSH8 0xFFFFFFFFFFFFFFFF DUP2 GT ISZERO PUSH2 0x3E5 JUMPI PUSH2 0x3E4 PUSH2 0x273 JUMP JUMPDEST JUMPDEST PUSH2 0x3F1 DUP5 DUP3 DUP6 ADD PUSH2 0x386 JUMP JUMPDEST SWAP2 POP POP SWAP3 SWAP2 POP POP JUMP JUMPDEST PUSH0 PUSH20 0xFFFFFFFFFFFFFFFFFFFFFFFFFFFFFFFFFFFFFFFF DUP3 AND SWAP1 POP SWAP2 SWAP1 POP JUMP JUMPDEST PUSH0 PUSH2 0x423 DUP3 PUSH2 0x3FA JUMP JUMPDEST SWAP1 POP SWAP2 SWAP1 POP JUMP JUMPDEST PUSH2 0x433 DUP2 PUSH2 0x419 JUMP JUMPDEST DUP3 MSTORE POP POP JUMP JUMPDEST PUSH0 PUSH1 0x20 DUP3 ADD SWAP1 POP PUSH2 0x44C PUSH0 DUP4 ADD DUP5 PUSH2 0x42A JUMP JUMPDEST SWAP3 SWAP2 POP POP JUMP JUMPDEST PUSH0 DUP2 MLOAD SWAP1 POP SWAP2 SWAP1 POP JUMP JUMPDEST PUSH0 DUP3 DUP3 MSTORE PUSH1 0x20 DUP3 ADD SWAP1 POP SWAP3 SWAP2 POP POP JUMP JUMPDEST PUSH0 JUMPDEST DUP4 DUP2 LT ISZERO PUSH2 0x489 JUMPI DUP1 DUP3 ADD MLOAD DUP2 DUP5 ADD MSTORE PUSH1 0x20 DUP2 ADD SWAP1 POP PUSH2 0x46E JUMP JUMPDEST PUSH0 DUP5 DUP5 ADD MSTORE POP POP POP POP JUMP JUMPDEST PUSH0 PUSH2 0x49E DUP3 PUSH2 0x452 JUMP JUMPDEST PUSH2 0x4A8 DUP2 DUP6 PUSH2 0x45C JUMP JUMPDEST SWAP4 POP PUSH2 0x4B8 DUP2 DUP6 PUSH1 0x20 DUP7 ADD PUSH2 0x46C JUMP JUMPDEST PUSH2 0x4C1 DUP2 PUSH2 0x27F JUMP JUMPDEST DUP5 ADD SWAP2 POP POP SWAP3 SWAP2 POP POP JUMP JUMPDEST PUSH0 PUSH1 0x20 DUP3 ADD SWAP1 POP DUP2 DUP2 SUB PUSH0 DUP4 ADD MSTORE PUSH2 0x4E4 DUP2 DUP5 PUSH2 0x494 JUMP JUMPDEST SWAP1 POP SWAP3 SWAP2 POP POP JUMP JUMPDEST PUSH32 0x4E6F74206F776E65720000000000000000000000000000000000000000000000 PUSH0 DUP3 ADD MSTORE POP JUMP JUMPDEST PUSH0 PUSH2 0x520 PUSH1 0x9 DUP4 PUSH2 0x45C JUMP JUMPDEST SWAP2 POP PUSH2 0x52B DUP3 PUSH2 0x4EC JUMP JUMPDEST PUSH1 0x20 DUP3 ADD SWAP1 POP SWAP2 SWAP1 POP JUMP JUMPDEST PUSH0 PUSH1 0x20 DUP3 ADD SWAP1 POP DUP2 DUP2 SUB PUSH0 DUP4 ADD MSTORE PUSH2 0x54D DUP2 PUSH2 0x514 JUMP JUMPDEST SWAP1 POP SWAP2 SWAP1 POP JUMP JUMPDEST PUSH32 0x4D6573736167652063616E6E6F7420626520656D707479000000000000000000 PUSH0 DUP3 ADD MSTORE POP JUMP JUMPDEST PUSH0 PUSH2 0x588 PUSH1 0x17 DUP4 PUSH2 0x45C JUMP JUMPDEST SWAP2 POP PUSH2 0x593 DUP3 PUSH2 0x554 JUMP JUMPDEST PUSH1 0x20 DUP3 ADD SWAP1 POP SWAP2 SWAP1 POP JUMP JUMPDEST PUSH0 PUSH1 0x20 DUP3 ADD SWAP1 POP DUP2 DUP2 SUB PUSH0 DUP4 ADD MSTORE PUSH2 0x5B5 DUP2 PUSH2 0x57C JUMP JUMPDEST SWAP1 POP SWAP2 SWAP1 POP JUMP JUMPDEST PUSH32 0x4E487B7100000000000000000000000000000000000000000000000000000000 PUSH0 MSTORE PUSH1 0x22 PUSH1 0x4 MSTORE PUSH1 0x24 PUSH0 REVERT JUMPDEST PUSH0 PUSH1 0x2 DUP3 DIV SWAP1 POP PUSH1 0x1 DUP3 AND DUP1 PUSH2 0x600 JUMPI PUSH1 0x7F DUP3 AND SWAP2 POP JUMPDEST PUSH1 0x20 DUP3 LT DUP2 SUB PUSH2 0x613 JUMPI PUSH2 0x612 PUSH2 0x5BC JUMP JUMPDEST JUMPDEST POP SWAP2 SWAP1 POP JUMP JUMPDEST PUSH0 DUP2 SWAP1 POP DUP2 PUSH0 MSTORE PUSH1 0x20 PUSH0 KECCAK256 SWAP1 POP SWAP2 SWAP1 POP JUMP JUMPDEST PUSH0 PUSH1 0x20 PUSH1 0x1F DUP4 ADD DIV SWAP1 POP SWAP2 SWAP1 POP JUMP JUMPDEST PUSH0 DUP3 DUP3 SHL SWAP1 POP SWAP3 SWAP2 POP POP JUMP JUMPDEST PUSH0 PUSH1 0x8 DUP4 MUL PUSH2 0x675 PUSH32 0xFFFFFFFFFFFFFFFFFFFFFFFFFFFFFFFFFFFFFFFFFFFFFFFFFFFFFFFFFFFFFFFF DUP3 PUSH2 0x63A JUMP JUMPDEST PUSH2 0x67F DUP7 DUP4 PUSH2 0x63A JUMP JUMPDEST SWAP6 POP DUP1 NOT DUP5 AND SWAP4 POP DUP1 DUP7 AND DUP5 OR SWAP3 POP POP POP SWAP4 SWAP3 POP POP POP JUMP JUMPDEST PUSH0 DUP2 SWAP1 POP SWAP2 SWAP1 POP JUMP JUMPDEST PUSH0 DUP2 SWAP1 POP SWAP2 SWAP1 POP JUMP JUMPDEST PUSH0 PUSH2 0x6C3 PUSH2 0x6BE PUSH2 0x6B9 DUP5 PUSH2 0x697 JUMP JUMPDEST PUSH2 0x6A0 JUMP JUMPDEST PUSH2 0x697 JUMP JUMPDEST SWAP1 POP SWAP2 SWAP1 POP JUMP JUMPDEST PUSH0 DUP2 SWAP1 POP SWAP2 SWAP1 POP JUMP JUMPDEST PUSH2 0x6DC DUP4 PUSH2 0x6A9 JUMP JUMPDEST PUSH2 0x6F0 PUSH2 0x6E8 DUP3 PUSH2 0x6CA JUMP JUMPDEST DUP5 DUP5 SLOAD PUSH2 0x646 JUMP JUMPDEST DUP3 SSTORE POP POP POP POP JUMP JUMPDEST PUSH0 SWAP1 JUMP JUMPDEST PUSH2 0x704 PUSH2 0x6F8 JUMP JUMPDEST PUSH2 0x70F DUP2 DUP5 DUP5 PUSH2 0x6D3 JUMP JUMPDEST POP POP POP JUMP JUMPDEST JUMPDEST DUP2 DUP2 LT ISZERO PUSH2 0x732 JUMPI PUSH2 0x727 PUSH0 DUP3 PUSH2 0x6FC JUMP JUMPDEST PUSH1 0x1 DUP2 ADD SWAP1 POP PUSH2 0x715 JUMP JUMPDEST POP POP JUMP JUMPDEST PUSH1 0x1F DUP3 GT ISZERO PUSH2 0x777 JUMPI PUSH2 0x748 DUP2 PUSH2 0x619 JUMP JUMPDEST PUSH2 0x751 DUP5 PUSH2 0x62B JUMP JUMPDEST DUP2 ADD PUSH1 0x20 DUP6 LT ISZERO PUSH2 0x760 JUMPI DUP2 SWAP1 POP JUMPDEST PUSH2 0x774 PUSH2 0x76C DUP6 PUSH2 0x62B JUMP JUMPDEST DUP4 ADD DUP3 PUSH2 0x714 JUMP JUMPDEST POP POP JUMPDEST POP POP POP JUMP JUMPDEST PUSH0 DUP3 DUP3 SHR SWAP1 POP SWAP3 SWAP2 POP POP JUMP JUMPDEST PUSH0 PUSH2 0x797 PUSH0 NOT DUP5 PUSH1 0x8 MUL PUSH2 0x77C JUMP JUMPDEST NOT DUP1 DUP4 AND SWAP2 POP POP SWAP3 SWAP2 POP POP JUMP JUMPDEST PUSH0 PUSH2 0x7AF DUP4 DUP4 PUSH2 0x788 JUMP JUMPDEST SWAP2 POP DUP3 PUSH1 0x2 MUL DUP3 OR SWAP1 POP SWAP3 SWAP2 POP POP JUMP JUMPDEST PUSH2 0x7C8 DUP3 PUSH2 0x452 JUMP JUMPDEST PUSH8 0xFFFFFFFFFFFFFFFF DUP2 GT ISZERO PUSH2 0x7E1 JUMPI PUSH2 0x7E0 PUSH2 0x28F JUMP JUMPDEST JUMPDEST PUSH2 0x7EB DUP3 SLOAD PUSH2 0x5E9 JUMP JUMPDEST PUSH2 0x7F6 DUP3 DUP3 DUP6 PUSH2 0x736 JUMP JUMPDEST PUSH0 PUSH1 0x20 SWAP1 POP PUSH1 0x1F DUP4 GT PUSH1 0x1 DUP2 EQ PUSH2 0x827 JUMPI PUSH0 DUP5 ISZERO PUSH2 0x815 JUMPI DUP3 DUP8 ADD MLOAD SWAP1 POP JUMPDEST PUSH2 0x81F DUP6 DUP3 PUSH2 0x7A4 JUMP JUMPDEST DUP7 SSTORE POP PUSH2 0x886 JUMP JUMPDEST PUSH1 0x1F NOT DUP5 AND PUSH2 0x835 DUP7 PUSH2 0x619 JUMP JUMPDEST PUSH0 JUMPDEST DUP3 DUP2 LT ISZERO PUSH2 0x85C JUMPI DUP5 DUP10 ADD MLOAD DUP3 SSTORE PUSH1 0x1 DUP3 ADD SWAP2 POP PUSH1 0x20 DUP6 ADD SWAP5 POP PUSH1 0x20 DUP2 ADD SWAP1 POP PUSH2 0x837 JUMP JUMPDEST DUP7 DUP4 LT ISZERO PUSH2 0x879 JUMPI DUP5 DUP10 ADD MLOAD PUSH2 0x875 PUSH1 0x1F DUP10 AND DUP3 PUSH2 0x788 JUMP JUMPDEST DUP4 SSTORE POP JUMPDEST PUSH1 0x1 PUSH1 0x2 DUP9 MUL ADD DUP9 SSTORE POP POP POP JUMPDEST POP POP POP POP POP POP JUMP JUMPDEST PUSH2 0x897 DUP2 PUSH2 0x697 JUMP JUMPDEST DUP3 MSTORE POP POP JUMP JUMPDEST PUSH0 PUSH1 0x40 DUP3 ADD SWAP1 POP DUP2 DUP2 SUB PUSH0 DUP4 ADD MSTORE PUSH2 0x8B5 DUP2 DUP6 PUSH2 0x494 JUMP JUMPDEST SWAP1 POP PUSH2 0x8C4 PUSH1 0x20 DUP4 ADD DUP5 PUSH2 0x88E JUMP JUMPDEST SWAP4 SWAP3 POP POP POP JUMP INVALID LOG2 PUSH5 0x6970667358 0x22 SLT KECCAK256 PUSH12 0xA7051B646B4AF64F2B9B325D 0xC6 0xDD PUSH10 0xA0A51A9B25C7E9791420 0xA8 0xEB CHAINID 0xC7 0x4C 0xEC PUSH5 0x736F6C6343 STOP ADDMOD EQ STOP CALLER "
		},
		"gasEstimates": {
			"creation": {
				"codeDepositCost": "461000",
				"executionCost": "infinite",
				"totalCost": "infinite"
			},
			"external": {
				"message()": "infinite",
				"owner()": "2505",
				"setMessage(string)": "infinite"
			}
		},
		"methodIdentifiers": {
			"message()": "e21f37ce",
			"owner()": "8da5cb5b",
			"setMessage(string)": "368b8772"
		}
	},
	"abi": [
		{
			"inputs": [
				{
					"internalType": "string",
					"name": "initialMessage",
					"type": "string"
				}
			],
			"stateMutability": "nonpayable",
			"type": "constructor"
		},
		{
			"anonymous": false,
			"inputs": [
				{
					"indexed": false,
					"internalType": "string",
					"name": "newMessage",
					"type": "string"
				},
				{
					"indexed": false,
					"internalType": "uint256",
					"name": "timestamp",
					"type": "uint256"
				}
			],
			"name": "MessageUpdated",
			"type": "event"
		},
		{
			"inputs": [],
			"name": "message",
			"outputs": [
				{
					"internalType": "string",
					"name": "",
					"type": "string"
				}
			],
			"stateMutability": "view",
			"type": "function"
		},
		{
			"inputs": [],
			"name": "owner",
			"outputs": [
				{
					"internalType": "address",
					"name": "",
					"type": "address"
				}
			],
			"stateMutability": "view",
			"type": "function"
		},
		{
			"inputs": [
				{
					"internalType": "string",
					"name": "newMessage",
					"type": "string"
				}
			],
			"name": "setMessage",
			"outputs": [],
			"stateMutability": "nonpayable",
			"type": "function"
		}
	]
}